:10000000002C000000020000D010000000000000E2
:1000100000000000000000000000000000000000E0
:1000200002369D0102200001023DA60231FDD2AF41
:1000300032000002081ED2AF32000002080ED2AF1A
:100040003200000224570000000000020816BB0125
:100050000689828A83E0225002E722BBFE02E32265
:1000600089828A83E49322BB010689828A83F022F3
:100070005002F722BBFE01F322EF8DF0A4A8F0CFCF
:100080008CF0A428CE8DF0A42EFE22BC000BBE0066
:1000900029EF8DF084FFADF022E4CCF875F008EF85
:1000A0002FFFEE33FEEC33FCEE9DEC984005FCEEAA
:1000B0009DFE0FD5F0E9E4CEFD22EDF8F5F0EE84DB
:1000C00020D21CFEADF075F008EF2FFFED33FD40A0
:1000D00007985006D5F0F222C398FD0FD5F0EA221A
:1000E000C2D5EC30E709B2D5E4C39DFDE49CFCEE3B
:1000F00030E715B2D5E4C39FFFE49EFE12086BC340
:10010000E49DFDE49CFC800312086B30D507C3E43A
:100110009FFFE49EFE22C5F0F8A3E028F0C5F0F8AA
:10012000E582158270021583E038F022BB010A894E
:10013000828A83E0F5F0A3E022500687F009E719F0
:1001400022BBFE07E3F5F009E3192289828A83E4E2
:1001500093F5F074019322BB0110E58229F582E545
:10016000833AF583E0F5F0A3E0225009E92582F80F
:1001700086F008E622BBFE0AE92582F8E2F5F008DF
:10018000E222E5832AF583E993F5F0A3E99322BB04
:10019000010DC58229C582C5833AC5830208F65080
:1001A00011C58229F808E5F026F618F5F0E5823643
:1001B000F622BBFE11C58229F808E225F0F5F0F21F
:1001C00018E23582F222F8E58229F582E5832AF5E4
:1001D0008374019325F0F5F0E4933822BB010A897A
:1001E000828A83F0E5F0A3F0225006F709A7F01900
:1001F00022BBFE06F3E5F009F31922F8BB0111E575
:100200008229F582E5833AF583E8F0E5F0A3F02250
:100210005009E92582C8F608A6F022BBFE09E925A7
:1002200082C8F2E5F008F222EF2BFFEE3AFEED393C
:10023000FDEC38FC22C3EF9BFFEE9AFEED99FDEC3E
:1002400098FC22E88FF0A4CC8BF0A42CFCE98EF073
:10025000A42CFC8AF0EDA42CFCEA8EF0A4CDA8F02E
:100260008BF0A42DCC3825F0FDE98FF0A42CCD35F2
:10027000F0FCEB8EF0A4FEA9F0EB8FF0A4CFC5F05C
:100280002ECD39FEE43CFCEAA42DCE35F0FDE43C55
:10029000FC2275F008758200EF2FFFEE33FECD33A0
:1002A000CDCC33CCC58233C5829BED9AEC99E582E7
:1002B00098400CF582EE9BFEED9AFDEC99FC0FD573
:1002C000F0D6E4CEFBE4CDFAE4CCF9A88222B80063
:1002D000C1B90059BA002DEC8BF084CFCECDFCE52E
:1002E000F0CBF97818EF2FFFEE33FEED33FDEC3352
:1002F000FCEB33FB10D703994004EB99FB0FD8E5D7
:10030000E4F9FA227818EF2FFFEE33FEED33FDEC1F
:1003100033FCC933C910D7059BE99A4007EC9BFC15
:10032000E99AF90FD8E0E4C9FAE4CCFB2275F010A1
:10033000EF2FFFEE33FEED33FDCC33CCC833C810C6
:10034000D7079BEC9AE899400AED9BFDEC9AFCE8F4
:1003500099F80FD5F0DAE4CDFBE4CCFAE4C8F92241
:10036000EB9FF5F0EA9E42F0E99D42F0EC6480C814
:1003700064809845F022EB9FF5F0EA9E42F0E99DFB
:1003800042F0E89C45F022E8600FECC313FCED134B
:10039000FDEE13FEEF13FFD8F122E0FCA3E0FDA376
:1003A000E0FEA3E0FF22E0F8A3E0F9A3E0FAA3E077
:1003B000FB22ECF0A3EDF0A3EEF0A3EFF022A88275
:1003C0008583F0D083D082120BB5120BB5120BB51A
:1003D000120BB5E473E493A3C583C5F0C583C8C508
:1003E00082C8F0A3C583C5F0C583C8C582C822A44E
:1003F0002582F582E5F03583F58322E0FBA3E0FA60
:10040000A3E0F922EBF0A3EAF0A3E9F022EC8EF0EE
:10041000A4CCC5F0CCCDF8EFA4CEC5F02DFDE43CC6
:10042000FCE8A42EC8C5F03DFDE43CFCEFA4FFE5CC
:10043000F028FEE43DFDE43CFC22E4900234F0129E
:1004400030815010EF123034120B9E000027101232
:10045000310680EBE4900235F0900235E0123086F0
:100460004003020DDCE4900234F0123081400302BC
:100470000DD3A3E02401FDE433FC749D2F12310D54
:10048000D3ED9F7480F86C984003020DCD90023438
:10049000E0FF1239A0900234E0FF123DF7758A5058
:1004A00075B28F902E207401F0902E20E030E2F98A
:1004B000900234E0FF9008069375F002902E00122F
:1004C0000BCFE0FCA3E0FD1230B8F583ECF0A3ED18
:1004D000F0902E20E4F0758A1075B293900234E00B
:1004E000FF123E8F12305A123073FDEF25E0248741
:1004F000F582E4340112305324CAF582E434011247
:10050000307AFD1230B812304C2DFFEE3CFE123026
:100510009C24CEF582E43401F583E0FAA3E0FBC32A
:10052000EF9BFFEE9AFEED1230B9F583EEF0EF127D
:100530003058123073FD1230C31230531230A612ED
:10054000307AFD4C70091230C312304CFF801F907E
:100550000234E0FBED25E0FFEC33FEEB1230C41279
:10056000307A2FFFEC3EFE7C007D0312086B1230C8
:100570009C1230A612306B1230424E700CED1230CD
:10058000A412304CFFED12306212305A2477F582FB
:10059000E4340112307AFDECC0E0EDC0E0EF12303F
:1005A000A412304CFFE4FCFD900245120B92900225
:1005B00034E0900249F0D0E0FDD0E0FCE4FF120FFF
:1005C000A0900234E0FD123062ED123034C083C0DE
:1005D00082120B861230422400FFEE34F0FE339577
:1005E000E0FDFC120A08D082D083120B9212310671
:1005F000020C4A900235E004F0020C39902E23E4FC
:10060000F0900234F01230814003020F9FEF12305D
:1006100034C083C082120B86E8C0E0E9C0E0EAC0C3
:10062000E0EBC0E0900234E0249D12310DFBE4FACF
:10063000F9F8123030120B7A123C00D0E0FBD0E017
:10064000FAD0E0F9D0E0F8120A08D082D083120B79
:1006500092123030120B7AE47B507AC3F9F8C3124D
:100660000B40500A123030120B9E0000C350900213
:1006700034E0FF123034120B86E833500BEF1230A7
:1006800034120B9E0000000012305A1230B01230AB
:100690007A4C7009EF123034120B7A802C900234AD
:1006A000E01230AE12304CFF7C007D02120BEDECFC
:1006B000F8EDF9EEFAEFFB123030120B7A120A085D
:1006C000E47B03FAF9F8120AAE12309C1230B0F54E
:1006D00083EEF0A3EFF01230F112304C4E700EEDBD
:1006E0001230AE12304CFF1230F112306B12305A11
:1006F000123090C083C082120B86EF123043FFE4A9
:10070000FCFD120A08D082D083120B9212305A12CA
:1007100030DEF583E475F0011208F6EF1230DC12DA
:10072000304CFFD3940AEE94004036EFFBEEFAE42F
:10073000F9F8900234E012308E120B7A120AAE12DF
:10074000309C2428F582E4340112306BED1230DC49
:10075000F583E4F0A3F0ED12308E120B9E00000042
:1007600000900138E07002A3E0704E900234E0FD8A
:10077000123043FFED25E02428F582E434011230E5
:100780007AFD123E1012309C2424F582E4340112CA
:10079000306BED25E02424F582E4340112304CD393
:1007A0009406EE940040129001387407F0A374D0C0
:1007B000F0A3E475F0011208F6123106020DE522ED
:1007C000900243ECF0A3EDF0900242EFF012359B63
:1007D000C083C082900249E0D082D083123595E078
:1007E000704612358C1235A9C083C082900249E050
:1007F000D082D083123595120B7AE4FBFAF9F8C354
:10080000120B56602312358C1235B3C083C0829010
:100810000249E0D082D083123595120B7AE4F8C3F6
:10082000120B5660030211041235D0C3900244E04B
:100830009FFF900243E09E1212C5C083C0829002C7
:1008400049E0FCD082D083123595EEF0A3EFF0EDB5
:1008500012359B1235E7E06050900242E0FF1235FE
:10086000EEC083C082900249E0D082D083123595D9
:10087000E0FCA3E0FDEF75F005A4249DF582E434CF
:100880003EF583E493FE740193FFD3ED9FEC9E400D
:100890001812358C12359FC083C082900249E0D077
:1008A00082D0831235957405F01235D012358C1232
:1008B00035A9C083C082900249E0D082D08312352E
:1008C00095120B9212358C1235BDC083C0829002F6
:1008D00049E0D082D0831235751235B3C083C0820F
:1008E000900249E0D082D083123595120B9290028B
:1008F00042E0FF12359BC083C082900249E0FED0E7
:1009000082D083123595E0D3940074809480400E99
:10091000EF12359B75F00EEE120BCFE014F0900243
:10092000450212C112358C1235A9C083C0829002D3
:1009300049E0D082D083123595120B7A90024A1288
:100940000B9212358C1235B3C083C082900249E0FD
:10095000D082D083123595120B7A90024E1235C791
:1009600012358C1235FCC083C082900249E0D082DF
:10097000D083123595E0F9F8120B67EFFBEEFAED34
:10098000F9ECF81235CA120A15900252120B929025
:10099000024A120B7A900245120B86120A08900244
:1009A00052120B86120A081236061235D012358CF6
:1009B0001235A9C083C082900249E0D082D0831250
:1009C00035951235C712358C1235B3C083C082906D
:1009D0000249E0D082D0831235951235C7ECC0E0D1
:1009E000EDC0E0EEC0E0EFC0E012358C1235BDC0C6
:1009F00083C082900249E0D082D083123595E0FE18
:100A0000A3E0FBEEFAE4F9F8D0E0FFD0E0FED0E09E
:100A1000FDD0E0FC120AAE123606900242E06401FC
:100A200060030212BE1235D0EFFBEEFA1235CAC3D4
:100A3000EF9BFFEE9A1212C5C083C082900249E07C
:100A4000FCD082D083123595EEF0A3EFF0ED123595
:100A5000EE1235E7E0FEA3E0FF900242E0FB75F006
:100A600005A4249BF582E4343EF583E493FC7401F1
:100A700093FDD3EF9DEE9C40651235D0EB75F01CD5
:100A8000A41235A9C083C082900249E0D082D083ED
:100A9000123595120B9212358C1235BDC083C0826F
:100AA000900249E0D082D0831235751235B3C083ED
:100AB000C082900249E0D082D083123595120B9209
:100AC00012358C12359FC083C082900249E0D082DB
:100AD000D0831235957405F01235D0123606900287
:100AE0004E120B7A22FE123E83900242E0FD75F018
:100AF0001CA42401F582E43402F583229002311211
:100B00001A9740030216111218FC120937D39DE5FB
:100B1000F09C403490010A12199C121907121A40D5
:100B2000D3EF9430EE9475400C9002327475F0A3BC
:100B30007430F080061218FC121A4B900231E01249
:100B40001AA7F583E402139B90010412199CFF126B
:100B5000191D121AB1121919121A40D3EF9410EE7E
:100B60009427400C9002327427F0A37410F0801385
:100B700090010412199CFF12191D121AB1121919B1
:100B8000121A4B1219CC900231E0FD121AA7121959
:100B9000C430001DED121AA7121934D3942CEE9410
:100BA000014014121A5CF5837427F0A37410F080CE
:100BB00006121A5C121984E4900232F0A3F01219A2
:100BC0005EE06068121A67D39400EC648094804001
:100BD00020EF25E024221219B0D3ED9FEC9E4011A6
:100BE000900231E0121ABBF583E4F0A37464F08044
:100BF00022900231E0FF121ABB121945D39400EC87
:100C00009400400F900107121919120937FFE5F0FF
:100C1000121B0B900231E0FF121AC57401F0121B77
:100C200037F583740FF0A374A0F0800F1219EBF561
:100C3000837403F0A374E8F0123D58D3900233E0BC
:100C40009400900232E06480948050030215CAE060
:100C5000FEA3E0FF12199912191D121ACFEE339557
:100C6000E0FDFCE47BB87A88F9F8C3120B40500A27
:100C70009002327488F0A374B8F030003C12195E10
:100C8000E07016EF25E02432F8E6FC08E6FD1219C4
:100C9000CCC39DEE9C5063801A900231E025E02485
:100CA00022F8E6FC08E6FDA3E0FEA3E0FFC39DEE0C
:100CB0009C50477C007DC8803B900231121A28125C
:100CC0001945D39400EC940050089000F1E06420A2
:100CD0007028EF25E024221219B0121A67C39FEC86
:100CE0009E5017ED9400EC64809480400D1219CC56
:100CF0007C007D0A1208C0121B0A12195EE0606FA8
:100D0000EF1219F01219344E7011900231A3E0FC69
:100D1000A3E0FD121612121B0A802F121927FF12D0
:100D20001A67123E10D3EF9432EE9400401C121951
:100D3000EB121945D394C8EC9400400EEF1219F051
:100D4000F58374FF75F09C1208F6121927FF7C00DA
:100D50007D07120BED90023212198BEE3395E0FDF8
:100D6000FC120A08E47B08FAF9F8120AAE800312B2
:100D700019CC900231E025E02444F582E4340112DC
:100D800019C4121927FFD39405EE9400400EEF9476
:100D900010EE94005006900232EE8015900231124F
:100DA0001A34121945FDEF12192B2DFFEE3C90025B
:100DB00032F0A3EFF0D3900233E09430900232E0AF
:100DC000648094F540077475F0A37430F0E5DB544B
:100DD00004705E1219CC90011012199CFD12191D9D
:100DE000121ACFEF24A8FFEE8034E5DB54047041E3
:100DF000121999FF12191D121B58EF121A361219E7
:100E000034FF90011012199CFD12191D121ACF7592
:100E1000F002ED12192012093724A8FFE5F0346121
:100E2000FE90010D120BDB75F002ED121920121A63
:100E3000CF22900234EFF0A3ECF0A3EDF0EF1233E9
:100E4000ECE0FEA3E0FF123E10D3EF9432EE9400EC
:100E5000401C1233BC120B9E00000000123388E4C9
:100E6000F01234061233E8EEF0A3EFF080431233B1
:100E700077E0FEA3E0FFD39400EE940040339002AD
:100E800035E0FCA3E0FDD3EF9DEE9C400B900234D7
:100E9000E01233AFE04401F0900234E0FF12337B04
:100EA000E0FAA3E0C39DEA9C50071233AEE044028F
:100EB000F0900234E01233C1C083C082120B86125C
:100EC0003406E4FCFD120A08D082D083120B929003
:100ED0000234E0FF12340FE475F0011208F6EF75EA
:100EE000F007A4247AF582E4343EF583E493FE749B
:100EF0000193FF900234E0FDC454F0245EF582E4D7
:100F00003402F583E0FAA3E0C39FEA9E500302187F
:100F100092ED12340FE0FEA3E0FFFBEEFAE4F9F8E5
:100F2000900234E01233C1120B7A120AAE900237EB
:100F3000120B92123377E0FEA3E0FFEEC0E0EFC0A9
:100F4000E012341CEFFDEEFCD0E0FFD0E0FE123EDC
:100F50001090023BEEF0A3EFF0900234E0FD75F04C
:100F600007A42475F582E4343EF583C37401939F8E
:100F7000E4939E401FED12337BE0FEA3E04E60142D
:100F8000900234E0FB1233F9E0FEA3E0C394B8EE24
:100F9000940B5021900234E0FF12337BE0FCA3E07D
:100FA0004C7008EF1233F9E4F0A3F012341C123342
:100FB00077EE02183CEB600764016003021842E41C
:100FC00090023DF090023BE0FEA3E0FFD39450EE90
:100FD00094004006A37408F08032900234E012338B
:100FE000AFE064036026D3EF943CEE940040089099
:100FF000023D7402F08015D390023CE094329002DE
:101000003BE09400400690023D7401F0123377E01B
:10101000FEA3E0FFE4FCFD123422D3120B56401174
:1010200090023DE0FF123377E48FF01208F60218C9
:1010300078D390023CE0945090023BE094004058FA
:10104000123377C083C082E0FEA3E0FF90023DE050
:10105000FDC3EF9DFFEE9400D082D083F0A3EFF0AC
:101060008036123377E0FEA3E0FF4E700D1234227B
:10107000EBFFEAFEE9FDE8FC80167C007D07120B21
:10108000ED123422120A08E47B08FAF9F8120AAECB
:10109000123377EEF0A3EFF01233BC120B9E000078
:1010A0000000123388E4F012341C1233E8EEF0A38F
:1010B000EFF0123377E0FCA3E0FDD39400EC940052
:1010C0004056123406123E10900234E075F007A428
:1010D0002477F582E4343EF583D37401939FE4933F
:1010E0009E400F900234E0FF12337B1233CEE4F0C7
:1010F0008026900234E0FF75F007A42479F582E49D
:10110000343EF583E493FE1233DAE0C39E500912B5
:1011100033771233CEE004F01234062290010A1223
:101120000BDB900231E0FF75F002A4F58285F083BD
:10113000120937FDACF0900104120BDBEF75F002E1
:10114000A4F58285F08322900231E025E02444F565
:1011500082E43401F583E0FEA3E022EF25E02400E1
:10116000F582E43401F583E0FCA3E022900231E053
:1011700075F00AA42450F582E43401F5832290022C
:1011800031E0FF244EF582E43401F58322120B7A1C
:10119000900234EEF0A3EFF0EB75F00AA42456F5BC
:1011A00082E43401F583E4F0A3F022ECF8EDF9EEEB
:1011B000FAEFFBE0FEA3E0FF22900107120BDB90A9
:1011C0000231E02275F006A42426F8E50825E0287F
:1011D000F8E6FE08E6FF22900232E0FFC3940274B4
:1011E00080948022F583EEF0A3EFF022900232E0AB
:1011F000FEA3E0FF2275F00AA42454F582E4340132
:101200002290010A120BDB90023122900231E0FFA2
:1012100025E02489F582E4340222900231E025E0C1
:10122000249FF582E4340122EF25E025E0248FF5A8
:1012300082E43401F58322900231E0FF75F00AA4C4
:101240002456F582E4340122E0FF25E02485F5826E
:10125000E4340222E0FF25E0243CF582E43401225C
:10126000120937C39DFFE5F09CFE22120937C39D8A
:10127000FEE5F09C900232F0A3CEF022ED25E024B2
:10128000DEF582E4340122900232E0FCA3E0FD228C
:1012900025E024A3F582E434012225E0247FF582B1
:1012A000E434012225E02483F582E4340122F5832D
:1012B000E475F0010208F6EFF0D3900278E09400B4
:1012C000900277E094002225E024DAF582E43401EC
:1012D00022120937FDACF090010A2225E02481F5A5
:1012E00082E434022224F6F582E43401F58322EE0E
:1012F0008FF00209DBE0FEA3E0FFE4FCFD020A0838
:10130000900231E0FF25E024ECF582E4340122FD77
:10131000EF25E0249BF582E43401F58322EC8DF087
:101320000209DB120937FFAEF022EE900232F0A381
:10133000EFF022E0FD25E02400F582E4340122757F
:10134000F00AA42458F582E4340122900107120B1C
:10135000DB900231E0FF22EF25E0247DF582E434CA
:1013600002229002797403F0A37420F022EB25E0AE
:10137000247BF582E4340122E4F5F00209DB25E068
:101380002440F582E434012275F002020BCF900272
:1013900034EFF0E0FF244EF582E43401F583E07091
:1013A00003021C3EEF122BEAE0FEA3E04E702790F2
:1013B00001B4E0FEA3E0FF900234E0FD25E024ACA0
:1013C000F582E43401122BBEFFED122BB2E5F0F0F2
:1013D000A3EFF0021C62900234E0122BEAE0FEA3BD
:1013E000E0FF9001B4E0FCA3E0FD123E109001D2BA
:1013F000120BDB900234E0FD122C4AEE8FF0120942
:10140000DB74A82D122C38E070339001D2122BC857
:10141000C39406E5F094005010122BC5FFED122B7B
:10142000B2E5F0F0A3EFF08014E4FFEF122C80504F
:101430000C74A82F122C387401F00F80EE122BE5DB
:10144000E0FCA3E09001B4122C9A400A74AA2F1277
:101450002C73E4F0802C122C6D7401F08024122B7C
:10146000E5E4F0A3F0122BB1E4F0A3F074A82F127E
:101470002C38E4F0122C17E4F0A3F0122BD8E4F08F
:10148000A3F0122C31E07003021DC1122BB1E0FE5B
:10149000A3E0D39400EE94005003021DC1122C88E7
:1014A000900234E0FD122BCCFFAEF0ED122BB2E037
:1014B000FCA3E0FD123E10900235EEF0A3EFF09099
:1014C0000234E0FD25E024D6F582E43401122BBE7F
:1014D000FFED122BB2E0FCA3E0D39FEC95F0400CA3
:1014E000D3900236E0948C122C665013122B991272
:1014F0002CB15053900236E094C8122C664048122A
:101500002C31E4F0EF122BEAE4F0A3F0122C88EF78
:10151000122BCCFF900234E0FD122BB2E0FAA3E0D4
:10152000C39FEA95F0500CED122C54E4F0A374C85C
:10153000F0800E900234E0122C547401F0A3742C4D
:10154000F0122C6DE4F022122B99E0FEA3E0D39D63
:10155000EE95F0404CD3122C604046900234E012DD
:101560002BD9E0FEA3E0122C935036122C4074FFCE
:1015700075F0F712096F122BD8E475F0091208F60E
:10158000122C17122C8E5019122CA6400D122C184A
:1015900074FF75F0F71208F68007122C18E4F0A318
:1015A000F0122B99122CB15038122C604033122CAF
:1015B00040E475F00912096F122C17E475F0091256
:1015C00008F6122BD8122C8E5017122CA6400B1294
:1015D0002BD974FF75F0F70208F6122BD9E4F0A3AB
:1015E000F022E4900232F0A3F0122915D390027891
:1015F000E09400900277E0940040030220069001FE
:10160000B6120B8690011FE0FEA3E0FFE4FCFD1282
:101610000A089001B6120B929001BAE475F001121B
:1016200008F6C39001BDE094649001BCE0940050C2
:1016300003021E929001B6120B7AECC0E0EDC0E0FE
:10164000EEC0E0EFC0E09001BAE0FEA3E0FBEEFAEE
:10165000E4F9F8D0E0FFD0E0FED0E0FDD0E0FC12ED
:101660000AAE9001B6120B929001B6120B7A90015D
:10167000B4EEF0A3EFF0A3120B9E00000000E49084
:1016800001BAF0A3F0A3F0A3F0900277E07002A3F8
:10169000E0701F900231F0122C7B5016EF122C5488
:1016A000E0FEA3E04E7003121B6E900231E004F0E6
:1016B00080E5E4900231F0122C7B40030220067496
:1016C0004E2FF582E43401F583E0FF602290023171
:1016D000E0FE122BFBE0FCA3E04C701390011FE036
:1016E000FCA3E0FDEE122BFBECF0A3EDF08024EF69
:1016F0007021122C88900231E0122BCCC39496E515
:10170000F09400500E122BF6E4F0A3F0122C24E417
:10171000F0A3F0900231E0122BFBE0FEA3E0FF4EBD
:101720007003021FFD90011FE0FCA3E0FDC3EF9DCD
:10173000FFEE9CFE123E83900232EEF0A3EFF01219
:101740002BF6E0FCA3E090011F122C9A40139002AC
:1017500032E0FCA3E0FDEF122C0BECF0A3EDF080E7
:101760001E900232E0FEA3E0FFD394C8EE94004046
:101770000EEE13FEEF13FF122C07EEF0A3EFF09026
:101780000231E0FF122C0BE0FCA3E0D3940AEC94AE
:10179000005003021FFD122C8875F002EF122BCFB0
:1017A000D39498E5F0943A4041900231E0FB122C3A
:1017B00025E0FEA3E0C39428EE942350609002310C
:1017C000E0FA249DF582E43402F583E075F00CA480
:1017D000FFAEF0EA122C0BE0FCA3E0FD120859EB7F
:1017E000122C25EEF0A3EFF08033122C88900231FA
:1017F000E0FF122BCCD394E8E5F09403401F122CA9
:1018000024E0FEA3E0C39458EE94025010122C077B
:10181000E0FCA3E0FD122C24ECF0A3EDF0900231EB
:10182000E004F0021E9722900231EFF0A37402F060
:10183000A374BCF0E4A3F0A3F0D39001E3E0940020
:101840009001E2E0940040149001041219E4E0FFDA
:1018500012191D121AB1121919121AFD900277E00D
:101860007002A3E0600B900232E4F0A37464F08095
:101870000B90001AE0641170037420F0900231E0C4
:10188000FB121963E0601A900231E0FA121950124B
:101890000B9E00000000EA1219D5121984EB0222F7
:1018A0004012194CC083C082120B86E8C0E0E9C028
:1018B000E0EAC0E0EBC0E09001041219E4E0121984
:1018C0001D121B03E4FCFDD0E0FBD0E0FAD0E0F9F0
:1018D000D0E0F8120A08D082D083120B9290023125
:1018E000E0FF1219D5121A8EEF121B1F121934FFC6
:1018F000900232E0FCA3E0FDC3EF9DEE9C5003029A
:10190000224612194CC083C082120B7AECC0E0ED63
:10191000C0E0EEC0E0EFC0E0900231E01219D51255
:101920001934FBEEFAE4F9F8D0E0FFD0E0FED0E0A5
:10193000FDD0E0FC120AAED082D083120B921219B5
:10194000E1E012191D1209372450FFE435F0FEE4DE
:10195000FCFD12194C120B86D3120B564033900229
:1019600077E07002A3E07029900231E0FB121AC503
:10197000E0701E121A17121A8EEF121A1C12193466
:10198000D39403EE9400401DEB12195012196D8090
:1019900014900231E0FB12195012196D900231E0DF
:1019A000121AC5E4F0121A171219454C60030222EC
:1019B0002690010A121919120937FFC3900235E067
:1019C0009F900234E095F0506B1219E11219051244
:1019D0001A40123E83C3EF94E8EE6480948350541F
:1019E000900231E0640190010A701F1219E4E012C4
:1019F000191D121B037C007D04120BED90023412A2
:101A0000198B121ADAE47B0580221219E4E012190C
:101A10001D121B037C007D02120BEDECF8EDF9EEBC
:101A2000FAEFFB900234121AD5E47B03FAF9F812AC
:101A30000AAE8008900234E0FEA3E0FF1219E1E054
:101A400012191D121ACF900231E0FB121950120B1D
:101A50009E00000000EB1219D5121984900231E0AB
:101A6000121B1F12198422D3900278E09F900277F4
:101A7000E09E400AA3E09FF0900277E09EF0900283
:101A80007C1237CD90027BE09C400CA3E09FF0904D
:101A9000027BE09EF08002D28AD390027AE09F908F
:101AA0000279E09E400AA3E09FF0900279E09EF068
:101AB0001237D850031237C7D3900282E09F9002AA
:101AC00081E09E400AA3E09FF0900281E09EF0D367
:101AD000900286E09F900285E09E400AA3E09FF07E
:101AE000900285E09EF0D390028AE09F900289E008
:101AF0009E400AA3E09FF0900289E09EF0D39001FF
:101B0000DFE09F9001DEE09E400AA3E09FF090019D
:101B1000DEE09EF0D390027EE09F90027DE09E404A
:101B20000AA3E09FF090027DE09EF0D390028EE049
:101B30009F90028DE09E400AA3E09FF090028DE00E
:101B40009EF01237E650031237C7D3900284E09F0D
:101B5000900283E09E400AA3E09FF0900283E09E03
:101B6000F0D3900288E09F900287E09E400AA3E0B5
:101B70009FF0900287E09EF0D390028CE09F90024D
:101B80008BE09E400AA3E09FF090028BE09EF0D392
:101B9000900280E09F90027FE09E400AA3E09FF0C9
:101BA00090027FE09EF0D39001E1E09F9001E0E0A1
:101BB0009E400AA3E09FF09001E0E09EF01237F40F
:101BC00050031237C7D39001BFE09F9001BEE09E43
:101BD000400AA3E09FF09001BEE09EF0D39001C1C7
:101BE000E09F9001C0E09E400AA3E09FF09001C0FA
:101BF000E09EF090018C1237CD90018BE09C400A62
:101C0000A3E09FF090018BE09EF0D39001E3E09F72
:101C10009001E2E09E400AA3E09FF09001E2E09E86
:101C2000F0EF2401FDE43EFCD390018EE09D900195
:101C30008DE09C400AA3E09FF090018DE09EF012A1
:101C4000380250031237C712381050031237C71228
:101C5000381E50031237C712382C50031237C7D31F
:101C6000900139E09F900138E09E400AA3E09FF088
:101C7000900138E09EF022C0E0C0F0C083C082C076
:101C8000D0E8C0E0D2AFD3900278E0940090027721
:101C9000E0940040031237B9D390027CE0940190A5
:101CA000027BE0940040051237B98002D28AD390BB
:101CB000027AE09400900279E0940040031237B970
:101CC0001237D850031237C0D3900282E0940090AC
:101CD0000281E0940040031237B9D3900286E09469
:101CE00000900285E0940040031237B9D390028A35
:101CF000E09400900289E0940040031237B9D39039
:101D000001DFE094009001DEE0940040031237B957
:101D1000D390027EE0940090027DE0940040031294
:101D200037B9D390028EE0940090028DE094004089
:101D3000031237B91237E650031237C0D39002842A
:101D4000E09400900283E0940040031237B9D390EE
:101D50000288E09400900287E0940040031237B9B3
:101D6000D390028CE0940090028BE0940040031228
:101D700037B9D3900280E0940090027FE094004055
:101D8000031237B9D39001E1E094009001E0E094B0
:101D90000040031237B91237F450031237C0D39002
:101DA00001BFE094009001BEE0940040031237B9F7
:101DB000D39001C1E094009001C0E0940040031270
:101DC00037B9D390018CE0940190018BE0940040EE
:101DD000031237B9D39001E3E094009001E2E0945C
:101DE0000040031237B9D390018EE0940190018D29
:101DF000E0940040031237B912380250031237C082
:101E000012381050031237C012381E50031237C058
:101E100012382C50031237C0D3900139E09400904F
:101E20000138E0940040031237B9D0E0F8D0D0D0A8
:101E300082D083D0F0D0E032900231EFF01219FE60
:101E4000121934FFC39404EE9400502A900231E03A
:101E500012193CFD121A08C083C082900231E0FFC3
:101E6000D082D083121B68ECF0A3EDF0EF1219FEC4
:101E7000121A8E0227269002367401F0900236E084
:101E8000FFC3940474809480503A121A08C083C02F
:101E900082900231E0FED082D083121B68E0FCA366
:101EA000E0FDEF25E025E0248BF582E43401F583A5
:101EB00075F002EE120BCFECF0A3EDF0900236E0DD
:101EC00004F080B8900231E0121963E06003022749
:101ED00016900104120BDB900231E0FD12191D1265
:101EE0001B03ED12193CFD123E10C3EF9428EE9433
:101EF000005043900231121B13121934FF90010A53
:101F0000120BDBED12191D120937FDACF0123E1059
:101F1000C3EF9414EE9400500590010A80039001E1
:101F200004120BDB900231E0FF12191D1209371267
:101F30001AEFE5F0800C900231E0FF12193C121A02
:101F4000EFECF0A3EDF0900232120B9E00000000C7
:101F5000E4900236F01219FA121934FF900236E0BA
:101F6000FDD3EF9DEE9400402D900232120B86902F
:101F70000236E0121A09C083C082900231E0D0829A
:101F8000D083121B68121AD5900232120B92900263
:101F900036E004F080BF900232120B7AECC0E0ED24
:101FA000C0E0EEC0E0EFC0E01219FA121934FBEE07
:101FB000FAE4F9F8D0E0FFD0E0FED0E0FDD0E0FC9C
:101FC000120AAE900232120B92900232020B7A7A0F
:101FD0000079007DFF12290D7A0179007DF6122922
:101FE0000D7B017A0279767D1A7C00123E26902DB7
:101FF000E0E493900001F09000047411F0A37422C7
:10200000F0A37433F0902DE2E493900012F0902D41
:10201000E3E493900014F09000FB7401F090004A08
:102020007411F09000F114F0900024F0A37420F0EB
:102030007B017A00793E900104120BE47A00794228
:1020400090010A120BE47A007946900107120BE422
:102050007A00793290010D120BE47A00793A9001FE
:1020600010120BE47A007936900113120BE47A0017
:102070007960900121120BE47A0079809001D212EC
:102080000BE47A00790A90014B120BE47A00791B79
:10209000900148120BE47A00792A900116120BE4A1
:1020A0007A007926900119120BE47A00792E9001BA
:1020B0001C120BE4900116120BDBE475F0C8120938
:1020C000BC900119120BDBE475F0641209BC90019D
:1020D0001C120BDBE475F0961209BC7532007533E7
:1020E000C8752200752396900116123E5175F0C8EE
:1020F0001209DB900119123E5175F0641209DB9050
:10210000011C123E5175F0961209DB7534007535CD
:10211000C87524007525969000207410F090027701
:102120007407F0A374D0F0E4900276F0227B017C77
:1021300000123E2622758D20438D20538D7FE4F5BD
:10214000B275B6FF75B7FF75B2A243B20153A8FBD3
:10215000538B7F758B10438B08E58B20E703008042
:10216000F8538B7F758B11438B08E58B20E70300B9
:1021700080F890029BE5B5F0A3E5B4F0758B01E41F
:10218000F5B27F02FE122247123DA6E4F58D123E03
:102190006C4E7010123E63FD90011FE5F0F0A3ED50
:1021A000F0022A01123E63FDC3EF9DFFEE95F0FEA3
:1021B000123E83D3EF940AEE648094804024123E52
:1021C00063FFC3900120E09F90011FE095F050064F
:1021D000E475F001800790011F74FFF5F01208F616
:1021E000803F123E6C7C007D03120BEDECC0E0EDF5
:1021F000C0E0EEC0E0EFC0E0123E63FFAEF0E4FCF2
:10220000FDD0E0FBD0E0FAD0E0F9D0E0F8120A0807
:10221000E47B04FAF9F8120AAE90011FEEF0A3EF86
:10222000F090011FE0FFA3E09001F4CFF0A3EFF0E6
:10223000123E6C7C007D0A12086B9001CAEEF0A37E
:10224000EFF09001CEE07002A3E0700F9001CAE0C1
:10225000FFA3E09001CECFF0A3EFF0123E6C7C0024
:102260007D0F120BEDE47B64FAF9F8120AAE9001CF
:10227000CCEEF0A3EFF09001D0E07002A3E0700F7D
:102280009001CCE0FFA3E09001D0CFF0A3EFF022CB
:1022900090023BEFF0902E22E0FF90023FE4F0A38B
:1022A000EFF0758A50902E227401F090023BE012FC
:1022B0003A0F7404F0A3E4F090023CF090023CE08A
:1022C000FFC3940D748094804003022B8CEFF87E42
:1022D00002E4088006CEA2E713CE13D8F8FF9002DE
:1022E0003DEEF0A3EFF04E700790023DF0A304F036
:1022F000902E207401F0902E20E030E2F990023B05
:10230000E0FF902E00123A12E0FCA3E0D394FEEC22
:1023100094074040123A35E0FEA3E0FF90023DE012
:10232000FCA3E0FDEF2DFFEE3CFEC3EF94FFEE9427
:102330000790023BE075F002902E10500B120BCF6D
:10234000EC8DF01208F68054120BCF7407F0A374D2
:10235000FFF0804890023BE0FF123A0FE0FCA3E060
:10236000FD90023DE0FAA3E0FBD3ED9BEC9A402107
:10237000123A35C083C082C3A3E09BFF0582D58299
:102380000215831582E09AD082D083F0A3EFF0800B
:102390000B90023BE0123A0FE4F0A3F0902E20E401
:1023A000F0F58D90023CE004F0022A9C90023FA3DD
:1023B000E0902E22F0758A1022900107120BDB901C
:1023C0000234E0FF75F002A4F58285F0831209372C
:1023D000FDEF25E024B0F582E43401F58322F58396
:1023E000EEF0A3EFF0900107120BDBED75F002A405
:1023F000F58285F083020937EF25E024C6F582E4F3
:102400003401F58322900234E0FF25E024ACF5820C
:10241000E43401F58322900231E0FF25E024E4F565
:1024200082E43401F58322900231E025E024E8F5CE
:1024300082E43401F58322EF25E024C2F582E434FE
:1024400001F58322EF25E024ECF582E43401F583E5
:1024500022900234E0FF24A8F582E43401F58322BF
:1024600090010A120BDB900234E075F002A4F582B1
:1024700085F0832225E024BEF582E43401F5832231
:10248000900236E09414900235E0940022900234D9
:10249000E024AAF582E43401F58322900231E0FFC2
:1024A000C394027480948022900107020BDBE0FE4B
:1024B000A3E0FFC39430EE947522FDE0FAA3E0FBA5
:1024C000D3ED9BEC9A22EF9409EE9400900234E055
:1024D00022E0FEA3E0C39DEE95F022900231121A95
:1024E000974003022DD9300042900231E0121A5D6C
:1024F0001219344E9002316019E0FF25E02432F8C1
:10250000764E087620EF25E02422F8761F087640E4
:102510008045E0FF25E02432F8760B0876B8EF25F9
:10252000E02422F876090876C4802C121AE01219E9
:102530004524C8FDE43CF8EF25E02432C8F608ED58
:10254000F6121AE01219452496FDE43CF8EF25E056
:102550002422C8F608EDF6121B2B12191D1209379A
:10256000FDEF25E024321219B0C3ED9FE5F09E5037
:1025700024900231E0121963E06031121B2B121912
:102580001D120937FDEF25E024221219B0C3ED9F7B
:10259000E5F09E4017900231121A281219454C702E
:1025A0003A744E2F1219657401F0802F9000F1E0FB
:1025B00064209002317009E0121A2A121984800CEA
:1025C000E0121A2AF583E4F0A374C8F090023112E5
:1025D0001961E4F0EF121ABB121984900231E01273
:1025E0001963E06003121B4290014FE0C454F0FFF6
:1025F00090014EE04F90004BF022000000000000E0
:102600000200AB2C74AA7583F5758255A5745575B7
:1026100083FA7582AAA574A57583F5758255A522DE
:1026200002020AB00BB60CFF090208FF0D770E0478
:1026300013071410108015001600011212070B0B5F
:102640000F04040401011110101208080301029084
:102650000234EFF0E4F50CF50BF50AF509F50CF58D
:102660000BF50AF509F508C3E5081219BD502590C8
:102670000234E01219A4E4FCFDE50C2FFFE50B3E4B
:10268000FEED350AFDEC35098F0C8E0B8D0AF50930
:10269000050880D3E47B02FAF9F8AF0CAE0BAD0A63
:1026A000AC09120AAE900234E0121A701219C4E496
:1026B000750CA8750B61F50AF509F508C3E5081254
:1026C00019BD5071900234E0FD1219A4ED121A7078
:1026D000121945FD123E10D3EF940AEE94009002B9
:1026E00034E0FF4008121A70121945801175F00687
:1026F000A42426F8E50825E028F8E6FC08E6FDEF26
:1027000025E0246FF582E43401121934FFC3ED9FF4
:10271000FFEC9EFE3395E0FDFCE50C2FFFE50B3E44
:10272000FEE50A3DFDE5093C8F0C8E0B8D0AF5098F
:102730000508022E9CE47F607EEAFDFCAB0CAA0B30
:10274000A90AA809D3120B56400BE4750C60750B4F
:10275000EAF50AF509AE0BAF0C2212383A123DDD4C
:102760007A01799F1230147A01798F7D1012302806
:102770007A01797F1230147A01797B12301E7A0146
:10278000798312301E7A01794E7D021230287F0241
:10279000123117E4FFEF1219BC504F12193BFD1212
:1027A0001916121AFD12193BFD90010A121919127D
:1027B0001AFD900107121919121B5890010D1219D8
:1027C00019746175F0A81209DB90011312191974BC
:1027D0006175F0A81209DB900110121919121B582B
:1027E000121B371219840F022F757B017A0179A809
:1027F0007D2A7C00123E267B017A0179507D147C73
:1028000000123E26E4900007F090004A7411F0A3F5
:10281000F0121B4290028FE0700FC3900278E09498
:10282000F4900277E09401500A9002777401F0A3CB
:1028300074F4F0227B017D047C00123E26227B0191
:102840007D047C00123E26227B017C00123E262263
:10285000900234E025E025E0243AF582E43402F5E4
:102860008322ED25E02477F582E43401F583E0FE50
:10287000A3E022F583ECF0EDA3F0900234E0FF2515
:10288000E02225E02477F582E43401F583EEF0A31D
:10289000EFF0222436F582E43402F583E0FCA3E075
:1028A00022900234E0FFC39402748094802225E0D9
:1028B00025E0242CF582E43401F58322900234E0F3
:1028C000FD25E02225E02473F582E434012225E091
:1028D000247FF582E4340122EF25E02436F582E4FA
:1028E000340222EF25E024F0F582E4340122F5835E
:1028F000E4932420F582E4342EF5832225E0243469
:10290000F582E4340122EF25E02464F582E4340109
:1029100022ED25E0246FF582E4340122EF900806D1
:10292000939008039322900234E004F022F582E4AD
:102930003402F583E0FF22900231EFF0E49002339D
:10294000F0900231E0FF900233E0C39F5076120C0A
:102950001AE4900232F01219B75060123C879002CC
:1029600032E0FD121A841219C4ED121A84F583E0C4
:10297000F8A3E0FFED75F006A4242AC8F608EFF6E8
:10298000ED75F006A4FF2426F9E4FAFBC0E0C0E0F0
:10299000E9C0E074282FF9E4900237120BE49002AA
:1029A0003AE4F0A37404F0D0E0F9D0E0FAD0E0FB10
:1029B000123B1D900232E004F0809B900233E00451
:1029C000F0023121E4900232F01219B7504E122E6B
:1029D0002F900232121B131219C4ED121B5E121932
:1029E00034FFED121A7A121945FD123E107C007D5B
:1029F0000512086B900232121A34F583ECF0A3ED45
:102A0000F0EF121A7A121934FF900232E0121B5EB4
:102A10001219C4900232E004F00231A922C0E0C0D1
:102A200083C082C0D075D018D2AFE5DB30E422D2AB
:102A300007C206E5DB30E114123E3CE0F5DFEF644F
:102A4000077069D28A900007F00232AFC2050232E5
:102A5000B2E5DB30E52C9000F0E064AA7017758ACF
:102A600010F5DAC2AFF5B2F5A8F5A9F58B758E01B0
:102A7000758DC080FED204300604C2068054C207A1
:102A80008050C206E5DB30E125E5DB30E044123E54
:102A90003CE0F5DFEF24F9600C24FA6004240270B6
:102AA0000BD2088007D28A900007E4F0802120052D
:102AB0000A780DA6DFD205D2068017123E3CE5DF6C
:102AC000F0EF6424700990027904F0A374F4F078B4
:102AD0000D0675DBFFD0D0D082D083D0E032E4FF8A
:102AE000FD90027BE07004A3E06401701190000788
:102AF000E06004D28AE4F0E490027BF0A3F090015D
:102B00004EE0600E900024E064106006EF4420FF69
:102B10008004EF4410FF90014FE0600E900024E02D
:102B200064106006EF4402FF8004EF4401FF900050
:102B30004AEFF09000FFE0FC6F605B90004AE0FF1E
:102B4000EC6FFE9000FFEFF0208A1BD28A90027B90
:102B5000E4F0A37403F090027CE024FFFB90027B7E
:102B6000E034FF4B70F0900007E0700790004AE0FF
:102B70005E8013EEF4FF9000FFE05FFDEEFF90003B
:102B80004AE05FFFED4F900007F090027B7403F086
:102B9000A374E8F0C28A22900234E0C454F0245CAA
:102BA000F582E43402F58322EBC454F0245AF58212
:102BB000E43402F583E4F0A3F0900234E0FFC4545F
:102BC000F0245EF582E43402F583E4F0A3F0EFC470
:102BD00054F02463F582E43402F58322900234E059
:102BE000FBC454F02456F582E43402F58322E0FD60
:102BF000A3E0900235CDF0A3EDF0EFC454F02462D1
:102C0000F582E43402F58322900234E0C454F024C7
:102C100060F582E43402F58322C454F02464F58222
:102C2000E43402F58322900235E0FEA3E0FF22C4E3
:102C300054F0245AF582E43402F5832290023702DC
:102C40000B7A900237020B86900164740AF0A37429
:102C50008CF0A3740AF0A3748CF0123CC47B017A4C
:102C600001796F7D047C00123E26E4900230F090E2
:102C70000230123A625076123D82900230E09008A3
:102C80000693FF123A0FE0FCA3E0C39405EC940016
:102C9000400F123A35E0FEA3E0D394F0EE940740E3
:102CA00017900230E0FF25E02464F582E43401F55A
:102CB00083E4F0A3F0123D82902E23E4F0900230E2
:102CC000123A09123A182FFFEC3EFE90014B120BFC
:102CD000DB900230E075F002A4F58285F083EE8F80
:102CE000F01209DB900230E004F002344F90001D36
:102CF0007410F022900020E0642070037421F090A2
:102D00000148120BDB12090C641045F07003123CF1
:102D100044900001E064AA7003123A6C900013E042
:102D2000FF7E0064107002D203EF64204E7002C276
:102D30000312392D20090890001AE06410700D90DC
:102D4000001A7411F0C209E4900276F09000FBE0E2
:102D50006006E4F0900276F090018BE07004A3E04E
:102D60006401600C90018DE07004A3E064017015B3
:102D7000E490018BF0A3F0A3F0A3F09001E2F0A3A4
:102D8000F0900276F030040CC2049002797401F0E5
:102D9000A374F4F02275F00E120BCFE0FEA3E0FF57
:102DA000E4FCFD900245120B86120A23900242E0D9
:102DB00075F01CA42275F00E020BCF75F01CA42434
:102DC00000F582E43402F5832224FCF582E4340128
:102DD000F5832224F8F582E43401F583222404F5F6
:102DE00082E43402F58322120B9290024E020B7A97
:102DF000900245020B7AED75F005A4249AF582E461
:102E0000343EF583E49322EC75F00E020BCF75F09F
:102E10001CA42401F582E43402F583222403F58204
:102E2000E43402F5832290024E020B922008030242
:102E3000369C30000302369CC208E4900231F090C8
:102E40000231123A62506BE0FE123A0BE0FCA3E052
:102E5000FDEE123A4AECF0A3EDF0123D8290023101
:102E6000123A09123A182FFFEC3EFE900231E0FDB3
:102E7000123A56EEF0A3EFF0ED123A56E0FEA3E060
:102E8000FF90014B120BDB75F002EDA4F58285F08B
:102E900083EE8FF01209DBED123A4AE0FEA3E0FF69
:102EA000ED123A0BEEF0A3EFF0900231E004F002E5
:102EB000361F9002797403F0A37420F022787FE427
:102EC000F6D8FD7581350236E70200000238B6E417
:102ED00093A3F8E493A34003F68001F208DFF480A3
:102EE00029E493A3F85407240CC8C333C4540F44F3
:102EF00020C8834004F456800146F6DFE4800B01CD
:102F000002040810204080903CFAE47E019360BCEB
:102F1000A3FF543F30E509541FFEE493A360010E64
:102F2000CF54C025E060A840B8E493A3FAE493A38B
:102F3000F8E493A3C8C582C8CAC583CAF0A3C8C5AC
:102F400082C8CAC583CADFE9DEE780BE208A0302E1
:102F500037B8D3900278E094E8900277E094035079
:102F60007790018BE07002A3E0706D90018DE070AE
:102F700002A3E07063F5B2758D20438D20758D80BE
:102F800043A808D2AFF58B900138E0FEA3E0FF4ED6
:102F90006005758E508003758EFE20042F20072C4F
:102FA000E5DB54047026758A84200720E5DB540491
:102FB000701AF586758703000000758601EF4E6074
:102FC000047F5080027FFE7E00122247758B0175C0
:102FD0008A1053A8F7123DA62274FFF5F00208F6F6
:102FE000E475F0010208F6EE8FF00208F6EF240116
:102FF000FDE43EFCD3E09D22C3900159E094BC90D7
:103000000158E0940222C3900163E094BC900162F5
:10301000E0940222C39001BDE094649001BCE0946E
:103020000022C3900265E094B8900264E0940B2201
:10303000C390025FE094F490025EE0940122C3909A
:103040000275E094B8900274E0940B22C390026F72
:10305000E094F490026EE09401227B017A0179F809
:103060007D387C00123E26E4FDEDC394027480940A
:10307000805062E4900230F0900230E0FFC394028E
:1030800074809480504B1235D6FEED75F01CA4125E
:1030900035FCEF1235E8EEF01235D604F87E0074F8
:1030A00001088005C333CE33CED8F9FFED75F01C8F
:1030B000A41235BDC083C082900230E0D082D0839C
:1030C000123595EEF0A3EFF0900230E004F00238F4
:1030D000580D0238492253A87F123DC21227AF1261
:1030E0003D2E12080843A880E4F58D1234D49002D6
:1030F00076E014601614601E24FE603E240470E81E
:103100001234289002767401F080DD122F3A90027A
:10311000767402F080D2123AC7900020E0FF64205B
:103120006008EF6421600312372C900025E06410E2
:1031300070B69002767404F080AE123BB890002511
:10314000E0641060A39002767401F0809B9002907E
:10315000E014601B14603D2402705430030D900293
:10316000907401F0D202D200123E59C20180409008
:10317000028DE07002A3E07002C2022003319002CF
:10318000907402F0D201C202C20090028DF0A374CA
:1031900058F0801B90028DE07002A3E07011900245
:1031A00090200303F080067401F0123E59C2012002
:1031B000010330020A900025E064106002D2092267
:1031C000E4FEEEC3940774809480502FEE75F003F4
:1031D000A4241BF582E4342EF583E5822FF582E4E6
:1031E0003583F583E493FDEE75F003A4241AF5828C
:1031F000E4342E1230CEEDF00E80C7EFFD7C00706F
:10320000121230E6F583E0FAA3E04A7006902E2110
:103210007412F0ED64014C700F1230E612304C4E17
:103220007006902E217412F022E0FB900806939015
:103230002E1075F002020BCFE0FEA3E0FF7C007DB4
:103240000A120859EB25E02464F582E43401F58381
:10325000E0FCA3E02275F002EF902E10020BCFEFFE
:1032600025E0248BF582E434012225E02436F58222
:10327000E43402F5832225E02432F582E43402F5B9
:103280008322E0FFC3940274809480229002307401
:1032900008F0A3E4F0A3743FF0A374DFF0E4FDFCB6
:1032A000F9123E4A00900230E0FEA3E02DF582EED6
:1032B0003CF583E493FF69F90DBD00010CBC37E5D3
:1032C000BDDFE2900232E0FEA3E0F5828E83E4935C
:1032D000FFE96F70089000017402F08005E490002F
:1032E00001F0123E4A00227F01123117121DC2E482
:1032F000900230F09002301219BA503B123B6E909F
:103300000230E0FF122618EEFCEFFD900104120BD4
:10331000DB900230E0FF12191D121AFD1212DC9030
:103320000230E0FF122CBB900230E0FF1220079029
:103330000230E004F080BD1232BE02360C90023C36
:10334000120BE4900237120BDB90023F120BE49059
:10335000023AE07002A3E0603490023F120BDB12ED
:10336000082EFF90023C120BDBEF12084790023D43
:10337000E475F0011208F6900240E475F0011208BD
:10338000F690023A74FFF5F01208F680C222EF259B
:10339000E0246FF582E43401123A2E2418FDEC3457
:1033A000FCFCEF25E0247FF582E43401F583E0FAAC
:1033B000A3E0C39DEA9C5016123A3F123A2E4C707D
:1033C00016123A3FF5837401F0A374F4F022123A16
:1033D0003FF583E4F0A3F022900025E06410703FF5
:1033E000F5B2758D20438D20538D7F53A8F7F58B53
:1033F000E5DB54047013200710F58AF58675870302
:10340000000000758601758A10758B0190028F741B
:1034100001F09002797403F0A37420F0123DA6220B
:10342000C2D5E830E70FB2D5E4C39BFBE49AFAE4D7
:1034300099F9E498F8EC30E717B2D5123C36120A45
:10344000AEE4C39BFBE49AFAE499F9E498F88003AC
:10345000120AAE30D50DE4C39FFFE49EFEE49DFD4D
:10346000E49CFC22E4900230F0A3F0123E4A0012E9
:103470002DE475EA81E4F5F6F5F475F308F5F275D7
:10348000EB0700E5EC30E7FBAFF3EFFEADF2EDFF4D
:10349000900148120BDBEE8FF01209BCE4F5EC75DD
:1034A000EB30123E4A0022EFFB121A7A121934FF57
:1034B000121B4D1219C4EB121A84121945FDECC0EF
:1034C000E0EDC0E0121B4D121934FFE4FCFD900248
:1034D00045120B92EB900249F0D0E0FDD0E0FC7F6A
:1034E00001020FA0E4FFEFC3940D7480948050217B
:1034F000EF25E02401F582E4342EF583E493FEEF1A
:1035000025E02400F582E4342E1230CEEEF00F8058
:10351000D5902F56E0902E2BF022C10742029D023B
:1035200002C1084102910041029000C103C101C1E2
:1035300000C102C105010D00C104C1064201F6002F
:10354000004100FF11C10943029801029B00E4F50C
:10355000DA75DA4043DA2030880875D74075D640EE
:10356000800675D74275D6425392FE75DA5843A845
:103570000275B80275F80222900234EFF0E075F09F
:1035800010A42456F9740235F0FA7B017D107C00FA
:10359000123E26900234E01233F9740BF0A374B893
:1035A000F02290023AEFF0123DF790023AE0FF125B
:1035B00039A090023AE090080693FF122A70900218
:1035C0003AE0FF023E8FE5B254016006E5A85410D0
:1035D000700F75B29275B6F9E4F5B743B20143A81E
:1035E0001022758A10538AEF758601758F05E4F5F0
:1035F000AB75AC0F75913E759201D28A227B017A30
:103600000179737D047C00123E267B017A01797773
:103610007D047C00023E26EFF87401088002C3336B
:10362000D8FC42AB1230FCF4529152935391DF22FA
:10363000D3EF9DEE9C4007EF9DFFEE9CFE22C3ED75
:103640009FFFEC9EFE22ED4C6011E4120847042916
:10365000F9E43AFAED1D70EE1C80EB22780DE6FFDE
:103660002400F582E43400F58322758A10538AEF32
:1036700022120BDB900002E42290028D04F0A3746E
:1036800058F022900298120BDB02090C90011FE007
:10369000FEA3E0FF22009600960701F40096009634
:1036A0000701F4EE30E707C3E49FFFE49EFE221219
:1036B00030FC429142884391202204001E001901EF
:1036C00000190019000000000000000000000000C8
:1036D00000000000000000000000000000000000EA
:1036E00000000000000000000000000000000000DA
:1036F00000000000000000000000000000000000CA
:1037000000000000000000000000000000000000B9
:1037100000000000000000000000000000000000A9
:103720000000000000000000000000000000000099
:103730000000000000000000000000000000000089
:103740000000000000000000000000000000000079
:103750000000000000000000000000000000000069
:103760000000000000000000000000000000000059
:103770000000000000000000000000000000000049
:103780000000000000000000000000000000000039
:103790000000000000000000000000000000000029
:1037A0000000000000000000000000000000000019
:1037B0000000000000000000000000000000000009
:1037C00000000000000000000000000000000000F9
:1037D00000000000000000000000000000000000E9
:1037E00000000000000000000000000000000000D9
:1037F000000000000000000000000000000000D4F5
:1038000000000000000000000000000000000000B8
:1038100000000000000000000000000000000000A8
:00000001FF
