:100000000048000000030000270A00000000000074
:1000100000000000000000000000000000000000E0
:10002000023737121005900002E4220233E6023E46
:10003000480000020826D2AF320000020816D2AFF4
:100040003200000224D1D2AF32000002081E7F022B
:100050001239E3123295902E20E030E2F9902DDE35
:10006000E493902E00123282E0FFA3E090025ECF74
:10007000F0EF1232C17F02123F0C900081E0FEA32C
:10008000E0FF4E700E90025EE0FCA3E0FDECFEEDA2
:10009000FF8014EF25E0FFEE33FE90025FE02FFFBC
:1000A00090025EE0123306900081EEF0A3EFF09034
:1000B0000081E0FEA3E0FF7C007D06121017E47BC8
:1000C0000AFAF9F8120ED8900087EEF0A3EFF0903C
:1000D000007BE07002A3E0700F900087E0FFA3E0D8
:1000E00090007BCFF0A3EFF0E4900258F01232AB17
:1000F0005010EF123244120FC80000271012330FB5
:1001000080EBE4900259F0900259E0C394057480AA
:1001100094804003020A83E4900258F01232AB400C
:1001200003020A7AA3E02401FDE433FC74C32F1216
:100130003316D3ED9F7480F86C984003020A7490D4
:100140000258E0FF1239E3900258E0FF1232959016
:100150002E20E030E2F9900258E0FF902DDC9390E1
:100160002E001232BBE0FCA3E0FDEF123273ECF084
:10017000ED1232C1900258E0FF123F0C12326EE0D5
:10018000FCA3E090009B123261E0FCA3E0FD900034
:100190007BE0FAA3E0FBED2BFDEC3AFC900087E05E
:1001A000FAA3E0FBC3ED9BFDEC9AFCEF1232731255
:1001B0003269E0FCA3E090009F123261E0FCA3E012
:1001C000FDEF1232D5ECF0A3EDF0900258E0FF9075
:1001D000007D1232D8E0FCA3E0FD4C700D75F002FA
:1001E000EF900115123259FF801A900258E0FBED92
:1001F00025E0FFEC33FEEB1232D5E0FCA3E02FFF4D
:10020000EC123306900258E090007D1232881232D0
:10021000524E701575F002ED90007D123259FF7547
:10022000F002ED90008912328C900258E0FF1232F9
:100230007FE0FCA3E0FDECC0E0EDC0E075F002EF74
:1002400090007D123259FFE4FCFD90026B120FBC4E
:10025000900258E090026FF0D0E0FDD0E0FCE4FFA7
:10026000121395900258E0FD12327FEEF0A3EFF0EA
:10027000ED123244C083C082120FB01232522400F9
:10028000FFEE34E0FE3395E0FDFC120E32D082D05A
:1002900083120FBC12330F0208FC900259E004F0E5
:1002A0000208E7902E23E4F0900258F01232AB409F
:1002B00003020C57EF123244C083C082120FB0E821
:1002C000C0E0E9C0E0EAC0E0EBC0E0900258E02402
:1002D000C3123316FBE4FAF9F8123240120FA412DB
:1002E0003C94D0E0FBD0E0FAD0E0F9D0E0F8120E78
:1002F00032D082D083120FBC123240120FA4E47BA2
:10030000507AC3F9F8C3120F6A500A123240120F22
:10031000C80000C350900258E0FF123244120FB0E0
:10032000E833500BEF123244120FC8000000009067
:100330000258E0FF1232B8E0FCA3E04C7009EF1263
:100340003244120FA4802C900258E0900093123295
:1003500056FF7C007D02121017ECF8EDF9EEFAEF73
:10036000FB123240120FA4120E32E47B03FAF9F8AA
:10037000120ED8900258E0FD1232B8EEF0A3EFF062
:1003800075F002ED9000771232594E701575F0023B
:10039000ED900093123259FF75F002ED9000771244
:1003A000328C900258E0FF1232F3C083C082120FE9
:1003B000B0EF123253FFE4FCFD120E32D082D08334
:1003C000120FBC900258E0FF9000351232EDE47538
:1003D000F001120D2075F002EF900035123259FF36
:1003E000D3940AEE94004036EFFBEEFAE4F9F8906D
:1003F0000258E01232F3120FA4120ED8900258E005
:100400009000291232889000351232ECE4F0A3F00B
:1004100075F004ED1232F6120FC8000000009000D3
:1004200039E07002A3E07049900258E0FD123253A7
:10043000FF9000291232ECE0FCA3E0FD123EB190E7
:100440000258E0FD75F00290002512328C75F00222
:10045000ED900025123259D39406EE94004012908C
:1004600000397407F0A374D0F0A3E475F001120D05
:100470002012330F020A8C22BB010689828A83E094
:10048000225002E722BBFE02E32289828A83E493A0
:1004900022BB010689828A83F0225002F722BBFE2A
:1004A00001F322EF8DF0A4A8F0CF8CF0A428CE8D1C
:1004B000F0A42EFE22BC000BBE0029EF8DF084FFBD
:1004C000ADF022E4CCF875F008EF2FFFEE33FEEC30
:1004D00033FCEE9DEC984005FCEE9DFE0FD5F0E957
:1004E000E4CEFD22EDF8F5F0EE8420D21CFEADF056
:1004F00075F008EF2FFFED33FD4007985006D5F05B
:10050000F222C398FD0FD5F0EA22C2D5EC30E709FC
:10051000B2D5E4C39DFDE49CFCEE30E715B2D5E412
:10052000C39FFFE49EFE120C95C3E49DFDE49CFC7A
:100530008003120C9530D507C3E49FFFE49EFE2292
:10054000C5F0F8A3E028F0C5F0F8E5821582700246
:100550001583E038F022BB010A89828A83E0F5F036
:10056000A3E022500687F009E71922BBFE07E3F556
:10057000F009E3192289828A83E493F5F0740193E8
:1005800022BB0110E58229F582E5833AF583E0F587
:10059000F0A3E0225009E92582F886F008E622BBA4
:1005A000FE0AE92582F8E2F5F008E222E5832AF561
:1005B00083E993F5F0A3E99322BB010DC58229C518
:1005C00082C5833AC583020D205011C58229F808DF
:1005D000E5F026F618F5F0E58236F622BBFE11C5E9
:1005E0008229F808E225F0F5F0F218E23582F222CD
:1005F000F8E58229F582E5832AF58374019325F0D5
:10060000F5F0E4933822BB010A89828A83F0E5F091
:10061000A3F0225006F709A7F01922BBFE06F3E566
:10062000F009F31922F8BB0111E58229F582E5836F
:100630003AF583E8F0E5F0A3F0225009E92582C8F5
:10064000F608A6F022BBFE09E92582C8F2E5F0080B
:10065000F222EF2BFFEE3AFEED39FDEC38FC22C31F
:10066000EF9BFFEE9AFEED99FDEC98FC22E88FF0EF
:10067000A4CC8BF0A42CFCE98EF0A42CFC8AF0ED29
:10068000A42CFCEA8EF0A4CDA8F08BF0A42DCC38DD
:1006900025F0FDE98FF0A42CCD35F0FCEB8EF0A415
:1006A000FEA9F0EB8FF0A4CFC5F02ECD39FEE43CCF
:1006B000FCEAA42DCE35F0FDE43CFC2275F0087573
:1006C0008200EF2FFFEE33FECD33CDCC33CCC5828D
:1006D00033C5829BED9AEC99E58298400CF582EE49
:1006E0009BFEED9AFDEC99FC0FD5F0D6E4CEFBE431
:1006F000CDFAE4CCF9A88222B800C1B90059BA00F9
:100700002DEC8BF084CFCECDFCE5F0CBF97818EF53
:100710002FFFEE33FEED33FDEC33FCEB33FB10D754
:1007200003994004EB99FB0FD8E5E4F9FA22781815
:10073000EF2FFFEE33FEED33FDEC33FCC933C91070
:10074000D7059BE99A4007EC9BFCE99AF90FD8E0A2
:10075000E4C9FAE4CCFB2275F010EF2FFFEE33FE74
:10076000ED33FDCC33CCC833C810D7079BEC9AE8E7
:1007700099400AED9BFDEC9AFCE899F80FD5F0DA68
:10078000E4CDFBE4CCFAE4C8F922EB9FF5F0EA9E55
:1007900042F0E99D42F0EC6480C864809845F02204
:1007A000EB9FF5F0EA9E42F0E99D42F0E89C45F0AF
:1007B00022E8600FECC313FCED13FDEE13FEEF1304
:1007C000FFD8F122E0FCA3E0FDA3E0FEA3E0FF22BE
:1007D000E0F8A3E0F9A3E0FAA3E0FB22ECF0A3ED3C
:1007E000F0A3EEF0A3EFF022A8828583F0D083D0AF
:1007F00082120FDF120FDF120FDF120FDFE473E43C
:1008000093A3C583C5F0C583C8C582C8F0A3C583BB
:10081000C5F0C583C8C582C822A42582F582E5F04B
:100820003583F58322E0FBA3E0FAA3E0F922EBF0A5
:10083000A3EAF0A3E9F022EC8EF0A4CCC5F0CCCD75
:10084000F8EFA4CEC5F02DFDE43CFCE8A42EC8C50D
:10085000F03DFDE43CFCEFA4FFE5F028FEE43DFDA7
:10086000E43CFC22900255122435400302139412FA
:1008700022E8120D61D39DE5F09C403890000B12E8
:10088000239E1222F3122409D3EF9430EE94754084
:100890000C9002567475F0A37430F080061222E8B2
:1008A000122414900255E075F0029000FF120FF927
:1008B000E402111C90000512239EFF12230912244A
:1008C0002E90000B122305122409D3EF9410EE94FE
:1008D00027400C9002567427F0A37410F0801690F5
:1008E000000512239EFF12230912242E90000B12E2
:1008F00023051224141223C7900255E0FD75F0025F
:100900009000FF12236630052575F002ED9000FF80
:1009100012231DD3942CEE9401401D75F002ED902E
:100920000103120FF97427F0A37410F0800A75F018
:1009300002ED90010312235AE4900256F0A3F01244
:100940002333E06067122425D39400EC6480948004
:10095000401EEF25E024211223B2D3ED9FEC9E40F0
:100960000F900255E01223F3E4F0A37464F0801CAE
:10097000900255E0FF1223F31224C0400F900008AC
:10098000122305120D61FFE5F0122482900255E05A
:10099000FF1224457401F0EF25E024A3F582E4342E
:1009A00002F583740FF0A374A0F0800D12238A74F3
:1009B00003F0A374E8F0123DC1D3900257E0940015
:1009C000900256E064809480500302134AE0FEA334
:1009D000E0FF12239B12230912244FEE3395E0FD12
:1009E000FCE47BB87A88F9F8C3120F6A500A9002C7
:1009F000567488F0A374B8F030053C122333E070CD
:100A000016EF25E02439F8E6FC08E6FD1223C7C3FB
:100A10009DEE9C505D801A900255E025E02421F85F
:100A2000E6FC08E6FDA3E0FEA3E0FFC39DEE9C50BC
:100A3000417C007DC880359002551223B91224C034
:100A4000500890020EE064207028EF25E024211267
:100A500023B2122425C39FEC9E5017ED9400EC6442
:100A6000809480400D1223C77C007D0A120CEA128C
:100A70002481122333E0606FEF12238FE0FEA3E0A6
:100A80004E7011900255A3E0FCA3E0FD1216D112A6
:100A90002481802E122313FF122425123EB1D3EF9E
:100AA0009432EE9400401B12238AE0FCA3E0D3941E
:100AB000C8EC9400400CEF12238F74FF75F09C1269
:100AC0000D20122313FF7C007D0712101790025691
:100AD00012236FEE3395E0FDFC120E32E47B08FA30
:100AE000F9F8120ED880031223C7900255E075F072
:100AF00002900045122366122313FFD39405EE944F
:100B000000400EEF9410EE94005006900256EE80D6
:100B100020900255E0FF75F00290003D12232BFD5E
:100B200075F002EF90004512231D2DFFEE3C900260
:100B300056F0A3EFF0D3900257E09430900256E0C5
:100B4000648094F540077475F0A37430F0E5DB54CD
:100B50000470611223C790001112239EFD12230915
:100B600012244FEF24A8FFEE8037E5DB54047044D5
:100B700012239BFF1223091224CB75F002EF900081
:100B80003D12231DFF90001112239EFD1223091216
:100B9000244F75F002ED12230C120D6124A8FFE51D
:100BA000F03461FE90000E12100575F002ED122374
:100BB0000C12244F22900269ECF0A3EDF090026831
:100BC000EFF0123637C083C08290026FE0D082D03F
:100BD00083123631E07046123628123645C083C083
:100BE0008290026FE0D082D083123631120FA4E4DB
:100BF000FBFAF9F8C3120F80602312362812364F21
:100C0000C083C08290026FE0D082D083123631124E
:100C10000FA4E4F8C3120F8060030214F912366CBB
:100C2000C390026AE09FFF900269E09E1216BAC06C
:100C300083C08290026FE0FCD082D083123631EE06
:100C4000F0A3EFF0ED123637123683E060509002D9
:100C500068E0FF12368AC083C08290026FE0D082C3
:100C6000D083123631E0FCA3E0FDEF75F005A4243B
:100C70001AF582E4343FF583E493FE740193FFD3C5
:100C8000ED9FEC9E401812362812363BC083C0827E
:100C900090026FE0D082D0831236317405F01236A4
:100CA0006C123628123645C083C08290026FE0D0A5
:100CB00082D083123631120FBC123628123659C038
:100CC00083C08290026FE0D082D083123611123638
:100CD0004FC083C08290026FE0D082D08312363141
:100CE000120FBC900268E0FF123637C083C08290BA
:100CF000026FE0FED082D083123631E0D3940074CC
:100D0000809480400EEF12363775F00EEE120FF918
:100D1000E014F090026B0216B6123628123645C067
:100D200083C08290026FE0D082D083123631120FDE
:100D3000A4900270120FBC12362812364FC083C026
:100D40008290026FE0D082D083123631120FA490CD
:100D50000274123663123628123698C083C082900D
:100D6000026FE0D082D083123631E0F9F8120F9191
:100D7000EFFBEEFAEDF9ECF8123666120E3F900238
:100D800078120FBC900270120FA490026B120FB079
:100D9000120E32900278120FB0120E321236A212D8
:100DA000366C123628123645C083C08290026FE03E
:100DB000D082D08312363112366312362812364F63
:100DC000C083C08290026FE0D082D083123631128D
:100DD0003663ECC0E0EDC0E0EEC0E0EFC0E01236FC
:100DE00028123659C083C08290026FE0D082D0832F
:100DF000123631E0FEA3E0FBEEFAE4F9F8D0E0FFB2
:100E0000D0E0FED0E0FDD0E0FC120ED81236A29069
:100E10000268E0640160030216B312366CEFFBEE69
:100E2000FA123666C3EF9BFFEE9A1216BAC083C061
:100E30008290026FE0FCD082D083123631EEF0A3B4
:100E4000EFF0ED12368A123683E0FEA3E0FF900247
:100E500068E0FB75F005A42418F582E4343FF583BF
:100E6000E493FC740193FDD3EF9DEE9C4065123634
:100E70006CEB75F01CA4123645C083C08290026FE3
:100E8000E0D082D083123631120FBC1236281236CF
:100E900059C083C08290026FE0D082D08312361195
:100EA00012364FC083C08290026FE0D082D083128E
:100EB0003631120FBC12362812363BC083C08290E6
:100EC000026FE0D082D0831236317405F012366C96
:100ED0001236A2900274120FA422FE123F0090025A
:100EE00068E0FD75F01CA42425F582E43402F58346
:100EF00022900258EFF0A3ECF0A3EDF0EF1235D5FD
:100F0000E0FEA3E0FF123EB1D3EF9432EE94004036
:100F10001C1235A5120FC800000000123571E4F054
:100F20001235EF1235D1EEF0A3EFF08043123560A9
:100F3000E0FEA3E0FFD39400EE940040339002590A
:100F4000E0FCA3E0FDD3EF9DEE9C400B900258E047
:100F5000123598E04401F0900258E0FF123564E049
:100F6000FAA3E0C39DEA9C5007123597E04402F0D3
:100F7000900258E01235AAC083C082120FB0123519
:100F8000EFE4FCFD120E32D082D083120FBC90022F
:100F900058E0FF1235F8E475F001120D20EF75F0FE
:100FA00007A424F7F582E4343EF583E493FE74014C
:100FB00093FF900258E0FDC454F02484F582E43499
:100FC00002F583E0FAA3E0C39FEA9E5003021951A1
:100FD000ED1235F8E0FEA3E0FFFBEEFAE4F9F8903D
:100FE0000258E01235AA120FA4120ED890025B121A
:100FF0000FBC123560E0FEA3E0FFEEC0E0EFC0E002
:10100000123605EFFDEEFCD0E0FFD0E0FE123EB15F
:1010100090025FEEF0A3EFF0900258E0FD75F0074C
:10102000A424F2F582E4343EF583C37401939FE473
:10103000939E401FED123564E0FEA3E04E601490D5
:101040000258E0FB1235E2E0FEA3E0C394B8EE9450
:101050000B5021900258E0FF123564E0FCA3E04CF5
:101060007008EF1235E2E4F0A3F012360512356095
:10107000EE0218FBEB600764016003021901E490C3
:101080000261F090025FE0FEA3E0FFD39450EE9483
:10109000004006A37408F08032900258E0123598A0
:1010A000E064036026D3EF943CEE94004008900285
:1010B000617402F08015D3900260E0943290025F78
:1010C000E0940040069002617401F0123560E0FE89
:1010D000A3E0FFE4FCFD12360BD3120F8040119009
:1010E0000261E0FF123560E48FF0120D2002193723
:1010F000D3900260E0945090025FE0940040581258
:101100003560C083C082E0FEA3E0FF900261E0FD95
:10111000C3EF9DFFEE9400D082D083F0A3EFF08068
:1011200036123560E0FEA3E0FF4E700D12360BEB79
:10113000FFEAFEE9FDE8FC80167C007D071210172F
:1011400012360B120E32E47B08FAF9F8120ED8129E
:101150003560EEF0A3EFF01235A5120FC8000000C5
:1011600000123571E4F01236051235D1EEF0A3EF1E
:10117000F0123560E0FCA3E0FDD39400EC94004055
:10118000561235EF123EB1900258E075F007A424D4
:10119000F4F582E4343EF583D37401939FE4939E87
:1011A000400F900258E0FF1235641235B7E4F0802A
:1011B00026900258E0FF75F007A424F6F582E43487
:1011C0003EF583E493FE1235C3E0C39E5009123509
:1011D000601235B7E004F01235EF22900258EFF0BC
:1011E000E0FF2452F582E43400F583E07003021A34
:1011F0008F9000D1122F8AE0FEA3E04E701A90006B
:10120000D9E0FEA3E0FF900258E09000D1122F41F8
:10121000EEF0A3EFF0021ABF900258E09000D11256
:101220002F67E0FEA3E0FF9000D9E0FCA3E0FD12F1
:101230003EB19000F7121005900258E0FD122FAE5B
:10124000EE8FF0120E0574CD2D122FCFE070379077
:1012500000F712100575F002ED122FB1120D61C3E7
:101260009406E5F09400500A122F4DEEF0A3EFF033
:101270008014E4FFEF12300F500C74CD2F122FCFDB
:101280007401F00F80EE900258E0FF9000D1122F11
:101290008BE0FCA3E09000D9123037400A74CF2FC6
:1012A000122FF8E4F08038122FF27401F0803090A1
:1012B0000258E0FF9000D1122F94E4F0A3F0EF1257
:1012C0002F64E4F0A3F074CD2F122FCFE4F0900040
:1012D000E7122FBBE4F0A3F0122FB8E4F0A3F01252
:1012E0002FC8E07003021C29122F87E0FEA3E0D371
:1012F0009400EE94005003021C29123017900258FB
:10130000E0FD75F002122F57E0FCA3E0FD123EB1A4
:10131000900259EEF0A3EFF0900258E09000FB121B
:101320002F41E0FCA3E0D39FEC9E400CD390025AE7
:10133000E0948C122FEB5018122F6DE0FEA3E0C347
:101340009DEE9C506390025AE094C8122FEB4058D7
:10135000122FC8E4F0EF9000D1122FC2E4F0A3F0F6
:1013600012301775F002EF122FB1120D61FFAEF0BF
:10137000900258E0FD122F64E0FAA3E0C39FEA9EBA
:10138000500F75F002ED9000E312304374C8F08006
:1013900011900258E09000E3122F9E7401F0A374A4
:1013A0002CF0122FF2E4F022122F6DE0FEA3E0D316
:1013B0009DEE9C404FD3122FE54049900258E0909B
:1013C00000EB122FBCE0FEA3E01230225036122FA9
:1013D000A474FF75F0F7120D99122FB8E475F00997
:1013E000120D2012300012301D50191230299000B9
:1013F000E7400D120FF974FF75F0F7120D2080040D
:10140000123043F0122F6DE0FEA3E0C39DEE9C501E
:1014100038122FE54033122FA4E475F009120D990C
:10142000123000E475F009120D20122FB812301D91
:1014300050171230299000EB400B120FF974FF7512
:10144000F0F7020D20123043F022900255EFF0A386
:101450007402F0A374BCF0E4A3F0A3F0D3900108ED
:10146000E09400900107E0940040179000051223DB
:10147000D3E0FF12230912242E90000B1223051231
:10148000246A90029DE07002A3E0600B900256E493
:10149000F0A37464F0800B900137E0641170037462
:1014A00020F0900255E0FB122338E06020900255B6
:1014B000E0FA122381120FC80000000075F00AEA5A
:1014C00090005812235A75F00AEB021E7E12237DFB
:1014D000C083C082120FB0E8C0E0E9C0E0EAC0E01B
:1014E000EBC0E09000051223D3E012230912247A06
:1014F000E4FCFDD0E0FBD0E0FAD0E0F9D0E0F81257
:101500000E32D082D083120FBC900255E0FF9000C3
:101510005812238412245875F00AEF90005C1223AD
:101520001DFF900256E0FCA3E0FDC3EF9DEE9C5032
:1015300003021E8412237DC083C082120FA4ECC05C
:10154000E0EDC0E0EEC0E0EFC0E0900255E075F0E5
:101550000A90005812231DFBEEFAE4F9F8D0E0FFE0
:10156000D0E0FED0E0FDD0E0FC120ED8D082D083D7
:10157000120FBC1223D0E0122309120D612450FF78
:10158000E435F0FEE4FCFD12237D120FB0D3120F00
:1015900080403690029DE07002A3E0702C900255CE
:1015A000E0FB122445E0702112248A12245575F0C4
:1015B0000AEF90005A12231DD39403EE9400401DAD
:1015C00075F00AEB1223428014900255E0FB75F08F
:1015D0000A122342900255E0122445E4F012248AB4
:1015E00012232B4C6003021E6290000B1223051283
:1015F0000D61FFC3900259E09F900258E095F050B2
:101600006F1223D01222F1122409123F00C3EF946B
:10161000E8EE648094835058900255E06401900095
:101620000B701F1223D3E012230912247A7C007D51
:101630000412101790025812236F1224BAE47B058B
:1016400080261223D3E012230912247A7C007D0223
:10165000121017ECF8EDF9EEFAEFFB900258E0FEED
:10166000A3E01224B9E47B03FAF9F8120ED880083B
:10167000900258E0FEA3E0FF1223D0E012230912EB
:10168000244F900255E0FB122381120FC800000086
:1016900000900058122356900255E075F00A900011
:1016A0005C12235A22E4900256F0A3F01229B0D320
:1016B00090029EE0940090029DE09400400302207E
:1016C000DE9000DB120FB0900020E0FEA3E0FFE40C
:1016D000FCFD120E329000DB120FBC9000DFE475AF
:1016E000F001120D20C39000E2E094649000E1E06C
:1016F00094005003021F579000DB120FA4ECC0E0CF
:10170000EDC0E0EEC0E0EFC0E09000DFE0FEA3E05F
:10171000FBEEFAE4F9F8D0E0FFD0E0FED0E0FDD037
:10172000E0FC120ED89000DB120FBC9000DB120F11
:10173000A49000D9EEF0A3EFF0A3120FC8000000B0
:1017400000E49000DFF0A3F0A3F0A3F090029DE08E
:101750007002A3E07021900255F012300A501890E8
:1017600000E3123003E0FEA3E04E70031219BB90B9
:101770000255E004F080E3E4900255F012300A4094
:10178000030220DE74522FF582E43400F583E0FF7B
:101790006025900255E0FE122FDCE0FCA3E04C70C7
:1017A00016900020E0FCA3E0FDEE900109122FC28C
:1017B000ECF0A3EDF08026EF702312301790025565
:1017C000122FAD120D61C39496E5F09400500E12E5
:1017D0002FD7E4F0A3F0122F9AE4F0A3F090025573
:1017E000E0122FDCE0FEA3E0FF4E70030220D59054
:1017F0000020E0FCA3E0FDC3EF9DFFEE9CFE123F46
:1018000000900256EEF0A3EFF0122FD7E0FCA3E019
:101810009000201230374013900256E0FCA3E0FD08
:10182000EF122F91ECF0A3EDF08022900256E0FE33
:10183000A3E0FFD394C8EE94004012EE13FEEF1322
:10184000FF900255E0122F91EEF0A3EFF0900255B9
:10185000E0FF122F91E0FCA3E0D3940AEC94005037
:10186000030220D512301775F002EF122FB1120DBE
:1018700061D39498E5F0943A4041900255E0FB1210
:101880002F9BE0FEA3E0C39428EE942350679002C0
:1018900055E0FA24C3F582E43402F583E075F018CC
:1018A000A4FFAEF0EA122F91E0FCA3E0FD120C833E
:1018B000EB122F9BEEF0A3EFF0803A12301790025C
:1018C00055E0FF122FAE120D61D394E8E5F09403BA
:1018D0004023122F9AE0FEA3E0C39458EE940250E6
:1018E00014900255E0122F91E0FCA3E0FD122F9A14
:1018F000ECF0A3EDF0900255E004F0021F5C22D35F
:1019000090029EE09F90029DE09E400AA3E09FF01F
:1019100090029DE09EF09002A21238609002A1E039
:101920009C400CA3E09FF09002A1E09EF08002D2C8
:101930008AD39002A0E09F90029FE09E400AA3E01D
:101940009FF090029FE09EF0123871500312386BA6
:10195000D39002A8E09F9002A7E09E400AA3E09FD8
:10196000F09002A7E09EF0D39002ACE09F9002AB13
:10197000E09E400AA3E09FF09002ABE09EF0D3907F
:1019800002B0E09F9002AFE09E400AA3E09FF0907B
:1019900002AFE09EF0D3900104E09F900103E09E2F
:1019A000400AA3E09FF0900103E09EF0D39002A4D0
:1019B000E09F9002A3E09E400AA3E09FF09002A364
:1019C000E09EF09002B41238609002B3E09C400AAE
:1019D000A3E09FF09002B3E09EF012387F50031214
:1019E000386BD39002AAE09F9002A9E09E400AA320
:1019F000E09FF09002A9E09EF0D39002AEE09F90AD
:101A000002ADE09E400AA3E09FF09002ADE09EF0A0
:101A1000D39002B2E09F9002B1E09E400AA3E09F03
:101A2000F09002B1E09EF0D39002A6E09F9002A554
:101A3000E09E400AA3E09FF09002A5E09EF0D390C4
:101A40000106E09F900105E09E400AA3E09FF09010
:101A50000105E09EF012388D500312386BD39000D0
:101A6000E4E09F9000E3E09E400AA3E09FF0900036
:101A7000E3E09EF0D39000E6E09F9000E5E09E401A
:101A80000AA3E09FF09000E5E09EF09000B11238CC
:101A9000D39000B0E09C400AA3E09FF09000B0E03B
:101AA0009EF0D3900108E09F900107E09E400AA3BA
:101AB000E09FF0900107E09EF09000B31238D390C1
:101AC00000B2E09C400AA3E09FF09000B2E09EF0DC
:101AD00012389B500312386B1238A9500312386B1E
:101AE0001238B7500312386B1238C5500312386BD6
:101AF000D390003AE09F900039E09E400AA3E09F17
:101B0000F0900039E09EF02290000B121005900238
:101B100055E0FF75F002A4F58285F083120D61FD9A
:101B2000ACF0900005121005EF75F002A4F5828567
:101B3000F08322900255E090004575F002120FF9F3
:101B4000E0FEA3E02275F002900001120FF9E0FC24
:101B5000A3E022900255E0FF2452F582E43400F520
:101B60008322900054120FF9120FA4900258EEF045
:101B7000A3EFF090005A75F00AEB120FF9E4F0A30E
:101B8000F022FD75F002120FF9EEF0A3EFF022EC57
:101B9000F8EDF9EEFAEFFBE0FEA3E0FF229002552C
:101BA000E090005475F00A020FF9900255E0FF250D
:101BB000E024AFF582E43402F5832290000812108D
:101BC00005900255E02275F00AA42425F8E50825C1
:101BD000E028F8E6FE08E6FF22E0FF25E024ABF56A
:101BE00082E43402F58322900256E0FEA3E0FF2255
:101BF00090000B12100590025522900256E0FFC390
:101C00009402748094802275F002120FF9ECF0A314
:101C1000EDF02225E024A7F582E43402F58322903A
:101C200000B4EF75F004020FF9120D61C39DFFE5DA
:101C3000F09CFE22120D61C39DFEE5F09C900256C1
:101C4000F0A3CEF022900256E0FCA3E0FD22120D9C
:101C500061FDACF022EFF0D390029EE09400900280
:101C60009DE0940022241BF582E43401F58322EEEA
:101C70008FF0020E05120FF9E475F001020D2090AD
:101C80000255E075F0029000C422EC8DF0020E05C2
:101C9000C3E50894047480948022120D61FFAEF0B5
:101CA00022EE900256F0A3EFF022900255E0FF756D
:101CB000F00A90005A22900255E0FF75F002900160
:101CC0001122900008121005900255E0FF229002A8
:101CD0009F7403F0A37420F022FFE4FCFD020E3297
:101CE000E0FCA3E0D39400EC940022E4F5F0020EB3
:101CF00005C0E0C0F0C083C082C0D0E8C0E0D2AF71
:101D0000D390029EE0940090029DE0940040031264
:101D10003852D39002A2E094019002A1E0940040D6
:101D2000051238528002D28AD39002A0E09400902B
:101D3000029FE0940040031238521238715003128F
:101D40003859D39002A8E094009002A7E094004094
:101D500003123852D39002ACE094009002ABE094AE
:101D6000004003123852D39002B0E094009002AFCA
:101D7000E094004003123852D3900104E0940090A4
:101D80000103E094004003123852D39002A4E0947F
:101D9000009002A3E094004003123852D39002B4A2
:101DA000E094019002B3E0940040031238521238DC
:101DB0007F5003123859D39002AAE094009002A9F0
:101DC000E094004003123852D39002AEE0940090A9
:101DD00002ADE094004003123852D39002B2E09476
:101DE000009002B1E094004003123852D39002A652
:101DF000E094009002A5E094004003123852D39082
:101E00000106E09400900105E0940040031238526E
:101E100012388D5003123859D39000E4E0940090AA
:101E200000E3E094004003123852D39000E6E094BF
:101E3000009000E5E094004003123852D39000B1C6
:101E4000E094019000B0E094004003123852D39027
:101E50000108E09400900107E0940040031238521A
:101E6000D39000B3E094019000B2E09400400312DC
:101E7000385212389B50031238591238A9500312A5
:101E800038591238B750031238591238C550031256
:101E90003859D390003AE09400900039E094004023
:101EA00003123852D0E0F8D0D0D082D083D0F0D016
:101EB000E0327A01791D7DFF1228217B017A0079B9
:101EC000017D1A7C01123EC77A02799C7D1A122884
:101ED00021902DE0E49390011EF09001217411F007
:101EE000A37422F0A37433F0902DE2E49390012FB9
:101EF000F0902DE3E493900131F09002187401F01A
:101F00009001677411F090020E14F0900141F0A35B
:101F10007420F07B017A01795B90000512100E7A33
:101F200001795F90000B12100E7A0179639000081E
:101F300012100E7A01794F90000E12100E7A01796C
:101F40005790001112100E7A01795390001412105C
:101F50000E7A01797D90002212100E7A01799D90FF
:101F600000F712100E7A01792790004C12100E7AA9
:101F700001793890004912100E7A017947900017C4
:101F800012100E7A01794390001A12100E7A01791C
:101F90004B90001D12100E900017121005E475F002
:101FA000C8120DE690001A121005E475F064120DC7
:101FB000E690001D121005E475F096120DE67539D5
:101FC00000753AC875210075229690001712080313
:101FD00075F0C8120E0590001A12080375F064120D
:101FE0000E0590001D12080375F096120E05753B44
:101FF00000753CC87523007524967B017A01796DC4
:1020000090004F12100E90016F7412F0A3740BF039
:10201000A37407F0A37411F0A3740CF0A37407F079
:10202000A3740AF0A37408F0A314F090013D741097
:10203000F090029D7407F0A374D0F0E490029CF03D
:10204000227B017C00123EC722900255EFF0122441
:102050006312231DFFC39404EE9400502890025590
:10206000E0122325FD1223FFC083C082900255E0B9
:10207000FFD082D0831223E775F002EF9000C412E4
:10208000245502292490025A7401F090025AE0FF6C
:10209000C312247350291223FFC083C082900255BB
:1020A000E0FED082D08375F00212232BFD9000B0A9
:1020B000122402EE1223E790025AE004F080CC9042
:1020C0000255E0122338E060030229119000051246
:1020D0001005900255E0FD12230912247A75F002D2
:1020E000ED122328FD123EB1C3EF9428EE94005068
:1020F00040900255E0FD75F00290000112231DFF93
:1021000090000B121005ED12230912242E123EB17D
:10211000C3EF9414EE9400500590000B80039000E0
:1021200005121005900255E0FF12230912242E809B
:1021300009900255E0FF122325FD75F002EF900093
:10214000C01223EA900256120FC800000000E4906B
:10215000025AF012245F12231DFF90025AE0FDD3B1
:10216000EF9DEE94004030900256120FB090025A4C
:10217000E09000B4122403C083C082900255E0D0E6
:1021800082D08312231A1224B9900256120FBC90E7
:10219000025AE004F080BC900256120FA4ECC0E09A
:1021A000EDC0E0EEC0E0EFC0E012245F12231DFBA3
:1021B000EEFAE4F9F8D0E0FFD0E0FED0E0FDD0E0A8
:1021C000FC120ED8900256120FBC900256020FA4B9
:1021D000758D20438D20538D7FE4F5B275B6FF7564
:1021E000B7FF75B2A243B20153A8FB538B7F758B27
:1021F00010438B08E58B20E7030080F8538B7F7535
:102200008B11438B08E58B20E7030080F89002C117
:10221000E5B5F0A3E5B4F0758B01E4F5B27F02FEFD
:102220001220DF123E48E4F58D900020E0FEA3E08E
:10223000FF4E7010123E1CFD900020E5F0F0A3ED63
:10224000F0022A98123E1CFDC3EF9DFFEE95F0FEB2
:10225000123F00D3EF940AEE648094804024123E33
:102260001CFFC3900021E09F900020E095F05006F5
:10227000E475F001800790002074FFF5F0120D2046
:1022800080367D03123E0FECC0E0EDC0E0EEC0E012
:10229000EFC0E0123E1CFFAEF0E4FCFDD0E0FBD04E
:1022A000E0FAD0E0F9D0E0F8120E327B04123E25BD
:1022B000900020EEF0A3EFF0900020E0FFA3E0906C
:1022C0000119CFF0A3EFF07D02123E0F7B0A123E00
:1022D000259000EFEEF0A3EFF09000F3E07002A382
:1022E000E0700F9000EFE0FFA3E09000F3CFF0A3C9
:1022F000EFF0900020E0FEA3E0FF7C007D051210CF
:1023000017E47B64123E269000F1EEF0A3EFF0900C
:1023100000F5E07002A3E0700F9000F1E0FFA3E091
:102320009000F5CFF0A3EFF02290025FEFF0902E37
:1023300022E0FF900263E4F0A3EFF0758A50902E44
:10234000227401F090025FE0123A5B7404F0A3E49F
:10235000F0900260F0900260E0FFC3940D748094EE
:10236000804003022C2CEFF87E02E4088006CEA207
:10237000E713CE13D8F8FF900261EEF0A3EFF04E12
:102380007007900261F0A304F0902E207401F09089
:102390002E20E030E2F990025FE0FF902E00123A2A
:1023A0005EE0FCA3E0D394FEEC94074044EF902E53
:1023B00010123A74E0FEA3E0FF900261E0FCA3E09B
:1023C000FDEF2DFFEE3CFEC3EF94FFEE940790026D
:1023D0005FE075F002902E10500B120FF9EC8DF0AB
:1023E000120D208057120FF97407F0A374FFF080CC
:1023F0004B90025FE0FF123A5BE0FCA3E0FD90022D
:1024000061E0FAA3E0FBD3ED9BEC9A4024902E1000
:10241000123A7DC083C082C3A3E09BFF0582D582B0
:102420000215831582E09AD082D083F0A3EFF0806A
:102430000B90025FE0123A5BE4F0A3F0902E20E4F0
:10244000F0F58D900260E004F0022B35900263A35A
:10245000E0902E22F0758A10229002551224354009
:1024600003022D5B300545900255E075F0029001A6
:102470000312231D4E9002556019E0FF25E0243918
:10248000F8764E087620EF25E02421F8761F0876AE
:10249000408045E0FF25E02439F8760B0876B8EF58
:1024A00025E02421F876090876C4802C122496129F
:1024B000232B24C8FDE43CF8EF25E02439C8F608B6
:1024C000EDF612249612232B2496FDE43CF8EF251A
:1024D000E02421C8F608EDF61224A2122309120DF9
:1024E00061FDEF25E024391223B2C3ED9FE5F09E94
:1024F0005024900255E0122338E060321224A212D8
:102500002309120D61FDEF25E024211223B2C3ED52
:102510009FE5F09E40189002551223B9E0FCA3E01D
:102520004C703A74522F12233A7401F0802F9002AB
:102530000EE06420900255700AE01223BBE4F0A381
:10254000F0800AE01223BBE4F0A374C8F0900255B7
:10255000122336E4F0EF1223F3E4F0A3F0900255D7
:10256000E0122338E060031224AE900053E0C4541C
:10257000F0FF900052E04F900168F02253A87F12C4
:102580003E64122692123E2C12080E43A880E4F5F7
:102590008D90020E7420F01237C690029CE01460F9
:1025A0001614601E24FE603E240470E21233209054
:1025B000029C7401F080D712304A90029C7402F0A1
:1025C00080CC123B1290013DE0FF64206008EF6474
:1025D0002160031238DE900142E0641070B0900276
:1025E0009C7404F080A8123C4C900142E06410609E
:1025F0009D90029C7401F080950102200001020070
:102600000300AB4874AA7583F5758255A57455759A
:1026100083FA7582AAA574A57583F5758255A522DE
:1026200002040AB00BB60CFF090208FF0D770E0476
:102630001307141010801500160001129212070BD8
:10264000210A0F040404040101011112110A120BE2
:102650000C0803010204900258EFF0E4F50CF50BAE
:10266000F50AF509F50CF50BF50AF509F50812243C
:10267000705025900258E01223A6E4FCFDE50C2FD3
:10268000FFE50B3EFEED350AFDEC35098F0C8E0B98
:102690008D0AF509050880D6E47B04FAF9F8AF0C39
:1026A000AE0BAD0AAC09120ED8900258E075F002DC
:1026B0009000C8122366E4750CA8750B61F50AF545
:1026C00009F5081224705074900258E0FD1223A6F8
:1026D00075F002ED9000C812232BFD123EB1D3EF2E
:1026E000940AEE9400900258E0FF400B75F00290BF
:1026F00000C812232B801175F00AA42425F8E508E0
:1027000025E028F8E6FC08E6FD75F002EF9000777A
:1027100012231DFFC3ED9FFFEC9EFE3395E0FDFCF1
:10272000E50C2FFFE50B3EFEE50A3DFDE5093C8F7C
:102730000C8E0B8D0AF5090508022EA3E47F607E3E
:10274000EAFDFCAB0CAA0BA90AA809D3120F804022
:102750000BE4750C60750BEAF50AF509AE0BAF0CCE
:1027600022FD75F002120FF9EEF0A3EFF0900008D1
:1027700012100575F002EDA4F58285F083120D614B
:10278000FFAEF0ED9000D575F002020FF990000851
:10279000121005900258E0FF75F002A4F58285F052
:1027A00083120D61FDACF09000D5EF75F002020FC1
:1027B000F990010D75F002020FF9EF90011175F01B
:1027C00002020FF990000B121005900258E075F00C
:1027D00002A4F58285F083229000EBEF75F00202EF
:1027E0000FF975F002020FF9900258E0FF24CDF5C1
:1027F00082E43400F58322900255E0FF75F00290E8
:102800000109020FF990025AE09414900259E094E1
:102810000022900258E024CFF582E43400F58322B0
:102820009000E775F002EF020FF9900255E0FFC348
:1028300094027480948022900008021005E0FEA3A8
:10284000E0FFC39430EE947522EF9409EE9400906B
:102850000258E075F00222FDE0FAA3E0FBD3ED9B05
:10286000EC9A22120FF9E4F0A322123967123E7E8D
:102870007A0079C41231307A0079B47D1012314473
:102880007A0079931231307A00798F12313A7A00D6
:10289000799712313A7A0079527D021231447F04DD
:1028A00012314CE4FFEF1223DF505175F002EF12AA
:1028B0002328FD12230212246A75F002EF12232846
:1028C000FD90000B12230512246A900008122305C4
:1028D0001224CB90000E122305746175F0A8120E1D
:1028E00005900014122305746175F0A8120E05906E
:1028F00000111223051224CB0F0230857B017A00D0
:1029000079CD7D2A7C00123EC7E49002A3F0A3F0AB
:10291000A3F0A3F07B017A0079547D14FC123EC72A
:10292000E4900124F09001677411F0A3F01224AE3A
:102930009002B5E0700FC390029EE094F490029D67
:10294000E09401500A90029D7401F0A374F4F02207
:102950007B017D047C00123EC7227B017D047C004C
:10296000123EC7227B017C00123EC722900255EF27
:10297000F0E4900257F0900255E0FF900257E0C358
:102980009F507912082EE4900256F01223DA506319
:10299000123C04900256E090009712236275F002F8
:1029A000ED900097120FF9E0F8A3E0FFED75F00A43
:1029B000A4242DC8F608EFF6ED75F00AA4FF24252F
:1029C000F9E4FAFBC0E0C0E0E9C0E074272FF9E4C5
:1029D00090025B12100E90025EE4F0A37408F0D037
:1029E000E0F9D0E0FAD0E0FB123B68900256E00438
:1029F000F08098900257E004F0023156E4900256BD
:102A0000F01223DA5059122E36900256E09000014F
:102A100012236275F002ED90004112231DFF75F044
:102A200002ED90009312232BFD123EB17C007D0538
:102A3000120C95900256E0FF90003D1223E775F0CE
:102A400002EF90009312231DFF900256E075F002F2
:102A5000900041122366900256E004F00231E12218
:102A6000900258E025E025E02460F582E43402F588
:102A70008322ED90008975F002120FF9E0FEA3E0C9
:102A800022FD75F002EF120FF9ECF0A3EDF09002C9
:102A900058E0FF25E0245AF582E43402F5832290C1
:102AA000008975F002020FF9FD75F002120FF9EEC0
:102AB000F0A3EFF022123E9853B2E143B20C758AB4
:102AC0005043B202902E207401F022900258E0FF91
:102AD000C39402748094802290009375F002020FD8
:102AE000F9A3F0902E20E4F053B2E143B210758ABE
:102AF0001043B2022290011575F002020FF9F5831E
:102B0000E4932420F582E4342EF58322ED75F0025F
:102B1000020FF975F00490002D020FF9EF902DDCF3
:102B200093902DD993223EFE7C007D03020C95905C
:102B30000258E004F022F582E43402F583E0FF223B
:102B4000900068E4F0A37402F0A37407F0A304F00B
:102B5000123D5D7B017A0079777D067C00123EC7CD
:102B60007F02123DEB902E14E0FEA3E0FF7C007D7F
:102B70000A120C8390004F121005EE8FF0120DE632
:102B8000E4900254F0900254123AA35072123DEBBA
:102B9000900254E0902DDC93FF123A5BE0FCA3E03E
:102BA000C39405EC94004012902E10123A84E0FE7B
:102BB000A3E0D394F0EE94074012900254E0FF900B
:102BC0000068123A7EE4F0A3F0123DEB902E23E46D
:102BD000F0900254123A55123A64123AAD90004CF9
:102BE000121005900254E075F002A4F58285F0837E
:102BF000EE8FF0120E05900254E004F0023365905F
:102C0000013A7410F022C0E0C083C082C0D075D0F9
:102C100018D2AFE5DB30E422D203C202E5DB30E1BB
:102C200014123EDDE0F5DFEF64077069D28A90018F
:102C300024F0023498C20102349BE5DB30E52C908D
:102C4000020DE064AA7017758A10F5DAC2AFF5B20A
:102C5000F5A8F5A9F58B758E01758DC080FED200A3
:102C6000300204C2028054C2038050C202E5DB304D
:102C7000E125E5DB30E044123EDDE0F5DFEF24F94D
:102C8000600C24FA60042402700BD2048007D28AFC
:102C9000900124E4F0802120010A780DA6DFD20102
:102CA000D2028017123EDDE5DFF0EF642470099058
:102CB000029F04F0A374F4F0780D0675DBFFD0D00A
:102CC000D082D083D0E032E4FFFD9002A1E0700416
:102CD000A3E064017011900124E06004D28AE4F062
:102CE000E49002A1F0A3F0900052E0600E90014148
:102CF000E064106006EF4420FF8004EF4410FF9072
:102D00000053E0600E900141E064106006EF440261
:102D1000FF8004EF4401FF900167EFF0900000E0B6
:102D2000FC6F605B900167E0FFEC6FFE900000EFCE
:102D3000F0208A1BD28A9002A1E4F0A37403F090E1
:102D400002A2E024FFFB9002A1E034FF4B70F09060
:102D50000124E07007900167E05E8013EEF4FF90BD
:102D60000000E05FFDEEFF900167E05FFFED4F9038
:102D70000124F09002A17403F0A374E8F0C28A2247
:102D8000900258E0C454F02482F582E43402F583C2
:102D900022EBC454F02480F582E43402F583E4F09D
:102DA000A3F0900258E0FFC454F02484F582E43488
:102DB00002F583E4F0A3F0EFC454F02489F582E433
:102DC0003402F58322900258E0FBC454F0247CF5D1
:102DD00082E43402F58322E0FDA3E0900259CDF0B5
:102DE000A3EDF0EFC454F02488F582E43402F583B7
:102DF00022900258E0C454F02486F582E43402F5AF
:102E00008322C454F0248AF582E43402F5832290AC
:102E10000259E0FEA3E0FF22C454F02480F582E4CE
:102E20003402F5832290025B020FA490025B020F32
:102E3000B075F00E120FF9E0FEA3E0FFE4FCFD9088
:102E4000026B120FB0120E4D900268E075F01CA4D8
:102E50002275F00E020FF975F01CA42424F582E40B
:102E60003402F583222420F582E43402F5832224FF
:102E70001CF582E43402F583222428F582E434022E
:102E8000F58322120FBC900274020FA490026B0211
:102E90000FA4ED75F005A42417F582E4343FF58303
:102EA000E49322EC75F00E020FF975F01CA42425B2
:102EB000F582E43402F583222427F582E43402F516
:102EC0008322900274020FBC2004030237363005BF
:102ED00003023736C204E4900255F0900255123ACC
:102EE000A35069E0FE123A57E0FCA3E0FDEE123A6F
:102EF0008BECF0A3EDF0123DEB900255123A551217
:102F00003A64123AAD900255E0FD123A97EEF0A302
:102F1000EFF0ED123A97E0FEA3E0FF90004C1210A4
:102F20000575F002EDA4F58285F083EE8FF0120EA8
:102F300005ED123A8BE0FEA3E0FFED123A57EEF0FA
:102F4000A3EFF0900255E004F00236BB90029F74AC
:102F500003F0A37420F022787FE4F6D8FD75813C5D
:102F6000023781020000022D5CE493A3F8E493A3EE
:102F70004003F68001F208DFF48029E493A3F854BB
:102F800007240CC8C333C4540F4420C8834004F43E
:102F900056800146F6DFE4800B0102040810204051
:102FA00080903D93E47E019360BCA3FF543F30E5E5
:102FB00009541FFEE493A360010ECF54C025E060C6
:102FC000A840B8E493A3FAE493A3F8E493A3C8C594
:102FD00082C8CAC583CAF0A3C8C582C8CAC583CA85
:102FE000DFE9DEE780BE90013DE0642070037421DC
:102FF000F0900049121005120D36641045F0700370
:10300000123CD890011EE064AA7003123AB7123B3A
:10301000B9200608900137E06410700D90013774F4
:1030200011F0C206E490029CF0900218E06006E401
:10303000F090029CF09000B0E07004A3E0640160A6
:103040000C9000B2E07004A3E064017015E49000FD
:10305000B0F0A3F0A3F0A3F0900107F0A3F090026A
:103060009CF030000CC20090029F7401F0A374F435
:10307000F02274FFF5F0020D20E475F001020D203E
:10308000EF2401FDE43EFCD3E09D22EE8FF0020D23
:1030900020C390005DE094BC90005CE0940222C3E9
:1030A000900067E094BC900066E0940222C3900018
:1030B000E2E094649000E1E0940022C390028BE08F
:1030C00094B890028AE0940B22C3900285E094F4B5
:1030D000900284E0940122C390029BE094B8900295
:1030E0009AE0940B22C3900295E094F4900294E04D
:1030F000940122EF2401FDE43EFCD3E09D22208ACE
:103100000302396690029DE07002A3E0707890009F
:10311000B0E07002A3E0706E9000B2E07002A3E035
:103120007064F5B2758D20438D20758D9043A8088D
:10313000D2AF758B40900039E0FEA3E0FF4E6005F2
:10314000758E148003758E3F20002F20032CE5DB45
:1031500054047026758A84200320E5DB5404701A19
:10316000F586758703000000758601EF4E60047FC9
:103170002880027F7F7E001220DF758B01758A1008
:1031800053A8F7123E48227B017A02791C7D387CD5
:1031900000123EC7E4FDEDC3940274809480506237
:1031A000E4900254F0900254E0FFC39402748094BF
:1031B00080504B123672FEED75F01CA4123698EF5B
:1031C000123684EEF012367204F87E007401088024
:1031D00005C333CE33CED8F9FFED75F01CA41236FB
:1031E00059C083C082900254E0D082D0831236311D
:1031F000EEF0A3EFF0900254E004F00239850D02E6
:10320000397622E4FEEEC3940774809480502FEE4A
:1032100025E025E0241BF582E4342EF583E5822F9A
:10322000F582E43583F583E493FDEE25E025E02483
:103230001AF582E4342E1232DEEDF00E80C7EFFD77
:103240007C00701775F002EF900068120FF9E0FA39
:10325000A3E04A7006902E217412F0ED64014C70C8
:103260001375F002EF9000681232594E7006902EDE
:10327000217412F022E0FB902DDC93902E1075F05B
:1032800002020FF9E0FEA3E0FF7C007D0A120C832E
:10329000EB90006875F002020FF99000B0EF75F046
:1032A00002020FF975F002EF020FF925E0245AF53A
:1032B00082E43402F5832225E02456F582E43402C8
:1032C000F58322E0FFC394027480948022E0FCA383
:1032D000E02FFFEC3EFE229002547408F0A3E4F0CD
:1032E000A3743FF0A374DFF0E4FDFCF9123EEB00A1
:1032F000900254E0FEA3E02DF582EE3CF583E493CA
:10330000FF69F90DBD00010CBC37E5BDDFE290029D
:1033100056E0FEA3E0F5828E83E493FFE96F700828
:1033200090011E7403F08005E490011EF0123EEB44
:1033300000227F0112314C121E85E4900254F0905D
:1033400002541223DD503B123D1B900254E0FF1249
:103350002829EEFCEFFD900005121005900254E0C4
:10336000FF12230912246A121044900254E0FF1243
:103370002C39900254E0FF121C2A900254E004F011
:1033800080BD1234A70236A890026012100E90027F
:103390005B12100590026312100E90025EE0700244
:1033A000A3E06034900263121005120C58FF9002E3
:1033B00060121005EF120C71900261E475F00112B9
:1033C0000D20900264E475F001120D2090025E74ED
:1033D000FFF5F0120D2080C222900130E0FF900234
:1033E000B6E06F600CEFF09002B37402F0A3745873
:1033F000F09002B3E07004A3E0640170269002B67E
:10340000E0FF7E0064107002D205EF64204E70026F
:10341000C205900142E064106002D206E49002B35B
:10342000F0A3F022EFFB90009312231AFF75F00235
:10343000EB90008F12236675F002EB900097122339
:103440002BFDECC0E0EDC0E075F002EB90008F12B8
:10345000231DFFE4FCFD90026B120FBCEB90026F8A
:10346000F0D0E0FDD0E0FC7F01021395900142E036
:103470006410703FF5B2758D20438D20538D7F53BE
:10348000A8F7F58BE5DB54047013200310F58AF5DB
:1034900086758703000000758601758A10758B019B
:1034A0009002B57401F090029F7403F0A37420F0B1
:1034B000123E4822C2D5E830E70FB2D5E4C39BFBE9
:1034C000E49AFAE499F9E498F8EC30E717B2D512E7
:1034D0003CCA120ED8E4C39BFBE49AFAE499F9E4DF
:1034E00098F88003120ED830D50DE4C39FFFE49EF8
:1034F000FEE49DFDE49CFC22E4900254F0A3F01253
:103500003EEB00122DE475EA81E4F5F6F5F475F36F
:1035100008F5F275EB0700E5EC30E7FBAFF3EFFEE3
:10352000ADF2EDFF900049121005EE8FF0120DE69E
:10353000E4F5EC75EB30123EEB0022900077123A86
:1035400084E0FCA3E0243CFDEC34F6FC75F002EFD3
:10355000900093120FF9E0FAA3E0C39DEA9C501586
:10356000123A7AE0FCA3E04C7012123A7A7401F03D
:10357000A374F4F022123A7AE4F0A3F022E4FFEF0D
:10358000C3940D748094805021EF25E02401F582CE
:10359000E4342EF583E493FEEF25E02400F582E485
:1035A000342E1232DEEEF00F80D5902F56E0902EA2
:1035B0002BF022C1034202C30405C1044102B7003B
:1035C000C1054102B600C101010D00C100C10242A6
:1035D000011B000041000011C1064302BE0102C1EF
:1035E00000900258EFF0E075F010A4247CF974020A
:1035F00035F0FA7B017D107C00123EC7900258E046
:103600001235E2740BF0A374B8F02290025EEFF072
:10361000123E9890025EE0FF1239E390025EE09065
:103620002DDC93FF122B0990025EE0FF023F0C900D
:103630000020E0FEA3E0FF7C000210179002BE1203
:103640001005020D36E4FAF9F8020ED8E4F5DA7541
:10365000DA4043DA2075D74075D64075DA5843A86A
:103660000275B80275F80222E5B254016006E5A8B9
:103670005410700F75B29275B6F9E4F5B743B20104
:1036800043A81022758A10538AEF758601758F053D
:10369000E4F5AB75AC0F75913FF592D28A227B01B0
:1036A0007A00797D7D067C00123EC77B017A007925
:1036B000897D067C00023EC7EFF87401088002C3D2
:1036C00033D8FC42AB1232FCF4529152935391DF47
:1036D00022D3EF9DEE9C4007EF9DFFEE9CFE22C3A0
:1036E000ED9FFFEC9EFE22ED4C6011E4120C710484
:1036F00029F9E43AFAED1D70EE1C80EB22780DE614
:10370000FF241DF582E43401F58322758A10538A63
:10371000EF22009600960701F4009600960701F448
:10372000EE30E707C3E49FFFE49EFE221232FC4224
:103730009142884391202204001E001901001900C3
:103740001900000000000000000000000000000060
:103750000000000000000000000000000000000069
:103760000000000000000000000000000000000059
:103770000000000000000000000000000000000049
:103780000000000000000000000000000000000039
:103790000000000000000000000000000000000029
:1037A0000000000000000000000000000000000019
:1037B0000000000000000000000000000000000009
:1037C00000000000000000000000000000000000F9
:1037D00000000000000000000000000000000000E9
:1037E00000000000000000000000000000000000D9
:1037F000000000000000000000000000000000A227
:1038000000000000000000000000000000000000B8
:1038100000000000000000000000000000000000A8
:00000001FF
