:10000000002B000000060000A86A000000000000AD
:1000100000000000000000000000000000000000E0
:1000200002351901022000010200000231DE023B0C
:10003000F20000020826D2AF320000020816D2AF4A
:10004000320000022815D2AF32000002081EBB01A8
:100050000689828A83E0225002E722BBFE02E32265
:1000600089828A83E49322BB010689828A83F022F3
:100070005002F722BBFE01F322EF8DF0A4A8F0CFCF
:100080008CF0A428CE8DF0A42EFE22BC000BBE0066
:1000900029EF8DF084FFADF022E4CCF875F008EF85
:1000A0002FFFEE33FEEC33FCEE9DEC984005FCEEAA
:1000B0009DFE0FD5F0E9E4CEFD22EDF8F5F0EE84DB
:1000C00020D21CFEADF075F008EF2FFFED33FD40A0
:1000D00007985006D5F0F222C398FD0FD5F0EA221A
:1000E000C2D5EC30E709B2D5E4C39DFDE49CFCEE3B
:1000F00030E715B2D5E4C39FFFE49EFE12086BC340
:10010000E49DFDE49CFC800312086B30D507C3E43A
:100110009FFFE49EFE22C5F0F8A3E028F0C5F0F8AA
:10012000E582158270021583E038F022BB010A894E
:10013000828A83E0F5F0A3E022500687F009E719F0
:1001400022BBFE07E3F5F009E3192289828A83E4E2
:1001500093F5F074019322BB0110E58229F582E545
:10016000833AF583E0F5F0A3E0225009E92582F80F
:1001700086F008E622BBFE0AE92582F8E2F5F008DF
:10018000E222E5832AF583E993F5F0A3E99322BB04
:10019000010DC58229C582C5833AC5830208F65080
:1001A00011C58229F808E5F026F618F5F0E5823643
:1001B000F622BBFE11C58229F808E225F0F5F0F21F
:1001C00018E23582F222F8E58229F582E5832AF5E4
:1001D0008374019325F0F5F0E4933822BB010A897A
:1001E000828A83F0E5F0A3F0225006F709A7F01900
:1001F00022BBFE06F3E5F009F31922F8BB0111E575
:100200008229F582E5833AF583E8F0E5F0A3F02250
:100210005009E92582C8F608A6F022BBFE09E925A7
:1002200082C8F2E5F008F222EF2BFFEE3AFEED393C
:10023000FDEC38FC22C3EF9BFFEE9AFEED99FDEC3E
:1002400098FC22E88FF0A4CC8BF0A42CFCE98EF073
:10025000A42CFC8AF0EDA42CFCEA8EF0A4CDA8F02E
:100260008BF0A42DCC3825F0FDE98FF0A42CCD35F2
:10027000F0FCEB8EF0A4FEA9F0EB8FF0A4CFC5F05C
:100280002ECD39FEE43CFCEAA42DCE35F0FDE43C55
:10029000FC2275F008758200EF2FFFEE33FECD33A0
:1002A000CDCC33CCC58233C5829BED9AEC99E582E7
:1002B00098400CF582EE9BFEED9AFDEC99FC0FD573
:1002C000F0D6E4CEFBE4CDFAE4CCF9A88222B80063
:1002D000C1B90059BA002DEC8BF084CFCECDFCE52E
:1002E000F0CBF97818EF2FFFEE33FEED33FDEC3352
:1002F000FCEB33FB10D703994004EB99FB0FD8E5D7
:10030000E4F9FA227818EF2FFFEE33FEED33FDEC1F
:1003100033FCC933C910D7059BE99A4007EC9BFC15
:10032000E99AF90FD8E0E4C9FAE4CCFB2275F010A1
:10033000EF2FFFEE33FEED33FDCC33CCC833C810C6
:10034000D7079BEC9AE899400AED9BFDEC9AFCE8F4
:1003500099F80FD5F0DAE4CDFBE4CCFAE4C8F92241
:10036000EB9FF5F0EA9E42F0E99D42F0EC6480C814
:1003700064809845F022EB9FF5F0EA9E42F0E99DFB
:1003800042F0E89C45F022E8600FECC313FCED134B
:10039000FDEE13FEEF13FFD8F122E0FCA3E0FDA376
:1003A000E0FEA3E0FF22E0F8A3E0F9A3E0FAA3E077
:1003B000FB22ECF0A3EDF0A3EEF0A3EFF022A88275
:1003C0008583F0D083D082120BB5120BB5120BB51A
:1003D000120BB5E473E493A3C583C5F0C583C8C508
:1003E00082C8F0A3C583C5F0C583C8C582C822A44E
:1003F0002582F582E5F03583F58322E0FBA3E0FA60
:10040000A3E0F922EBF0A3EAF0A3E9F022EC8EF0EE
:10041000A4CCC5F0CCCDF8EFA4CEC5F02DFDE43CC6
:10042000FCE8A42EC8C5F03DFDE43CFCEFA4FFE5CC
:10043000F028FEE43DFDE43CFC227F021239031269
:100440002C15902E20E030E2F9900808E4122C4B95
:10045000FFA3E09001C8CFF0EF122C3D7F02123CC9
:10046000C8900161E0FEA3E0FF4E700E9001C8E06D
:10047000FCA3E0FDECFEEDFF8014EF25E0FFEE3382
:10048000FE9001C9E02FFF9001C8E0122C77900187
:1004900061EEF0A3EFF090015BE07002A3E0700F5B
:1004A000900161E0FFA3E090015BCFF0A3EFF0E4E7
:1004B0009001C2F0122BE95010EF122B8F120B9EFD
:1004C00000002710122C8080EBE49001C3F0900113
:1004D000C3E0C39404748094804003020E32E4901D
:1004E00001C2F0122BE94003020E29A3E02401FD12
:1004F000E433FC743D2F122C87D3ED9F7480F86C8D
:10050000984003020E239001C2E0FF1239039001CC
:10051000C2E0FF122C15902E20E030E2F99001C2CB
:10052000E0FF900806122C4BFCA3E0FD122C57F5BF
:1005300083ECF0ED122C3D9001C2E0FF123CC8129A
:100540002BA4FDEF25E0246FF582E43401122B9DEE
:10055000FD90015BE0FAA3E0FBED2BFDEC3AFC9093
:100560000161E0FAA3E0FBC3ED9BFDEC9AFC122CC9
:1005700057122B9DFDEF25E02471F582E434011222
:100580002B9DFD122C0AF583ECF0A3EDF09001C237
:10059000E0FF122BF6122BB2FD4C7009122C0A123E
:1005A0002BC3FF80199001C2E0FBED25E0FFEC3387
:1005B000FEEB122C0B122BB22FFFEC122C779001BA
:1005C000C2E0FD122BF6122BD3122BB94E700CED9C
:1005D000122BF6122BC3FFED122BCA9001C2E0FFC3
:1005E00025E02463F582E43401122BB2FDECC0E077
:1005F000EDC0E0EF122BF6122BC3FFE4FCFD9001DF
:10060000D1120B929001C2E09001D5F0D0E0FDD064
:10061000E0FCE4FF12132B9001C2E0FD122BCAEDA7
:10062000122B8FC083C082120B86122BB92400FFBD
:10063000EE34E8FE3395E0FDFC120A08D082D08348
:10064000120B92122C80020CC39001C3E004F00242
:100650000CAE902E23E4F09001C2F0122BE940037F
:10066000020FEDEF122B8FC083C082120B86E8C001
:10067000E0E9C0E0EAC0E0EBC0E09001C2E0243D68
:10068000122C87FBE4FAF9F8122B8B120B7A123A30
:1006900086D0E0FBD0E0FAD0E0F9D0E0F8120A080A
:1006A000D082D083120B92122B8B120B7AE47B50E8
:1006B0007AC3F9F8C3120B40500A122B8B120B9E0F
:1006C0000000C3509001C2E0FF122B8F120B86E88E
:1006D00033500BEF122B8F120B9E00000000900185
:1006E000C2E0FF122C00122BB24C7009EF122B8FBC
:1006F000120B7A802C9001C2E0122C00122BC3FF47
:100700007C007D02120BEDECF8EDF9EEFAEFFB1236
:100710002B8B120B7A120A08E47B03FAF9F8120AFF
:10072000AE9001C2E0FD122C00F583EEF0A3EFF0D5
:10073000122C62122BC34E700EED122C00122BC322
:10074000FF122C62122BD39001C2E0FF122BDBC0F0
:1007500083C082120B86EF122BBAFFE4FCFD120A53
:1007600008D082D083120B929001C2E0FF122C2598
:10077000F583E475F0011208F6EF122C25122BC355
:10078000FFD3940AEE94004034EFFBEEFAE4F9F85C
:100790009001C2E0122BDB120B7A120AAE9001C25A
:1007A000E0FD122C91122BD3ED122C25F583E4F0F1
:1007B000A3F0ED122BDB120B9E0000000090012C29
:1007C000E07002A3E070409001C2E0FD122BBAFF7E
:1007D000ED122C91122BB2FD123C5B9001C2E0FD98
:1007E000122C9B122BD3ED122C9B122BC3D39406ED
:1007F000EE9400401290012C7407F0A374D0F0A383
:10080000E475F0011208F6122C80020E3B229001D2
:10081000BF121AD9400302132A121951120937D3F1
:100820009DE5F09C40349001081219FD12195C12EC
:100830001A82D3EF9430EE9475400C9001C0747519
:10084000F0A37430F08006121951121A8D9001BF76
:10085000E0121AE9F583E40210AD9001021219FDCD
:10086000FF121972121AF312196E121A82D3EF9430
:1008700010EE9427400C9001C07427F0A37410F080
:1008800080139001021219FDFF121972121AF3124D
:10089000196E121A8D121A209001BFE0FD121AE98A
:1008A000121A1830051DED121AE9121989D3942C69
:1008B000EE94014014121A9EF5837427F0A374106D
:1008C000F08006121A9E1219F3E49001C0F0A3F012
:1008D0001219B3E0606F121AA9D39400EC648094EB
:1008E000804020EF25E02408121A11D3ED9FEC9EE2
:1008F00040119001BFE0121AFDF583E4F0A3746487
:10090000F080229001BFE0FF121AFD12199AD394D1
:1009100000EC9400400F90010512196E120937FF88
:10092000E5F0121B579001BFE0FF121B077401F0A6
:10093000EF25E02425F582E43402F583740FF0A35B
:1009400074A0F0800F121A33F5837403F0A374E8D7
:10095000F0123BACD39001C1E094009001C0E06480
:1009600080948050030212E3E0FEA3E0FF1219FA24
:10097000121972121B11EE3395E0FDFCE47BB87A7C
:1009800088F9F8C3120B40500A9001C07488F0A394
:1009900074B8F030053C1219B3E07016EF25E0246E
:1009A00014F8E6FC08E6FD121A20C39DEE9C506385
:1009B000801A9001BFE025E02408F8E6FC08E6FD77
:1009C000A3E0FEA3E0FFC39DEE9C50477C007DC8E2
:1009D000803B9001BF121A5012199AD39400EC94E4
:1009E0000050089000F1E064207028EF25E0240812
:1009F000121A11121AA9C39FEC9E5017ED9400EC25
:100A000064809480400D121A207C007D0A1208C078
:100A1000121B561219B3E0606FEF121A38121989BF
:100A20004E70119001BFA3E0FCA3E0FD1216671207
:100A30001B56802F12197CFF121AA9123C5BD3EFB0
:100A40009432EE9400401C121A3312199AD394C8AF
:100A5000EC9400400EEF121A38F58374FF75F09C89
:100A60001208F612197CFF7C007D07120BED900135
:100A7000C01219C2EE3395E0FDFC120A08E47B08AF
:100A8000FAF9F8120AAE8003121A209001BFE0258D
:100A9000E02434F582E43401121A1812197CFFD3D1
:100AA0009405EE9400400EEF9410EE9400500690E2
:100AB00001C0EE80159001BF121A7612199AFDEF4F
:100AC0001219802DFFEE3C9001C0F0A3EFF0D390FF
:100AD00001C1E094309001C0E0648094F540077457
:100AE00075F0A37430F0E5DB5404705E121A2090A8
:100AF000010E1219FDFD121972121B11EF24A8FF2D
:100B0000EE8034E5DB540470411219FAFF121972B9
:100B1000121BA5EF121A78121989FF90010E1219F3
:100B2000FDFD121972121B1175F002ED12197512EA
:100B3000093724A8FFE5F03461FE90010B120BDBAE
:100B400075F002ED121975121B11229001CFECF015
:100B5000A3EDF09001CEEFF0123417C083C0829065
:100B600001D5E0D082D083123411E07046123408EF
:100B7000123425C083C0829001D5E0D082D0831288
:100B80003411120B7AE4FBFAF9F8C3120B56602306
:100B900012340812342FC083C0829001D5E0D08275
:100BA000D083123411120B7AE4F8C3120B5660038F
:100BB00002148F12344CC39001D0E09FFF9001CFFC
:100BC000E09E121650C083C0829001D5E0FCD08216
:100BD000D083123411EEF0A3EFF0ED12341712347B
:100BE00063E060509001CEE0FF12346AC083C0829F
:100BF0009001D5E0D082D083123411E0FCA3E0FD57
:100C0000EF75F005A424D6F582E4343CF583E49333
:100C1000FE740193FFD3ED9FEC9E4018123408122E
:100C2000341BC083C0829001D5E0D082D0831234BF
:100C3000117405F012344C123408123425C083C0EC
:100C4000829001D5E0D082D083123411120B92121F
:100C50003408123439C083C0829001D5E0D082D0EC
:100C6000831233F112342FC083C0829001D5E0D0BB
:100C700082D083123411120B929001CEE0FF123415
:100C800017C083C0829001D5E0FED082D083123499
:100C900011E0D3940074809480400EEF12341775E5
:100CA000F00EEE120BCFE014F09001D102164C12B0
:100CB0003408123425C083C0829001D5E0D082D0A0
:100CC00083123411120B7A9001D6120B921234084F
:100CD00012342FC083C0829001D5E0D082D083121D
:100CE0003411120B7A9001DA1234431234081234A0
:100CF00078C083C0829001D5E0D082D083123411B5
:100D0000E0F9F8120B67EFFBEEFAEDF9ECF81234AC
:100D100046120A159001DE120B929001D6120B7A40
:100D20009001D1120B86120A089001DE120B861276
:100D30000A0812348212344C123408123425C0834B
:100D4000C0829001D5E0D082D08312341112344396
:100D500012340812342FC083C0829001D5E0D082B3
:100D6000D083123411123443ECC0E0EDC0E0EEC089
:100D7000E0EFC0E0123408123439C083C082900121
:100D8000D5E0D082D083123411E0FEA3E0FBEEFA6E
:100D9000E4F9F8D0E0FFD0E0FED0E0FDD0E0FC12B6
:100DA0000AAE1234829001CEE0640160030216495B
:100DB00012344CEFFBEEFA123446C3EF9BFFEE9A6F
:100DC000121650C083C0829001D5E0FCD082D0833F
:100DD000123411EEF0A3EFF0ED12346A123463E036
:100DE000FEA3E0FF9001CEE0FB75F005A424D4F54E
:100DF00082E4343CF583E493FC740193FDD3EF9DCE
:100E0000EE9C406512344CEB75F00EA4123425C0F4
:100E100083C0829001D5E0D082D083123411120BAE
:100E200092123408123439C083C0829001D5E0D0C8
:100E300082D0831233F112342FC083C0829001D547
:100E4000E0D082D083123411120B92123408123483
:100E50001BC083C0829001D5E0D082D083123411B0
:100E60007405F012344C1234829001DA120B7A229B
:100E7000FE123CBC9001CEE0FD75F00EA4240BF5F3
:100E800082E43402F583229001C2EFF0A3ECF0A3D8
:100E9000EDF0EF123314E0FEA3E0FF123C5BD3EF62
:100EA0009432EE9400401C1232E4120B9E000000BB
:100EB000001232B0E4F012332E123310EEF0A3EF32
:100EC000F0804312329FE0FEA3E0FFD39400EE9443
:100ED0000040339001C3E0FCA3E0FDD3EF9DEE9C06
:100EE000400B9001C2E01232D7E04401F09001C201
:100EF000E0FF1232A3E0FAA3E0C39DEA9C50071280
:100F000032D6E04402F09001C2E01232E9C083C060
:100F100082120B8612332EE4FCFD120A08D082D016
:100F200083120B929001C2E0FF123337E475F00197
:100F30001208F6EF75F007A424B3F582E4343CF50B
:100F400083E493FE740193FF9001C2E0FDC454F06A
:100F500024EAF582E43401F583E0FAA3E0C39FEAD2
:100F60009E50030218E7ED123337E0FEA3E0FFFBCB
:100F7000EEFAE4F9F89001C2E01232E9120B7A12AB
:100F80000AAE9001C5120B9212329FE0FEA3E0FF61
:100F9000EEC0E0EFC0E0123344EFFDEEFCD0E0FF26
:100FA000D0E0FE123C5B9001C9EEF0A3EFF090019F
:100FB000C2E0FD75F007A424AEF582E4343CF5836D
:100FC000C37401939FE4939E401FED1232A3E0FE91
:100FD000A3E04E60149001C2E0FB123321E0FEA3B7
:100FE000E0C394B8EE940B50219001C2E0FF12329E
:100FF000A3E0FCA3E04C7008EF123321E4F0A3F06F
:1010000012334412329FEE021891EB6007640160C4
:1010100003021897E49001CBF09001C9E0FEA3E031
:10102000FFD39450EE94004006A37408F0803290F1
:1010300001C2E01232D7E064036026D3EF943CEEA5
:10104000940040089001CB7402F08015D39001CA3F
:10105000E094329001C9E0940040069001CB740105
:10106000F012329FE0FEA3E0FFE4FCFD12334AD30E
:10107000120B5640119001CBE0FF12329FE48FF02B
:101080001208F60218CDD39001CAE094509001C91D
:10109000E09400405812329FC083C082E0FEA3E07B
:1010A000FF9001CBE0FDC3EF9DFFEE9400D082D016
:1010B00083F0A3EFF0803612329FE0FEA3E0FF4EF4
:1010C000700D12334AEBFFEAFEE9FDE8FC80167C66
:1010D000007D07120BED12334A120A08E47B08FA6E
:1010E000F9F8120AAE12329FEEF0A3EFF01232E4DA
:1010F000120B9E000000001232B0E4F012334412D2
:101100003310EEF0A3EFF012329FE0FCA3E0FDD32A
:101110009400EC9400405612332E123C5B9001C2B6
:10112000E075F007A424B0F582E4343CF583D37471
:1011300001939FE4939E400F9001C2E0FF1232A3FF
:101140001232F6E4F080269001C2E0FF75F007A4A9
:1011500024B2F582E4343CF583E493FE123302E0DA
:10116000C39E500912329F1232F6E004F012332E61
:1011700022900108120BDB9001BFE0FF75F002A482
:10118000F58285F083120937FDACF0900102120B55
:10119000DBEF75F002A4F58285F083229001BFE0B9
:1011A00025E02434F582E43401F583E0FEA3E02257
:1011B000EF25E02400F582E43401F583E0FCA3E0B0
:1011C000229001BFE075F00AA42440F582E43401C6
:1011D000F583229001BFE0FF243FF582E43401F55E
:1011E0008322ECF8EDF9EEFAEFFBE0FEA3E0FF223C
:1011F000120B7A9001C2EEF0A3EFF0EB75F00AA4A7
:101200002446F582E434012275F00AA42444F582D0
:10121000E43401F583E4F0A3F022900105120BDB26
:101220009001BFE02275F00AA4240AF8E52125E028
:1012300028F8E6FE08E6FF22F583EEF0A3EFF022A1
:101240009001C0E0FEA3E0FF22900108120BDB90AA
:1012500001BF229001BFE0FF25E0242BF582E4349A
:1012600002229001BFE025E02488F582E4340122C7
:10127000E0FF25E02429F582E43402229001C0E059
:10128000FFC394017480948022EF25E02480F582CE
:10129000E43401F58322E0FF25E02430F582E434D4
:1012A0000122120937C39DFFE5F09CFE2212093787
:1012B000C39DFEE5F09C9001C0F0A3CEF022ED2589
:1012C000E024AFF582E43401229001C0E0FCA3E009
:1012D000FD2225E0248AF582E434012225E0246BF6
:1012E000F582E434012225E0246DF582E434012204
:1012F000F583E475F0010208F6EFF0D3900220E0E8
:10130000940090021FE094002225E024ADF582E4D1
:10131000340122120937FDACF09001082225E024A7
:1013200027F582E434022224BDF582E43401F583FA
:1013300022EE8FF00209DBE0FEA3E0FFE4FCFD02F9
:101340000A089001BFE0FF25E024B7F582E43401EC
:1013500022FDEF25E02486F582E43401F58322ECBA
:101360008DF00209DBC3E52194047480948022127D
:101370000937FFAEF022EE9001C0F0A3EFF022E0BB
:10138000FD25E02400F582E434012275F00AA4244E
:1013900044F582E434012275F00AA42448F582E47D
:1013A000340122900105120BDB9001BFE0FF229077
:1013B00002217403F0A37420F022EB25E02469F5E8
:1013C00082E4340122E4F5F00209DB25E02432F561
:1013D00082E434012275F002020BCF9001C2EFF0DB
:1013E000E0FF243FF582E43401F583E07003021C42
:1013F0008BEF122ABAE0FEA3E04E7027900193E033
:10140000FEA3E0FF9001C2E0FD25E0248FF582E419
:101410003401122A8EFFED122A82E5F0F0A3EFF0DC
:10142000021CAF9001C2E0122ABAE0FEA3E0FF90D6
:101430000193E0FCA3E0FD123C5B9001A7120BDBE3
:101440009001C2E0FD122B1AEE8FF01209DB748DB1
:101450002D122B08E070339001A7122A98C394062E
:10146000E5F094005010122A95FFED122A82E5F063
:10147000F0A3EFF08014E4FFEF122B50500C748DAA
:101480002F122B087401F00F80EE122AB5E0FCA396
:10149000E0900193122B6A400A748E2F122B43E4C2
:1014A000F0802C122B3D7401F08024122AB5E4F058
:1014B000A3F0122A81E4F0A3F0748D2F122B08E41C
:1014C000F0122AE7E4F0A3F0122AA8E4F0A3F01245
:1014D0002B01E07003021E0E122A81E0FEA3E0D36E
:1014E0009400EE94005003021E0E122B589001C27D
:1014F000E0FD122A9CFFAEF0ED122A82E0FCA3E090
:10150000FD123C5B9001C3EEF0A3EFF09001C2E04E
:10151000FD25E024ABF582E43401122A8EFFED12A2
:101520002A82E0FCA3E0D39FEC95F0400CD390011D
:10153000C4E0948C122B365013122A69122B81505E
:10154000539001C4E094C8122B364048122B01E49A
:10155000F0EF122ABAE4F0A3F0122B58EF122A9CF3
:10156000FF9001C2E0FD122A82E0FAA3E0C39FEAE5
:1015700095F0500CED122B24E4F0A374C8F0800E0B
:101580009001C2E0122B247401F0A3742CF0122BF2
:101590003DE4F022122A69E0FEA3E0D39DEE95F02F
:1015A000404CD3122B3040469001C2E0122AA9E0F1
:1015B000FEA3E0122B635036122B1074FF75F0F768
:1015C00012096F122AA8E475F0091208F6122AE728
:1015D000122B5E5019122B76400D122AE874FF75FB
:1015E000F0F71208F68007122AE8E4F0A3F0122AB6
:1015F00069122B815038122B304033122B10E475B6
:10160000F00912096F122AE7E475F0091208F612C0
:101610002AA8122B5E5017122B76400B122AA9749F
:10162000FF75F0F70208F6122AA9E4F0A3F0229061
:1016300001BFEFF0A37402F0A374BCF0E4A3F0A325
:10164000F0D39001B2E094009001B1E09400401416
:10165000900102121A2CE0FF121972121AF31219D9
:101660006E121B3F90021FE07002A3E0600B90011E
:10167000C0E4F0A37464F0800B90001AE064117071
:10168000037420F09001BFE0FB1219B8E0601790DE
:1016900001BFE0FA1219A5120B9E00000000EA1229
:1016A00019E8EB0220521219A1C083C082120B86E6
:1016B000E8C0E0E9C0E0EAC0E0EBC0E0900102125F
:1016C0001A2CE0121972121B4FE4FCFDD0E0FBD083
:1016D000E0FAD0E0F9D0E0F8120A08D082D0831204
:1016E0000B929001BFE0FF121B6B121AD0EF121B7E
:1016F00077121989FF9001C0E0FCA3E0FDC3EF9DC4
:10170000EE9C50030220581219A1C083C082120B14
:101710007AECC0E0EDC0E0EEC0E0EFC0E09001BFC9
:10172000E0121B6B121989FBEEFAE4F9F8D0E0FF26
:10173000D0E0FED0E0FDD0E0FC120AAED082D08333
:10174000120B92121A29E01219721209372450FF53
:10175000E435F0FEE4FCFD1219A1120B86D3120B46
:1017600056403B90021FE07002A3E070319001BF31
:10177000E0FB121B07E070269001BFE0FF1219DCAE
:10178000121AD0EF1219DC121989D39403EE9400C7
:101790004023EB1219A51219D01219F380179001EA
:1017A000BFE0FB1219A51219D01219F39001BFE086
:1017B000121B07E4F09001BFE0FF1219DC12199A26
:1017C0004C600302203B90010812196E120937FF8A
:1017D000C39001C3E09F9001C2E095F0506B121AD4
:1017E0002912195A121A82123CBCC3EF94E8EE6413
:1017F00080948350549001BFE06401900108701FF1
:10180000121A2CE0121972121B4F7C007D04120B6D
:10181000ED9001C21219C2121B1CE47B058022123A
:101820001A2CE0121972121B4F7C007D02120BED74
:10183000ECF8EDF9EEFAEFFB9001C2121B17E47B16
:1018400003FAF9F8120AAE80089001C2E0FEA3E0A4
:10185000FF121A29E0121972121B119001BFE0FB4E
:101860001219A5120B9E00000000EB1219E890015E
:10187000BFE0121B771219F322E49001C0F0A3F02D
:101880001226E9D3900220E0940090021FE0940019
:10189000400302229D900195120B8690011DE0FEEF
:1018A000A3E0FFE4FCFD120A08900195120B929050
:1018B0000199E475F0011208F6C390019CE094646C
:1018C00090019BE094005003022129900195120B96
:1018D0007AECC0E0EDC0E0EEC0E0EFC0E09001992E
:1018E000E0FEA3E0FBEEFAE4F9F8D0E0FFD0E0FE82
:1018F000D0E0FDD0E0FC120AAE900195120B929060
:101900000195120B7A900193EEF0A3EFF0A3120B66
:101910009E00000000E4900199F0A3F0A3F0A3F072
:1019200090021FE07002A3E0701F9001BFF0122B25
:101930004B5016EF122B24E0FEA3E04E7003121B57
:10194000BB9001BFE004F080E5E49001BFF0122BF2
:101950004B400302229D743F2FF582E43401F5834E
:10196000E0FF60229001BFE0FE122ACBE0FCA3E082
:101970004C701390011DE0FCA3E0FDEE122ACBECAD
:10198000F0A3EDF08024EF7021122B589001BFE0FE
:10199000122A9CC39496E5F09400500E122AC6E4D5
:1019A000F0A3F0122AF4E4F0A3F09001BFE0122AB1
:1019B000CBE0FEA3E0FF4E700302229490011DE0F5
:1019C000FCA3E0FDC3EF9DFFEE9CFE123CBC90012A
:1019D000C0EEF0A3EFF0122AC6E0FCA3E090011DD8
:1019E000122B6A40139001C0E0FCA3E0FDEF122A25
:1019F000DBECF0A3EDF0801E9001C0E0FEA3E0FF61
:101A0000D394C8EE9400400EEE13FEEF13FF122A9B
:101A1000D7EEF0A3EFF09001BFE0FF122ADBE0FC6D
:101A2000A3E0D3940AEC94005003022294122B58A2
:101A300075F002EF122A9FD39498E5F0943A404152
:101A40009001BFE0FB122AF5E0FEA3E0C39428EE6C
:101A5000942350609001BFE0FA243DF582E4340203
:101A6000F583E075F018A4FFAEF0EA122ADBE0FC83
:101A7000A3E0FD120859EB122AF5EEF0A3EFF08077
:101A800033122B589001BFE0FF122A9CD394E8E553
:101A9000F09403401F122AF4E0FEA3E0C39458EE32
:101AA00094025010122AD7E0FCA3E0FD122AF4ECB5
:101AB000F0A3EDF09001BFE004F002212E2290018E
:101AC000BFEFF0121A46121989FFC39404EE940076
:101AD000502A9001BFE0121991FD121A69C083C00B
:101AE000829001BFE0FFD082D083121BB5ECF0A33F
:101AF000EDF0EF121A46121AD00223A79001C47417
:101B000001F09001C4E0FFC3121B485038121A695B
:101B1000C083C0829001BFE0FED082D083121BB58B
:101B2000E0FCA3E0FDEF25E0247EF582E43401F53E
:101B30008375F002EE120BCFECF0A3EDF09001C430
:101B4000E004F080BD9001BFE01219B8E06003022C
:101B50002397900102120BDB9001BFE0FD12197276
:101B6000121B4FED121991FD123C5BC3EF9428EE4E
:101B7000940050439001BF121B5F121989FF90011E
:101B800008120BDBED121972120937FDACF0123C92
:101B90005BC3EF9414EE940050059001088003900D
:101BA0000102120BDB9001BFE0FF1219721209371C
:101BB000121B31E5F0800C9001BFE0FF1219911269
:101BC0001B31ECF0A3EDF09001C0120B9E00000061
:101BD00000E49001C4F0121A42121989FF9001C466
:101BE000E0FDD3EF9DEE9400402D9001C0120B86D6
:101BF0009001C4E0121A6AC083C0829001BFE0D095
:101C000082D083121BB5121B179001C0120B929049
:101C100001C4E004F080BF9001C0120B7AECC0E078
:101C2000EDC0E0EEC0E0EFC0E0121A42121989FBED
:101C3000EEFAE4F9F8D0E0FFD0E0FED0E0FDD0E02D
:101C4000FC120AAE9001C0120B929001C0020B7AF6
:101C50007B017A0079007DFF7C00123C717B017A68
:101C60000179007DBD7C00123C717B017A02791EF6
:101C70007D127C00123C71902DE0E493900001F005
:101C80009000047411F0A37422F0A37433F0902D2B
:101C9000E2E493900012F0902DE3E493900014F0AE
:101CA0009000FB7401F090004A7411F09000F11460
:101CB000F0900024F0A37420F07B017A00793E902C
:101CC0000102120BE47A007942900108120BE47AC7
:101CD000007946900105120BE47A00793290010BED
:101CE000120BE47A00793A90010E120BE47A007933
:101CF00036900111120BE47A00796090011F120BEB
:101D0000E47A0079809001A7120BE47A00790A90B6
:101D10000139120BE47A00791B900136120BE47A38
:101D200000792A900114120BE47A007926900117A9
:101D3000120BE47A00792E90011A120BE490011430
:101D4000120BDBE475F0C81209BC900117120BDB13
:101D5000E475F0641209BC90011A120BDBE475F013
:101D6000961209BC7514007515C87508007509969A
:101D70007B017A00795090013C120BE49000527480
:101D800010F0A3740AF0A37407F0A314F0A3F0A357
:101D900004F0A304F0A37406F0A304F090002074F0
:101DA00010F090021F7407F0A374D0F0E490021EAC
:101DB000F022D3900220E09F90021FE09E400AA3F1
:101DC000E09FF090021FE09EF090022412385D9098
:101DD0000223E09C400CA3E09FF0900223E09EF0E1
:101DE0008002D28AD3900222E09F900221E09E409E
:101DF0000AA3E09FF0900221E09EF012386F50039A
:101E00001238A7D3900228E09F900227E09E400A54
:101E1000A3E09FF0900227E09EF0D390022AE09F7B
:101E2000900229E09E400AA3E09FF0900229E09EE4
:101E3000F0D390022CE09F90022BE09E400AA3E09A
:101E40009FF090022BE09EF0D39001B0E09F9001B4
:101E5000AFE09E400AA3E09FF09001AFE09EF0D378
:101E6000900226E09F900225E09E400AA3E09FF0AA
:101E7000900225E09EF090022E12385D90022DE037
:101E80009C400AA3E09FF090022DE09EF012387D66
:101E900050031238A7D390019EE09F90019DE09ED1
:101EA000400AA3E09FF090019DE09EF0EF2401FD29
:101EB000E43EFCD390017FE09D90017EE09C400ACF
:101EC000A3E09FF090017EE09EF0D39001B2E09FEE
:101ED0009001B1E09E400AA3E09FF09001B1E09E26
:101EE000F012388B50031238A71238995003123869
:101EF000A7D390012DE09F90012CE09E400AA3E023
:101F00009FF090012CE09EF022758D20438D205390
:101F10008D7FE4F5B275B6FF75B7FF75B2A243B217
:101F20000153A8FB538B7F758B10438B08E58B20E7
:101F3000E7030080F8538B7F758B11438B08E58B8B
:101F400020E7030080F890023BE5B5F0A3E5B4F08C
:101F5000758B01E4F5B27F02FE122592123BF2E48A
:101F6000F58D123CA54E7010123C9CFD90011DE5B4
:101F7000F0F0A3EDF00227D5123C9CFDC3EF9DFFCE
:101F8000EE95F0FE123CBCD3EF940AEE6480948090
:101F90004024123C9CFFC390011EE09F90011DE075
:101FA00095F05006E475F001800790011D74FFF56F
:101FB000F01208F6803F123CA57C007D03120BED69
:101FC000ECC0E0EDC0E0EEC0E0EFC0E0123C9CFFF2
:101FD000AEF0E4FCFDD0E0FBD0E0FAD0E0F9D0E0D8
:101FE000F8120A08E47B04FAF9F8120AAE90011D0F
:101FF000EEF0A3EFF090011DE0FFA3E09001BBCF56
:10200000F0A3EFF0123CA57C007D10120BEDE47BF9
:1020100064FAF9F8120AAE9001A3EEF0A3EFF0A370
:10202000E07002A3E0700D9001A3E0FFA3E0A3CF56
:10203000F0A3EFF022C0E0C0F0C083C082C0D0E8BF
:10204000C0E0D2AFD3900220E0940090021FE09451
:10205000004003123856D3900224E09401900223EA
:10206000E0940040051238568002D28AD3900222B2
:10207000E09400900221E094004003123856123898
:102080006F5003123868D3900228E0940090022722
:10209000E094004003123856D390022AE094009056
:1020A0000229E094004003123856D390022CE094A9
:1020B0000090022BE094004003123856D39001B0F8
:1020C000E094009001AFE094004003123856D390A2
:1020D0000226E09400900225E09400400312385656
:1020E000D390022EE0940190022DE0940040031260
:1020F000385612387D5003123868D390019EE09410
:102100000090019DE094004003123856D390017F67
:10211000E0940190017EE094004003123856D39081
:1021200001B2E094009001B1E094004003123856EF
:1021300012388B50031238681238995003123868DD
:10214000D390012DE0940090012CE0940040031204
:102150003856D0E0F8D0D0D082D083D0F0D0E03262
:102160009001C5EFF0902E22E0FF9001C9E4F0A3AA
:10217000EFF0758A50902E227401F09001C5E012A4
:10218000379E7404F0A3E4F09001C6F09001C6E01D
:10219000FFC3940D748094804003022A5CEFF87EA4
:1021A00002E4088006CEA2E713CE13D8F8FF900110
:1021B000C7EEF0A3EFF04E70079001C7F0A304F054
:1021C000902E207401F0902E20E030E2F99001C5AD
:1021D000E0FF902E001237A1E0FCA3E0D394FEECC8
:1021E000940740401237C4E0FEA3E0FF9001C7E02F
:1021F000FCA3E0FDEF2DFFEE3CFEC3EF94FFEE9459
:10220000079001C5E075F002902E10500B120BCF15
:10221000EC8DF01208F68054120BCF7407F0A37403
:10222000FFF080489001C5E0FF12379EE0FCA3E07C
:10223000FD9001C7E0FAA3E0FBD3ED9BEC9A4021AF
:102240001237C4C083C082C3A3E09BFF0582D5823E
:102250000215831582E09AD082D083F0A3EFF0803C
:102260000B9001C5E012379EE4F0A3F0902E20E41D
:10227000F0F58D9001C6E004F002296C9001C9A32D
:10228000E0902E22F0758A1022900105120BDB904F
:1022900001C2E0FF75F002A4F58285F083120937D0
:1022A000FDEF25E02491F582E43401F58322F583E6
:1022B000EEF0A3EFF0900105120BDBED75F002A438
:1022C000F58285F083020937EF25E024A1F582E449
:1022D0003401F583229001C2E0FF25E0248FF582CE
:1022E000E43401F583229001BFE0FF25E024B3F53B
:1022F00082E43401F583229001BFE025E024B5F5A6
:1023000082E43401F58322EF25E0249FF582E43452
:1023100001F58322EF25E024B7F582E43401F5834B
:10232000229001C2E0FF248DF582E43401F583227E
:10233000900108120BDB9001C2E075F002A4F58257
:1023400085F0832225E0249DF582E43401F5832283
:102350009001C4E094149001C3E09400229001C263
:10236000E0248EF582E43401F583229001BFE0FF82
:10237000C394017480948022900105020BDBE0FE7F
:10238000A3E0FFC39430EE947522FDE0FAA3E0FBD6
:10239000D3ED9BEC9A22EF9409EE94009001C2E0F9
:1023A00022E0FEA3E0C39DEE95F0229001C2E0255D
:1023B000E025E024CAF582E43401F58322F583ECBC
:1023C000F0A3EDF09001C2E0FF25E024C4F582E423
:1023D0003401F583E0FCA3E022ED25E02463F582DF
:1023E000E43401F583E0FEA3E02225E02463F582D6
:1023F000E43401F583EEF0A3EFF02225E025E0249C
:1024000026F582E43401F583229001C2E0FFC394F3
:1024100001748094802225E0245DF582E434012259
:1024200025E0246BF582E4340122EF25E024B9F5A0
:1024300082E4340122123C42758A5075B28F902E8C
:10244000207401F02225E0242AF582E4340122F5EB
:1024500083E4932420F582E4342EF58322A3F090C4
:102460002E20E4F0758A1075B293229375F00290D5
:102470002E00120BCFE022EF25E024C4F582E434D5
:102480000122ED25E02457F582E4340122EF900883
:10249000069390080393223EFE7C007D0302086BA6
:1024A0009001C2E004F022F582E43402F583E0FFFB
:1024B0002225E02424F582E434012225E02422F5BB
:1024C00082E43401229001BF121AD94003022DBACE
:1024D0003005429001BFE0121A9F1219894E9001F7
:1024E000BF6019E0FF25E02414F8764E087620EF4F
:1024F00025E02408F8761F0876408045E0FF25E0B7
:102500002414F8760B0876B8EF25E02408F876094D
:102510000876C4802C121B2212199A24C8FDE43CB0
:10252000F8EF25E02414C8F608EDF6121B22121964
:102530009A2496FDE43CF8EF25E02408C8F608ED5F
:10254000F6121B83121972120937FDEF25E02414CD
:10255000121A11C3ED9FE5F09E50249001BFE012C6
:1025600019B8E06031121B83121972120937FDEF9E
:1025700025E02408121A11C3ED9FE5F09E40179044
:1025800001BF121A5012199A4C703A743F2F121947
:10259000BA7401F0802F9000F1E064209001BF70C8
:1025A00009E0121A521219F3800CE0121A52F58344
:1025B000E4F0A374C8F09001BF1219B6E4F0EF1272
:1025C0001AFD1219F39001BFE01219B8E06003126E
:1025D0001B8F90013FE090004BF0229001C4EFF080
:1025E000123C429001C4E0FF1239039001C4E09014
:1025F000080693FF1229409001C4E0FF023CC80086
:102600000600AB2B74AA7583F5758255A5745575B4
:1026100083FA7582AAA574A57583F5758255A522DE
:1026200002030AB00BB60CFF090208FF0D770E0477
:102630001307141010801500160001921212071AC9
:1026400013090F0404040401010111100608120A01
:102650000606030102049001C2EFF0E4F525F5241B
:10266000F523F522F525F524F523F522F521121B96
:102670004550259001C2E0121A05E4FCFDE5252F26
:10268000FFE5243EFEED3523FDEC35228F258E241B
:102690008D23F522052180D6E47B04FAF9F8AF25D5
:1026A000AE24AD23AC22120AAE9001C2E0121AB2DF
:1026B000121A18E47525A8752461F523F522F52171
:1026C000121B4550719001C2E0FD121A05ED121A5D
:1026D000B212199AFD123C5BD3EF940AEE9400906B
:1026E00001C2E0FF4008121AB212199A801175F067
:1026F0000AA4240AF8E52125E028F8E6FC08E6FD0E
:10270000EF25E02457F582E43401121989FFC3ED67
:102710009FFFEC9EFE3395E0FDFCE5252FFFE524B1
:102720003EFEE5233DFDE5223C8F258E248D23F5DD
:10273000220521022EA0E47F607EEAFDFCAB25AAE3
:1027400024A923A822D3120B56400BE475256075EB
:1027500024EAF523F522AE24AF2522123625123CB9
:10276000287A0179881230197A0179807D0812302F
:102770002D7A01796B1230197A0179691230237A36
:1027800001796D1230237A01793F7D0112302D7F5E
:1027900004123035E4FFEF121A615049121990FD0E
:1027A00012196B121B3F121990FD90010812196E3D
:1027B000121B3F90010512196E121BA590010B12FE
:1027C000196E746175F0A81209DB90011112196E6F
:1027D000746175F0A81209DB90010E12196E121BBC
:1027E000A50F022F767B017A01798D7D1A7C00126C
:1027F0003C71E4900225F0A3F0A3F0A3F07B017AF2
:102800000179407D0AFC123C71E4900007F09000D1
:102810004A7410F0A3F0121B8F90022FE0700FC3C8
:10282000900220E094F490021FE09401500A90027C
:102830001F7401F0A374F4F0227B017D027C00126E
:102840003C71227B017D027C00123C71227B017C69
:1028500000123C71229001BFEFF0E49001C1F090B2
:1028600001BFE0FF9001C1E0C39F5076120C1AE453
:102870009001C0F0121A5C5060123B0D9001C0E054
:10288000FD121AC6121A18ED121AC6F583E0F8A343
:10289000E0FFED75F00AA42412C8F608EFF6ED7516
:1028A000F00AA4FF240AF9E4FAFBC0E0C0E0E9C0A2
:1028B000E0740C2FF9E49001C5120BE49001C8E418
:1028C000F0A37408F0D0E0F9D0E0FAD0E0FB1239C0
:1028D000589001C0E004F0809B9001C1E004F00238
:1028E000303FE49001C0F0121A5C504E122E369028
:1028F00001C0121B5F121A18ED121BAB121989FFCF
:10290000ED121ABC12199AFD123C5B7C007D051277
:10291000086B9001C0121A76F583ECF0A3EDF0EF8E
:10292000121ABC121989FF9001C0E0121BAB121AD7
:10293000189001C0E004F00230C72290014A7407E9
:10294000F0A304F0123B4A7B017A0179577D067CA3
:1029500000123C717F02122DBB902E14E0FEA3E00A
:10296000FF7C007D0A12085990013C120BDBEE8FB0
:10297000F01209BCE49001BEF09001BE1237F15094
:1029800076122DBB9001BEE090080693FF12379E91
:10299000E0FCA3E0C39405EC9400400F1237C4E0C0
:1029A000FEA3E0D394F0EE940740179001BEE0FF41
:1029B00025E0244AF582E43401F583E4F0A3F01223
:1029C0002DBB902E23E4F09001BE1237981237A74A
:1029D0002FFFEC3EFE900139120BDB9001BEE0753B
:1029E000F002A4F58285F083EE8FF01209DB9001EE
:1029F000BEE004F002315990001D7410F022C0E0D6
:102A0000C083C082C0D075D018D2AFE5DB30E422DD
:102A1000D203C202E5DB30E114123C87E0F5DFEFC0
:102A200064077069D28A900007F0023290C20102F6
:102A30003293E5DB30E52C9000F0E064AA70177566
:102A40008A10F5DAC2AFF5B2F5A8F5A9F58B758E47
:102A500001758DC080FED200300204C2028054C2D3
:102A6000038050C202E5DB30E125E5DB30E04412B3
:102A70003C87E0F5DFEF24F9600C24FA60042402BF
:102A8000700BD2048007D28A900007E4F0802120E6
:102A9000010A7816A6DFD201D2028017123C87E520
:102AA000DFF0EF6424700990022104F0A374F4F0C5
:102AB00078160675DBFFD0D0D082D083D0E032907C
:102AC00001C2E0C454F024E8F582E43401F5832225
:102AD000EBC454F024E6F582E43401F583E4F0A37A
:102AE000F09001C2E0FFC454F024EAF582E434011E
:102AF000F583E4F0A3F0EFC454F024EFF582E4345E
:102B000001F583229001C2E0FBC454F024E2F58277
:102B1000E43401F58322E0FDA3E09001C3CDF0A3EE
:102B2000EDF0EFC454F024EEF582E43401F5832295
:102B30009001C2E0C454F024ECF582E43401F58342
:102B400022C454F024F0F582E43401F5832290018C
:102B5000C3E0FEA3E0FF22C454F024E6F582E4348F
:102B600001F583229001C5020B7A9001C5020B8604
:102B7000E4FFFD900223E07004A3E0640170119073
:102B80000007E06004D28AE4F0E4900223F0A3F0AE
:102B900090013FE0600E900024E064106006EF4476
:102BA00020FF8004EF4410FF90004AEFF09000FFF8
:102BB000E0FC6F605B90004AE0FFEC6FFE9000FF6E
:102BC000EFF0208A1BD28A900223E4F0A37403F072
:102BD000900224E024FFFB900223E034FF4B70F0CE
:102BE000900007E0700790004AE05E8013EEF4FF6B
:102BF0009000FFE05FFDEEFF90004AE05FFFED4FC9
:102C0000900007F09002237403F0A374E8F0C28AE6
:102C10002275F00E120BCFE0FEA3E0FFE4FCFD9066
:102C200001D1120B86120A239001CEE075F00EA49A
:102C30002275F00E020BCF75F00EA4240AF582E483
:102C40003402F583222406F582E43402F58322243B
:102C500002F582E43402F58322240EF582E4340284
:102C6000F58322120B929001DA020B7A9001D102C5
:102C70000B7AED75F005A424D3F582E4343CF5839A
:102C8000E49322EC75F00E020BCF75F00EA4240B2A
:102C9000F582E43402F58322240DF582E43402F552
:102CA00083229001DA020B922004030235183005CA
:102CB00003023518C204E49001BFF09001BF12373F
:102CC000F1506BE0FE12379AE0FCA3E0FDEE123704
:102CD000D9ECF0A3EDF0122DBB9001BF1237981282
:102CE00037A72FFFEC3EFE9001BFE0FD1237E5EE67
:102CF000F0A3EFF0ED1237E5E0FEA3E0FF9001391D
:102D0000120BDB75F002EDA4F58285F083EE8FF0F7
:102D10001209DBED1237D9E0FEA3E0FFED12379A7E
:102D2000EEF0A3EFF09001BFE004F002349B9002BC
:102D3000217403F0A37420F022787FE4F6D8FD75A7
:102D400081250235630200000235A8E493A3F8E46C
:102D500093A34003F68001F208DFF48029E493A3F3
:102D6000F85407240CC8C333C4540F4420C883400C
:102D700004F456800146F6DFE4800B0102040810DB
:102D8000204080903B80E47E019360BCA3FF543FD1
:102D900030E509541FFEE493A360010ECF54C02513
:102DA000E060A840B8E493A3FAE493A3F8E493A303
:102DB000C8C582C8CAC583CAF0A3C8C582C8CAC567
:102DC00083CADFE9DEE780BE53A87F123C0E1224DF
:102DD00030123BD612080E43A880E4F58D9000F126
:102DE0007420F012371D90021EE014601614601E4D
:102DF00024FE603E240470E212311B90021E740116
:102E0000F080D7122F3B90021E7402F080CC123853
:102E1000AD900020E0FF64206008EF6421600312A1
:102E200036A1900025E0641070B090021E7404F08A
:102E300080A8123A3E900025E06410609D90021E2A
:102E40007401F080957B017A0279027D1C7C00126E
:102E50003C71E4FDEDC39402748094805062E49070
:102E600001BEF09001BEE0FFC394017480948050D5
:102E70004B123452FEED75F00EA4123478EF12347A
:102E800064EEF012345204F87E007401088005C329
:102E900033CE33CED8F9FFED75F00EA4123439C01D
:102EA00083C0829001BEE0D082D083123411EEF054
:102EB000A3EFF09001BEE004F00236430D02363479
:102EC00022308A7890021FE07002A3E0706E9001B9
:102ED0007EE07002A3E07064F5B2758D20438D2012
:102EE000758D9043A808D2AF758B4090012CE0FE01
:102EF000A3E0FF4E6005758E148003758E3F2000A1
:102F00002F20032CE5DB54047026758A84200320CF
:102F1000E5DB5404701AF58675870300000075869A
:102F200001EF4E60047F2880027F7F7E0012259291
:102F3000758B01758A1053A8F7123BF2229000207E
:102F4000E0642070037421F0900136120BDB12094B
:102F50000C641045F07003123ACA900001E064AAB4
:102F600070031237FB1239A920060890001AE0649A
:102F700010700D90001A7411F0C206E490021EF059
:102F80009000FBE06006E4F090021EF090017EE00D
:102F90007004A3E06401701090017EF0A3F0900132
:102FA000B1F0A3F090021EF030000CC2009002219C
:102FB0007401F0A374F4F022E0FB90080693902EC5
:102FC0001075F002020BCFE0FEA3E0FF7C007D0A4B
:102FD000120859EB25E0244AF582E43401F583E038
:102FE000FCA3E02275F002EF902E10020BCFEF252C
:102FF000E0247EF582E434012225E024C2F582E457
:103000003401F5832225E024C0F582E43401F58300
:1030100022E0FFC3940174809480229001BE740862
:10302000F0A3E4F0A3743FF0A374DFF0E4FDFCF937
:10303000123C95009001BEE0FEA3E02DF582EE3C2F
:10304000F583E493FF69F90DBD00010CBC37E5BDC4
:10305000DFE29001C0E0FEA3E0F5828E83E493FFFF
:10306000E96F70089000017406F08005E49000019B
:10307000F0123C95002274FFF5F00208F6EF2401EF
:10308000FDE43EFCD3E09D22E475F0010208F6C3A6
:10309000900149E094BC900148E0940222C3900161
:1030A0009CE0946490019BE0940022C39001F1E0C5
:1030B00094B89001F0E0940B22C39001EBE094F4FB
:1030C0009001EAE0940122EE8FF00208F67F0112EF
:1030D0003035122059E49001BEF09001BE121A5F03
:1030E000503B1239F49001BEE0FF12229EEEFCEF3D
:1030F000FD900102120BDB9001BEE0FF121972126B
:103100001B3F120FEE9001BEE0FF122CA59001BEF6
:10311000E0FF121E0F9001BEE004F080BD1233509C
:10312000023488E4FEEEC3940774809480502FEE3E
:1031300025E025E0241BF582E4342EF583E5822F7B
:10314000F582E43583F583E493FDEE25E025E02464
:103150001AF582E4342E122C2FEDF00E80C7EF709A
:1031600016EF25E0244AF582E43401122BC34E7099
:1031700006902E217412F0229001CA120BE49001E5
:10318000C5120BDB9001CD120BE49001C8E0700278
:10319000A3E060349001CD120BDB12082EFF9001EA
:1031A000CA120BDBEF1208479001CBE475F0011255
:1031B00008F69001CEE475F0011208F69001C8748B
:1031C000FFF5F01208F680C222900013E0FF900293
:1031D00030E06F600CEFF090022D7402F0A3745891
:1031E000F090022DE07004A3E0640170269002309C
:1031F000E0FF7E0064107002D205EF64204E700282
:10320000C205900025E064106002D206E490022D11
:10321000F0A3F022EF25E02457F582E434011237C1
:10322000BD2430FDEC34F8FCEF25E0246BF582E49E
:103230003401F583E0FAA3E0C39DEA9C50161237EF
:10324000CE1237BD4C70161237CEF5837401F0A341
:1032500074F4F0221237CEF583E4F0A3F02290004C
:1032600025E06410703FF5B2758D20438D20538D9D
:103270007F53A8F7F58BE5DB54047013200310F59A
:103280008AF586758703000000758601758A1075BA
:103290008B0190022F7401F09002217403F0A3744B
:1032A00020F0123BF222C2D5E830E70FB2D5E4C3DA
:1032B0009BFBE49AFAE499F9E498F8EC30E717B24A
:1032C000D5123ABC120AAEE4C39BFBE49AFAE49925
:1032D000F9E498F88003120AAE30D50DE4C39FFFDD
:1032E000E49EFEE49DFDE49CFC22E49001BEF0A37C
:1032F000F0123C9500122DE475EA81E4F5F6F5F440
:1033000075F308F5F275EB0700E5EC30E7FBAFF37A
:10331000EFFEADF2EDFF900136120BDBEE8FF012F7
:1033200009BCE4F5EC75EB30123C950022EFFB1282
:103330001ABC121989FF121B9A121A18EB121AC61C
:1033400012199AFDECC0E0EDC0E0121B9A12198927
:10335000FFE4FCFD9001D1120B92EB9001D5F0D06F
:10336000E0FDD0E0FC7F0102132BE4FFEFC3940DDE
:10337000748094805021EF25E02401F582E4342EFE
:10338000F583E493FEEF25E02400F582E4342E1269
:103390002C2FEEF00F80D5902F56E0902E2BF022A0
:1033A000C10341023D04C10441023100C105410293
:1033B0003000C101011600C100C1024101BD004140
:1033C00000FF10C10643023801023B009001C2EF2A
:1033D000F0E075F010A424E2F9740135F0FA7B01F5
:1033E0007D107C00123C719001C2E0123321740BFD
:1033F000F0A374B8F022E4F5DA75DA4043DA207508
:10340000D74075D64075DA5843A80275B80275F8EA
:103410000222E5B254016006E5A85410700F75B29F
:103420009275B6F9E4F5B743B20143A81022758A44
:1034300010538AEF758601758F05E4F5AB75AC0FF7
:1034400075913FF592D28A227B017A01795D7D06E2
:103450007C00123C717B017A0179637D067C00025D
:103460003C71EFF87401088002C333D8FC42AB1200
:103470002C6DF4529152935391DF22D3EF9DEE9C29
:103480004007EF9DFFEE9CFE22C3ED9FFFEC9EFEEA
:1034900022ED4C6011E41208470429F9E43AFAEDF0
:1034A0001D70EE1C80EB227816E6FF2400F582E406
:1034B0003400F58322758A10538AEF229002381265
:1034C0000BDB02090C90011DE0FEA3E0FF22009639
:1034D00000960701F400000000000000EE30E7074E
:1034E000C3E49FFFE49EFE22122C6D42914288436A
:1034F00091202204001E001901001900190000008B
:1035000000000000000000000000000000000000BB
:1035100000000000000000000000000000000000AB
:10352000000000000000000000000000000000009B
:10353000000000000000000000000000000000008B
:1037F0000000000000000000000000000000003396
:1038000000000000000000000000000000000000B8
:1038100000000000000000000000000000000000A8
:00000001FF
