:10000000002E0000000600003F7E000000000000FF
:1000100000000000000000000000000000000000E0
:100020000236C001022000010200000233FE023D40
:10003000FE0000020826D2AF320000020816D2AF3E
:10004000320000022556D2AF32000002081E7F02A5
:100050001239E9122A7B902E20E030E2F99008084C
:10006000E493902E001229E8E0FFA3E090026ACF0B
:10007000F0EF122AAD7F02122DD5900081E0FEA391
:10008000E0FF4E700E90026AE0FCA3E0FDECFEED96
:10009000FF8014EF25E0FFEE33FE90026BE02FFFB0
:1000A00090026AE0122AE1900081EEF0A3EFF09056
:1000B000007BE07002A3E0700F900081E0FFA3E0FE
:1000C00090007BCFF0A3EFF0E4900264F0122A5787
:1000D0005010EF1229F21210FC00002710122AEA29
:1000E00080EBE4900265F0900265E0C394057480B3
:1000F00094804003020BBEE4900264F0122A574041
:1001000003020BB5A3E02401FDE433FC74CF2F12EE
:100110002AF1D3ED9F7480F86C984003020BAF90E6
:100120000264E0FF1239E9900264E0FF122A7B903A
:100130002E20E030E2F9900264E0FF9008069390F0
:100140002E00122A51E0FCA3E0FDEF122A41ECF050
:10015000ED122AAD900264E0FF122DD5122A3CE088
:10016000FCA3E075F002900095122AC4900264E0AE
:10017000640190007B7024122AFBC0E0C0E0EEC056
:10018000E0EFC0E0122A6DD0E0FFD0E0FED0E0FD4D
:10019000D0E0FC120F73E47B088022122AFBC0E03F
:1001A000C0E0EEC0E0EFC0E0122A6DD0E0FFD0E08A
:1001B000FED0E0FDD0E0FC120F73E47B09FA120FD1
:1001C00081E47B0AFAF9F8123C42900264E0122AB8
:1001D00041EE8FF0120E5474FFF509F50AF50BF598
:1001E0000CE4F50DF50EF50FF510F514F513F512F9
:1001F000F511122A3CE0FCA3E075F01290010F12F9
:100200002AC4E4F508C3E508940874809480400388
:10021000020AD2900264E0FF9001011229E0E0FCA2
:10022000A3E04C600C75F012EF9001011229E380FD
:1002300007900264E0122A41E0FEA3E0FF9002640E
:10024000E0FD1229DDEEF0A3EFF0ED122A9812295D
:10025000E3E0FEA3E0D3950EEE950D4016850D0F5D
:10026000850E10900264E01229DDE0F50DA3E0F5A3
:100270000E801C1229D8E0FCA3E0D39510EC950F5A
:10028000400D122A971229E3E0F50FA3E0F51012B2
:1002900029D8E0FCA3E0C3950AEC9509501585091F
:1002A0000B850A0C122A971229E3E0F509A3E0F561
:1002B0000A801C1229D8E0FCA3E0C3950CEC950B36
:1002C000500D122A971229E3E0F50BA3E0F50C90EC
:1002D0000264E01229DD122AFBFCFDE5142FFFE584
:1002E000133EFEED3512FDEC3511122A26050802EB
:1002F00009E5AE0DAF0EEFFB122A12AE0FAF1012D2
:100300002A0FAE09AF0A122A0FAE0BAF0C122A0F3A
:10031000FC78021210C5900264E0900123122A2F8B
:10032000122ACF122A07FF4E700E122A4DE0FAA3AE
:10033000E0FBEAFEEBFF8014EF25E0FFEE33FE1258
:100340002A4DE0FCA3E02FFFEC122AE1122A649070
:10035000007D122A33122A004E7011122ACF122A5F
:1003600007FF75F002ED900083122A33900264E0DB
:10037000900083122A8BFDECC0E0EDC0E0EF122A62
:10038000D0122A07FFE4FCFD9002771210F09002D1
:1003900064E090027BF0D0E0FDD0E0FCE4FF1214BA
:1003A000BB900264E0900083122A2FED1229F2C064
:1003B00083C0821210E4122A002400FFEE34E8FE0B
:1003C0003395E0FDFC120F66D082D0831210F0123C
:1003D0002AEA0208DC900265E004F00208C7902EC9
:1003E00023E4F0900264F0122A574003020D8BEFD1
:1003F0001229F2C083C0821210E4E8C0E0E9C0E034
:10040000EAC0E0EBC0E0900264E024CF122AF1FBE6
:10041000E4FAF9F81229EE1210D8123C42D0E0FBAF
:10042000D0E0FAD0E0F9D0E0F8120F66D082D083A5
:100430001210F01229EE1210D8E47B507AC3F9F8AA
:10044000C312109E500A1229EE1210FC0000C35075
:10045000900264E0FF1229F21210E4E833500BEF2F
:100460001229F21210FC00000000900264E09000DB
:100470008D122A8B4C7009EF1229F21210D8802CA1
:10048000900264E090008D122A04FF7C007D02122D
:10049000114BECF8EDF9EEFAEFFB1229EE1210D841
:1004A000120F66E47B03FAF9F812100C122A64901A
:1004B000008D12112DEEF0A3EFF075F002ED90001B
:1004C00077122A074E701575F002ED90008D122AF2
:1004D00007FF75F002ED900077122A33900264E076
:1004E000FF122ABBC083C0821210E4EF122A01FF60
:1004F000E4FCFD120F66D082D0831210F0900264EB
:10050000E0FF75F00290003512112DE475F0011234
:100510000E5475F002EF900035122A07FFD3940AAB
:10052000EE94004032EF122A74900264E0122ABB6B
:100530001210D812100C122A64900029122A33903B
:100540000035122A50E4F0A3F075F004ED122ABE33
:100550001210FC00000000900039E07002A3E0706F
:1005600044900264E0FD122A01FF75F002ED900054
:1005700029122A8FFD123E4D122A64900025122A5C
:100580003375F002ED900025122A07D39406EE94FD
:100590000040129000397407F0A374D0F0A3E47502
:1005A000F001120E54122AEA020BC722BB0106897F
:1005B000828A83E0225002E722BBFE02E322898284
:1005C0008A83E49322BB010689828A83F022500247
:1005D000F722BBFE01F322EF8DF0A4A8F0CF8CF040
:1005E000A428CE8DF0A42EFE22BC000BBE0029EF65
:1005F0008DF084FFADF022E4CCF875F008EF2FFF0A
:10060000EE33FEEC33FCEE9DEC984005FCEE9DFED7
:100610000FD5F0E9E4CEFD22EDF8F5F0EE8420D21E
:100620001CFEADF075F008EF2FFFED33FD4007988D
:100630005006D5F0F222C398FD0FD5F0EA22C2D5BC
:10064000EC30E709B2D5E4C39DFDE49CFCEE30E755
:1006500015B2D5E4C39FFFE49EFE120DC9C3E49D0D
:10066000FDE49CFC8003120DC930D507C3E49FFF55
:10067000E49EFE22C5F0F8A3E028F0C5F0F8E5827C
:10068000158270021583E038F022BB010A89828A44
:1006900083E0F5F0A3E022500687F009E71922BBBA
:1006A000FE07E3F5F009E3192289828A83E493F5D2
:1006B000F074019322BB0110E58229F582E5833AAB
:1006C000F583E0F5F0A3E0225009E92582F886F0F1
:1006D00008E622BBFE0AE92582F8E2F5F008E222EC
:1006E000E5832AF583E993F5F0A3E99322BB010D95
:1006F000C58229C582C5833AC583020E545011C5EF
:100700008229F808E5F026F618F5F0E58236F6229B
:10071000BBFE11C58229F808E225F0F5F0F218E2D7
:100720003582F222F8E58229F582E5832AF5837481
:10073000019325F0F5F0E4933822BB010A89828AFF
:1007400083F0E5F0A3F0225006F709A7F01922BBC9
:10075000FE06F3E5F009F31922F8BB0111E5822941
:10076000F582E5833AF583E8F0E5F0A3F02250093D
:10077000E92582C8F608A6F022BBFE09E92582C851
:10078000F2E5F008F222EF2BFFEE3AFEED39FDEC38
:1007900038FC22C3EF9BFFEE9AFEED99FDEC98FC2E
:1007A00022E88FF0A4CC8BF0A42CFCE98EF0A42CD2
:1007B000FC8AF0EDA42CFCEA8EF0A4CDA8F08BF01E
:1007C000A42DCC3825F0FDE98FF0A42CCD35F0FC1C
:1007D000EB8EF0A4FEA9F0EB8FF0A4CFC5F02ECDE8
:1007E00039FEE43CFCEAA42DCE35F0FDE43CFC22CD
:1007F00075F008758200EF2FFFEE33FECD33CDCCC0
:1008000033CCC58233C5829BED9AEC99E582984042
:100810000CF582EE9BFEED9AFDEC99FC0FD5F0D61F
:10082000E4CEFBE4CDFAE4CCF9A88222B800C1B949
:100830000059BA002DEC8BF084CFCECDFCE5F0CB87
:10084000F97818EF2FFFEE33FEED33FDEC33FCEBC0
:1008500033FB10D703994004EB99FB0FD8E5E4F97B
:10086000FA227818EF2FFFEE33FEED33FDEC33FC68
:10087000C933C910D7059BE99A4007EC9BFCE99A5C
:10088000F90FD8E0E4C9FAE4CCFB2275F010EF2FA1
:10089000FFEE33FEED33FDCC33CCC833C810D707A1
:1008A0009BEC9AE899400AED9BFDEC9AFCE899F8DC
:1008B0000FD5F0DAE4CDFBE4CCFAE4C8F922EB9FE3
:1008C000F5F0EA9E42F0E99D42F0EC6480C8648055
:1008D0009845F022EB9FF5F0EA9E42F0E99D42F048
:1008E000E89C45F022E8600FECC313FCED13FDEE2D
:1008F00013FEEF13FFD8F122E0FCA3E0FDA3E0FE1E
:10090000A3E0FF22E0F8A3E0F9A3E0FAA3E0FB22D2
:10091000ECF0A3EDF0A3EEF0A3EFF022A882858324
:10092000F0D083D08212111312111312111312116D
:1009300013E473E493A3C583C5F0C583C8C582C817
:10094000F0A3C583C5F0C583C8C582C822A425828B
:10095000F582E5F03583F58322E0FBA3E0FAA3E01E
:10096000F922EBF0A3EAF0A3E9F022EC8EF0A4CC9C
:10097000C5F0CCCDF8EFA4CEC5F02DFDE43CFCE8ED
:10098000A42EC8C5F03DFDE43CFCEFA4FFE5F02833
:10099000FEE43DFDE43CFC229002611222DE4003B5
:1009A0000214BA122249FF1221D61222EE1221D2CB
:1009B000120E95D39DE5F09C40431222491221D698
:1009C0001222EE1221D212232E9430EE9475400C96
:1009D0009002627475F0A37430F08010122249FF07
:1009E0001221D61222EE1221D21222BE900261E012
:1009F00075F0029000E912112DE40212431221B5A4
:100A000012232E9410EE9427400C9002627427F06B
:100A1000A37410F080061221B51222BE1222659036
:100A20000261E0FD75F0029000E9122233300525E5
:100A300075F002ED9000E91221EAD3942CEE9401B6
:100A4000401D75F002ED9000ED12112D7427F0A3FA
:100A50007410F0800A75F002ED9000ED122227E488
:100A6000900262F0A3F0122200E0605E1222CFD367
:100A70009400EC64809480401EEF25E02421122233
:100A80007AD3ED9FEC9E400F900261E01222A8E421
:100A9000F0A37464F0801C900261E0FF1222A8129F
:100AA0002383400F9000081221D2120E95FFE5F02B
:100AB000122342900261E0FF1222F87401F0122327
:100AC00017740FF0A374A0F0800D1222547403F079
:100AD000A374E8F0123D6FD3900263E0940090029B
:100AE00062E0648094805003021470E0FEA3E0FF93
:100AF00090000812224C1221D612233BEE3395E0CF
:100B0000FDFCE47BB87A88F9F8C312109E500A9075
:100B100002627488F0A374B8F030053C122200E041
:100B20007016EF25E02439F8E6FC08E6FD12226590
:100B3000C39DEE9C505D801A900261E025E0242167
:100B4000F8E6FC08E6FDA3E0FEA3E0FFC39DEE9CF3
:100B500050417C007DC880359002611222811223B1
:100B600083500890021AE064207028EF25E02421C9
:100B700012227A1222CFC39FEC9E5017ED9400EC04
:100B800064809480400D1222657C007D0A120E1E46
:100B9000122341122200E06074EF122259E0FEA3FA
:100BA000E04E7011900261A3E0FCA3E0FD1217F784
:100BB000122341802E1221E0FF1222CF123E4DD38C
:100BC000EF9432EE9400401B122254E0FCA3E0D3D9
:100BD00094C8EC9400400CEF12225974FF75F09CFD
:100BE000120E541221E0FF7C007D0712114BECF82D
:100BF000EDF9EEFAEFFB122265EE3395E0FDFC1203
:100C00000F66E47B08FAF9F812100C8003122265D3
:100C1000900261E075F0029000451222331221E04B
:100C2000FFD39405EE9400400EEF9410EE94005024
:100C300006900262EE8020900261E0FF75F0029063
:100C4000003D1221F8FD75F002EF9000451221EAF7
:100C50002DFFEE3C900262F0A3EFF0D3900263E030
:100C60009430900262E0648094F540077475F0A3BC
:100C70007430F0E5DB5404706112226590001112AB
:100C8000224CFD1221D612233BEF24A8FFEE803721
:100C9000E5DB5404704490000812224CFF1221D668
:100CA00012238E75F002EF90003D1221EAFF9000B2
:100CB0001112224CFD1221D612233BED1221D61225
:100CC0000E9524A8FFE5F03461FE90000E12113954
:100CD00075F002ED1221D912233B22900275ECF03F
:100CE000A3EDF0900274EFF012364FC083C08290F3
:100CF000027BE0D082D083123649E0704612364043
:100D000012365DC083C08290027BE0D082D0831215
:100D100036491210D8E4FBFAF9F8C31210B4602374
:100D2000123640123667C083C08290027BE0D082C8
:100D3000D0831236491210D8E4F8C31210B46003FD
:100D400002161F123684C3900276E09FFF90027550
:100D5000E09E1217E0C083C08290027BE0FCD0824C
:100D6000D083123649EEF0A3EFF0ED12364F123673
:100D70009BE06050900274E0FF1236A2C083C082F4
:100D800090027BE0D082D083123649E0FCA3E0FDE4
:100D9000EF75F005A424BAF582E4343EF583E493BC
:100DA000FE740193FFD3ED9FEC9E40181236401263
:100DB0003653C083C08290027BE0D082D08312364B
:100DC000497405F012368412364012365DC083C075
:100DD0008290027BE0D082D0831236491210F0124A
:100DE0003640123671C083C08290027BE0D082D040
:100DF00083123629123667C083C08290027BE0D00E
:100E000082D0831236491210F0900274E0FF12363D
:100E10004FC083C08290027BE0FED082D083123626
:100E200049E0D3940074809480400EEF12364F75E1
:100E3000F00EEE12112DE014F09002770217DC1282
:100E4000364012365DC083C08290027BE0D082D0F3
:100E5000831236491210D890027C1210F0123640DC
:100E6000123667C083C08290027BE0D082D08312AA
:100E700036491210D890028012367B123640123654
:100E8000B0C083C08290027BE0D082D0831236490A
:100E9000E0F9F81210C5EFFBEEFAEDF9ECF81236B6
:100EA0007E120F739002841210F090027C1210D800
:100EB0009002771210E4120F669002841210E4126E
:100EC0000F661236BA12368412364012365DC0836F
:100ED000C08290027BE0D082D08312364912367BEA
:100EE000123640123667C083C08290027BE0D08207
:100EF000D08312364912367BECC0E0EDC0E0EEC084
:100F0000E0EFC0E0123640123671C083C08290021A
:100F10007BE0D082D083123649E0FEA3E0FBEEFAFC
:100F2000E4F9F8D0E0FFD0E0FED0E0FDD0E0FC1224
:100F3000100C1236BA900274E0640160030217D9F3
:100F4000123684EFFBEEFA12367EC3EF9BFFEE9A69
:100F50001217E0C083C08290027BE0FCD082D08375
:100F6000123649EEF0A3EFF0ED1236A212369BE0F6
:100F7000FEA3E0FF900274E0FB75F005A424B8F531
:100F800082E4343EF583E493FC740193FDD3EF9D3A
:100F9000EE9C4065123684EB75F01CA412365DC0E1
:100FA00083C08290027BE0D082D083123649121037
:100FB000F0123640123671C083C08290027BE0D0BE
:100FC00082D083123629123667C083C08290027B9A
:100FD000E0D082D0831236491210F0123640123619
:100FE00053C083C08290027BE0D082D08312364906
:100FF0007405F01236841236BA9002801210D8228C
:10100000FE123EAB900274E0FD75F01CA42431F595
:1010100082E43402F58322900264EFF0A3ECF0A3A3
:10102000EDF0EF1235EDE0FEA3E0FF123E4DD3EF01
:101030009432EE9400401C1235BD1210FC000000EA
:1010400000123589E4F01236071235E9EEF0A3EF0D
:10105000F08043123578E0FEA3E0FFD39400EE94D5
:10106000004033900265E0FCA3E0FDD3EF9DEE9CD1
:10107000400B900264E01235B0E04401F09002644D
:10108000E0FF12357CE0FAA3E0C39DEA9C50071212
:1010900035AFE04402F0900264E01235C2C083C074
:1010A000821210E4123607E4FCFD120F66D082D0E3
:1010B000831210F0900264E0FF123610E475F00124
:1010C000120E54EF75F007A424A2F582E4343EF525
:1010D00083E493FE740193FF900264E0FDC454F036
:1010E0002490F582E43402F583E0FAA3E0C39FEA9A
:1010F0009E5003021A77ED123610E0FEA3E0FFFBCC
:10110000EEFAE4F9F8900264E01235C21210D81237
:10111000100C9002671210F0123578E0FEA3E0FF89
:10112000EEC0E0EFC0E012361DEFFDEEFCD0E0FFB8
:10113000D0E0FE123E4D90026BEEF0A3EFF0900275
:1011400064E0FD75F007A4249DF582E4343EF58348
:10115000C37401939FE4939E401FED12357CE0FE23
:10116000A3E04E6014900264E0FB1235FAE0FEA3A7
:10117000E0C394B8EE940B5021900264E0FF123566
:101180007CE0FCA3E04C7008EF1235FAE4F0A3F029
:1011900012361D123578EE021A21EB6007640160E9
:1011A00003021A27E490026DF090026BE0FEA3E0C8
:1011B000FFD39450EE94004006A37408F080329060
:1011C0000264E01235B0E064036026D3EF943CEE95
:1011D0009400400890026D7402F08015D390026C68
:1011E000E0943290026BE09400400690026D74012E
:1011F000F0123578E0FEA3E0FFE4FCFD123623D3C5
:101200001210B4401190026DE0FF123578E48FF0B7
:10121000120E54021A5DD390026CE0945090026B4F
:10122000E094004058123578C083C082E0FEA3E00D
:10123000FF90026DE0FDC3EF9DFFEE9400D082D0E1
:1012400083F0A3EFF08036123578E0FEA3E0FF4E86
:10125000700D123623EBFFEAFEE9FDE8FC80167CF8
:10126000007D0712114B123623120F66E47B08FA39
:10127000F9F812100C123578EEF0A3EFF01235BD2C
:101280001210FC00000000123589E4F012361D1225
:1012900035E9EEF0A3EFF0123578E0FCA3E0FDD3E2
:1012A0009400EC94004056123607123E4D900264B2
:1012B000E075F007A4249FF582E4343EF583D374EF
:1012C00001939FE4939E400F900264E0FF12357CEF
:1012D0001235CFE4F08026900264E0FF75F007A499
:1012E00024A1F582E4343EF583E493FE1235DBE07D
:1012F000C39E50091235781235CFE004F01236073C
:1013000022E4900262F0A3F012322FD39002AAE0FE
:1013100094009002A9E094004003021D479000CD84
:101320001210E4900020E0FEA3E0FFE4FCFD120FA9
:10133000669000CD1210F09000D1E475F001120E0D
:1013400054C39000D4E094649000D3E09400500320
:10135000021BB39000CD1210D8ECC0E0EDC0E0EE5F
:10136000C0E0EFC0E09000D1E0FEA3E0FBEEFAE4C5
:10137000F9F8D0E0FFD0E0FED0E0FDD0E0FC1210A4
:101380000C9000CD1210F09000CD1210D89000CB30
:10139000EEF0A3EFF0A31210FC00000000E49000B8
:1013A000D1F0A3F0A3F0A3F09002A9E07002A3E0B3
:1013B0007021900261F0123100501875F002EF9028
:1013C00000D512308D4E7003121D48900261E0046A
:1013D000F080E3E4900261F01231004003021D4707
:1013E00074522FF582E43400F583E0FF6028900208
:1013F00061E0FE75F002123119E0FCA3E04C7016BA
:10140000900020E0FCA3E0FD75F002EE123119EC33
:10141000F0A3EDF0802DEF702A12310D90026112D1
:1014200030A8120E95C39496E5F0940050159002E2
:1014300061E0FF9000F31230CFF0A3F0123095E49A
:10144000F0A3F0900261E075F0029000F312308D8D
:10145000FF4E7003021D3E900020E0FCA3E0FDC3A0
:10146000EF9DFFEE9CFE123EAB900262EEF0A3EF0A
:10147000F0900261E0FD1230B3EEF0A3EFF075F0F2
:1014800002ED9000F712308DD3940AEE94005003D1
:10149000021D3E12310D75F002ED1230AC120E95A8
:1014A000D39498E5F0943A404675F002ED9000FB35
:1014B00012308DC39428EE94234003021D3E900207
:1014C00061E0FB24CFF582E43402F583E075F01887
:1014D000A4FFAEF0EB1230B3E0FCA3E0FD120DB7B9
:1014E000900261E0123132EEF0A3EFF0021D3E12E5
:1014F000310D900261E0FF1230A9120E95FDACF0A3
:10150000D39488EC9413402875F002EF9000FB12FE
:10151000308DC394D0EE94075044900261E01230B5
:10152000B3E0FAA3E0FB123095EAF0A3EBF0802ED3
:10153000D3ED94E8EC94034025900261E0FF123172
:1015400032E0FCA3E0C39458EC94025011EF123047
:10155000B3E0FCA3E0FD123095ECF0A3EDF09002B7
:1015600061E004F0021BB822900264EFF0E0FF2477
:1015700052F582E43400F583E07003021E209000EF
:10158000C31230894E701A9000CBE0FEA3E0FF90AA
:101590000264E09000C3123040EEF0A3EFF0021EB0
:1015A0004F900264E09000C3123066E0FEA3E0FFBB
:1015B0009000CBE0FCA3E0FD123E4D9000E1121143
:1015C00039900264E0FD1230A9EE8FF0120F3974E9
:1015D000BF2D1230C3E070379000E112113975F061
:1015E00002ED1230AC120E95C39406E5F094005053
:1015F0000A12304CEEF0A3EFF08014E4FFEF12314A
:1016000005500C74BF2F1230C37401F00F80EE90A0
:101610000264E0FF9000C3123099E0FCA3E0FD906B
:1016200000CBE0FAA3E0FBD3ED9BEC9A400A74C137
:101630002F1230EAE4F080371230E47401F0802F8A
:10164000900264E0FF9000C31230B6E4F0A3F0EF24
:10165000123063E4F0A3F074BF2F1230C3E4F090B3
:1016600000D9123098E4F0A3F01230CBF0A3F012BE
:1016700030BCE07003021FAB123086D39400EE94AE
:10168000005003021FAB12310D900264E0FD75F0B3
:1016900002123056E0FCA3E0FD123E4D900265EED2
:1016A000F0A3EFF0900264E09000E5123040E0FC1F
:1016B000A3E0D39FEC9E400CD3900266E0948C1282
:1016C00030DD501412306CC39DEE9C505D9002666C
:1016D000E094C81230DD40521230BCE4F09000C3F8
:1016E0001230CEF0A3F012310D75F002EF1230ACD3
:1016F000120E95FFAEF0900264E0FD123063E0FA46
:10170000A3E0C39FEA9E500F75F002ED123113E47F
:10171000F0A374C8F0800D1230F81231137401F088
:10172000A3742CF01230E4E4F02212306CD39DEE5E
:101730009C404DD31230D74047900264E09000DDCA
:1017400012308A12312B503812309F74FF75F0F727
:10175000120ECD1230CB12311F9000D912308D12E3
:10176000312A501C1230F29000D9400D12112D7404
:10177000FF75F0F7120E54800712112DE4F0A3F05C
:1017800012306CC39DEE9C50421230D7403D123057
:101790009FE475F009120ECD75F002EF9000D9129A
:1017A000112DE412311F9000DD12308D12312A50BC
:1017B0001A1230F29000DD400B12112D74FF75F0FB
:1017C000F7020E5412112DE4F0A3F022D39002AAD6
:1017D000E09F9002A9E09E400AA3E09FF09002A93A
:1017E000E09EF09002AE1237E99002ADE09C400C12
:1017F000A3E09FF09002ADE09EF08002D28AD390E9
:1018000002ACE09F9002ABE09E400AA3E09FF09004
:1018100002ABE09EF01237FA50031237F4D3900275
:10182000B4E09F9002B3E09E400AA3E09FF09002D4
:10183000B3E09EF0D39002B8E09F9002B7E09E40E4
:101840000AA3E09FF09002B7E09EF0D39002BCE0C4
:101850009F9002BBE09E400AA3E09FF09002BBE095
:101860009EF0D39000EEE09F9000EDE09E400AA332
:10187000E09FF09000EDE09EF0D39002B0E09F90EA
:1018800002AFE09E400AA3E09FF09002AFE09EF01E
:101890009002C01237E99002BFE09C400AA3E09F8B
:1018A000F09002BFE09EF012380850031237F4D3D4
:1018B0009002B6E09F9002B5E09E400AA3E09FF040
:1018C0009002B5E09EF0D39002BAE09F9002B9E09A
:1018D0009E400AA3E09FF09002B9E09EF0D39002F0
:1018E000BEE09F9002BDE09E400AA3E09FF0900200
:1018F000BDE09EF0D39002B2E09F9002B1E09E4026
:101900000AA3E09FF09002B1E09EF0D39000F0E0D7
:101910009F9000EFE09E400AA3E09FF09000EFE070
:101920009EF012381650031237F4D39000D6E09F81
:101930009000D5E09E400AA3E09FF09000D5E09E85
:10194000F0D39000D8E09F9000D7E09E400AA3E03B
:101950009FF09000D7E09EF09000A312385C9000BA
:10196000A2E09C400AA3E09FF09000A2E09EF0D38A
:101970009000F2E09F9000F1E09E400AA3E09FF00B
:101980009000F1E09EF09000A512385C9000A4E079
:101990009C400AA3E09FF09000A4E09EF01238243F
:1019A00050031237F412383250031237F412384011
:1019B00050031237F412384E50031237F4D390000C
:1019C0003AE09F900039E09E400AA3E09FF090002B
:1019D00039E09EF022900005121139900261E0FF7B
:1019E00075F002A4F58285F083120E95FDACF0909F
:1019F000000B121139EF75F002A4F58285F08322F5
:101A0000900261E090004575F00212112DE0FEA3F6
:101A1000E02275F00290000112112DE0FCA3E022FB
:101A2000900261E0FF2452F582E43400F5832290B5
:101A3000005412112D1210D8900264EEF0A3EFF0B2
:101A400090005A75F00AEB12112DE4F0A3F022FD7C
:101A500075F00212112DEEF0A3EFF022900261E07A
:101A600090005475F00A02112D90000B121139905C
:101A70000261E022900261E0FF25E024BBF582E4F0
:101A80003402F58322900262E0FEA3E0FF2275F0AB
:101A90000AA42425F8E50825E028F8E6FE08E6FF74
:101AA00022E0FF25E024B7F582E43402F58322909A
:101AB0000262E0FFC39402748094802275F00212E7
:101AC000112DECF0A3EDF02225E024B3F582E434EF
:101AD00002F583229000A6EF75F00402112D120E7C
:101AE00095C39DFEE5F09C900262F0A3CEF022909B
:101AF0000262E0FCA3E0FD22EC8DF0020F39EFF072
:101B0000D39002AAE094009002A9E0940022120E61
:101B100095FDACF0900005222427F582E43401F510
:101B2000832212112DE475F001020E54900261E03F
:101B300075F0029000B622EF25E024AFF582E43480
:101B400002F58322C3E50894047480948022120E67
:101B500095C39DFFE5F09CFED3EF22EE8FF0020FC0
:101B600039EE900262F0A3EFF022900005121139D5
:101B700090026122900261E0FF75F00A90005A2203
:101B8000900261E0FF75F0029000FB2290000812C5
:101B90001139900261E0FF229002AB7403F0A3744C
:101BA00020F022E0FCA3E0D39400EC940022E4F5C2
:101BB000F0020F39900261EFF0A37402F0A374BC3D
:101BC000F0E4A3F0A3F0D39000F2E094009000F1D1
:101BD000E09400400912234A1221BE1222D890023A
:101BE000A9E07002A3E0600B900262E4F0A37464C9
:101BF000F0800B900143E0641170037420F09002B8
:101C000061E0FB122205E06020900261E0FA1222FE
:101C1000401210FC0000000075F00AEA9000581213
:101C2000222775F00AEB02254F12223CC083C082A6
:101C30001210E4E8C0E0E9C0E0EAC0E0EBC0E01266
:101C4000234AE01221D6120E95FFAEF0E4FCFDD03F
:101C5000E0FBD0E0FAD0E0F9D0E0F8120F66D082D5
:101C6000D0831210F0900261E0FF900058122243DE
:101C700012230575F00AEF90005C1221EAFF900232
:101C800062E0FCA3E0FDC3EF9DEE9C5003022555EE
:101C900012223CC083C0821210D8ECC0E0EDC0E03C
:101CA000EEC0E0EFC0E0900261E075F00A900058ED
:101CB0001221EAFBEEFAE4F9F8D0E0FFD0E0FED022
:101CC000E0FDD0E0FC12100CD082D0831210F09016
:101CD000000B12234DE01221D6120E952450FFE482
:101CE00035F0FEE4FCFD12223C1210E4D31210B4D5
:101CF00040369002A9E07002A3E0702C900261E0EF
:101D0000FB1222F8E0702112235412230275F00A0C
:101D1000EF90005A1221EAD39403EE9400401D750F
:101D2000F00AEB12220F8014900261E0FB75F00ABA
:101D300012220F900261E01222F8E4F012235412F2
:101D400021F84C700E900264E0FCA3E0FD1221CF5C
:101D50001222D8900261E0FB1222401210FC000017
:101D60000000900058122223900261E075F00A9062
:101D7000005C12222722C0E0C0F0C083C082C0D025
:101D8000E8C0E0D2AFD39002AAE094009002A9E0AC
:101D9000940040031237DBD39002AEE0940190022E
:101DA000ADE0940040051237DB8002D28AD3900266
:101DB000ACE094009002ABE0940040031237DB12D9
:101DC00037FA50031237E2D39002B4E09400900245
:101DD000B3E0940040031237DBD39002B8E09400E4
:101DE0009002B7E0940040031237DBD39002BCE0CE
:101DF00094009002BBE0940040031237DBD39000C4
:101E0000EEE094009000EDE0940040031237DBD345
:101E10009002B0E094009002AFE0940040031237CB
:101E2000DBD39002C0E094019002BFE09400400335
:101E30001237DB12380850031237E2D39002B6E0B3
:101E400094009002B5E0940040031237DBD3900277
:101E5000BAE094009002B9E0940040031237DBD35B
:101E60009002BEE094009002BDE09400400312375F
:101E7000DBD39002B2E094009002B1E09400400302
:101E80001237DBD39000F0E094009000EFE0940074
:101E900040031237DB12381650031237E2D390009A
:101EA000D6E094009000D5E0940040031237DBD3D5
:101EB0009000D8E094009000D7E0940040031237DF
:101EC000DBD39000A3E094019000A2E094004003D3
:101ED0001237DBD39000F2E094009000F1E0940020
:101EE00040031237DBD39000A5E094019000A4E0FA
:101EF000940040031237DB12382450031237E212E9
:101F0000383250031237E212384050031237E212CF
:101F1000384E50031237E2D390003AE0940090001C
:101F200039E0940040031237DBD0E0F8D0D0D08203
:101F3000D083D0F0D0E0327B017A0179297DFF7C1B
:101F400000123E637B017A0079017D267C01123EFE
:101F5000637B017A0279A87D1A7C00123E63902D82
:101F6000E0E49390012AF090012D7411F0A3742203
:101F7000F0A37433F0902DE2E49390013BF0902DA8
:101F8000E3E49390013DF09002247401F09001731A
:101F90007411F090021A14F090014DF0A37420F027
:101FA0007B017A0179679000051211427A01796B01
:101FB00090000B1211427A01796F900008121142C1
:101FC0007A01795B90000E1211427A0179639000D8
:101FD000111211427A01795F9000141211427A01B4
:101FE00079899000221211427A0179A99000E112B8
:101FF00011427A01793390004C1211427A017944EE
:102000009000491211427A0179539000171211423F
:102010007A01794F90001A1211427A017957900093
:102020001D121142900017121139E475F0C8120FF9
:102030001A90001A121139E475F064120F1A900008
:102040001D121139E475F096120F1A753900753AA0
:10205000C8752100752296900017123E8E75F0C843
:10206000120F3990001A123E8E75F064120F3990DB
:10207000001D123E8E75F096120F39753B00753CAF
:10208000C87523007524967B017A01797990004FF9
:1020900012114290017B7414F0740C123E96A374DA
:1020A00016F0740A123E96A304F0A37404F0A3740D
:1020B00007F09001497410F09002A97407F0A3741E
:1020C000D0F0E49002A8F02290026BEFF0902E2264
:1020D000E0FF90026FE4F0A3EFF0758A50902E229B
:1020E0007401F090026BE01238F57404F0A3E4F090
:1020F00090026CF090026CE0FFC3940D74809480A9
:1021000040030229CBEFF87E02E4088006CEA2E766
:1021100013CE13D8F8FF90026DEEF0A3EFF04E70DF
:102120000790026DF0A304F0902E207401F0902E21
:1021300020E030E2F990026BE0FF902E001238F8B8
:10214000E0FCA3E0D394FEEC94074044EF902E1003
:1021500012391FE0FEA3E0FF90026DE0FCA3E0FD5A
:10216000EF2DFFEE3CFEC3EF94FFEE940790026B61
:10217000E075F002902E10500B12112DEC8DF01224
:102180000E54805712112D7407F0A374FFF0804B8A
:1021900090026BE0FF1238F5E0FCA3E0FD90026DC9
:1021A000E0FAA3E0FBD3ED9BEC9A4024902E1012B2
:1021B0003928C083C082C3A3E09BFF0582D5820279
:1021C00015831582E09AD082D083F0A3EFF0800BC4
:1021D00090026BE01238F5E4F0A3F0902E20E4F0CA
:1021E000F58D90026CE004F00228D490026FA3E019
:1021F000902E22F0758A1022900264E0FF9000FF7A
:1022000075F01212112DE50875F00202112D9002E1
:1022100064E025E025E0246CF582E43402F58322B5
:10222000ED90008375F00212112DE0FEA3E022CBA9
:10223000EFCBEEFAC3E5149BFFE5139AFEE512948B
:1022400000FDE51194008F148E138D12F51122FDFF
:1022500075F00212112DEEF0A3EFF022900264E06F
:10226000FF25E02466F582E43402F5832290012301
:10227000ED75F00202112D900264E0FFC394027428
:1022800080948022900264E0FD75F002229000812B
:10229000E0FEA3E0FBEEFAE4F9F822123E34758A80
:1022A0005075B28F902E207401F022FF75F002124B
:1022B000112DE0FCA3E022EF75F0129000FF22F553
:1022C00083E4932420F582E4342EF58322A3F09056
:1022D0002E20E4F0758A1075B2932275F0049000F8
:1022E0002D02112DFDEF12112DECF0A3EDF022EDDA
:1022F00075F00290007D22EF9008069390080393FA
:10230000223EFE7C007D03020DC9900264E004F0D1
:1023100022F582E43402F583E0FF22E0FEA3E0FF31
:10232000E4229002611222DE4003022C2430054593
:10233000900261E075F0029000ED1221EA4E9002E9
:10234000616019E0FF25E02439F8764E087620EF29
:1023500025E02421F8761F0876408045E0FF25E03F
:102360002439F8760B0876B8EF25E02421F87609B1
:102370000876C4802C1223601221F824C8FDE43CA6
:10238000F8EF25E02439C8F608EDF6122360122193
:10239000F82496FDE43CF8EF25E02421C8F608ED8A
:1023A000F612236C1221D6120E95FDEF25E024398A
:1023B00012227AC3ED9FE5F09E5024900261E01254
:1023C0002205E0603212236C1221D6120E95FDEF29
:1023D00025E0242112227AC3ED9FE5F09E4018905B
:1023E0000261122281E0FCA3E04C703A74522F1279
:1023F00022077401F0802F90021AE064209002619D
:10240000700AE0122283E4F0A3F0800AE012228333
:10241000E4F0A374C8F0900261122203E4F0EF121A
:1024200022A8E4F0A3F0900261E0122205E060032C
:10243000122378900053E0C454F0FF900052E04F14
:10244000900174F022900261EFF01223101221EA41
:10245000FFC39404EE94005027900261E01221F231
:10246000FD1222B4C083C082900261E0FFD082D00E
:102470008312229C75F002EF9000B6122302804D69
:102480009002667401F0900266E0FFC312232750A9
:10249000291222B4C083C082900261E0FED082D0B3
:1024A0008375F0021221F8FD9000A21222B7EE12FD
:1024B000229C900266E004F080CC900261E0FF1262
:1024C00021F2FD75F002EF9000B212229F9002629D
:1024D0001210FC00000000E4900266F012230C12BF
:1024E00021EAFF900266E0FDD3EF9DEE94004034B8
:1024F0009002621210E4900266E09000A61222B8E8
:10250000C083C082900261E0D082D0831221E7FFB5
:10251000E4FCFD120F669002621210F0900266E079
:1025200004F080B89002621210D8ECC0E0EDC0E078
:10253000EEC0E0EFC0E012230C1221EAFBEEFAE459
:10254000F9F8D0E0FFD0E0FED0E0FDD0E0FC1210C2
:102550000C9002621210F09002620210D820040364
:10256000022DD4300503022DD4C204E4900261F0A0
:102570009002611239595072E0FE1238F1E0FCA36A
:10258000E0FDEE123936ECF0A3EDF0123DBE900204
:10259000611238EF12390F123963900261E0FD12B7
:1025A0003942EEF0A3EFF0ED123942E0FEA3E0FF76
:1025B0001238FEEE8FF0120F39ED70131238FE1242
:1025C000394E400B1238FE74FD75F0A8120ECDED99
:1025D000123936E0FEA3E0FFED1238F1EEF0A3EF82
:1025E000F0900261E004F0022D509002AB7403F011
:1025F000A37420F022122AD74291428843912022CC
:102600000600AB2E74AA7583F5758255A5745575B1
:1026100083FA7582AAA574A57583F5758255A522DE
:1026200002030AB00BB60CFF090208FF0D770E0477
:1026300013071410108015001600011292120718CB
:1026400010120F0404040401010111141608120CE5
:102650000A0403010204900264EFF0E4F50CF50BA8
:10266000F50AF509F50CF50BF50AF509F50812233D
:10267000245025900264E012226EE4FCFDE50C2F4C
:10268000FFE50B3EFEED350AFDEC35098F0C8E0B98
:102690008D0AF509050880D6E47B04FAF9F8AF0C39
:1026A000AE0BAD0AAC0912100C900264E075F0029A
:1026B0009000BA122233E4750CA8750B61F50AF587
:1026C00009F5081223245074900264E0FD12226E72
:1026D00075F002ED9000BA1221F8FD123E4DD3EFD5
:1026E000940AEE9400900264E0FF400B75F00290B3
:1026F00000BA1221F8801175F00AA42425F8E50823
:1027000025E028F8E6FC08E6FD75F002EF9000777A
:102710001221EAFFC3ED9FFFEC9EFE3395E0FDFC26
:10272000E50C2FFFE50B3EFEE50A3DFDE5093C8F7C
:102730000C8E0B8D0AF5090508022EA3E47F607E3E
:10274000EAFDFCAB0CAA0BA90AA809D31210B440ED
:102750000BE4750C60750BEAF50AF509AE0BAF0CCE
:102760002212396D123D997A0079B61230247A001E
:1027700079A67D101230387A00798D1230247A00D3
:10278000798912302E7A00799112302E7A0079529E
:102790007D021230387F0412313BE4FFEF122294A5
:1027A000505875F002EF1221F5FD9000051221D26C
:1027B0001222D875F002EF1221F5FD1221CF12225C
:1027C000D89000081221D212238E90000E1221D22E
:1027D000746175F0A8120F399000141221D274613F
:1027E00075F0A8120F399000111221D212238E1207
:1027F0002317E4F0A3F00F022F7C7B017A0079BF4E
:102800007D227C00123E637B017A0079547D147C2A
:1028100000123E63E4900130F09001737411F0A354
:10282000F01223789002C1E0700FC39002AAE094E6
:10283000F49002A9E09401500A9002A97401F0A357
:1028400074F4F0227B017D047C00123E63227B0144
:102850007D047C00123E63227B017C00123E6322D9
:10286000FD75F00212112DEEF0A3EFF090000812AA
:10287000113975F002EDA4F58285F083120E95FFF3
:10288000AEF0ED9000C775F00202112D9000081215
:102890001139900264E0FF75F002A4F58285F0839F
:1028A000120E95FDACF09000C7EF75F00212112DDD
:1028B000E0FEA3E0229000FBEF75F00202112D90E4
:1028C000000B121139900264E075F002A4F58285C4
:1028D000F083229000F775F00202112D900264E05F
:1028E000FF24BFF582E43400F583229000DDEF750C
:1028F000F00212112DE422900266E0941490026519
:10290000E0940022900264E024C1F582E43400F5F2
:102910008322EF9409EE9400900264E075F00222A5
:10292000900261E0FFC394027480948022900008BA
:102930000211399000D502112D9000F302112D756E
:10294000F009120E5475F002EF22FFC39430EE949A
:10295000752275F0029000FB02112D900261EFF0DC
:10296000E4900263F0900261E0FF900263E0C39F95
:10297000507912082EE4900262F012228F506312F6
:102980003BFA900262E090009112222F75F002ED66
:1029900090009112112DE0F8A3E0FFED75F00AA46C
:1029A000242DC8F608EFF6ED75F00AA4FF2425F9EA
:1029B000E4FAFBC0E0C0E0E9C0E074272FF9E4903E
:1029C000026712114290026AE4F0A37408F0D0E0AA
:1029D000F9D0E0FAD0E0FB123B5E900262E004F036
:1029E0008098900263E004F0023145E4900262F0C6
:1029F00012228F5059122E36900262E0900001127E
:102A0000222F75F002ED9000411221EAFF75F002CD
:102A1000ED90008D1221F8FD123E4D7C007D0512D7
:102A20000DC9900262E0FF90003D12229C75F002F9
:102A3000EF90008D1221EAFF900262E075F00290A3
:102A40000041122233900262E004F00231D022757C
:102A50008D20438D20538D7FE4F5B275B6FF75B799
:102A6000FF75B2A243B20153A8FB538B7F758B1045
:102A7000438B08E58B20E7030080F8538B7F758B31
:102A800011438B08E58B20E7030080F89002CDE529
:102A9000B5F0A3E5B4F0758B01E4F5B27F02FE1248
:102AA0001FAC123DFEE4F58D900020E0FEA3E0FF98
:102AB0004E700E123EC1FD900020E5F0F0A3EDF047
:102AC00022123EC1FDC3EF9DFFEE95F0FE123EAB1C
:102AD000D3EF940AEE648094804022123EC1FFC37B
:102AE000900021E09F900020E095F05006E475F002
:102AF00001800790002074FFF5F0020E5490002032
:102B0000E0FEA3E0FF7C007D0312114BECC0E0ED82
:102B1000C0E0EEC0E0EFC0E0123EC1FFAEF0E4FC6A
:102B2000FDD0E0FBD0E0FAD0E0F9D0E0F8120F667B
:102B3000E47B04FAF9F812100C900020EEF0A3EFF9
:102B4000F022E4900068F0A3F0A37403F0A37420D3
:102B5000F0123D0B7B017A0079777D067C00123EF6
:102B6000637F02123DBE902E14E0FEA3E0FF7C00C6
:102B70007D0A120DB790004F121139EE8FF0120F2F
:102B80001AE4900260F09002601239594003023357
:102B9000F7123DBE900260E090080693FF1238F5F0
:102BA000E0FCA3E0C39405EC94004012902E1012B8
:102BB000392FE0FEA3E0D394F0EE94074012900288
:102BC00060E0FF900068123929E4F0A3F0123DBEE6
:102BD000902E23E4F09002601238EF12390F123970
:102BE0006390004C121139900260E0FD75F0021202
:102BF0003908EE8FF0120F39ED70131238FE1239CA
:102C00004E400B1238FE74FD75F0A8120ECD9002E6
:102C100060E004F00233669001467410F022C0E0D8
:102C2000C083C082C0D075D018D2AFE5DB30E422BB
:102C3000D203C202E5DB30E114123E79E0F5DFEFAA
:102C400064077069D28A900130F00234B0C2010288
:102C500034B3E5DB30E52C900219E064AA701775F7
:102C60008A10F5DAC2AFF5B2F5A8F5A9F58B758E25
:102C700001758DC080FED200300204C2028054C2B1
:102C8000038050C202E5DB30E125E5DB30E0441291
:102C90003E79E0F5DFEF24F9600C24FA60042402A9
:102CA000700BD2048007D28A900130E4F08021209A
:102CB000010A7815A6DFD201D2028017123E79E50B
:102CC000DFF0EF642470099002AB04F0A374F4F019
:102CD00078150675DBFFD0D0D082D083D0E032E407
:102CE000FFFD9002ADE07004A3E06401701190015B
:102CF00030E06004D28AE4F0E49002ADF0A3F090FA
:102D00000052E0600E90014DE064106006EF442038
:102D1000FF8004EF4410FF900053E0600E90014DDF
:102D2000E064106006EF4402FF8004EF4401FF906E
:102D30000173EFF0900000E0FC6F605B900173E0C6
:102D4000FFEC6FFE900000EFF0208A1BD28A900209
:102D5000ADE4F0A37403F09002AEE024FFFB900218
:102D6000ADE034FF4B70F0900130E07007900173DC
:102D7000E05E8013EEF4FF900000E05FFDEEFF9058
:102D80000173E05FFFED4F900130F09002AD7403EE
:102D9000F0A374E8F0C28A22900264E0C454F024E4
:102DA0008EF582E43402F58322EBC454F0248CF5D2
:102DB00082E43402F583E4F0A3F0900264E0FFC4FF
:102DC00054F02490F582E43402F583E4F0A3F0EFAC
:102DD000C454F02495F582E43402F5832290026411
:102DE000E0FBC454F02488F582E43402F58322E049
:102DF000FDA3E0900265CDF0A3EDF0EFC454F02404
:102E000094F582E43402F58322900264E0C454F025
:102E10002492F582E43402F58322C454F02496F51A
:102E200082E43402F58322900265E0FEA3E0FF22F3
:102E3000C454F0248CF582E43402F58322900267B6
:102E40000210D89002670210E475F00E12112DE006
:102E5000FEA3E0FFE4FCFD9002771210E4120F8164
:102E6000900274E075F01CA42275F00E02112D750D
:102E7000F01CA42430F582E43402F58322242CF5DE
:102E800082E43402F583222428F582E43402F583B7
:102E9000222434F582E43402F583221210F09002E9
:102EA000800210D89002770210D8ED75F005A424A6
:102EB000B7F582E4343EF583E49322EC75F00E021C
:102EC000112D75F01CA42431F582E43402F583221F
:102ED0002433F582E43402F583229002800210F05C
:102EE000787FE4F6D8FD75813C02370A02000002C3
:102EF0003B0CE493A3F8E493A34003F68001F208AB
:102F0000DFF48029E493A3F85407240CC8C333C426
:102F1000540F4420C8834004F456800146F6DFE491
:102F2000800B0102040810204080903D41E47E01A6
:102F30009360BCA3FF543F30E509541FFEE493A304
:102F400060010ECF54C025E060A840B8E493A3FA16
:102F5000E493A3F8E493A3C8C582C8CAC583CAF0A2
:102F6000A3C8C582C8CAC583CADFE9DEE780BE90B0
:102F70000149E0642070037421F090004912113976
:102F8000120E6A641045F07003123C8690012AE02C
:102F900064AA7003123A5B123BAF2006089001430B
:102FA000E06410700D9001437411F0C206E49002C9
:102FB000A8F0900224E06006E4F09002A8F09000EF
:102FC000A2E07004A3E06401600C9000A4E070042F
:102FD000A3E064017015E49000A2F0A3F0A3F0A3B5
:102FE000F09000F1F0A3F09002A8F030000CC200C5
:102FF0009002AB7401F0A374F4F02274FFF5F002B8
:103000000E54E475F001020E54EF2401FDE43EFC81
:10301000D3E09D22EE8FF0020E54C390005DE09449
:10302000BC90005CE0940222C3900067E094BC90E6
:103030000066E0940222C39000D4E094649000D330
:10304000E0940022C3900297E094B8900296E09436
:103050000B22C3900291E094F4900290E09401223C
:10306000C39002A7E094B89002A6E0940B22C3900C
:1030700002A1E094F49002A0E0940122EF2401FD6B
:10308000E43EFCD3E09D22208A030238EE9002A9A0
:10309000E07002A3E070779000A2E07002A3E070FD
:1030A0006D9000A4E07002A3E07063F5B2758D200E
:1030B000438D20758D8043A808D2AFF58B900039E1
:1030C000E0FEA3E0FF4E6005758E508003758EFE16
:1030D00020002F20032CE5DB54047026758A842001
:1030E0000320E5DB5404701AF586758703000000A1
:1030F000758601EF4E60047F5080027FFE7E0012D5
:103100001FAC758B01758A1053A8F7123DFE22E0A3
:10311000FB90080693902E1075F00202112D90007E
:103120004C12113975F002EDA4F58285F08322E08E
:10313000FEA3E0FF7C007D0A120DB7EB90006875DE
:10314000F00202112D9000A2EF75F00202112D7510
:10315000F002EF02112D25E02466F582E43402F539
:10316000832225E02462F582E43402F58322120EE4
:1031700095D39458E5F0940222E0FFC39402748042
:10318000948022E0FCA3E02FFFEC3EFE227B017A3C
:103190000279287D387C00123E63E4FDEDC3940281
:1031A000748094805062E4900260F0900260E0FFCE
:1031B000C3940274809480504B12368AFEED75F0F1
:1031C0001CA41236B0EF12369CEEF012368A04F8C8
:1031D0007E007401088005C333CE33CED8F9FFEDED
:1031E00075F01CA4123671C083C082900260E0D0DA
:1031F00082D083123649EEF0A3EFF0900260E00433
:10320000F002398B0D02397C22E4FEEEC394077480
:10321000809480502FEE25E025E0241BF582E434D5
:103220002EF583E5822FF582E43583F583E493FD63
:10323000EE25E025E0241AF582E4342E122A9FEDD3
:10324000F00E80C7EFFD7C00701775F002EF900064
:103250006812112DE0FAA3E04A7006902E21741234
:10326000F0ED64014C701375F002EF900068122AC3
:10327000074E7006902E217412F02290026074089E
:10328000F0A3E4F0A3743FF0A374DFF0E4FDFCF9D5
:10329000123E8700900260E0FEA3E02DF582EE3C36
:1032A000F583E493FF69F90DBD00010CBC37E5BD62
:1032B000DFE2900262E0FEA3E0F5828E83E493FFFA
:1032C000E96F700890012A7406F08005E490012AE5
:1032D000F0123E8700227F0112313B121AE1E49086
:1032E0000260F0900260122292503B123CC99002A0
:1032F00060E0FF122C25EEFCEFFD90000512113965
:10330000900260E0FF1221D61222D81211789002AA
:1033100060E0FF122B02900260E0FF122394900203
:1033200060E004F080BD1234BF022D3D53A87F122F
:103330003E1A122717123DE212080E43A880E4F548
:103340008D12374F9002A8E014601214601A240204
:1033500070EC1233229002A87401F080E1122F4128
:103360009002A87402F080D6123AB6900149E0FFAC
:10337000642060CAEF642160C512386780C0900283
:103380006C12114290026712113990026F121142B1
:1033900090026AE07002A3E0603490026F1211396B
:1033A000120D8CFF90026C121139EF120DA59002D4
:1033B0006DE475F001120E54900270E475F0011284
:1033C0000E5490026A74FFF5F0120E5480C22290DF
:1033D000013CE0FF9002C2E06F600CEFF09002BF92
:1033E0007402F0A37458F09002BFE07004A3E0648C
:1033F0000170269002C2E0FF7E0064107002D205C8
:10340000EF64204E7002C20590014EE0641060022D
:10341000D206E49002BFF0A3F022EFFB90008D12E1
:1034200021E7FF75F002EB90008912223375F0025C
:10343000EB9000911221F8FDECC0E0EDC0E075F0DA
:1034400002EB9000891221EAFFE4FCFD9002771262
:1034500010F0EB90027BF0D0E0FDD0E0FC7F0102A9
:1034600014BBC2D5E830E70FB2D5E4C39BFBE49AA6
:10347000FAE499F9E498F8EC30E717B2D5123C7801
:1034800012100CE4C39BFBE49AFAE499F9E498F86F
:10349000800312100C30D50DE4C39FFFE49EFEE4C0
:1034A0009DFDE49CFC22E4900260F0A3F0123E87B4
:1034B00000122DE475EA81E4F5F6F5F475F308F5EC
:1034C000F275EB0700E5EC30E7FBAFF3EFFEADF292
:1034D000EDFF900049121139EE8FF0120F1AE4F54A
:1034E000EC75EB30123E87002290007712392FE006
:1034F000FCA3E0243CFDEC34F6FC75F002EF9000F8
:103500008D12112DE0FAA3E0C39DEA9C50151239EB
:1035100025E0FCA3E04C70121239257401F0A3746D
:10352000F4F022123925E4F0A3F022E4FFEFC39473
:103530000D748094805021EF25E02401F582E4345D
:103540002EF583E493FEEF25E02400F582E4342E8B
:10355000122A9FEEF00F80D5902F56E0902E2BF080
:1035600022C1034202CF0503C1044102C300C105C9
:103570004102C200C101011500C100C10242012780
:10358000000041000011C1064302CA0102CD0090B3
:103590000264EFF0E075F010A42488F9740235F0AD
:1035A000FA7B017D107C00123E63900264E01235CC
:1035B000FA740BF0A374B8F0227A00797D123DB44E
:1035C0007A007983123DB47B017A0079FF7D247CF7
:1035D00000023E637B017D067C00123E6322900266
:1035E0006AEFF0123E3490026AE0FF1239E990026D
:1035F0006AE090080693FF1228A890026AE0FF0292
:103600002DD5E4F5DA75DA4043DA2075D74075D662
:103610004075DA5843A80275B80275F80222E5B27F
:1036200054016006E5A85410700F75B29275B6F992
:10363000E4F5B743B20143A81022758A10538AEF0C
:10364000758601758F02E4F5AB75AC0F75913FF58A
:1036500092D28A22EFF87401088002C333D8FC4268
:10366000AB122AD7F4529152935391DF22D3EF9D9C
:10367000EE9C4007EF9DFFEE9CFE22C3ED9FFFEC0A
:103680009EFE22ED4C6011E4120DA50429F9E43AE6
:10369000FAED1D70EE1C80EB227815E6FF2429F56B
:1036A00082E43401F58322758A10538AEF221211C5
:1036B00039900002E422A3F0A37407F022009600E0
:1036C000960701F4009600960701F4EE30E707C371
:1036D000E49FFFE49EFE2204001E00190100190071
:1036E000199002CA121139020E6A0000000000008F
:1036F00000000000000000000000000000000000CA
:1037000000000000000000000000000000000000B9
:1037100000000000000000000000000000000000A9
:103720000000000000000000000000000000000099
:103730000000000000000000000000000000000089
:103740000000000000000000000000000000000079
:103750000000000000000000000000000000000069
:103760000000000000000000000000000000000059
:103770000000000000000000000000000000000049
:103780000000000000000000000000000000000039
:103790000000000000000000000000000000000029
:1037A0000000000000000000000000000000000019
:1037B0000000000000000000000000000000000009
:1037C00000000000000000000000000000000000F9
:1037D00000000000000000000000000000000000E9
:1037E00000000000000000000000000000000000D9
:1037F0000000000000000000000000000000005277
:1038000000000000000000000000000000000000B8
:1038100000000000000000000000000000000000A8
:00000001FF
