:10000000007F00AB02060000A6BE0000000000005A
:1000100000000000000000000000000000000000E0
:10002000022643009600960701F40002242F0400E4
:1000300019000F02061ED2AF320000020616D2AF20
:10004000320000021AE40000000000022ECF121F4E
:10005000C49000AA120D4990001FE0FEA3E0FFE447
:10006000FCFD120BB29000AA120D619000AEE47577
:10007000F001120B1AC39000B1E094649000B0E05C
:1000800094005003020A429000AA120D30ECC0E026
:10009000EDC0E0EEC0E0EFC0E09000AEE0FEA3E017
:1000A000FBEEFAE4F9F8D0E0FFD0E0FED0E0FDD0BE
:1000B000E0FC120C589000AA120D619000AA120DDB
:1000C000309000A8EEF0A3EFF0A3120D8600000020
:1000D00000E49000AEF0A3F0A3F0A3F09000EAE0FB
:1000E0007002A3E06003020A42900041E070030244
:1000F00008109000B2E07002A3E0605712290D12C0
:100100000A43C394C8EE9400500A9000B4E475F01A
:1001100001120B1AD39000B5E094059000B4E0945E
:10012000005023C39000C1E094329000C0E09400DE
:1001300040149000A3E0700302083112291512291F
:100140004240030208319000A27401F0E49000B232
:1001500002082E9000A4E0FEA3E0FF4E702D900058
:10016000A8E0FDA3E09000A4CDF0A3EDF0122915C6
:10017000FD9000A6E5F0F0A3EDF09000B67401F05C
:10018000A374F4F0E49000B402082E9000A8E0FC00
:10019000A3E0FD122EA39000C2EEF0A3EFF09000BA
:1001A000A2E06003020831C39000C3E0940690000F
:1001B000C2E09400501B9000B6E07004A3E064011C
:1001C000600F122915FF9000A6E5F0F0A3EFF08074
:1001D000069000A27401F012290D120A43D3943242
:1001E000EE94004005E49000A2F09000A6E0FEA38B
:1001F000E0FF7C007D03120DD5ECC0E0EDC0E0EE29
:10020000C0E0EFC0E0122915FFAEF0E4FCFDD0E045
:10021000FBD0E0FAD0E0F9D0E0F8120BB2E47B04B6
:10022000FAF9F8120C589000A6EEF0A3EFF0802136
:10023000E49000A4F0A3F09000B6F0A3F09000A624
:10024000F0A3F09000A2F09000B8F0A3F0A3F0A308
:10025000F09000A2E07003020A42122921D3940018
:10026000EC94005003020A42122915FFAEF0122E40
:10027000A39000CBEEF0A3EFF012291512291ED3A4
:100280009FEC9E400CD39000CCE094641229605007
:1002900015C3ED9FEC9E50409000CCE0942C900054
:1002A000CBE094014032E49000A2F012291512290B
:1002B000429000B2500E7401F0A374F4F0E4900088
:1002C000A3F0800D7407F0A374D0F09000A3740124
:1002D000F0E49000B4020A3F12291512291ED39FA0
:1002E000EC9E500302099AD39000CCE0940A1229A4
:1002F00060500302099A9000BBE094B89000BAE005
:10030000940B400302099AC3ED9FFFEC9E9000CD31
:10031000F0A3EFF0D39000C3E094649000C2E094A7
:1003200000405212292AD39428EE94004030D3EF93
:10033000943CEE94004006122959743CF090000958
:10034000122918FF122950C3EF9DFFE5F09C8FF092
:10035000120B9312292A9000BAEE8FF0802B1229EB
:10036000597405F0900009122918C3940512293315
:1003700075F005801412295904F09000091229180B
:10038000C3940112293375F001120B1A9000B8E0E2
:10039000FEA3E0FFC394E8EE9403501E122950EF31
:1003A0009DEE9C400E9000B9E09DF09000B8E09C5E
:1003B000F08007E49000B8F0A3F012291512291E6E
:1003C000C39FEC9E4003020A429000CCE09432129C
:1003D00029605003020A42EF9DFFEE9CFE9000CD83
:1003E000F0A3EFF0D39428EE9400402CD3E0943C9B
:1003F0009000CDE094004006E4F0A3743CF0122994
:100400002A900009120DC3EE8FF0120B5B12292AFD
:100410009000B8EE8FF0801A1229597405F0900000
:1004200009120DC3E475F005120B5B9000B8E4757A
:10043000F005120B1A9000BAE0FEA3E0FFC394B8D7
:10044000EE940B501D122950EF9DEE9C400D900034
:10045000BBE09DF09000BAE09CF022E49000BAF07E
:10046000A3F022FDACF0122EA39000C0EEF0A3EF9B
:10047000F022BB010689828A83E0225002E722BB78
:10048000FE02E32289828A83E49322BB01068982E9
:100490008A83F0225002F722BBFE01F322EF8DF097
:1004A000A4A8F0CF8CF0A428CE8DF0A42EFE22BC00
:1004B000000BBE0029EF8DF084FFADF022E4CCF8F4
:1004C00075F008EF2FFFEE33FEEC33FCEE9DEC9859
:1004D0004005FCEE9DFE0FD5F0E9E4CEFD22EDF8DF
:1004E000F5F0EE8420D21CFEADF075F008EF2FFF82
:1004F000ED33FD4007985006D5F0F222C398FD0F6A
:10050000D5F0EA22C2D5EC30E709B2D5E4C39DFDAF
:10051000E49CFCEE30E715B2D5E4C39FFFE49EFEF9
:10052000120A8FC3E49DFDE49CFC8003120A8F3005
:10053000D507C3E49FFFE49EFE22C5F0F8A3E028A0
:10054000F0C5F0F8E582158270021583E038F022DC
:10055000BB010A89828A83E0F5F0A3E02250068776
:10056000F009E71922BBFE07E3F5F009E319228938
:10057000828A83E493F5F074019322BB0107898298
:100580008A83020B1A500B09C5F027F7C5F01937FB
:10059000F722BBFE0D09F8E325F0F3C5F019E338A7
:1005A000F322F889828A8374019325F0C5F0F8E478
:1005B000933822BB010A89828A83F0E5F0A3F022F6
:1005C0005006F709A7F01922BBFE06F3E5F009F380
:1005D0001922EF2BFFEE3AFEED39FDEC38FC22C379
:1005E000EF9BFFEE9AFEED99FDEC98FC22E88FF070
:1005F000A4CC8BF0A42CFCE98EF0A42CFC8AF0EDAA
:10060000A42CFCEA8EF0A4CDA8F08BF0A42DCC385D
:1006100025F0FDE98FF0A42CCD35F0FCEB8EF0A495
:10062000FEA9F0EB8FF0A4CFC5F02ECD39FEE43C4F
:10063000FCEAA42DCE35F0FDE43CFC2275F00875F3
:100640008200EF2FFFEE33FECD33CDCC33CCC5820D
:1006500033C5829BED9AEC99E58298400CF582EEC9
:100660009BFEED9AFDEC99FC0FD5F0D6E4CEFBE4B1
:10067000CDFAE4CCF9A88222B800C1B90059BA0079
:100680002DEC8BF084CFCECDFCE5F0CBF97818EFD4
:100690002FFFEE33FEED33FDEC33FCEB33FB10D7D5
:1006A00003994004EB99FB0FD8E5E4F9FA22781896
:1006B000EF2FFFEE33FEED33FDEC33FCC933C910F1
:1006C000D7059BE99A4007EC9BFCE99AF90FD8E023
:1006D000E4C9FAE4CCFB2275F010EF2FFFEE33FEF5
:1006E000ED33FDCC33CCC833C810D7079BEC9AE868
:1006F00099400AED9BFDEC9AFCE899F80FD5F0DAE9
:10070000E4CDFBE4CCFAE4C8F922EB9FF5F0EA9ED5
:1007100042F0E99D42F0EC6480C864809845F02284
:10072000EB9FF5F0EA9E42F0E99D42F0E89C45F02F
:1007300022E8600FECC313FCED13FDEE13FEEF1384
:10074000FFD8F122E6FC08E6FD08E6FE08E6FF22F7
:10075000E0FCA3E0FDA3E0FEA3E0FF22E6FB08E649
:10076000F908E6FA08E6CBF822E0F8A3E0F9A3E0FE
:10077000FAA3E0FB22ECF608EDF608EEF608EFF639
:1007800022ECF0A3EDF0A3EEF0A3EFF022D083D0A3
:1007900082E493F608740193F608740293F60874E1
:1007A0000393F6740473A8828583F0D083D08212F9
:1007B0000D9D120D9D120D9D120D9DE473E493A3EA
:1007C000C583C5F0C583C8C582C8F0A3C583C5F07D
:1007D000C583C8C582C822A42582F582E5F0358389
:1007E000F58322E0FBA3E0FAA3E0F922EBF0A3EA11
:1007F000F0A3E9F022EC8EF0A4CCC5F0CCCDF8EF5C
:10080000A4CEC5F02DFDE43CFCE8A42EC8C5F03D07
:10081000FDE43CFCEFA4FFE5F028FEE43DFDE43CF4
:10082000FC229000CDEFF0A3ECF0A3EDF0EFC45468
:10083000F024BB122872122EA3D3EF9428EE94005A
:10084000402412289D120D6D0000000012285C1239
:10085000288EE4F6A3E0F8A3E0FF12285424BBC8D6
:10086000F608EFF68038122854122870D39400EE60
:100870009400402AA3E0FCA3E0FD9FEC9E500A12E6
:10088000285424BEF8740146F612286724B8F9D318
:10089000ED97EC19974007122895740246F6122836
:1008A0005424B1F8C0E0120D3C9000CEE0FEA3E06D
:1008B000FFE4FCFD120BB2D0E0F8120D55122867D0
:1008C00024B5F80806E618700106EF75F007A424B1
:1008D00008F582E43406F583E493FE740193FF90F7
:1008E00000CDE0FDC454F024BAF9D3EF97EE199788
:1008F0004003021084EDC454F024B5122872E4FCC5
:10090000FDC0E0C0E0EEC0E0EFC0E0E01228A212BF
:100910000D24D0E0FBD0E0FAD0E0F9D0E0F8120CE2
:10092000589000D0120D61122854122870EEC0E0C9
:10093000EFC0E09000D0120D30EFFDEEFCD0E0FFF4
:10094000D0E0FE122EA39000D4EEF0A3EFF09000C2
:10095000CDE0FD75F007A42403F582E43406F583A9
:10096000C37401939FE4939E4021EDC454F024B8D6
:10097000F9E7194760159000CDE0FBC454F024C09E
:10098000F9C3E794B819E7940B501E12286724B8EE
:10099000F9E71947700BEFC454F024BFF8E4F608E8
:1009A000F612284E24B7021028EB60030210309094
:1009B00000D6F09000D4E0FEA3E0FFD394C8EE94FC
:1009C000004006A37408F0803112285424BEF8E6D3
:1009D00064036026D3EF943CEE940040089000D668
:1009E0007404F08015D39000D5E094289000D4E0F2
:1009F000940040069000D67402F012285412287019
:100A0000E4FCFD1228A9D3120D0040149000D6E09A
:100A1000FF12285424B8F8EF26F618E436F680675B
:100A2000D39000D5E094C89000D4E09400405812D0
:100A3000285424B7F8C0E09000D6E0FFC308E69F32
:100A4000FF18E69400FED0E0F8EEF608EFF68037E7
:100A50001228541228704E700D1228A9EBFFEAFEDE
:100A6000E9FDE8FC80167C007D07120DD51228A94F
:100A7000120BB2E47B08FAF9F8120C58122854242D
:100A8000B7F8EEF608EFF612289D120D6D00000083
:100A90000012285C12288EE4F612284E24BBF8EED1
:100AA000F608EFF612285424B7F8E6FC08E6FDD362
:100AB0009400EC94004052A3E0FEA3E0FF122EA3AA
:100AC0009000CDE075F007A42405F582E43406F526
:100AD00083D37401939FE4939E400A1228671228DF
:100AE00079E4F680249000CDE0FF75F007A4240798
:100AF000F582E43406F583E493FE122886E6C39E6D
:100B00005007122854122879069000CEE0FEA3E088
:100B1000FF2212253A40030213CD900009120DC3A3
:100B20001224F2FDACF0D39FEC9E403790000912E6
:100B300024FBFFC3ED9FFFEC95F0FED3EF9430EE66
:100B40009475400C9000CB7475F0A37430F0800C59
:100B50001224F2C39FFFE5F09E122569E49000C5C0
:100B60000211B41224F8FFAEF09000091224FBFD2C
:100B7000ACF0C39FFFEC9EFED3EF9410EE942740A1
:100B80000C9000CB7427F0A37410F080121224F89C
:100B9000FFC3ED9FFEEC95F09000CBF0A3CEF0905C
:100BA00000CBE0FFA3E09000C5CFF0A3EFF030074B
:100BB00018D3E0942C9000C5E0940140139000C736
:100BC0007427F0A37410F08007E49000C7F0A3F03E
:100BD000E49000CBF0A3F0900041E06040122513B8
:100BE000D39400EE648094804014D3EF9509EE9581
:100BF00008400B9000F0E4F0A37464F0801BD390E5
:100C000000F1E094009000F0E09400400C900006A9
:100C10001224FBFFE5F0122569D204800F9000F446
:100C20007403F0A374E8F0E4FF122D9AD39000CC83
:100C3000E094009000CBE06480948050030213A203
:100C4000E0FEA3E0FF90000612250A122513EE3302
:100C500095E0FDFCE47BB87A88F9F8C3120CEA5001
:100C60000A9000CB7488F0A374B8F0D39000F3E03E
:100C700094009000F2E09400500778ABE664207096
:100C80001D122513C394C8EE648094805010EF9415
:100C900000EE6480948040357C007D0A8029300716
:100CA0002C900041E07011122513C39515EE951498
:100CB000501B7C027DBC800F122513C39509EE9555
:100CC00008500A7C027DBC120AE41225689000419B
:100CD000E060799000F4E07002A3E070149000CB23
:100CE000E0FEA3E0FDEEFCE4FF120E021225688098
:100CF0002E1225489000CBE0FCA3E0FD122EA3D3DA
:100D0000EF9428EE94004017D39000F5E094C8903B
:100D100000F4E09400400874FF75F09C120B1A1266
:100D200025487C007D07120DD5ECF8EDF9EEFAEFC1
:100D3000FB122513EE3395E0FDFC120BB2E47B08A9
:100D4000FAF9F8120C58900036EE800B9000CBE0C8
:100D5000FFA3E0900036CFF0A3EFF0122548D39424
:100D600005EE9400400EEF9410EE940050069000B3
:100D7000CBEE8016900032E0FEA3E0FF900037E05B
:100D80002FFF900036E03E9000CBF0A3EFF0D39021
:100D900000CCE094309000CBE0648094F540077480
:100DA00075F0A37430F0E5DB540470411225139004
:100DB000000F12250A9000CCE024A8FF9000CBE0A1
:100DC0008022E5DB5404702512252E900032E0FECF
:100DD000A3E0FF90000F12250A90000F1224FB24BD
:100DE000A8FFE5F03461FE90000C12250A22900065
:100DF000D2120D8600002710E49000CDF09000CDB7
:100E0000E0C394047480948040030214FE902E1C6E
:100E100074D5F0E044D6F05391FE758A30902E18C8
:100E20007403F0902E18E030E2F9902E00E0FFA35A
:100E3000E09000CECFF0A3EFF0902E18E030E2F972
:100E4000902E02E0FFA3E09000D0CFF0A3EFF0904F
:100E50002E18E4F0758A10439101C2889000D0E00A
:100E6000FCA3E0FD7F0112229F9000D0EEF0A3EFE3
:100E7000F0900071EEF0A3EFF090005F122BEC7099
:100E800002A3E0700F90005FE0FFA3E090005BCF53
:100E9000F0A3EFF09000CEE0FCA3E0FDE4FF12220F
:100EA0009F9000CEEE122BDF900073122BECFCA370
:100EB000E0FDEF2DFFEE3CFE90005FE0FCA3E0FDC7
:100EC000C3EF9DFFEE9C9000CE122BDF900065EEED
:100ED000F0A3EFF090005DEEF0A3EFF0E4FCFD90E6
:100EE00000D9120D61900069E0FCA3E0FDE4FF125F
:100EF0001964900069EEF0A3EFF09000D2122BD4A9
:100F00002400FFEE34E8FE3395E0FDFC120BB290B6
:100F100000D2120D619000CDE004F00213DDE47FF9
:100F2000507EC3FDFC9000D2120D49D3120CEA4052
:100F30000A9000D2120D860000C350122BF6EC333B
:100F4000500A9000D2120D860000000090006DE063
:100F5000FAA3E0FB4A7005122BF680227E007F0286
:100F6000EBFDEAFC120DD5ECF8EDF9EEFAEFFB1211
:100F70002BF6120BB2E47B03FAF9F8120C5890002E
:100F80006DEEF0A3EFF0900059E07002A3E0700F57
:100F900090006DE0FFA3E0900059CFF0A3EFF09038
:100FA0000028122BD4FFE4FCFD120BB29000281293
:100FB0000D6190002CE475F001120B1A90002CE0EA
:100FC000FEA3E0FFD3940AEE94004029EFFBEEFA73
:100FD000E4F9F8900028120D30120C58900026EE1B
:100FE000F0A3EFF0E490002CF0A3F0900028120D95
:100FF000860000000090002EE07002A3E070311225
:101000002BD7FF900026E0FCA3E0FD122EA390005A
:1010100024EEF0A3EFF0D39406EE9400401290007B
:101020002E7403F0A374E8F0A3E475F001120B1A18
:1010300090006DE0FEA3E0FF229000CEEFF0A3ED64
:10104000F09000D3741FF0A374FFF0A37410F0A30A
:10105000E4F0902E20E0FF9000D7E4F0A3EFF090B2
:101060002E207401F09000CFE0FF70139000D57433
:1010700008F0A3E4F09000D3740FF0A374FFF09095
:1010800000D5E0FCA3E0FD122A7075F002EF120D0E
:10109000B7ECF0A3EDF0902E18E4F0A374B8F0E4F0
:1010A0009000D0F09000D0E0FFC3940D7480948045
:1010B00040030217BDEF04F89000D5E0FEA3E0085E
:1010C0008005CEC313CE13D8F9FF9000D1EEF0A364
:1010D000EFF04E70079000D1F0A304F0758A3090C5
:1010E0002E187403F0902E18E030E2F9758A1090F3
:1010F00000CEE0FF75F002902E00120DB7E0FCA3C9
:10110000E0D394FEEC9407406475F004EF122A7764
:10111000C083C0829000CFE0D082D083122A9BEFA0
:101120002DFFEE3CFED39000D4E09F9000D3E09ED4
:10113000401E9000D1122A6BC083C0829000CFE085
:10114000D082D083122AAFEE8FF0120B1A0217ACA6
:101150009000D3122A6BC083C0829000CFE0D0826F
:10116000D083122AAFEEF0A3EFF00217AC122A7070
:10117000C083C0829000CFE0D082D083122A9BD35C
:10118000EF9DEE9C4030122A70C083C0829000CF49
:10119000E0D082D083122AAFC083C082C3A3E09D77
:1011A000FF0582D5820215831582E09CD082D08310
:1011B000F0A3EFF08016122A70C083C0829000CF97
:1011C000E0D082D083122AAFE4F0A3F0902E18E48E
:1011D000F0F0F58D9000D0E004F00216849000D776
:1011E000A3E0902E20F022D39000EBE09F9000EA45
:1011F000E09E400AA3E09FF09000EAE09EF0D390CA
:1012000000EFE09F9000EEE09E400CA3E09FF09086
:1012100000EEE09EF08002D289D39000EDE09F9036
:1012200000ECE09E400AA3E09FF09000ECE09EF00E
:10123000122AD15006EE8FF0120B1AD39000F1E073
:101240009F9000F0E09E400AA3E09FF09000F0E045
:101250009EF0D39000F3E09F9000F2E09E400AA33E
:10126000E09FF09000F2E09EF0D39000F7E09F90B6
:1012700000F6E09E400AA3E09FF09000F6E09EF0AA
:10128000D39000F5E09F9000F4E09E400AA3E09F19
:10129000F09000F4E09EF0D39000C8E09F9000C76B
:1012A000E09E400AA3E09FF09000C7E09EF0D3903C
:1012B00000F9E09F9000F8E09E400AA3E09FF090C4
:1012C00000F8E09EF09000FB122AC69000FAE09C25
:1012D000400AA3E09FF09000FAE09EF0122ADF504F
:1012E00006EE8FF0120B1AD39000B3E09F9000B27D
:1012F000E09E400AA3E09FF09000B2E09EF09000D4
:10130000B7122AC69000B6E09C400AA3E09FF09076
:1013100000B6E09EF0EF2401FDE43EFCD3900076A1
:10132000E09D900075E09C400AA3E09FF09000755E
:10133000E09EF0D39000CAE09F9000C9E09E400A72
:10134000A3E09FF09000C9E09EF0122AFB5008082D
:10135000EF26F618EE36F6122B06500808EF26F6A2
:1013600018EE36F6D390002FE09F90002EE09E40BE
:101370000AA3E09FF090002EE09EF0122AED4003B9
:10138000122ABF229000D7ECF0A3EDF09000D6EF28
:10139000F01223B8E070279000D6E01223E3120D7C
:1013A00030E4FBFAF9F8C3120D0060129000D6E0A9
:1013B00012240D120D30E4F8C3120D0070621224D5
:1013C00029EFFDEEFC9000D7E0FEA3E0FF122EA374
:1013D0009000D6E0FD1223D0EEF0A3EFF0ED122343
:1013E000B8E06023ED75F005A42411F582E434061D
:1013F0001223C6E0FCA3E0D39FEC9E400A9000D6E7
:10140000E01223B87405F0122368E0D394007480CE
:10141000948040061223B7E014F09000D9021AE03D
:101420001223DE120D309000DD120D6112240C1219
:101430000D301223F19000D6E01223FEE0F9F812ED
:101440000D11EFFBEEFAEDF9ECF81223F7120BBFDA
:101450009000E5120D619000DD120D309000D91260
:101460000D49120BB29000E5120D49120BB290001B
:10147000E1120D611224291223DE1223F412240C2E
:101480001223F4ECC0E0EDC0E0EEC0E0EFC0E0906D
:1014900000D6E012241BE0FEA3E0FBEEFAE4F9F82C
:1014A000D0E0FFD0E0FED0E0FDD0E0FC120C5812FE
:1014B00023F1EEC0E0EFC0E0122429EFFDEEFCD0F6
:1014C000E0FFD0E0FE122EA39000D6E0FD1223D064
:1014D000EEF0A3EFF0ED75F005A4240FF582E434EF
:1014E000061223C6E0FCA3E0D39FEC9E400F12231C
:1014F000687405F01224299000E1120D619000E15A
:10150000120D3022C0E0C0F0C083C082C0D0E8C05D
:10151000E0D2AFD39000EBE094009000EAE09400BA
:101520004003122ABFD39000EFE094009000EEE059
:1015300094004005122ABF8002D289D39000EDE0CA
:1015400094009000ECE094004003122ABF122AD1CC
:101550005007E475F001120B1AD39000F1E09400EB
:101560009000F0E094004003122ABFD39000F3E013
:1015700094009000F2E094004003122ABFD3900040
:10158000F7E094009000F6E094004003122ABFD3E5
:101590009000C8E094009000C7E094004003122A35
:1015A000BFD39000F9E094019000F8E0940040036C
:1015B000122ABFD39000FBE094019000FAE094005F
:1015C0004003122ABF122ADF5007E475F001120B04
:1015D0001AD39000B3E094009000B2E0940040036E
:1015E000122ABFD39000B7E094019000B6E09400B7
:1015F0004003122ABFD3900076E09401900075E07A
:1016000094004003122ABFD39000CAE094009000D7
:10161000C9E094004003122ABF122AFB50070806B3
:10162000E618700106122B0650070806E61870012E
:1016300006D390002FE0940090002EE09400400329
:10164000122ABF122AED4003122ABFD0E0F8D0D0F0
:10165000D082D083D0F0D0E0329000CB7402F0A3DF
:1016600074BCF0D39000CAE094009000C9E09400EC
:1016700040111224F8FF900009120DC3E5F08FF01D
:10168000120B939000EAE07002A3E0600B9000CB95
:10169000E4F0A37464F080097840E6641170027687
:1016A00020900041E0600612257C022EB990004295
:1016B000120D49E8C0E0E9C0E0EAC0E0EBC0E0128A
:1016C00024F8FFAEF0E4FCFDD0E0FBD0E0FAD0E07F
:1016D000F9D0E0F8120BB2900042120D6190004672
:1016E0001225929000CB1225A490004BE09F900011
:1016F0004AE09E5003021D72900042120D30ECC071
:10170000E0EDC0E0EEC0E0EFC0E0900046122599A9
:10171000D0E0FFD0E0FED0E0FDD0E0FC120C58900D
:101720000042120D619000091224FB2464FFE4358D
:10173000F0FEE4FCFD900042120D49D3120D004072
:101740002E9000EAE07002A3E070242004219000B3
:1017500048122593D3900049E09405900048E09406
:10176000004018122501E4900048F0A3F0800C120C
:101770002501E4900048F0A3F0C204900042120D4D
:101780008600000000E4900046F0A3F090004AF0CC
:10179000A3F02212253A4003021E9D30072090003C
:1017A000C7E07002A3E06008751427751510800665
:1017B00075141B75155875081775097080629000AF
:1017C000F8E07002A3E0704C9000181225A494D0A9
:1017D000EE9407504B7C007D0A120A7D7D64120A4C
:1017E0008FA3EEF0A3EFF0D39490EE940140099014
:1017F000001AE4F0A374C8F090001AE0FEA3E0FF22
:10180000242CF515EE3401F514EF24FAF509E43E25
:10181000F508800C75140175152C7508007509FA0A
:101820009000061224FBFFAEF0C39515EE95145000
:101830000F900041E06033C3EF9509EE9508402A10
:101840009000F2E07002A3E0705690004104F09026
:1018500000061224FBFFAEF0C394D0EE9407504074
:10186000900018EEF0A3EFF0803678ABE66420909D
:1018700000F27005F0A3F08006E4F0A374C8F0E471
:10188000900041F0900018F0A3F09000F8F0A3F061
:1018900090001AF0A3F09000F0F0A3F0785C7610BE
:1018A000900041E0FF6012784AE66410785C7004B2
:1018B0007610800276201225877871EFF6227B0061
:1018C0007A0079267D8B7C00122EB97B017A007913
:1018D000017DCA7C00122EB97B017A0079E97D185E
:1018E0007C00122EB9902DE0E4937827F6782A76C2
:1018F00011087622087633902DE2E4937838F6A327
:10190000E493783AF678AD7601785C761078AB7629
:1019100010784A76100876207B007A00796690006D
:1019200003120DCC7A00796A900009120DCC7A006E
:101930007968900006120DCC7A00795490000C1250
:101940000DCC7A00794E900012120DCC7A007950AD
:1019500090000F120DCC7A007986900021120DCCE8
:101960007A00793E90003B120DCC7A0079419000CC
:1019700038120DCC7A007958900015120DCC7A00EF
:10198000795A90001C120DCC900015120DC37401F1
:1019900075F02C120B937B007A00797690003E1242
:1019A0000DCC7878761308760F087607787E761354
:1019B00008760F08760790001C120DC3E475F0FA44
:1019C000120B93C20775140175152C750800750963
:1019D000FA122D059000EA7407F0A374D0F0E49099
:1019E00000E9F022758D20438D20538D7FE4F5B200
:1019F00075B6FF75B7FF75B2A243B20153A8FB538A
:101A00008B7F758B10438B08E58B20E7030080F8F4
:101A1000538B7F758B11438B08E58B20E703008088
:101A2000F8900114E5B5F0A3E5B4F0758B01E4F589
:101A3000B2122E6BE4F58D122F234E7010122F1A56
:101A4000FD90001FE5F0F0A3EDF00220A2122F1A86
:101A5000FDACF0122EA3D3EF940AEE9400402412B2
:101A60002F1AFFC3900020E09F90001FE095F050D8
:101A700006E475F001800790001F74FFF5F0120B6B
:101A80001A803F122F237C007D03120DD5ECC0E09D
:101A9000EDC0E0EEC0E0EFC0E0122F1AFFAEF0E4C0
:101AA000FCFDD0E0FBD0E0FAD0E0F9D0E0F8120B7A
:101AB000B2E47B04FAF9F8120C5890001FEEF0A380
:101AC000EFF0122F23E4FCFD7B0AFAF9F8120C5810
:101AD0009000BCEEF0A3EFF0A3E07002A3E0700D65
:101AE0009000BCE0FFA3E0A3CFF0A3EFF0229000B2
:101AF000811225A49404EE94005026900001E0FC8D
:101B0000A3E0FDEF25E0FFEE33FE74792FF582743C
:101B1000003EF583ECF0A3EDF09000811225928059
:101B2000419000CF7401F09000CFE0FFC312255424
:101B30005021EF12255BFCA3E0FDEF25E02477F5B3
:101B400082E43400F583ECF0A3EDF09000CFE004E4
:101B5000F080D4900001E0FFA3E090007FCFF0A3DD
:101B6000EFF09000CB120D8600000000E49000CF53
:101B7000F09000CFE0FFD3900082E09F900081E0E2
:101B8000940040259000CB120D499000CFE0122523
:101B90005BFEA3E0FFE4FCFD120BB29000CB120D44
:101BA000619000CFE004F080C89000CB120D30ECC3
:101BB000C0E0EDC0E0EEC0E0EFC0E0900081122593
:101BC00099D0E0FFD0E0FED0E0FDD0E0FC120C5850
:101BD0009000CB120D619000CB020D30E4F525F59D
:101BE00024F523F522F525F524F523F522F5211218
:101BF0002551502AE52125E0240AF8E6FE08E6FFF3
:101C0000E4FCFDE5252FFFE5243EFEED3523FDEC4C
:101C100035228F258E248D23F522052180D1E47B6A
:101C200004FAF9F8AF25AE24AD23AC22120C58907B
:101C3000009FEEF0A3EFF0E47525A8752461F5236D
:101C4000F522F521122551505190009F12251C12AA
:101C50002EA3D3EF940AEE9400401290009FE0FE72
:101C6000A3E0FF900059E0FCA3E0FD80079000593D
:101C700012251CC3EF9DFFEE9CFE3395E0FDFCE5B5
:101C8000252FFFE5243EFEE5233DFDE5223C8F2583
:101C90008E248D23F522052180AAE47F607EEAFD53
:101CA000FCAB25AA24A923A822D3120D00400BE4E3
:101CB0007525607524EAF523F522AE24AF25229020
:101CC00000D6EFF0A3ECF0A3EDF09000DA120D8651
:101CD000000000009000D7E0FEA3E0FF9000D6E0F7
:101CE000FD122BB7C083C082ED122BC5FD04F0D0CE
:101CF00082D08375F002ED120DB7EEF0A3EFF090F5
:101D000000D6E0122BC575F00684E5F0F0E49000F3
:101D1000D9F09000D9E0FFC3940674809480504DB0
:101D2000122BB375F002EF120DB7E0FEA3E04E9058
:101D300000DA7008120D499000D78018120D491270
:101D40002BB3C083C0829000D9E0D082D08375F0DD
:101D500002120DB7E0FEA3E0FFE4FCFD120BB2900F
:101D600000DA120D619000D9E004F080A59000DA4D
:101D7000120D30E47B06FAF9F8120C589000DA12D2
:101D80000D619000DA020D309000D9120D309000F4
:101D9000D6E0FB75F00EA42407F582E43401F58348
:101DA000120D61EB75F00EA4240FF582E43401F5F9
:101DB00083E0FEA3E0FFE4FCFD9000D9120D491280
:101DC0000BCD9000D6E0FB75F00EA42403F582E461
:101DD0003401F583120D61EB75F00EA4240BF5822E
:101DE000E43401F58322F583E493FE740193FFED5F
:101DF00075F00EA4240CF582E43401F583229000E2
:101E0000D6E0FB75F00EA42407F582E43401F583D7
:101E1000229000E1120D619000E1020D30ED75F0AD
:101E20000EA4240EF582E43401F58322EB75F00E46
:101E3000A42403F582E43401F5832275F00EA42472
:101E40000FF582E43401F583229000D9020D30C0F1
:101E5000E0C083C082C0D075D018D2AFE5DB30E4DB
:101E60001DD205C202E5DB30E10F122EEA640770D5
:101E70005ED289782DF60224E3C2010224E6E5DB76
:101E800030E52B78AAE664AA7017758A10F5DAC2D5
:101E9000AFF5B2F5A8F5A9F58B758E01758DC080EB
:101EA000FED200300204C202805CC2058058C20229
:101EB000E5DB30E11CE5DB30E04C122EEA24F96072
:101EC0000824EE700AD2068006D289782D7600802A
:101ED0003220010A7816A6DFD201D20280287816B5
:101EE000E6FFFD7C00C3948B7480948050067426BA
:101EF0002FF8A6DFED64244C70099000EC04F0A3E9
:101F000074F4F078160675DBFFD0D0D082D083D081
:101F1000E032120B30FFAEF0900003120DC3020B43
:101F200030900042120D30900009120DC3EE8FF078
:101F3000020B939000CBE0FEA3E0FF22E52125E019
:101F4000240AF8E6FE08E6FFE0FCA3E0FD2290008C
:101F500006120DC3E4F5F0020B93D39000EBE0946E
:101F6000009000EAE0940022900036E0FEA3E0FF3B
:101F700022C3E5219404748094802225E02479F51D
:101F800082E43400F583E022EE9000CBF0A3EFF082
:101F900022120DC3746175F0A8020B937B017A00C5
:101FA00079427D0A7C00229000EC7403F0A3742037
:101FB000F022E475F001020B1AE0FEA3E0FBEEFA5A
:101FC000E4F9F822E0FEA3E0FFC322122B11122E47
:101FD00049E4900081F0A3F090006DF0A3F0900030
:101FE0006BF0A3F090006FF0A3F07F041226D29064
:101FF0000001E0FEA3E0FFA312250A900001E0FE2D
:10200000A3E0FF12250712252E90000C12257190D7
:10201000001212257190000F122531E4900041F05A
:102020007B017A0079A27D20FC122EB912257C1248
:102030002EB9E49000F6F0A3F0785C76107871F693
:10204000122587900100E0700FC39000EBE094F43C
:102050009000EAE09401500A9000EA7401F0A37441
:10206000F4F022787FE4F6D8FD7581C002268D0257
:102070000000022A16E493A3F8E493A34003F68039
:1020800001F208DFF48029E493A3F85407240CC874
:10209000C333C4540F4420C8834004F4568001461F
:1020A000F6DFE4800B0102040810204080902D74BC
:1020B000E47E019360BCA3FF543F30E509541FFE4A
:1020C000E493A360010ECF54C025E060A840B8E4BB
:1020D00093A3FAE493A3F8E493A3C8C582C8CAC53E
:1020E00083CAF0A3C8C582C8CAC583CADFE9DEE7D0
:1020F00080BE9000CBEFF0E4A3F09000CBE0FFA314
:10210000E0C39F50361213CE122F2C90006FEEF0CA
:10211000A3EFF08E12F5137B007A00790C9000D0BB
:10212000120DCC9000D3E4F0A37408F07A00790A81
:10213000122B629000CCE004F080BF1221BC900012
:1021400001EEF0A3EFF0900034E0FEA3E0FF90007A
:102150006DE0FCA3E0FD122EA37C007D05120A8F2A
:10216000900032ECF0A3EDF090006DE0FFA3E09062
:102170000034CFF0A3EFF0223089789000EAE070CD
:1021800002A3E0706E900075E07002A3E07064F549
:10219000B2758D20438D20758D9043A808D2AF7500
:1021A0008B4090002EE0FEA3E0FF4E6005758E147C
:1021B0008003758E3F20002F20052CE5DB54047032
:1021C00026758A80200520E5DB5404701AF5867593
:1021D0008703000000758601EF4E60047F288002AF
:1021E0007F7F7E001217C7758B01758A1053A8F781
:1021F000122E6B227846E664207002762190003819
:10220000120DC3120B30641045F07003122C867847
:1022100027E664AA70031229BF122BFC200307785B
:1022200040E66410700C78407611C2039000E974A7
:1022300001F078ADE66006E4F69000E9F0900075F4
:10224000E07004A3E064017015900075F0A3F090B5
:1022500000C97407F0A374D0F0E49000E9F03000F6
:102260000CC2009000EC7401F0A374F4F022900012
:10227000D0120D309000CDE0C454F022EBC454F0E5
:1022800024B5F8E4F608F69000CDE0FFC454F0223F
:1022900024B7F8E6FE08E6FF2224B7F8E6FD08E6D4
:1022A000A3CDF0A3EDF0EFC454F024BDF82224B97F
:1022B000F8E4F608F6EFC454F024BEF8229000CDFE
:1022C000E0FBC454F024B1F8229000D0020D4990F4
:1022D00000EEE07004A3E064017010782DE6600465
:1022E000D289E4F6E49000EEF0A3F0900000E078EC
:1022F0005C666038E6FDF0782DE6900102F0540F40
:10230000F0EDFF7E0064207007E04420F0F68010BE
:10231000EF64104E700A900102E04410F0782DF640
:10232000C2899000EE7403F0A374E8F0229000A636
:10233000E0FEA3E0FF900006120DC3020B30FFAEDB
:10234000F09000A6E0FCA3E0FD229000CDE0FEA30B
:10235000E0FF22FFE5F094008FF0120B939000BA9B
:10236000E422FFC39000A7E09F9000A6E095F02232
:102370009000CDE0FCA3E0FD229000CDE4F0A3228C
:102380009000CBE0940022E490004CF0A3F07B019D
:102390007A0079597D04FC122EB9902E16E4F0A330
:1023A000F0902E14F0A3F07F01122DC07F01122CAB
:1023B000C790003E122AB8120B93902E12E4F0A39D
:1023C000F0902E107404F0A374B0F0E4FF122DC04E
:1023D00078437610E4FF122CC7122AB5020B93E45F
:1023E0009000CBF0A3F0A3742FF0A374DFF0E4FD12
:1023F000F9122EE3007C069000CBE0FEA3E02DF561
:1024000082EE3CF583E493FF69F90DBD00010CBC3D
:102410002FE5BDDFE29000CDE0FEA3E0F5828E83E4
:10242000E493FFE96F7006782776068004E4782746
:10243000F6122EE3002253A87F122EF6121E9E12D1
:102440002DE4122E6B43A880E4F58D78AB76201234
:1024500027D49000E9E014601214601A240270E896
:102460001229679000E97401F080DD1225AB90001D
:10247000E97402F080D2122E267846E6FF642060CE
:10248000C7EF642160C212275880BDE0FEA3E0FFC1
:102490009000CEE075F004902E10020DB7E0FEA380
:1024A000E0FF7C007D19120DD5E47B0AFAF9F812E1
:1024B0000C589000CEEE8FF0020B1A75F002120D40
:1024C000B7E0FEA3E0FF9000D1E0FCA3E0FD2275A1
:1024D000F002020DB790003B120DC3EE8FF0227494
:1024E000FFF5F0020B1AEF2401FDE43EFCD3E09D62
:1024F00022C390004BE094BC90004AE0940222C3B7
:102500009000B1E094649000B0E0940022D3900079
:10251000F5E094009000F4E0940022C378C0E694C3
:10252000B818E6940B22C378BAE694F418E694013E
:10253000227B017A0179037D0E7C00122EB9E4FD25
:10254000EDC39401748094805037ED75F005A42498
:102550000EF582E43406F583E493FF1223FDEFF0D9
:102560001223FDE004F87E007401088005C333CE19
:1025700033CED8F9FFED12241BEEF0A3EFF00D805F
:10258000BF229000D5120DCC9000D0120DC3900048
:10259000D8120DCC9000D3E07002A3E0603490001C
:1025A000D8120DC3120A52FF9000D5120DC3EF12BC
:1025B0000A6B9000D6E475F001120B1A9000D9E472
:1025C00075F001120B1A9000D374FFF5F0120B1A7C
:1025D00080C2229000D6E075F00DA42483F582E439
:1025E0003400F5832275F00DA4248FF582E43400C5
:1025F000F583E022120D49900069E0FEA3E022F08D
:10260000A3EFF09000CEE0FEA3E0FF22EEF0A3EFF8
:10261000F090005BE0229000D2020D307839E6FFA6
:10262000900101E06F600CEFF09000FA7402F0A3EB
:102630007458F09000FAE07004A3E06401702590F3
:102640000101E0FF7E0064107002D207EF64204EAB
:102650007002C207784BE664106002D203E4900077
:10266000FAF0A3F02230063D20073AC206902E125F
:10267000E0FFA3E09000CBCFF0A3EFF0E4FF122D3A
:10268000C0E4FF122CC7122AB5120B939000CBE0C6
:10269000FFA3E0902E12CFF0A3EFF09000EC7403B4
:1026A000F0A37420F022E49000CBF0A3F0122EE30C
:1026B00000122E8775EA81E4F5F475F306F5F275DC
:1026C000EB0700E5EC30E7FBAFF3EFFEADF2EDFF1B
:1026D000900038120DC3EE8FF0120B93E4F5EC75F9
:1026E000EB30122EE300229000CDEFF0E4A3F0A334
:1026F000F0EF700F90004CE0FFA3E09000CECFF021
:10270000A3EFF09000CDE075F004902E12120DB7FB
:10271000122A7D9000CD122A73122A7D9000CEE0FD
:10272000FEA3E0FF22E4FFEFC39413748094805073
:102730002BEF25E02401F582E4342EF583E493FEAB
:10274000EF25E02400F582E4342EF583E493241889
:10275000F582E4342EF583EEF00F80CB2290005A00
:10276000E02430FF900059E034F8FEC390006EE0A2
:102770009F90006DE09E5014900075E07002A3E001
:10278000701190007504F0A374F4F022E4900075C9
:10279000F0A3F022C105C10641010200C1074101B9
:1027A0000100C101011600C100C102C104C1034101
:1027B000000010430111010114009000CDEFF0E082
:1027C00075F010A424B1F9E4FAFB7D10FC122EB9C7
:1027D0009000CDE0C454F024BFF8760B0876B82200
:1027E0009000CDEFF05391FEE0FF122F089000CD46
:1027F000E0FF7D01121619439101C28822000000FA
:102800000602AB7FE4F5DA75DA4043DA2075D7408B
:1028100075D64075DA5843A80275B80275F80222D9
:10282000080304D401B80230030005F806F307FFDB
:1028300009800B2510210A010F010C1311130D0F34
:10284000120F0E0713077F011226D21220CE90001E
:102850000312250A12062E1210F2121D73121C39D1
:102860001228AF122D3D022C457B017A0079837D21
:102870001A7C00122EB97B017A00795D7D047C0000
:10288000122EB9E4900069F0A3F022E5B254016081
:1028900006E5A85410700F75B29275B6F9E4F5B755
:1028A00043B20143A8102274AA7583F5758255A519
:1028B00074557583FA7582AAA574A57583F575821A
:1028C00055A522D3EF9DEE9C4007EF9DFFEE9CFEA9
:1028D00022C3ED9FFFEC9EFE22ED4C6011E4120A34
:1028E0006B0429F9E43AFAED1D70EE1C80EB22C06E
:1028F000E0C083C082D2AF902E18E4F0D082D083A3
:10290000D0E032758A10538AEF227816E6FF24262B
:10291000F8E6F5DFEF22758A10538AEF75860175A8
:10292000910FE4F5A8D28922EFF87401088002C360
:1029300033D8FC44D4902E1CF022900111120DC308
:10294000020B3090001FE0FEA3E0FF2290006DE03C
:10295000FEA3E0FF90006BEEF0A3EFF0220000007A
:102960000000000000000000000000000000000067
:102970000000000000000000000000000000000057
:102980000000000000000000000000000000000047
:102990000000000000000000000000000000000037
:1029A0000000000000000000000000000000000027
:1029B0000000000000000000000000000000000017
:1029C0000000000000000000000000000000000007
:1029D00000000000000000000000000000000000F7
:1029E00000000000000000000000000000000000E7
:1029F0000000000000000000000000000000009B3C
:102A000000000000000000000000000000000000C6
:102A100000000000000000000000000000000000B6
:00000001FF
