:1000000000490000000300005F6A000000000000DB
:1000100000000000000000000000000000000000E0
:100020000236A0120FE5900002E4220233E6023EFF
:10003000300000020826D2AF320000020816D2AF0C
:100040003200000224B1D2AF32000002081E7F024B
:100050001239C9123295902E20E030E2F9903EF824
:10006000E493902E00123282E0FFA3E0900258CF7A
:10007000F0EF1232C17F02123EDE900081E0FEA35B
:10008000E0FF4E700E900258E0FCA3E0FDECFEEDA8
:10009000FF8014EF25E0FFEE33FE900259E02FFFC2
:1000A000900258E0123306900081EEF0A3EFF0903A
:1000B000007BE07002A3E0700F900081E0FFA3E0FE
:1000C00090007BCFF0A3EFF0E4900252F01232AB3D
:1000D0005010EF123244120FA80000271012330FF5
:1000E00080EBE4900253F0900253E0C394047480D8
:1000F00094804003020A63E4900252F01232AB4053
:1001000003020A5AA3E02401FDE433FC74BD2F125C
:100110003316D3ED9F7480F86C984003020A549014
:100120000252E0FF1239C9900252E0FF123295905C
:100130002E20E030E2F9900252E0FF903EF69390DC
:100140002E001232BBE0FCA3E0FDEF123273ECF0A4
:10015000ED1232C1900252E0FF123EDE12326EE02A
:10016000FCA3E0900095123261E0FCA3E0FD90005A
:100170007BE0FAA3E0FBED2BFDEC3AFC900081E084
:10018000FAA3E0FBC3ED9BFDEC9AFCEF1232731275
:100190003269E0FCA3E0900099123261E0FCA3E038
:1001A000FDEF1232D5ECF0A3EDF0900252E0FF909B
:1001B000007D1232D8E0FCA3E0FD4C700D75F0021A
:1001C000EF90010F123259FF801A900252E0FBEDBE
:1001D00025E0FFEC33FEEB1232D5E0FCA3E02FFF6D
:1001E000EC123306900252E090007D1232881232F7
:1001F000524E701575F002ED90007D123259FF7568
:10020000F002ED90008312328C900252E0FF123225
:100210007FE0FCA3E0FDECC0E0EDC0E075F002EF94
:1002200090007D123259FFE4FCFD900265120F9C94
:10023000900252E0900269F0D0E0FDD0E0FCE4FFD3
:10024000121375900252E0FD12327FEEF0A3EFF030
:10025000ED123244C083C082120F90123252240039
:10026000FFEE34E0FE3395E0FDFC120E12D082D09A
:1002700083120F9C12330F0208DC900253E004F04B
:100280000208C7902E23E4F0900252F01232AB40E5
:1002900003020C37EF123244C083C082120F90E881
:1002A000C0E0E9C0E0EAC0E0EBC0E0900252E02428
:1002B000BD123316FBE4FAF9F8123240120F841221
:1002C0003C7AD0E0FBD0E0FAD0E0F9D0E0F8120EB2
:1002D00012D082D083120F9C123240120F84E47B22
:1002E000507AC3F9F8C3120F4A500A123240120F63
:1002F000A80000C350900252E0FF123244120F9047
:10030000E833500BEF123244120FA80000000090A7
:100310000252E0FF1232B8E0FCA3E04C7009EF1289
:100320003244120F84802C900252E090008D1232E1
:1003300056FF7C007D02120FF7ECF8EDF9EEFAEFB4
:10034000FB123240120F84120E12E47B03FAF9F80A
:10035000120EB8900252E0FD1232B8EEF0A3EFF0A8
:1003600075F002ED9000771232594E701575F0025B
:10037000ED90008D123259FF75F002ED900077126A
:10038000328C900252E0FF1232F3C083C082120F0F
:1003900090EF123253FFE4FCFD120E12D082D08394
:1003A000120F9C900252E0FF9000351232EDE4757E
:1003B000F001120D0075F002EF900035123259FF76
:1003C000D3940AEE94004036EFFBEEFAE4F9F8908D
:1003D0000252E01232F3120F84120EB8900252E071
:1003E0009000291232889000351232ECE4F0A3F02C
:1003F00075F004ED1232F6120FA800000000900014
:1004000039E07002A3E07049900252E0FD123253CD
:10041000FF9000291232ECE0FCA3E0FD122DC89001
:100420000252E0FD75F00290002512328C75F00248
:10043000ED900025123259D39406EE9400401290AC
:1004400000397407F0A374D0F0A3E475F001120D25
:100450000012330F020A6C22BB010689828A83E0F4
:10046000225002E722BBFE02E32289828A83E493C0
:1004700022BB010689828A83F0225002F722BBFE4A
:1004800001F322EF8DF0A4A8F0CF8CF0A428CE8D3C
:10049000F0A42EFE22BC000BBE0029EF8DF084FFDD
:1004A000ADF022E4CCF875F008EF2FFFEE33FEEC50
:1004B00033FCEE9DEC984005FCEE9DFE0FD5F0E977
:1004C000E4CEFD22EDF8F5F0EE8420D21CFEADF076
:1004D00075F008EF2FFFED33FD4007985006D5F07B
:1004E000F222C398FD0FD5F0EA22C2D5EC30E7091D
:1004F000B2D5E4C39DFDE49CFCEE30E715B2D5E433
:10050000C39FFFE49EFE120C75C3E49DFDE49CFCBA
:100510008003120C7530D507C3E49FFFE49EFE22D2
:10052000C5F0F8A3E028F0C5F0F8E5821582700266
:100530001583E038F022BB010A89828A83E0F5F056
:10054000A3E022500687F009E71922BBFE07E3F576
:10055000F009E3192289828A83E493F5F074019308
:1005600022BB0110E58229F582E5833AF583E0F5A7
:10057000F0A3E0225009E92582F886F008E622BBC4
:10058000FE0AE92582F8E2F5F008E222E5832AF581
:1005900083E993F5F0A3E99322BB010DC58229C538
:1005A00082C5833AC583020D005011C58229F8081F
:1005B000E5F026F618F5F0E58236F622BBFE11C509
:1005C0008229F808E225F0F5F0F218E23582F222ED
:1005D000F8E58229F582E5832AF58374019325F0F5
:1005E000F5F0E4933822BB010A89828A83F0E5F0B2
:1005F000A3F0225006F709A7F01922BBFE06F3E587
:10060000F009F31922F8BB0111E58229F582E5838F
:100610003AF583E8F0E5F0A3F0225009E92582C815
:10062000F608A6F022BBFE09E92582C8F2E5F0082B
:10063000F222EF2BFFEE3AFEED39FDEC38FC22C33F
:10064000EF9BFFEE9AFEED99FDEC98FC22E88FF00F
:10065000A4CC8BF0A42CFCE98EF0A42CFC8AF0ED49
:10066000A42CFCEA8EF0A4CDA8F08BF0A42DCC38FD
:1006700025F0FDE98FF0A42CCD35F0FCEB8EF0A435
:10068000FEA9F0EB8FF0A4CFC5F02ECD39FEE43CEF
:10069000FCEAA42DCE35F0FDE43CFC2275F0087593
:1006A0008200EF2FFFEE33FECD33CDCC33CCC582AD
:1006B00033C5829BED9AEC99E58298400CF582EE69
:1006C0009BFEED9AFDEC99FC0FD5F0D6E4CEFBE451
:1006D000CDFAE4CCF9A88222B800C1B90059BA0019
:1006E0002DEC8BF084CFCECDFCE5F0CBF97818EF74
:1006F0002FFFEE33FEED33FDEC33FCEB33FB10D775
:1007000003994004EB99FB0FD8E5E4F9FA22781835
:10071000EF2FFFEE33FEED33FDEC33FCC933C91090
:10072000D7059BE99A4007EC9BFCE99AF90FD8E0C2
:10073000E4C9FAE4CCFB2275F010EF2FFFEE33FE94
:10074000ED33FDCC33CCC833C810D7079BEC9AE807
:1007500099400AED9BFDEC9AFCE899F80FD5F0DA88
:10076000E4CDFBE4CCFAE4C8F922EB9FF5F0EA9E75
:1007700042F0E99D42F0EC6480C864809845F02224
:10078000EB9FF5F0EA9E42F0E99D42F0E89C45F0CF
:1007900022E8600FECC313FCED13FDEE13FEEF1324
:1007A000FFD8F122E0FCA3E0FDA3E0FEA3E0FF22DE
:1007B000E0F8A3E0F9A3E0FAA3E0FB22ECF0A3ED5C
:1007C000F0A3EEF0A3EFF022A8828583F0D083D0CF
:1007D00082120FBF120FBF120FBF120FBFE473E4DC
:1007E00093A3C583C5F0C583C8C582C8F0A3C583DC
:1007F000C5F0C583C8C582C822A42582F582E5F06C
:100800003583F58322E0FBA3E0FAA3E0F922EBF0C5
:10081000A3EAF0A3E9F022EC8EF0A4CCC5F0CCCD95
:10082000F8EFA4CEC5F02DFDE43CFCE8A42EC8C52D
:10083000F03DFDE43CFCEFA4FFE5F028FEE43DFDC7
:10084000E43CFC2290024F12241540030213741260
:1008500022C8120D41D39DE5F09C403890000B1248
:10086000237E1222D31223E9D3EF9430EE94754005
:100870000C9002507475F0A37430F080061222C8F8
:100880001223F490024FE075F0029000F9120FD994
:10089000E40210FC90000512237EFF1222E91224CC
:1008A0000E90000B1222E51223E9D3EF9410EE9480
:1008B00027400C9002507427F0A37410F08016901B
:1008C000000512237EFF1222E912240E90000B1263
:1008D00022E51223F41223A790024FE0FD75F002E7
:1008E0009000F912234630052575F002ED9000F9CD
:1008F0001222FDD3942CEE9401401D75F002ED9070
:1009000000FD120FD97427F0A37410F0800A75F05F
:1009100002ED9000FD12233AE4900250F0A3F01291
:100920002313E06067122405D39400EC6480948064
:10093000401EEF25E02421122392D3ED9FEC9E4030
:100940000F90024FE01223D3E4F0A37464F0801CF4
:1009500090024FE0FF1223D31224A0400F90000812
:100960001222E5120D41FFE5F012246290024FE0E1
:10097000FF1224257401F0EF25E0249DF582E43474
:1009800002F583740FF0A374A0F0800D12236A7433
:1009900003F0A374E8F0123DA7D3900251E0940055
:1009A000900250E064809480500302132AE0FEA37A
:1009B000E0FF12237B1222E912242FEE3395E0FD93
:1009C000FCE47BB87A88F9F8C3120F4A500A900207
:1009D000507488F0A374B8F030053C122313E07013
:1009E00016EF25E02439F8E6FC08E6FD1223A7C33C
:1009F0009DEE9C505D801A90024FE025E02421F886
:100A0000E6FC08E6FDA3E0FEA3E0FFC39DEE9C50DC
:100A1000417C007DC8803590024F1223991224A09A
:100A20005008900208E064207028EF25E02421128D
:100A30002392122405C39FEC9E5017ED9400EC64A2
:100A4000809480400D1223A77C007D0A120CCA12EC
:100A50002461122313E0606FEF12236FE0FEA3E026
:100A60004E701190024FA3E0FCA3E0FD1216B112EC
:100A70002461802E1222F3FF122405122DC8D3EF19
:100A80009432EE9400401B12236AE0FCA3E0D3945E
:100A9000C8EC9400400CEF12236F74FF75F09C12A9
:100AA0000D001222F3FF7C007D07120FF790025019
:100AB00012234FEE3395E0FDFC120E12E47B08FA90
:100AC000F9F8120EB880031223A790024FE075F0D8
:100AD000029000451223461222F3FFD39405EE94B0
:100AE00000400EEF9410EE94005006900250EE80FD
:100AF0002090024FE0FF75F00290003D12230BFDA5
:100B000075F002EF9000451222FD2DFFEE3C9002A1
:100B100050F0A3EFF0D3900251E09430900250E0F7
:100B2000648094F540077475F0A37430F0E5DB54ED
:100B30000470611223A790001112237EFD1222E996
:100B400012242FEF24A8FFEE8037E5DB5404704415
:100B500012237BFF1222E91224AB75F002EF900002
:100B60003D1222FDFF90001112237EFD1222E91298
:100B7000242F75F002ED1222EC120D4124A8FFE59E
:100B8000F03461FE90000E120FE575F002ED1222B6
:100B9000EC12242F22900263ECF0A3EDF09002629D
:100BA000EFF0122D57C083C082900269E0D082D04E
:100BB00083122D51E07046122D48122D65C083C05E
:100BC00082900269E0D082D083122D51120F84E40A
:100BD000FBFAF9F8C3120F606023122D48122D6F33
:100BE000C083C082900269E0D082D083122D51125E
:100BF0000F84E4F8C3120F6060030214D9122D8C25
:100C0000C3900264E09FFF900263E09E12169AC0B8
:100C100083C082900269E0FCD082D083122D51EE15
:100C2000F0A3EFF0ED122D57122DA3E060509002CB
:100C300062E0FF122DAAC083C082900269E0D082D8
:100C4000D083122D51E0FCA3E0FDEF75F005A42444
:100C5000ECF582E4343EF583E493FE740193FFD314
:100C6000ED9FEC9E4018122D48122D5BC083C08270
:100C7000900269E0D082D083122D517405F0122DBC
:100C80008C122D48122D65C083C082900269E0D07D
:100C900082D083122D51120F9C122D48122D79C033
:100CA00083C082900269E0D082D083122D31122D50
:100CB0006FC083C082900269E0D082D083122D5130
:100CC000120F9C900262E0FF122D57C083C08290E9
:100CD0000269E0FED082D083122D51E0D3940074DB
:100CE000809480400EEF122D5775F00EEE120FD942
:100CF000E014F0900265021696122D48122D65C080
:100D000083C082900269E0D082D083122D51120FED
:100D10008490026A120F9C122D48122D6FC083C05E
:100D200082900269E0D082D083122D51120F8490FC
:100D3000026E122D83122D48122DB8C083C08290EE
:100D40000269E0D082D083122D51E0F9F8120F71C0
:100D5000EFFBEEFAEDF9ECF8122D86120E1F900261
:100D600072120F9C90026A120F84900265120F900B
:100D7000120E12900272120F90120E12122DC21247
:100D80002D8C122D48122D65C083C082900269E01F
:100D9000D082D083122D51122D83122D48122D6F27
:100DA000C083C082900269E0D082D083122D51129C
:100DB0002D83ECC0E0EDC0E0EEC0E0EFC0E0122D0E
:100DC00048122D79C083C082900269E0D082D0831E
:100DD000122D51E0FEA3E0FBEEFAE4F9F8D0E0FFBB
:100DE000D0E0FED0E0FDD0E0FC120EB8122DC29093
:100DF0000262E064016003021693122D8CEFFBEE99
:100E0000FA122D86C3EF9BFFEE9A12169AC083C08A
:100E100082900269E0FCD082D083122D51EEF0A3C3
:100E2000EFF0ED122DAA122DA3E0FEA3E0FF900239
:100E300062E0FB75F005A424EAF582E4343EF58314
:100E4000E493FC740193FDD3EF9DEE9C4065122D5D
:100E50008CEB75F01CA4122D65C083C082900269D2
:100E6000E0D082D083122D51120F9C122D48122DEA
:100E700079C083C082900269E0D082D083122D3184
:100E8000122D6FC083C082900269E0D082D083129D
:100E90002D51120F9C122D48122D5BC083C08290E1
:100EA0000269E0D082D083122D517405F0122D8C8E
:100EB000122DC290026E120F8422FE123ED29002B8
:100EC00062E0FD75F01CA4241FF582E43402F58372
:100ED00022900252EFF0A3ECF0A3EDF0EF1235D523
:100EE000E0FEA3E0FF122DC8D3EF9432EE94004051
:100EF0001C1235A5120FA800000000123571E4F095
:100F00001235EF1235D1EEF0A3EFF08043123560C9
:100F1000E0FEA3E0FFD39400EE9400403390025330
:100F2000E0FCA3E0FDD3EF9DEE9C400B900252E06D
:100F3000123598E04401F0900252E0FF123564E06F
:100F4000FAA3E0C39DEA9C5007123597E04402F0F3
:100F5000900252E01235AAC083C082120F9012355F
:100F6000EFE4FCFD120E12D082D083120F9C90028F
:100F700052E0FF1235F8E475F001120D00EF75F044
:100F800007A424C9F582E4343EF583E493FE74019A
:100F900093FF900252E0FDC454F0247EF582E434C5
:100FA00002F583E0FAA3E0C39FEA9E5003021931E1
:100FB000ED1235F8E0FEA3E0FFFBEEFAE4F9F8905D
:100FC0000252E01235AA120F84120EB89002551286
:100FD0000F9C123560E0FEA3E0FFEEC0E0EFC0E042
:100FE000123605EFFDEEFCD0E0FFD0E0FE122DC87A
:100FF000900259EEF0A3EFF0900252E0FD75F00779
:10100000A424C4F582E4343EF583C37401939FE4C1
:10101000939E401FED123564E0FEA3E04E601490F5
:101020000252E0FB1235E2E0FEA3E0C394B8EE9476
:101030000B5021900252E0FF123564E0FCA3E04C1B
:101040007008EF1235E2E4F0A3F0123605123560B5
:10105000EE0218DBEB6007640160030218E1E49024
:10106000025BF0900259E0FEA3E0FFD39450EE94AF
:10107000004006A37408F08032900252E0123598C6
:10108000E064036026D3EF943CEE940040089002A5
:101090005B7402F08015D390025AE09432900259AA
:1010A000E09400400690025B7401F0123560E0FEAF
:1010B000A3E0FFE4FCFD12360BD3120F6040119049
:1010C000025BE0FF123560E48FF0120D0002191789
:1010D000D390025AE09450900259E0940040581284
:1010E0003560C083C082E0FEA3E0FF90025BE0FDBC
:1010F000C3EF9DFFEE9400D082D083F0A3EFF08089
:1011000036123560E0FEA3E0FF4E700D12360BEB99
:10111000FFEAFEE9FDE8FC80167C007D07120FF770
:1011200012360B120E12E47B08FAF9F8120EB812FE
:101130003560EEF0A3EFF01235A5120FA800000005
:1011400000123571E4F01236051235D1EEF0A3EF3E
:10115000F0123560E0FCA3E0FDD39400EC94004075
:10116000561235EF122DC8900252E075F007A424F4
:10117000C6F582E4343EF583D37401939FE4939ED5
:10118000400F900252E0FF1235641235B7E4F08050
:1011900026900252E0FF75F007A424C8F582E434DB
:1011A0003EF583E493FE1235C3E0C39E5009123529
:1011B000601235B7E004F01235EF22900252EFF0E2
:1011C000E0FF2452F582E43400F583E07003021A54
:1011D0006F9000CB122F8AE0FEA3E04E701A9000B1
:1011E000D3E0FEA3E0FF900252E09000CB122F412B
:1011F000EEF0A3EFF0021A9F900252E09000CB12A3
:101200002F67E0FEA3E0FF9000D3E0FCA3E0FD1217
:101210002DC89000F1120FE5900252E0FD122FAEA2
:10122000EE8FF0120DE574C72D122FCFE0703790BE
:1012300000F1120FE575F002ED122FB1120D41C34E
:101240009406E5F09400500A122F4DEEF0A3EFF053
:101250008014E4FFEF12300F500C74C72F122FCF01
:101260007401F00F80EE900252E0FF9000CB122F3D
:101270008BE0FCA3E09000D3123037400A74C92FF2
:10128000122FF8E4F08038122FF27401F0803090C1
:101290000252E0FF9000CB122F94E4F0A3F0EF1283
:1012A0002F64E4F0A3F074C72F122FCFE4F0900066
:1012B000E1122FBBE4F0A3F0122FB8E4F0A3F01278
:1012C0002FC8E07003021C09122F87E0FEA3E0D3B1
:1012D0009400EE94005003021C0912301790025241
:1012E000E0FD75F002122F57E0FCA3E0FD122DC8BF
:1012F000900253EEF0A3EFF0900252E09000F5124E
:101300002F41E0FCA3E0D39FEC9E400CD39002540D
:10131000E0948C122FEB5018122F6DE0FEA3E0C367
:101320009DEE9C5063900254E094C8122FEB4058FD
:10133000122FC8E4F0EF9000CB122FC2E4F0A3F01C
:1013400012301775F002EF122FB1120D41FFAEF0FF
:10135000900252E0FD122F64E0FAA3E0C39FEA9EE0
:10136000500F75F002ED9000DD12304374C8F0802C
:1013700011900252E09000DD122F9E7401F0A374D0
:101380002CF0122FF2E4F022122F6DE0FEA3E0D336
:101390009DEE9C404FD3122FE54049900252E090C1
:1013A00000E5122FBCE0FEA3E01230225036122FCF
:1013B000A474FF75F0F7120D79122FB8E475F009D7
:1013C000120D0012300012301D50191230299000F9
:1013D000E1400D120FD974FF75F0F7120D00800473
:1013E000123043F0122F6DE0FEA3E0C39DEE9C503F
:1013F00038122FE54033122FA4E475F009120D794D
:10140000123000E475F009120D00122FB812301DD1
:1014100050171230299000E5400B120FD974FF7558
:10142000F0F7020D00123043F02290024FEFF0A3CC
:101430007402F0A374BCF0E4A3F0A3F0D390010213
:10144000E09400900101E094004017900005122301
:10145000B3E0FF1222E912240E90000B1222E512D3
:10146000244A900297E07002A3E0600B900250E4DF
:10147000F0A37464F0800B900131E0641170037488
:1014800020F090024FE0FB122318E0602090024F02
:10149000E0FA122361120FA80000000075F00AEABA
:1014A00090005812233A75F00AEB021E5E12235D7B
:1014B000C083C082120F90E8C0E0E9C0E0EAC0E05B
:1014C000EBC0E09000051223B3E01222E912245A87
:1014D000E4FCFDD0E0FBD0E0FAD0E0F9D0E0F81277
:1014E0000E12D082D083120F9C90024FE0FF90002A
:1014F0005812236412243875F00AEF90005C12220F
:10150000FDFF900250E0FCA3E0FDC3EF9DEE9C5078
:1015100003021E6412235DC083C082120F84ECC0DC
:10152000E0EDC0E0EEC0E0EFC0E090024FE075F00B
:101530000A9000581222FDFBEEFAE4F9F8D0E0FF21
:10154000D0E0FED0E0FDD0E0FC120EB8D082D08317
:10155000120F9C1223B0E01222E9120D412450FF19
:10156000E435F0FEE4FCFD12235D120F90D3120F60
:10157000604036900297E07002A3E0702C90024F1A
:10158000E0FB122425E0702112246A12243575F044
:101590000AEF90005A1222FDD39403EE9400401DEE
:1015A00075F00AEB122322801490024FE0FB75F0D5
:1015B0000A12232290024FE0122425E4F012246A3A
:1015C00012230B4C6003021E4290000B1222E51204
:1015D0000D41FFC3900253E09F900252E095F050FE
:1015E0006F1223B01222D11223E9123ED2C3EF941C
:1015F000E8EE64809483505890024FE064019000BC
:101600000B701F1223B3E01222E912245A7C007DD2
:1016100004120FF790025212234F12249AE47B0512
:1016200080261223B3E01222E912245A7C007D02A4
:10163000120FF7ECF8EDF9EEFAEFFB900252E0FE34
:10164000A3E0122499E47B03FAF9F8120EB880089B
:10165000900252E0FEA3E0FF1223B0E01222E91252
:10166000242F90024FE0FB122361120FA80000000C
:101670000090005812233690024FE075F00A900057
:101680005C12233A22E4900250F0A3F0122990D386
:10169000900298E09400900297E0940040030220AA
:1016A000BE9000D5120F90900020E0FEA3E0FFE472
:1016B000FCFD120E129000D5120F9C9000D9E4751B
:1016C000F001120D00C39000DCE094649000DBE0B8
:1016D00094005003021F379000D5120F84ECC0E035
:1016E000EDC0E0EEC0E0EFC0E09000D9E0FEA3E086
:1016F000FBEEFAE4F9F8D0E0FFD0E0FED0E0FDD058
:10170000E0FC120EB89000D5120F9C9000D5120F7D
:10171000849000D3EEF0A3EFF0A3120FA800000016
:1017200000E49000D9F0A3F0A3F0A3F0900297E0BA
:101730007002A3E0702190024FF012300A5018900E
:1017400000DD123003E0FEA3E04E700312199B90FF
:10175000024FE004F080E3E490024FF012300A40C0
:10176000030220BE74522FF582E43400F583E0FFBB
:10177000602590024FE0FE122FDCE0FCA3E04C70ED
:1017800016900020E0FCA3E0FDEE900103122FC2B2
:10179000ECF0A3EDF08026EF702312301790024F8B
:1017A000122FAD120D41C39496E5F09400500E1225
:1017B0002FD7E4F0A3F0122F9AE4F0A3F090024F99
:1017C000E0122FDCE0FEA3E0FF4E70030220B59094
:1017D0000020E0FCA3E0FDC3EF9DFFEE9CFE123E67
:1017E000D2900250EEF0A3EFF0122FD7E0FCA3E06E
:1017F0009000201230374013900250E0FCA3E0FD2F
:10180000EF122F91ECF0A3EDF08022900250E0FE59
:10181000A3E0FFD394C8EE94004012EE13FEEF1342
:10182000FF90024FE0122F91EEF0A3EFF090024FE5
:10183000E0FF122F91E0FCA3E0D3940AEC94005057
:10184000030220B512301775F002EF122FB1120DFE
:1018500041D39498E5F0943A404190024FE0FB1256
:101860002F9BE0FEA3E0C39428EE942350679002E0
:101870004FE0FA24BDF582E43402F583E075F018F8
:10188000A4FFAEF0EA122F91E0FCA3E0FD120C637E
:10189000EB122F9BEEF0A3EFF0803A12301790027C
:1018A0004FE0FF122FAE120D41D394E8E5F0940300
:1018B0004023122F9AE0FEA3E0C39458EE94025006
:1018C0001490024FE0122F91E0FCA3E0FD122F9A3A
:1018D000ECF0A3EDF090024FE004F0021F3C22D3A5
:1018E000900298E09F900297E09E400AA3E09FF04C
:1018F000900297E09EF090029C1237C990029BE004
:101900009C400CA3E09FF090029BE09EF08002D2EE
:101910008AD390029AE09F900299E09E400AA3E049
:101920009FF0900299E09EF01237DA50031237D4FC
:10193000D39002A2E09F9002A1E09E400AA3E09F04
:10194000F09002A1E09EF0D39002A6E09F9002A545
:10195000E09E400AA3E09FF09002A5E09EF0D390A5
:1019600002AAE09F9002A9E09E400AA3E09FF090A7
:1019700002A9E09EF0D39000FEE09F9000FDE09E63
:10198000400AA3E09FF09000FDE09EF0D390029EFD
:10199000E09F90029DE09E400AA3E09FF090029D90
:1019A000E09EF09002AE1237C99002ADE09C400A72
:1019B000A3E09FF09002ADE09EF01237E8500312D2
:1019C00037D4D39002A4E09F9002A3E09E400AA3E4
:1019D000E09FF09002A3E09EF0D39002A8E09F90D9
:1019E00002A7E09E400AA3E09FF09002A7E09EF0CD
:1019F000D39002ACE09F9002ABE09E400AA3E09F30
:101A0000F09002ABE09EF0D39002A0E09F90029F86
:101A1000E09E400AA3E09FF090029FE09EF0D390EA
:101A20000100E09F9000FFE09E400AA3E09FF0903D
:101A300000FFE09EF01237F650031237D4D3900027
:101A4000DEE09F9000DDE09E400AA3E09FF0900062
:101A5000DDE09EF0D39000E0E09F9000DFE09E404C
:101A60000AA3E09FF09000DFE09EF09000AB1238F8
:101A70003C9000AAE09C400AA3E09FF09000AAE0FE
:101A80009EF0D3900102E09F900101E09E400AA3E6
:101A9000E09FF0900101E09EF09000AD12383C9084
:101AA00000ACE09C400AA3E09FF09000ACE09EF008
:101AB00012380450031237D412381250031237D49C
:101AC00012382050031237D412382E50031237D454
:101AD000D390003AE09F900039E09E400AA3E09F37
:101AE000F0900039E09EF02290000B120FE590027A
:101AF0004FE0FF75F002A4F58285F083120D41FDE1
:101B0000ACF0900005120FE5EF75F002A4F58285A8
:101B1000F0832290024FE090004575F002120FD939
:101B2000E0FEA3E02275F002900001120FD9E0FC64
:101B3000A3E02290024FE0FF2452F582E43400F546
:101B40008322900054120FD9120F84900252EEF0AB
:101B5000A3EFF090005A75F00AEB120FD9E4F0A34E
:101B6000F022FD75F002120FD9EEF0A3EFF022EC97
:101B7000F8EDF9EEFAEFFBE0FEA3E0FF2290024F52
:101B8000E090005475F00A020FD990024FE0FF2553
:101B9000E024A9F582E43402F58322900008120FB4
:101BA000E590024FE02275F00AA42425F8E5082507
:101BB000E028F8E6FE08E6FF22E0FF25E024A5F590
:101BC00082E43402F58322900250E0FEA3E0FF227B
:101BD00090000B120FE590024F22900250E0FFC3DD
:101BE0009402748094802275F002120FD9ECF0A355
:101BF000EDF02225E024A1F582E43402F583229061
:101C000000AEEF75F004020FD9120D41C39DFFE540
:101C1000F09CFE22120D41C39DFEE5F09C90025007
:101C2000F0A3CEF022900250E0FCA3E0FD22120DC2
:101C300041FDACF022EFF0D3900298E094009002C6
:101C400097E09400222415F582E43401F58322EE16
:101C50008FF0020DE5120FD9E475F001020D00902E
:101C6000024FE075F0029000BE22EC8DF0020DE50F
:101C7000C3E50894047480948022120D41FFAEF0F5
:101C800022EE900250F0A3EFF02290024FE0FF7599
:101C9000F00A90005A2290024FE0FF75F002900186
:101CA0000B22900008120FE590024FE0FF229002F5
:101CB000997403F0A37420F022FFE4FCFD020E12DD
:101CC000E0FCA3E0D39400EC940022E4F5F0020DD4
:101CD000E5C0E0C0F0C083C082C0D0E8C0E0D2AFB1
:101CE000D3900298E09400900297E0940040031291
:101CF00037BBD390029CE0940190029BE09400409B
:101D0000051237BB8002D28AD390029AE0940090E9
:101D10000299E0940040031237BB1237DA500312E5
:101D200037C2D39002A2E094009002A1E094004058
:101D3000031237BBD39002A6E094009002A5E09472
:101D40000040031237BBD39002AAE094009002A98E
:101D5000E0940040031237BBD39000FEE094009063
:101D600000FDE0940040031237BBD390029EE09444
:101D70000090029DE0940040031237BBD39002AE66
:101D8000E094019002ADE0940040031237BB12379B
:101D9000E850031237C2D39002A4E094009002A34B
:101DA000E0940040031237BBD39002A8E094009067
:101DB00002A7E0940040031237BBD39002ACE0943A
:101DC000009002ABE0940040031237BBD39002A016
:101DD000E0940090029FE0940040031237BBD39040
:101DE0000100E094009000FFE0940040031237BB34
:101DF0001237F650031237C2D39000DEE094009001
:101E000000DDE0940040031237BBD39000E0E09483
:101E1000009000DFE0940040031237BBD39000AB8A
:101E2000E094019000AAE0940040031237BBD390E5
:101E30000102E09400900101E0940040031237BBDE
:101E4000D39000ADE094019000ACE0940040031208
:101E500037BB12380450031237C212381250031223
:101E600037C212382050031237C212382E500312D4
:101E700037C2D390003AE09400900039E0940040DB
:101E8000031237BBD0E0F8D0D0D082D083D0F0D0CE
:101E9000E0327B017A0179177DFF7C00123E997B4D
:101EA000017A0079017D147C01123E997B017A024E
:101EB00079967D1A7C00123E99902DE0E493900172
:101EC00018F090011B7411F0A37422F0A37433F086
:101ED000902DE2E493900129F0902DE3E49390019A
:101EE0002BF09002127401F09001617411F09002D5
:101EF0000814F090013BF0A37420F07B017A017983
:101F000055900005120FEE7A01795990000B120FCF
:101F1000EE7A01795D900008120FEE7A017949900E
:101F2000000E120FEE7A017951900011120FEE7A25
:101F300001794D900014120FEE7A0179779000220A
:101F4000120FEE7A0179979000F1120FEE7A017973
:101F50002190004C120FEE7A017932900049120F55
:101F6000EE7A017941900017120FEE7A01793D90D7
:101F7000001A120FEE7A01794590001D120FEE90B3
:101F80000017120FE5E475F0C8120DC690001A1282
:101F90000FE5E475F064120DC690001D120FE5E424
:101FA00075F096120DC6753900753AC87521007521
:101FB000229690001712080375F0C8120DE59000E4
:101FC0001A12080375F064120DE590001D12080343
:101FD00075F096120DE5753B00753CC875230075CC
:101FE00024967B017A01796790004F120FEE9001E1
:101FF000697412F0A3740BF0A37407F0A37414F0C7
:10200000A37409F0A37407F0A3740AF0A37408F092
:10201000A314F09001377410F09002977407F0A3A6
:1020200074D0F0E4900296F02290024FEFF0122468
:10203000431222FDFFC39404EE9400502890024FF7
:10204000E0122305FD1223DFC083C08290024FE01F
:10205000FFD082D0831223C775F002EF9000BE122A
:1020600024350229049002547401F0900254E0FFD8
:10207000C312245350291223DFC083C08290024F21
:10208000E0FED082D08375F00212230BFD9000AAEF
:102090001223E2EE1223C7900254E004F080CC90A9
:1020A000024FE0122318E060030228F190000512AD
:1020B0000FE590024FE0FD1222E912245A75F0025A
:1020C000ED122308FD122DC8C3EF9428EE940050A2
:1020D0004090024FE0FD75F0029000011222FDFFDA
:1020E00090000B120FE5ED1222E912240E122DC8FA
:1020F000C3EF9414EE9400500590000B8003900001
:1021000005120FE590024FE0FF1222E912240E8023
:102110000990024FE0FF122305FD75F002EF9000D9
:10212000BA1223CA900250120FA800000000E490D7
:102130000254F012243F1222FDFF900254E0FDD31E
:10214000EF9DEE94004030900250120F9090025498
:10215000E09000AE1223E3C083C08290024FE0D033
:1021600082D0831222FA122499900250120F9C906E
:102170000254E004F080BC900250120F84ECC0E0E6
:10218000EDC0E0EEC0E0EFC0E012243F1222FDFB04
:10219000EEFAE4F9F8D0E0FFD0E0FED0E0FDD0E0C8
:1021A000FC120EB8900250120F9C900250020F8445
:1021B000758D20438D20538D7FE4F5B275B6FF7584
:1021C000B7FF75B2A243B20153A8FB538B7F758B47
:1021D00010438B08E58B20E7030080F8538B7F7555
:1021E0008B11438B08E58B20E7030080F89002BB3E
:1021F000E5B5F0A3E5B4F0758B01E4F5B27F02FE1E
:102200001220BF123E30E4F58D900020E0FEA3E0E6
:10221000FF4E7010123E0BFD900020E5F0F0A3ED94
:10222000F0022A82123E0BFDC3EF9DFFEE95F0FEF9
:10223000123ED2D3EF940AEE648094804024123E82
:102240000BFFC3900021E09F900020E095F0500626
:10225000E475F001800790002074FFF5F0120D0086
:102260008040900020E0FEA3E0FF7C007D03120F81
:10227000F7ECC0E0EDC0E0EEC0E0EFC0E0123E0BD6
:10228000FFAEF0E4FCFDD0E0FBD0E0FAD0E0F9D006
:10229000E0F8120E127B04123E04900020EEF0A330
:1022A000EFF0900020E0FFA3E0900113CFF0A3EF48
:1022B000F07D10123DF59000E9EEF0A3EFF09000F4
:1022C000EDE07002A3E0700F9000E9E0FFA3E09062
:1022D00000EDCFF0A3EFF07D0F123DF59000EBEE97
:1022E000F0A3EFF09000EFE07002A3E0700F900019
:1022F000EBE0FFA3E09000EFCFF0A3EFF02290021D
:1023000059EFF0902E22E0FF90025DE4F0A3EFF091
:10231000758A50902E227401F0900259E0123A41D1
:102320007404F0A3E4F090025AF090025AE0FFC364
:10233000940D748094804003022C01EFF87E02E437
:10234000088006CEA2E713CE13D8F8FF90025BEE0A
:10235000F0A3EFF04E700790025BF0A304F0902E14
:10236000207401F0902E20E030E2F9900259E0FF55
:10237000902E00123A44E0FCA3E0D394FEEC9407C4
:102380004044EF902E10123A5AE0FEA3E0FF900274
:102390005BE0FCA3E0FDEF2DFFEE3CFEC3EF94FFFE
:1023A000EE9407900259E075F002902E10500B1237
:1023B0000FD9EC8DF0120D008057120FD97407F071
:1023C000A374FFF0804B900259E0FF123A41E0FC09
:1023D000A3E0FD90025BE0FAA3E0FBD3ED9BEC9A57
:1023E0004024902E10123A63C083C082C3A3E09BA6
:1023F000FF0582D5820215831582E09AD082D083B0
:10240000F0A3EFF0800B900259E0123A41E4F0A300
:10241000F0902E20E4F0F58D90025AE004F0022BAB
:102420000A90025DA3E0902E22F0758A102290029D
:102430004F1224154003022D3030054590024FE025
:1024400075F0029000FD1222FD4E90024F6019E0DF
:10245000FF25E02439F8764E087620EF25E0242188
:10246000F8761F0876408045E0FF25E02439F876AD
:102470000B0876B8EF25E02421F876090876C480A9
:102480002C12247612230B24C8FDE43CF8EF25E03F
:102490002439C8F608EDF612247612230B2496FD93
:1024A000E43CF8EF25E02421C8F608EDF61224827A
:1024B0001222E9120D41FDEF25E02439122392C3C7
:1024C000ED9FE5F09E502490024FE0122318E0604B
:1024D000321224821222E9120D41FDEF25E024215F
:1024E000122392C3ED9FE5F09E401890024F1223F5
:1024F00099E0FCA3E04C703A74522F12231A740135
:10250000F0802F900208E0642090024F700AE012E1
:10251000239BE4F0A3F0800AE012239BE4F0A37471
:10252000C8F090024F122316E4F0EF1223D3E4F028
:10253000A3F090024FE0122318E0600312248E9063
:102540000053E0C454F0FF900052E04F900162F05D
:102550002275F00E120FD9E0FEA3E0FFE4FCFD901F
:102560000265120F90120E2D900262E075F01CA40D
:102570002275F00E020FD975F01CA4241EF582E41A
:102580003402F58322241AF582E43402F5832224EE
:1025900016F582E43402F583222422F582E4340223
:1025A000F58322120F9C90026E020F849002650246
:1025B0000F84ED75F005A424E9F582E4343EF5833B
:1025C000E49322EC75F00E020FD975F01CA4241FC1
:1025D000F582E43402F583222421F582E43402F505
:1025E000832290026E020F9CD3EF9DEE9C4007EF7A
:1025F0009DFFEE9CFE22C3ED9FFFEC9EFE2200009D
:102600000300AB4974AA7583F5758255A574557599
:1026100083FA7582AAA574A57583F5758255A522DE
:1026200002040AB00BB60CFF090208FF0D770E0476
:1026300013071410108015001600019212120720C3
:1026400013090F040404040101011112140A120BEE
:10265000090803010204900252EFF0E4F50CF50BB7
:10266000F50AF509F50CF50BF50AF509F50812243C
:10267000505025900252E0122386E4FCFDE50C2F19
:10268000FFE50B3EFEED350AFDEC35098F0C8E0B98
:102690008D0AF509050880D6E47B04FAF9F8AF0C39
:1026A000AE0BAD0AAC09120EB8900252E075F00202
:1026B0009000C2122346E4750CA8750B61F50AF56B
:1026C00009F5081224505074900252E0FD1223863E
:1026D00075F002ED9000C212230BFD122DC8D3EF4E
:1026E000940AEE9400900252E0FF400B75F00290C5
:1026F00000C212230B801175F00AA42425F8E50806
:1027000025E028F8E6FC08E6FD75F002EF9000777A
:102710001222FDFFC3ED9FFFEC9EFE3395E0FDFC12
:10272000E50C2FFFE50B3EFEE50A3DFDE5093C8F7C
:102730000C8E0B8D0AF5090508022EA3E47F607E3E
:10274000EAFDFCAB0CAA0BA90AA809D3120F604042
:102750000BE4750C60750BEAF50AF509AE0BAF0CCE
:1027600022FD75F002120FD9EEF0A3EFF0900008F1
:10277000120FE575F002EDA4F58285F083120D418C
:10278000FFAEF0ED9000CF75F002020FD990000877
:10279000120FE5900252E0FF75F002A4F58285F079
:1027A00083120D41FDACF09000CFEF75F002020FE7
:1027B000D990010775F002020FD9EF90010B75F067
:1027C00002020FD990000B120FE5900252E075F053
:1027D00002A4F58285F083229000E5EF75F00202F5
:1027E0000FD975F002020FD9900252E0FF24C7F50D
:1027F00082E43400F5832290024FE0FF75F00290EE
:102800000103020FD9900254E09414900253E09413
:102810000022900252E024C9F582E43400F58322BC
:102820009000E175F002EF020FD990024FE0FFC374
:1028300094027480948022900008020FE5E0FEA3C9
:10284000E0FFC39430EE947522EF9409EE9400906B
:102850000252E075F00222FDE0FAA3E0FBD3ED9B0B
:10286000EC9A22120FD9E4F0A32212394D123E66DF
:102870007A0079BE1231307A0079AE7D101231447F
:102880007A00798D1231307A00798912313A7A00E2
:10289000799112313A7A0079527D021231447F04E3
:1028A00012314CE4FFEF1223BF505175F002EF12CA
:1028B0002308FD1222E212244A75F002EF122308C7
:1028C000FD90000B1222E512244A9000081222E526
:1028D0001224AB90000E1222E5746175F0A8120D5F
:1028E000E59000141222E5746175F0A8120DE590D0
:1028F00000111222E51224AB0F0230857B017A0011
:1029000079C77D2A7C00123E99E490029DF0A3F0E5
:10291000A3F0A3F07B017A0079547D14FC123E9958
:10292000E490011EF09001617411F0A3F012248E66
:102930009002AFE0700FC3900298E094F490029779
:10294000E09401500A9002977401F0A374F4F0220D
:102950007B017D047C00123E99227B017D047C007A
:10296000123E99227B017C00123E992290024FEF89
:10297000F0E4900251F090024FE0FF900251E0C36A
:102980009F507912082EE4900250F01223BA50633F
:10299000123BEA900250E090009112234275F0023F
:1029A000ED900091120FD9E0F8A3E0FFED75F00A69
:1029B000A4242DC8F608EFF6ED75F00AA4FF24252F
:1029C000F9E4FAFBC0E0C0E0E9C0E074272FF9E4C5
:1029D000900255120FEE900258E4F0A37408F0D064
:1029E000E0F9D0E0FAD0E0FB123B4E900250E00458
:1029F000F08098900251E004F0023156E4900250C9
:102A0000F01223BA5059122E36900250E090000175
:102A100012234275F002ED9000411222FDFF75F085
:102A200002ED90008D12230BFD122DC87C007D0558
:102A3000120C75900250E0FF90003D1223C775F014
:102A400002EF90008D1222FDFF900250E075F0021F
:102A5000900041122346900250E004F00231E1223E
:102A6000900252E025E025E0245AF582E43402F594
:102A70008322ED90008375F002120FD9E0FEA3E0EF
:102A800022FD75F002EF120FD9ECF0A3EDF09002E9
:102A900052E0FF25E02454F582E43402F5832290CD
:102AA000008375F002020FD9FD75F002120FD9EE06
:102AB000F0A3EFF022123E8053B2E143B20C758ACC
:102AC0005043B202902E207401F022900252E0FF97
:102AD000C39402748094802290008D75F002020FDE
:102AE000D9A3F0902E20E4F053B2E143B210758ADE
:102AF0001043B2022290010F75F002020FD9F58344
:102B0000E4932420F582E4342EF58322ED75F0025F
:102B1000020FD975F00490002D020FD9EF903EF608
:102B200093903EF393223EFE7C007D03020C759051
:102B30000252E004F022F582E43402F583E0FF2241
:102B40009000687407F0A304F0A3E4F0A37402F00B
:102B5000123D437B017A0079777D067C00123E9915
:102B60007F02123DD1902E14E0FEA3E0FF7C007D99
:102B70000A120C6390004F120FE5EE8FF0120DC693
:102B8000E490024EF090024E123A895072123DD1FA
:102B900090024EE0903EF693FF123A41E0FCA3E033
:102BA000C39405EC94004012902E10123A6AE0FE95
:102BB000A3E0D394F0EE9407401290024EE0FF9011
:102BC0000068123A64E4F0A3F0123DD1902E23E4A1
:102BD000F090024E123A3B123A4A123A9390004C4D
:102BE000120FE590024EE075F002A4F58285F083A5
:102BF000EE8FF0120DE590024EE004F00233659086
:102C000001347410F022C0E0C083C082C0D075D0FF
:102C100018D2AFE5DB30E422D203C202E5DB30E1BB
:102C200014123EAFE0F5DFEF64077069D28A9001BD
:102C30001EF0023498C20102349BE5DB30E52C9093
:102C40000207E064AA7017758A10F5DAC2AFF5B210
:102C5000F5A8F5A9F58B758E01758DC080FED200A3
:102C6000300204C2028054C2038050C202E5DB304D
:102C7000E125E5DB30E044123EAFE0F5DFEF24F97B
:102C8000600C24FA60042402700BD2048007D28AFC
:102C900090011EE4F0802120010A780DA6DFD20108
:102CA000D2028017123EAFE5DFF0EF642470099086
:102CB000029904F0A374F4F0780D0675DBFFD0D010
:102CC000D082D083D0E032E4FFFD90029BE070041C
:102CD000A3E06401701190011EE06004D28AE4F068
:102CE000E490029BF0A3F0900052E0600E90013B54
:102CF000E064106006EF4420FF8004EF4410FF9072
:102D00000053E0600E90013BE064106006EF440267
:102D1000FF8004EF4401FF900161EFF0900000E0BC
:102D2000FC6F605B900161E0FFEC6FFE900000EFD4
:102D3000F0208A1BD28A90029BE4F0A37403F090E7
:102D4000029CE024FFFB90029BE034FF4B70F0906C
:102D5000011EE07007900161E05E8013EEF4FF90C9
:102D60000000E05FFDEEFF900161E05FFFED4F903E
:102D7000011EF090029B7403F0A374E8F0C28A2253
:102D8000900252E0C454F0247CF582E43402F583CE
:102D900022EBC454F0247AF582E43402F583E4F0A3
:102DA000A3F0900252E0FFC454F0247EF582E43494
:102DB00002F583E4F0A3F0EFC454F02483F582E439
:102DC0003402F58322900252E0FBC454F02476F5DD
:102DD00082E43402F58322E0FDA3E0900253CDF0BB
:102DE000A3EDF0EFC454F02482F582E43402F583BD
:102DF00022900252E0C454F02480F582E43402F5BB
:102E00008322C454F02484F582E43402F5832290B2
:102E10000253E0FEA3E0FF22C454F0247AF582E4DA
:102E20003402F58322900255020F84900255020F5E
:102E30009020040302369F30050302369FC204E44B
:102E400090024FF090024F123A895069E0FE123A18
:102E50003DE0FCA3E0FDEE123A71ECF0A3EDF012C0
:102E60003DD190024F123A3B123A4A123A939002E5
:102E70004FE0FD123A7DEEF0A3EFF0ED123A7DE067
:102E8000FEA3E0FF90004C120FE575F002EDA4F5F3
:102E90008285F083EE8FF0120DE5ED123A71E0FEBF
:102EA000A3E0FFED123A3DEEF0A3EFF090024FE009
:102EB00004F00236249002997403F0A37420F022E7
:102EC000787FE4F6D8FD75813C0236EA0200000204
:102ED00038D0E493A3F8E493A34003F68001F2080A
:102EE000DFF48029E493A3F85407240CC8C333C447
:102EF000540F4420C8834004F456800146F6DFE4B2
:102F0000800B0102040810204080903D79E47E018E
:102F10009360BCA3FF543F30E509541FFEE493A324
:102F200060010ECF54C025E060A840B8E493A3FA36
:102F3000E493A3F8E493A3C8C582C8CAC583CAF0C2
:102F4000A3C8C582C8CAC583CADFE9DEE780BE90D0
:102F50000137E0642070037421F0900049120FE5FE
:102F6000120D16641045F07003123CBE900118E07B
:102F700064AA7003123A9D123B9F2006089001310B
:102F8000E06410700D9001317411F0C206E49002FB
:102F900096F0900212E06006E4F0900296F0900045
:102FA000AAE07004A3E06401600C9000ACE070043F
:102FB000A3E064017015E49000AAF0A3F0A3F0A3CD
:102FC000F0900101F0A3F0900296F030000CC200E6
:102FD0009002997401F0A374F4F02274FFF5F002EA
:102FE0000D00E475F001020D00EF2401FDE43EFC4C
:102FF000D3E09D22EE8FF0020D00C390005DE094BF
:10300000BC90005CE0940222C3900067E094BC9006
:103010000066E0940222C39000DCE094649000DB40
:10302000E0940022C3900285E094B8900284E0947A
:103030000B22C390027FE094F490027EE094012280
:10304000C3900295E094B8900294E0940B22C39050
:10305000028FE094F490028EE0940122EF2401FDAF
:10306000E43EFCD3E09D22208A030238CF900297F1
:10307000E07002A3E070789000AAE07002A3E07014
:103080006E9000ACE07002A3E07064F5B2758D2024
:10309000438D20758D9043A808D2AF758B4090006A
:1030A00039E0FEA3E0FF4E6005758E148003758E37
:1030B0003F20002F20032CE5DB54047026758A8402
:1030C000200320E5DB5404701AF5867587030000A1
:1030D00000758601EF4E60047F2880027F7F7E00AE
:1030E0001220BF758B01758A1053A8F7123E30224B
:1030F00053A87F123E4C122672123E1412080E4341
:10310000A880E4F58D9002087420F012372F900209
:1031100096E014601614601E24FE603E240470E2E3
:103120001233209002967401F080D712304A900238
:10313000967402F080CC123AF8900137E0FF6420D8
:103140006008EF6421600312384790013CE064108E
:1031500070B09002967404F080A8123C3290013C4A
:10316000E06410609D9002967401F080957B017A76
:103170000279167D387C00123E99E4FDEDC394027D
:10318000748094805062E490024EF090024EE0FF12
:10319000C3940274809480504B122D92FEED75F012
:1031A0001CA4122DB8EF122DA4EEF0122D9204F8EB
:1031B0007E007401088005C333CE33CED8F9FFED0D
:1031C00075F01CA4122D79C083C08290024EE0D00D
:1031D00082D083122D51EEF0A3EFF090024EE00466
:1031E000F002396B0D02395C22E4FEEEC3940774E1
:1031F000809480502FEE25E025E0241BF582E434F6
:103200002EF583E5822FF582E43583F583E493FD83
:10321000EE25E025E0241AF582E4342E1232DEEDAC
:10322000F00E80C7EFFD7C00701775F002EF900084
:1032300068120FD9E0FAA3E04A7006902E217412AA
:10324000F0ED64014C701375F002EF9000681232DB
:10325000594E7006902E217412F022E0FB903EF63B
:1032600093902E1075F002020FD9E0FEA3E0FF7CD0
:10327000007D0A120C63EB90006875F002020FD912
:103280009000AAEF75F002020FD975F002EF020F5D
:10329000D925E02454F582E43402F5832225E02484
:1032A00050F582E43402F58322E0FFC39402748077
:1032B000948022E0FCA3E02FFFEC3EFE2290024E21
:1032C0007408F0A3E4F0A3743FF0A374DFF0E4FD0E
:1032D000FCF9123EBD0090024EE0FEA3E02DF58207
:1032E000EE3CF583E493FF69F90DBD00010CBC379A
:1032F000E5BDDFE2900250E0FEA3E0F5828E83E4BC
:1033000093FFE96F70089001187403F08005E49052
:103310000118F0123EBD00227F0112314C121E65D1
:10332000E490024EF090024E1223BD503B123D013C
:1033300090024EE0FF122809EEFCEFFD900005120E
:103340000FE590024EE0FF1222E912244A121024E7
:1033500090024EE0FF122C0E90024EE0FF121C0A6B
:1033600090024EE004F080BD1234A70236119002A4
:103370005A120FEE900255120FE590025D120FEEF9
:10338000900258E07002A3E0603490025D120FE5F5
:10339000120C38FF90025A120FE5EF120C519002F6
:1033A0005BE475F001120D0090025EE475F001120D
:1033B0000D0090025874FFF5F0120D0080C22290AB
:1033C000012AE0FF9002B0E06F600CEFF09002ADD8
:1033D0007402F0A37458F09002ADE07004A3E064AE
:1033E0000170269002B0E0FF7E0064107002D205EA
:1033F000EF64204E7002C20590013CE06410600250
:10340000D206E49002ADF0A3F022EFFB90008D1203
:1034100022FAFF75F002EB90008912234675F00244
:10342000EB90009112230BFDECC0E0EDC0E075F0D5
:1034300002EB9000891222FDFFE4FCFD9002651270
:103440000F9CEB900269F0D0E0FDD0E0FC7F010220
:10345000137590013CE06410703FF5B2758D204308
:103460008D20538D7F53A8F7F58BE5DB5404701343
:10347000200310F58AF58675870300000075860124
:10348000758A10758B019002AF7401F090029974E7
:1034900003F0A37420F0123E3022C2D5E830E70FCB
:1034A000B2D5E4C39BFBE49AFAE499F9E498F8EC0A
:1034B00030E717B2D5123CB0120EB8E4C39BFBE460
:1034C0009AFAE499F9E498F88003120EB830D50D11
:1034D000E4C39FFFE49EFEE49DFDE49CFC22E49097
:1034E000024EF0A3F0123EBD00122DE475EA81E415
:1034F000F5F6F5F475F308F5F275EB0700E5EC3039
:10350000E7FBAFF3EFFEADF2EDFF900049120FE5E0
:10351000EE8FF0120DC6E4F5EC75EB30123EBD00F7
:1035200022900077123A6AE0FCA3E02430FDEC34EC
:10353000F8FC75F002EF90008D120FD9E0FAA3E0CD
:10354000C39DEA9C5015123A60E0FCA3E04C701257
:10355000123A607401F0A374F4F022123A60E4F0BD
:10356000A3F022E4FFEFC3940D748094805021EF08
:1035700025E02401F582E4342EF583E493FEEF2563
:10358000E02400F582E4342E1232DEEEF00F80D516
:10359000902F56E0902E2BF022C1034202BD03046F
:1035A000C1044102B100C1054102B000C101010DD9
:1035B00000C100C102420115000041000011C10616
:1035C0004302B80102BB00900252EFF0E075F01028
:1035D000A42476F9740235F0FA7B017D107C001288
:1035E0003E99900252E01235E2740BF0A374B8F0E9
:1035F00022900258EFF0123E80900258E0FF1239FC
:10360000C9900258E0903EF693FF122ADE900258CD
:10361000E0FF023EDE900020E0FEA3E0FF7C00120F
:103620000FF77B64E4FAF9F8020EB89002B8120FB3
:10363000E5020D16E4F5DA75DA4043DA2075D74075
:1036400075D64075DA5843A80275B80275F802229B
:10365000E5B254016006E5A85410700F75B292757A
:10366000B6F9E4F5B743B20143A81022758A1053A6
:103670008AEF758601758F05E4F5AB75AC0F759112
:103680003FF592D28A227B017A00797D7D067C000B
:10369000123E997B017A0079837D067C00023E9977
:1036A000EFF87401088002C333D8FC42AB1232FC3D
:1036B000F4529152935391DF22ED4C6011E4120CBD
:1036C000510429F9E43AFAED1D70EE1C80EB2278E2
:1036D0000DE6FF2417F582E43401F58322758A1084
:1036E000538AEF22009600960701F4009600960791
:1036F00001F4EE30E707C3E49FFFE49EFE2212329E
:10370000FC429142884391202204001E00190100CE
:103710001900190102200001020000000000000051
:103720000000000000000000000000000000000099
:103730000000000000000000000000000000000089
:103740000000000000000000000000000000000079
:103750000000000000000000000000000000000069
:103760000000000000000000000000000000000059
:103770000000000000000000000000000000000049
:103780000000000000000000000000000000000039
:103790000000000000000000000000000000000029
:1037A0000000000000000000000000000000000019
:1037B0000000000000000000000000000000000009
:1037C00000000000000000000000000000000000F9
:1037D00000000000000000000000000000000000E9
:1037E00000000000000000000000000000000000D9
:1037F0000000000000000000000000000000004A7F
:1038000000000000000000000000000000000000B8
:1038100000000000000000000000000000000000A8
:00000001FF
