:10000000002C000000060000364C0000000000003C
:1000100000000000000000000000000000000000E0
:100020000236C001022000010200000233FE023D40
:10003000FE0000020826D2AF320000020816D2AF3E
:10004000320000022575D2AF32000002081E7F0286
:100050001239E9122CC7902E20E030E2F9900808FE
:10006000E493902E00122C42E0FFA3E090026ACFAE
:10007000F0EF122CF97F02123EB7900081E0FEA350
:10008000E0FF4E700E90026AE0FCA3E0FDECFEED96
:10009000FF8014EF25E0FFEE33FE90026BE02FFFB0
:1000A00090026AE0122D2D900081EEF0A3EFF09007
:1000B000007BE07002A3E0700F900081E0FFA3E0FE
:1000C00090007BCFF0A3EFF0E4900264F0122CB12B
:1000D0005010EF122C4C12111B00002710122D365D
:1000E00080EBE4900265F0900265E0C394057480B3
:1000F00094804003020BDAE4900264F0122CB140C9
:1001000003020BD1A3E02401FDE433FC74CF2F12D2
:100110002D3DD3ED9F7480F86C984003020BCB907B
:100120000264E0FF1239E9900264E0FF122CC790EC
:100130002E20E030E2F9900264E0FF9008069390F0
:100140002E00122CABE0FCA3E0FDEF122C8EECF0A5
:10015000ED122CF9900264E0FF123EB7122C89E0F8
:10016000FCA3E075F002900095122D10900264E05F
:100170006401704E90007BE0FEA3E0FFE4C0E0C0AD
:10018000E0EEC0E0EFC0E0900081E0FEA3E0FBEE17
:10019000FAE4F9F8D0E0FFD0E0FED0E0FDD0E0FCDA
:1001A000120F92E47B06FA120FA0E47B0AFAF9F828
:1001B000123C42900264E0122C8EEE8FF0120E730D
:1001C000802E122C89E0FCA3E0FD90007BE0FAA3D6
:1001D000E0FBED2BFDEC3AFC900081E0FAA3E0FBA4
:1001E000C3ED9BFDEC9AFCEF122C8EECF0A3EDF02E
:1001F00074FFF509F50AF50BF50CE4F50DF50EF5B0
:100200000FF510F514F513F512F511122C89E0FC19
:10021000A3E075F01290010F122D10E4F508C3E56C
:10022000089408748094804003020AEE900264E00F
:10023000FF900101122C3AE0FCA3E04C600C75F039
:1002400012EF900101122C3D8007900264E0122C05
:100250008EE0FEA3E0FF900264E0FD122C37EEF08A
:10026000A3EFF0ED122CE4122C3DE0FEA3E0D395B9
:100270000EEE950D4016850D0F850E10900264E070
:10028000122C37E0F50DA3E0F50E801C122C32E0A5
:10029000FCA3E0D39510EC950F400D122CE3122C2B
:1002A0003DE0F50FA3E0F510122C32E0FCA3E0C313
:1002B000950AEC9509501585090B850A0C122CE35B
:1002C000122C3DE0F509A3E0F50A801C122C32E067
:1002D000FCA3E0C3950CEC950B500D122CE3122CF3
:1002E0003DE0F50BA3E0F50C900264E0122C37E042
:1002F000FEA3E0FFE4FCFDE5142FFFE5133EFEED59
:100300003512FDEC3511122C8005080209FEAE0DE8
:10031000AF0EEFFB122C6CAE0FAF10122C69AE09B2
:10032000AF0A122C69AE0BAF0C122C69FC780212CA
:1003300010E4900264E0900123122C9A122D1B12FB
:100340002C61FF4E700E122CA7E0FAA3E0FBEAFE30
:10035000EBFF8014EF25E0FFEE33FE122CA7E0FC4C
:10036000A3E02FFFEC122D2D122CBE90007D122C3D
:100370009E122C5A4E7011122D1B122C61FF75F01B
:1003800002ED900083122C9E900264E09000831294
:100390002CD7FDECC0E0EDC0E0EF122D1C122C615B
:1003A000FFE4FCFD90027712110F900264E09002CE
:1003B0007BF0D0E0FDD0E0FCE4FF1214DA900264A0
:1003C000E0900083122C9AED122C4CC083C0821254
:1003D0001103122C5A2400FFEE34E8FE3395E0FDA1
:1003E000FC120F85D082D08312110F122D36020815
:1003F000DC900265E004F00208C7902E23E4F09040
:100400000264F0122CB14003020DAAEF122C4CC072
:1004100083C082121103E8C0E0E9C0E0EAC0E0EB6B
:10042000C0E0900264E024CF122D3DFBE4FAF9F81D
:10043000122C481210F7123C42D0E0FBD0E0FAD068
:10044000E0F9D0E0F8120F85D082D08312110F129C
:100450002C481210F7E47B507AC3F9F8C31210BD90
:10046000500A122C4812111B0000C350900264E085
:10047000FF122C4C121103E833500BEF122C4C12CC
:10048000111B00000000900264E090008D122CD738
:100490004C7009EF122C4C1210F7802C900264E083
:1004A00090008D122C5EFF7C007D0212116AECF828
:1004B000EDF9EEFAEFFB122C481210F7120F85E45B
:1004C0007B03FAF9F812102B122CBE90008D12113A
:1004D0004CEEF0A3EFF075F002ED900077122C6176
:1004E0004E701575F002ED90008D122C61FF75F0C5
:1004F00002ED900077122C9E900264E0FF122D070F
:10050000C083C082121103EF122C5BFFE4FCFD12CA
:100510000F85D082D08312110F900264E0FF75F036
:100520000290003512114CE475F001120E7375F053
:1005300002EF900035122C61FFD3940AEE94004034
:1005400035EFFBEEFAE4F9F8900264E0122D0712A1
:1005500010F712102B122CBE900029122C9E900026
:1005600035122CAAE4F0A3F075F004ED122D0A1256
:10057000111B00000000900039E07002A3E07044FD
:10058000900264E0FD122C5BFF75F002ED900029F3
:10059000122CDBFD123E4D122CBE900025122C9E1B
:1005A00075F002ED900025122C61D39406EE9400B4
:1005B00040129000397407F0A374D0F0A3E475F0F2
:1005C00001120E73122D36020BE322BB0106898243
:1005D0008A83E0225002E722BBFE02E32289828A5C
:1005E00083E49322BB010689828A83F0225002F7BA
:1005F00022BBFE01F322EF8DF0A4A8F0CF8CF0A473
:1006000028CE8DF0A42EFE22BC000BBE0029EF8D5B
:10061000F084FFADF022E4CCF875F008EF2FFFEE88
:1006200033FEEC33FCEE9DEC984005FCEE9DFE0F96
:10063000D5F0E9E4CEFD22EDF8F5F0EE8420D21CF1
:10064000FEADF075F008EF2FFFED33FD4007985039
:1006500006D5F0F222C398FD0FD5F0EA22C2D5EC00
:1006600030E709B2D5E4C39DFDE49CFCEE30E7150C
:10067000B2D5E4C39FFFE49EFE120DE8C3E49DFDE6
:10068000E49CFC8003120DE830D507C3E49FFFE42F
:100690009EFE22C5F0F8A3E028F0C5F0F8E582152B
:1006A0008270021583E038F022BB010A89828A83B6
:1006B000E0F5F0A3E022500687F009E71922BBFE1F
:1006C00007E3F5F009E3192289828A83E493F5F0C0
:1006D00074019322BB0110E58229F582E5833AF586
:1006E00083E0F5F0A3E0225009E92582F886F008BE
:1006F000E622BBFE0AE92582F8E2F5F008E222E5EF
:10070000832AF583E993F5F0A3E99322BB010DC594
:100710008229C582C5833AC583020E735011C582F2
:1007200029F808E5F026F618F5F0E58236F622BB42
:10073000FE11C58229F808E225F0F5F0F218E2353D
:1007400082F222F8E58229F582E5832AF583740195
:100750009325F0F5F0E4933822BB010A89828A835D
:10076000F0E5F0A3F0225006F709A7F01922BBFE2E
:1007700006F3E5F009F31922F8BB0111E58229F52A
:1007800082E5833AF583E8F0E5F0A3F0225009E929
:100790002582C8F608A6F022BBFE09E92582C8F228
:1007A000E5F008F222EF2BFFEE3AFEED39FDEC38D2
:1007B000FC22C3EF9BFFEE9AFEED99FDEC98FC2224
:1007C000E88FF0A4CC8BF0A42CFCE98EF0A42CFCD8
:1007D0008AF0EDA42CFCEA8EF0A4CDA8F08BF0A456
:1007E0002DCC3825F0FDE98FF0A42CCD35F0FCEBB5
:1007F0008EF0A4FEA9F0EB8FF0A4CFC5F02ECD397A
:10080000FEE43CFCEAA42DCE35F0FDE43CFC227570
:10081000F008758200EF2FFFEE33FECD33CDCC33E1
:10082000CCC58233C5829BED9AEC99E58298400C49
:10083000F582EE9BFEED9AFDEC99FC0FD5F0D6E427
:10084000CEFBE4CDFAE4CCF9A88222B800C1B9000D
:1008500059BA002DEC8BF084CFCECDFCE5F0CBF96E
:100860007818EF2FFFEE33FEED33FDEC33FCEB3366
:10087000FB10D703994004EB99FB0FD8E5E4F9FA94
:10088000227818EF2FFFEE33FEED33FDEC33FCC979
:1008900033C910D7059BE99A4007EC9BFCE99AF90C
:1008A0000FD8E0E4C9FAE4CCFB2275F010EF2FFF7B
:1008B000EE33FEED33FDCC33CCC833C810D7079BE5
:1008C000EC9AE899400AED9BFDEC9AFCE899F80F48
:1008D000D5F0DAE4CDFBE4CCFAE4C8F922EB9FF5DD
:1008E000F0EA9E42F0E99D42F0EC6480C864809892
:1008F00045F022EB9FF5F0EA9E42F0E99D42F0E8D8
:100900009C45F022E8600FECC313FCED13FDEE13E1
:10091000FEEF13FFD8F122E0FCA3E0FDA3E0FEA36D
:10092000E0FF22E0F8A3E0F9A3E0FAA3E0FB22EC69
:10093000F0A3EDF0A3EEF0A3EFF022A8828583F000
:10094000D083D082121132121132121132121132AE
:10095000E473E493A3C583C5F0C583C8C582C8F01A
:10096000A3C583C5F0C583C8C582C822A42582F566
:1009700082E5F03583F58322E0FBA3E0FAA3E0F9FA
:1009800022EBF0A3EAF0A3E9F022EC8EF0A4CCC5B0
:10099000F0CCCDF8EFA4CEC5F02DFDE43CFCE8A4EE
:1009A0002EC8C5F03DFDE43CFCEFA4FFE5F028FEB9
:1009B000E43DFDE43CFC229002611222FD40030272
:1009C00014D9122268FF1221F512230D1221F112FF
:1009D0000EB4D39DE5F09C40431222681221F5121B
:1009E000230D1221F112234D9430EE9475400C909A
:1009F00002627475F0A37430F08010122268FF1246
:100A000021F512230D1221F11222DD900261E07511
:100A1000F0029000E912114CE40212621221D41289
:100A2000234D9410EE9427400C9002627427F0A39B
:100A30007410F080061221D41222DD12228490025A
:100A400061E0FD75F0029000E91222523005257533
:100A5000F002ED9000E9122209D3942CEE940140AB
:100A60001D75F002ED9000ED12114C7427F0A37487
:100A700010F0800A75F002ED9000ED122246E4902D
:100A80000262F0A3F012221FE0605E1222EED39405
:100A900000EC64809480401EEF25E024211222990E
:100AA000D3ED9FEC9E400F900261E01222C7E4F06C
:100AB000A37464F0801C900261E0FF1222C712232D
:100AC000A2400F9000081221F1120EB4FFE5F012BF
:100AD0002361900261E0FF1223177401F0122336A4
:100AE000740FF0A374A0F0800D1222737403F0A3AE
:100AF00074E8F0123D6FD3900263E09400900262BC
:100B0000E064809480500302148FE0FEA3E0FF9025
:100B1000000812226B1221F512235AEE3395E0FDE4
:100B2000FCE47BB87A88F9F8C31210BD500A900231
:100B3000627488F0A374B8F030053C12221FE07094
:100B400016EF25E02439F8E6FC08E6FD122284C3FE
:100B50009DEE9C505D801A900261E025E02421F812
:100B6000E6FC08E6FDA3E0FEA3E0FFC39DEE9C507B
:100B7000417C007DC880359002611222A01223A220
:100B8000500890021AE064207028EF25E02421121A
:100B900022991222EEC39FEC9E5017ED9400EC6454
:100BA000809480400D1222847C007D0A120E3D123A
:100BB000236012221FE06074EF122278E0FEA3E0AF
:100BC0004E7011900261A3E0FCA3E0FD1218161212
:100BD0002360802E1221FFFF1222EE123E4DD3EF32
:100BE0009432EE9400401B122273E0FCA3E0D394F5
:100BF000C8EC9400400CEF12227874FF75F09C1240
:100C00000E731221FFFF7C007D0712116AECF8EDD4
:100C1000F9EEFAEFFB122284EE3395E0FDFC120FA1
:100C200085E47B08FAF9F812102B800312228490D5
:100C30000261E075F0029000451222521221FFFF7E
:100C4000D39405EE9400400EEF9410EE94005006FD
:100C5000900262EE8020900261E0FF75F002900049
:100C60003D122217FD75F002EF9000451222092D6A
:100C7000FFEE3C900262F0A3EFF0D3900263E094A9
:100C800030900262E0648094F540077475F0A374BC
:100C900030F0E5DB540470611222849000111222BE
:100CA0006BFD1221F512235AEF24A8FFEE8037E5E1
:100CB000DB5404704490000812226BFF1221F512DD
:100CC00023AD75F002EF90003D122209FF90001154
:100CD00012226BFD1221F512235AED1221F5120E8C
:100CE000B424A8FFE5F03461FE90000E121158758F
:100CF000F002ED1221F812235A22900275ECF0A3B3
:100D0000EDF0900274EFF012364FC083C082900273
:100D10007BE0D082D083123649E070461236401212
:100D2000365DC083C08290027BE0D082D0831236D1
:100D3000491210F7E4FBFAF9F8C31210D36023123A
:100D40003640123667C083C08290027BE0D082D0EA
:100D5000831236491210F7E4F8C31210D36003026D
:100D6000163E123684C3900276E09FFF900275E033
:100D70009E1217FFC083C08290027BE0FCD082D01D
:100D800083123649EEF0A3EFF0ED12364F12369B88
:100D9000E06050900274E0FF1236A2C083C08290DF
:100DA000027BE0D082D083123649E0FCA3E0FDEF65
:100DB00075F005A424C5F582E4343EF583E493FE82
:100DC000740193FFD3ED9FEC9E401812364012360B
:100DD00053C083C08290027BE0D082D08312364918
:100DE0007405F012368412364012365DC083C0821C
:100DF00090027BE0D082D08312364912110F123656
:100E000040123671C083C08290027BE0D082D083D2
:100E1000123629123667C083C08290027BE0D082EE
:100E2000D08312364912110F900274E0FF12364F30
:100E3000C083C08290027BE0FED082D0831236490C
:100E4000E0D3940074809480400EEF12364F75F01A
:100E50000EEE12114CE014F09002770217FB1236DE
:100E60004012365DC083C08290027BE0D082D08386
:100E70001236491210F790027C12110F12364012EE
:100E80003667C083C08290027BE0D082D083123666
:100E9000491210F790028012367B1236401236B09B
:100EA000C083C08290027BE0D082D083123649E0BA
:100EB000F9F81210E4EFFBEEFAEDF9ECF812367ED9
:100EC000120F9290028412110F90027C1210F79070
:100ED0000277121103120F85900284121103120F70
:100EE000851236BA12368412364012365DC083C07F
:100EF0008290027BE0D082D08312364912367B1278
:100F00003640123667C083C08290027BE0D082D028
:100F10008312364912367BECC0E0EDC0E0EEC0E053
:100F2000EFC0E0123640123671C083C08290027B5F
:100F3000E0D082D083123649E0FEA3E0FBEEFAE473
:100F4000F9F8D0E0FFD0E0FED0E0FDD0E0FC1210D8
:100F50002B1236BA900274E0640160030217F81293
:100F60003684EFFBEEFA12367EC3EF9BFFEE9A1249
:100F700017FFC083C08290027BE0FCD082D0831236
:100F80003649EEF0A3EFF0ED1236A212369BE0FEEA
:100F9000A3E0FF900274E0FB75F005A424C3F58282
:100FA000E4343EF583E493FC740193FDD3EF9DEEAE
:100FB0009C4065123684EB75F01CA412365DC0832C
:100FC000C08290027BE0D082D08312364912110F8A
:100FD000123640123671C083C08290027BE0D0820C
:100FE000D083123629123667C083C08290027BE01C
:100FF000D082D08312364912110F12364012365366
:10100000C083C08290027BE0D082D08312364974C4
:1010100005F01236841236BA9002801210F722FEC2
:10102000123EAB900274E0FD75F01CA42431F582F1
:10103000E43402F58322900264EFF0A3ECF0A3ED18
:10104000F0EF1235EDE0FEA3E0FF123E4DD3EF943A
:1010500032EE9400401C1235BD12111B000000003E
:10106000123589E4F01236071235E9EEF0A3EFF0FD
:101070008043123578E0FEA3E0FFD39400EE9400A5
:101080004033900265E0FCA3E0FDD3EF9DEE9C4071
:101090000B900264E01235B0E04401F0900264E08D
:1010A000FF12357CE0FAA3E0C39DEA9C500712359D
:1010B000AFE04402F0900264E01235C2C083C08207
:1010C000121103123607E4FCFD120F85D082D08383
:1010D00012110F900264E0FF123610E475F0011255
:1010E0000E73EF75F007A424A2F582E4343EF58375
:1010F000E493FE740193FF900264E0FDC454F02475
:1011000090F582E43402F583E0FAA3E0C39FEA9EFF
:101110005003021A96ED123610E0FEA3E0FFFBEE3C
:10112000FAE4F9F8900264E01235C21210F71210D6
:101130002B90026712110F123578E0FEA3E0FFEE4C
:10114000C0E0EFC0E012361DEFFDEEFCD0E0FFD0B6
:10115000E0FE123E4D90026BEEF0A3EFF0900264C1
:10116000E0FD75F007A4249DF582E4343EF583C3C9
:101170007401939FE4939E401FED12357CE0FEA323
:10118000E04E6014900264E0FB1235FAE0FEA3E04A
:10119000C394B8EE940B5021900264E0FF12357CAA
:1011A000E0FCA3E04C7008EF1235FAE4F0A3F01273
:1011B000361D123578EE021A40EB600764016003B9
:1011C000021A46E490026DF090026BE0FEA3E0FF8D
:1011D000D39450EE94004006A37408F0803290023D
:1011E00064E01235B0E064036026D3EF943CEE94E3
:1011F00000400890026D7402F08015D390026CE0FC
:10120000943290026BE09400400690026D7401F0FD
:10121000123578E0FEA3E0FFE4FCFD123623D31282
:1012200010D3401190026DE0FF123578E48FF01278
:101230000E73021A7CD390026CE0945090026BE023
:1012400094004058123578C083C082E0FEA3E0FFCE
:1012500090026DE0FDC3EF9DFFEE9400D082D0833D
:10126000F0A3EFF08036123578E0FEA3E0FF4E7079
:101270000D123623EBFFEAFEE9FDE8FC80167C0048
:101280007D0712116A123623120F85E47B08FAF9E2
:10129000F812102B123578EEF0A3EFF01235BD12D4
:1012A000111B00000000123589E4F012361D1235C2
:1012B000E9EEF0A3EFF0123578E0FCA3E0FDD39463
:1012C00000EC94004056123607123E4D900264E046
:1012D00075F007A4249FF582E4343EF583D37401AE
:1012E000939FE4939E400F900264E0FF12357C12BE
:1012F00035CFE4F08026900264E0FF75F007A42467
:10130000A1F582E4343EF583E493FE1235DBE0C3BD
:101310009E50091235781235CFE004F012360722BC
:10132000E4900262F0A3F012322FD39002AAE0946C
:10133000009002A9E094004003021D669000CD12C7
:101340001103900020E0FEA3E0FFE4FCFD120F85F6
:101350009000CD12110F9000D1E475F001120E73C0
:10136000C39000D4E094649000D3E0940050030252
:101370001BD29000CD1210F7ECC0E0EDC0E0EEC043
:10138000E0EFC0E09000D1E0FEA3E0FBEEFAE4F96C
:10139000F8D0E0FFD0E0FED0E0FDD0E0FC12102B52
:1013A0009000CD12110F9000CD1210F79000CBEEEF
:1013B000F0A3EFF0A312111B00000000E49000D195
:1013C000F0A3F0A3F0A3F09002A9E07002A3E070F4
:1013D00021900261F0123100501875F002EF900078
:1013E000D512308D4E7003121D67900261E004F03B
:1013F00080E3E4900261F01231004003021D667444
:10140000522FF582E43400F583E0FF6028900261FA
:10141000E0FE75F002123119E0FCA3E04C7016906A
:101420000020E0FCA3E0FD75F002EE123119ECF0B3
:10143000A3EDF0802DEF702A12310D900261123071
:10144000A8120EB4C39496E5F09400501590026172
:10145000E0FF9000F31230CFF0A3F0123095E4F0EB
:10146000A3F0900261E075F0029000F312308DFF5E
:101470004E7003021D5D900020E0FCA3E0FDC3EF71
:101480009DFFEE9CFE123EAB900262EEF0A3EFF0E9
:10149000900261E0FD1230B3EEF0A3EFF075F002C0
:1014A000ED9000F712308DD3940AEE9400500302B1
:1014B0001D5D12310D75F002ED1230AC120EB4D379
:1014C0009498E5F0943A404675F002ED9000FB12D6
:1014D000308DC39428EE94234003021D5D90026179
:1014E000E0FB24CFF582E43402F583E075F018A424
:1014F000FFAEF0EB1230B3E0FCA3E0FD120DD6908E
:101500000261E0123132EEF0A3EFF0021D5D123104
:101510000D900261E0FF1230A9120EB4FDACF0D3C1
:101520009488EC9413402875F002EF9000FB123081
:101530008DC394D0EE94075044900261E01230B312
:10154000E0FAA3E0FB123095EAF0A3EBF0802ED393
:10155000ED94E8EC94034025900261E0FF123132F3
:10156000E0FCA3E0C39458EC94025011EF1230B3A6
:10157000E0FCA3E0FD123095ECF0A3EDF0900261E9
:10158000E004F0021BD722900264EFF0E0FF245247
:10159000F582E43400F583E07003021E3F9000C33F
:1015A0001230894E701A9000CBE0FEA3E0FF90024B
:1015B00064E09000C3123040EEF0A3EFF0021E6E24
:1015C000900264E09000C3123066E0FEA3E0FF905A
:1015D00000CBE0FCA3E0FD123E4D9000E11211585B
:1015E000900264E0FD1230A9EE8FF0120F5874BF24
:1015F0002D1230C3E070379000E112115875F002DF
:10160000ED1230AC120EB4C39406E5F09400500A0B
:1016100012304CEEF0A3EFF08014E4FFEF1231052E
:10162000500C74BF2F1230C37401F00F80EE900283
:1016300064E0FF9000C3123099E0FCA3E0FD90004D
:10164000CBE0FAA3E0FBD3ED9BEC9A400A74C12FE8
:101650001230EAE4F080371230E47401F0802F9009
:101660000264E0FF9000C31230B6E4F0A3F0EF1282
:101670003063E4F0A3F074BF2F1230C3E4F09000A5
:10168000D9123098E4F0A3F01230CBF0A3F012306E
:10169000BCE07003021FCA123086D39400EE94009F
:1016A0005003021FCA12310D900264E0FD75F00272
:1016B000123056E0FCA3E0FD123E4D900265EEF0C4
:1016C000A3EFF0900264E09000E5123040E0FCA34C
:1016D000E0D39FEC9E400CD3900266E0948C1230D5
:1016E000DD501412306CC39DEE9C505D900266E09C
:1016F00094C81230DD40521230BCE4F09000C312A6
:1017000030CEF0A3F012310D75F002EF1230AC12B2
:101710000EB4FFAEF0900264E0FD123063E0FAA375
:10172000E0C39FEA9E500F75F002ED123113E4F012
:10173000A374C8F0800D1230F81231137401F0A3B5
:10174000742CF01230E4E4F02212306CD39DEE9C45
:10175000404DD31230D74047900264E09000DD1234
:10176000308A12312B503812309F74FF75F0F71207
:101770000EEC1230CB12311F9000D912308D123185
:101780002A501C1230F29000D9400D12114C74FFF7
:1017900075F0F7120E73800712114CE4F0A3F012EB
:1017A000306CC39DEE9C50421230D7403D12309FAA
:1017B000E475F009120EEC75F002EF9000D91211E9
:1017C0004CE412311F9000DD12308D12312A501A74
:1017D0001230F29000DD400B12114C74FF75F0F7DF
:1017E000020E7312114CE4F0A3F022D39002AAE08F
:1017F0009F9002A9E09E400AA3E09FF09002A9E01A
:101800009EF09002AE1237E99002ADE09C400CA32E
:10181000E09FF09002ADE09EF08002D28AD3900269
:10182000ACE09F9002ABE09E400AA3E09FF09002E4
:10183000ABE09EF01237FA50031237F4D39002B4A3
:10184000E09F9002B3E09E400AA3E09FF09002B3B5
:10185000E09EF0D39002B8E09F9002B7E09E400A6D
:10186000A3E09FF09002B7E09EF0D39002BCE09F0F
:101870009002BBE09E400AA3E09FF09002BBE09E76
:10188000F0D39000EEE09F9000EDE09E400AA3E0D0
:101890009FF09000EDE09EF0D39002B0E09F9002A8
:1018A000AFE09E400AA3E09FF09002AFE09EF09070
:1018B00002C01237E99002BFE09C400AA3E09FF00B
:1018C0009002BFE09EF012380850031237F4D39014
:1018D00002B6E09F9002B5E09E400AA3E09FF09020
:1018E00002B5E09EF0D39002BAE09F9002B9E09E6C
:1018F000400AA3E09FF09002B9E09EF0D39002BEB0
:10190000E09F9002BDE09E400AA3E09FF09002BDE0
:10191000E09EF0D39002B2E09F9002B1E09E400AB8
:10192000A3E09FF09002B1E09EF0D39000F0E09F22
:101930009000EFE09E400AA3E09FF09000EFE09E51
:10194000F012381650031237F4D39000D6E09F906F
:1019500000D5E09E400AA3E09FF09000D5E09EF005
:10196000D39000D8E09F9000D7E09E400AA3E09F6C
:10197000F09000D7E09EF09000A312385C9000A297
:10198000E09C400AA3E09FF09000A2E09EF0D3907C
:1019900000F2E09F9000F1E09E400AA3E09FF090EB
:1019A00000F1E09EF09000A512385C9000A4E09C4D
:1019B000400AA3E09FF09000A4E09EF0123824506B
:1019C000031237F412383250031237F412384050F1
:1019D000031237F412384E50031237F4D390003A02
:1019E000E09F900039E09E400AA3E09FF09000390C
:1019F000E09EF022900005121158900261E0FF7500
:101A0000F002A4F58285F083120EB4FDACF09000D4
:101A10000B121158EF75F002A4F58285F083229025
:101A20000261E090004575F00212114CE0FEA3E067
:101A30002275F00290000112114CE0FCA3E022900C
:101A40000261E0FF2452F582E43400F58322900025
:101A50005412114C1210F7900264EEF0A3EFF090C4
:101A6000005A75F00AEB12114CE4F0A3F022FD7558
:101A7000F00212114CEEF0A3EFF022900261E09020
:101A8000005475F00A02114C90000B12115890028C
:101A900061E022900261E0FF25E024BBF582E4349E
:101AA00002F58322900262E0FEA3E0FF2275F00AB5
:101AB000A42425F8E50825E028F8E6FE08E6FF223C
:101AC000E0FF25E024B7F582E43402F5832290029A
:101AD00062E0FFC39402748094802275F0021211B8
:101AE0004CECF0A3EDF02225E024B3F582E43402BF
:101AF000F583229000A6EF75F00402114C120EB48B
:101B0000C39DFEE5F09C900262F0A3CEF02290020D
:101B100062E0FCA3E0FD22EC8DF0020F58EFF0D361
:101B20009002AAE094009002A9E0940022120EB460
:101B3000FDACF0900005222427F582E43401F58302
:101B40002212114CE475F001020E73900261E075EF
:101B5000F0029000B622EF25E024AFF582E43402D3
:101B6000F58322C3E50894047480948022120EB495
:101B7000C39DFFE5F09CFED3EF22EE8FF0020F58DD
:101B8000EE900262F0A3EFF022900005121158903F
:101B9000026122900261E0FF75F00A90005A2290E3
:101BA0000261E0FF75F0029000FB22900008121124
:101BB00058900261E0FF229002AB7403F0A37420FE
:101BC000F022E0FCA3E0D39400EC940022E4F5F0D2
:101BD000020F58900261EFF0A37402F0A374BCF0FE
:101BE000E4A3F0A3F0D39000F2E094009000F1E0C1
:101BF000940040091223691221DD1222F79002A9F4
:101C0000E07002A3E0600B900262E4F0A37464F061
:101C1000800B900143E0641170037420F090026126
:101C2000E0FB122224E06020900261E0FA12225FC1
:101C300012111B0000000075F00AEA9000581222F1
:101C40004675F00AEB02256E12225BC083C0821239
:101C50001103E8C0E0E9C0E0EAC0E0EBC0E0122315
:101C600069E01221F5120EB4FFAEF0E4FCFDD0E005
:101C7000FBD0E0FAD0E0F9D0E0F8120F85D082D0A6
:101C80008312110F900261E0FF900058122262123D
:101C9000232475F00AEF90005C122209FF90026283
:101CA000E0FCA3E0FDC3EF9DEE9C500302257412FF
:101CB000225BC083C0821210F7ECC0E0EDC0E0EE02
:101CC000C0E0EFC0E0900261E075F00A90005812A9
:101CD0002209FBEEFAE4F9F8D0E0FFD0E0FED0E014
:101CE000FDD0E0FC12102BD082D08312110F900097
:101CF0000B12236CE01221F5120EB42450FFE435D0
:101D0000F0FEE4FCFD12225B121103D31210D3404B
:101D1000369002A9E07002A3E0702C900261E0FB13
:101D2000122317E0702112237312232175F00AEF9A
:101D300090005A122209D39403EE9400401D75F0CE
:101D40000AEB12222E8014900261E0FB75F00A1259
:101D5000222E900261E0122317E4F0122373122264
:101D6000174C700E900264E0FCA3E0FD1221EE120D
:101D700022F7900261E0FB12225F12111B000000AB
:101D800000900058122242900261E075F00A900023
:101D90005C12224622C0E0C0F0C083C082C0D0E8FE
:101DA000C0E0D2AFD39002AAE094009002A9E094E0
:101DB0000040031237DBD39002AEE094019002ADF5
:101DC000E0940040051237DB8002D28AD39002AC47
:101DD000E094009002ABE0940040031237DB12372E
:101DE000FA50031237E2D39002B4E094009002B3A9
:101DF000E0940040031237DBD39002B8E0940090E7
:101E000002B7E0940040031237DBD39002BCE094A9
:101E1000009002BBE0940040031237DBD39000EE49
:101E2000E094009000EDE0940040031237DBD39083
:101E300002B0E094009002AFE0940040031237DB60
:101E4000D39002C0E094019002BFE09400400312DE
:101E500037DB12380850031237E2D39002B6E09411
:101E6000009002B5E0940040031237DBD39002BA31
:101E7000E094009002B9E0940040031237DBD39065
:101E800002BEE094009002BDE0940040031237DBF4
:101E9000D39002B2E094009002B1E09400400312AB
:101EA00037DBD39000F0E094009000EFE094004026
:101EB000031237DB12381650031237E2D39000D6E4
:101EC000E094009000D5E0940040031237DBD390FB
:101ED00000D8E094009000D7E0940040031237DB74
:101EE000D39000A3E094019000A2E094004003127C
:101EF00037DBD39000F2E094009000F1E0940040D2
:101F0000031237DBD39000A5E094019000A4E09485
:101F10000040031237DB12382450031237E2123824
:101F20003250031237E212384050031237E21238AF
:101F30004E50031237E2D390003AE09400900039FB
:101F4000E0940040031237DBD0E0F8D0D0D082D04C
:101F500083D0F0D0E0327B017A0179297DFF7C00CB
:101F6000123E637B017A0079017D267C01123E637B
:101F70007B017A0279A87D1A7C00123E63902DE0E5
:101F8000E49390012AF090012D7411F0A37422F0D3
:101F9000A37433F0902DE2E49390013BF0902DE395
:101FA000E49390013DF09002247401F09001737469
:101FB00011F090021A14F090014DF0A37420F07B00
:101FC000017A0179679000051211617A01796B90AD
:101FD000000B1211617A01796F9000081211617A79
:101FE00001795B90000E1211617A01796390001102
:101FF0001211617A01795F9000141211617A0179EE
:10200000899000221211617A0179A99000E11211E0
:10201000617A01793390004C1211617A0179449010
:1020200000491211617A0179539000171211617AF7
:1020300001794F90001A1211617A01795790001DB1
:10204000121161900017121158E475F0C8120F397F
:1020500090001A121158E475F064120F3990001DA7
:10206000121158E475F096120F39753900753AC897
:10207000752100752296900017123E8E75F0C812D9
:102080000F5890001A123E8E75F064120F5890008F
:102090001D123E8E75F096120F58753B00753CC8A8
:1020A0007523007524967B017A01797990004F128F
:1020B000116190017B7410F0740A123E96A374169D
:1020C000F0740C123E96A304F0A37404F0A37407FA
:1020D000F09001497410F09002A97407F0A374D035
:1020E000F0E49002A8F02290026BEFF0902E22E034
:1020F000FF90026FE4F0A3EFF0758A50902E2274E7
:1021000001F090026BE01238F57404F0A3E4F09053
:10211000026CF090026CE0FFC3940D7480948040D8
:10212000030229EAEFF87E02E4088006CEA2E71354
:10213000CE13D8F8FF90026DEEF0A3EFF04E7007CB
:1021400090026DF0A304F0902E207401F0902E20E8
:10215000E030E2F990026BE0FF902E001238F8E0D8
:10216000FCA3E0D394FEEC94074044EF902E1012B1
:10217000391FE0FEA3E0FF90026DE0FCA3E0FDEF5D
:102180002DFFEE3CFEC3EF94FFEE940790026BE050
:1021900075F002902E10500B12114CEC8DF0120EB7
:1021A00073805712114C7407F0A374FFF0804B90AA
:1021B000026BE0FF1238F5E0FCA3E0FD90026DE059
:1021C000FAA3E0FBD3ED9BEC9A4024902E10123939
:1021D00028C083C082C3A3E09BFF0582D58202157D
:1021E000831582E09AD082D083F0A3EFF0800B9029
:1021F000026BE01238F5E4F0A3F0902E20E4F0F545
:102200008D90026CE004F00228F390026FA3E0903E
:102210002E22F0758A10229002611222FD400302E4
:102220002B19300545900261E075F0029000ED1227
:1022300022094E9002616019E0FF25E02439F8760A
:102240004E087620EF25E02421F8761F087640809E
:1022500045E0FF25E02439F8760B0876B8EF25E055
:102260002421F876090876C4802C12237F122217C5
:1022700024C8FDE43CF8EF25E02439C8F608EDF663
:1022800012237F1222172496FDE43CF8EF25E02468
:1022900021C8F608EDF612238B1221F5120EB4FDBB
:1022A000EF25E02439122299C3ED9FE5F09E5024DA
:1022B000900261E0122224E0603212238B1221F599
:1022C000120EB4FDEF25E02421122299C3ED9FE503
:1022D000F09E40189002611222A0E0FCA3E04C7036
:1022E0003A74522F1222267401F0802F90021AE0C5
:1022F0006420900261700AE01222A2E4F0A3F08050
:102300000AE01222A2E4F0A374C8F0900261122243
:1023100022E4F0EF1222C7E4F0A3F0900261E01291
:102320002224E06003122397900053E0C454F0FF8E
:10233000900052E04F900174F022900261EFF01291
:10234000232F122209FFC39404EE94005027900219
:1023500061E0122211FD1222D3C083C0829002617B
:10236000E0FFD082D0831222BB75F002EF9000B65E
:10237000122321804D9002667401F0900266E0FF06
:10238000C312234650291222D3C083C08290026117
:10239000E0FED082D08375F002122217FD9000A2D9
:1023A0001222D6EE1222BB900266E004F080CC909E
:1023B0000261E0FF122211FD75F002EF9000B212EF
:1023C00022BE90026212111B00000000E49002661F
:1023D000F012232B122209FF900266E0FDD3EF9D3D
:1023E000EE94004034900262121103900266E09075
:1023F00000A61222D7C083C082900261E0D082D0B2
:1024000083122206FFE4FCFD120F85900262121176
:102410000F900266E004F080B89002621210F7ECB0
:10242000C0E0EDC0E0EEC0E0EFC0E012232B1222CE
:1024300009FBEEFAE4F9F8D0E0FFD0E0FED0E0FDD1
:10244000D0E0FC12102B90026212110F9002620277
:1024500010F7900264E0FF9000FF75F01212114C2B
:10246000E50875F00202114C900264E025E025E0D9
:10247000246CF582E43402F58322ED90008375F03C
:102480000212114CE0FEA3E022CBEFCBEEFAC3E543
:10249000149BFFE5139AFEE5129400FDE5119400EC
:1024A0008F148E138D12F51122900264E0FF25E047
:1024B0002466F582E43402F58322FD75F0021211E0
:1024C0004CEEF0A3EFF022900123ED75F002021123
:1024D0004C900264E0FFC3940274809480229002C6
:1024E00064E0FD75F00222123E34758A5075B28F99
:1024F000902E207401F022FF75F00212114CE0FCC6
:10250000A3E022EF75F0129000FF22F583E49324FC
:1025100020F582E4342EF58322A3F0902E20E4F0FF
:10252000758A1075B2932275F00490002D02114C3B
:10253000FDEF12114CECF0A3EDF022ED75F00290DE
:10254000007D22EF9008069390080393223EFE7CC4
:10255000007D03020DE8900264E004F022F582E4BD
:102560003402F583E0FF22200403022DDE30050350
:10257000022DDEC204E4900261F09002611239592A
:102580005072E0FE1238F1E0FCA3E0FDEE123936A5
:10259000ECF0A3EDF0123DBE9002611238EF12395B
:1025A0000F123963900261E0FD123942EEF0A3EFA1
:1025B000F0ED123942E0FEA3E0FF1238FEEE8FF09C
:1025C000120F58ED70131238FE12394E400B1238AC
:1025D000FE74FD75F0A8120EECED123936E0FEA384
:1025E000E0FFED1238F1EEF0A3EFF0900261E004AD
:1025F000F0022D5A9002AB7403F0A37420F0220075
:102600000600AB2C74AA7583F5758255A5745575B3
:1026100083FA7582AAA574A57583F5758255A522DE
:1026200002030AB00BB60CFF090208FF0D770E0477
:1026300013071410108015001600011292120713D0
:1026400018120F0404040401010111101608120AE3
:102650000C0403010204900264EFF0E4F50CF50BA6
:10266000F50AF509F50CF50BF50AF509F50812233D
:10267000435025900264E012228DE4FCFDE50C2F0E
:10268000FFE50B3EFEED350AFDEC35098F0C8E0B98
:102690008D0AF509050880D6E47B04FAF9F8AF0C39
:1026A000AE0BAD0AAC0912102B900264E075F0027B
:1026B0009000BA122252E4750CA8750B61F50AF568
:1026C00009F5081223435074900264E0FD12228D34
:1026D00075F002ED9000BA122217FD123E4DD3EFB5
:1026E000940AEE9400900264E0FF400B75F00290B3
:1026F00000BA122217801175F00AA42425F8E50803
:1027000025E028F8E6FC08E6FD75F002EF9000777A
:10271000122209FFC3ED9FFFEC9EFE3395E0FDFC06
:10272000E50C2FFFE50B3EFEE50A3DFDE5093C8F7C
:102730000C8E0B8D0AF5090508022EA3E47F607E3E
:10274000EAFDFCAB0CAA0BA90AA809D31210D340CE
:102750000BE4750C60750BEAF50AF509AE0BAF0CCE
:102760002212396D123D997A0079B61230247A001E
:1027700079A67D101230387A00798D1230247A00D3
:10278000798912302E7A00799112302E7A0079529E
:102790007D021230387F0412313BE4FFEF1222B386
:1027A000505875F002EF122214FD9000051221F12D
:1027B0001222F775F002EF122214FD1221EE1222FE
:1027C000F79000081221F11223AD90000E1221F1B2
:1027D000746175F0A8120F589000141221F1746101
:1027E00075F0A8120F589000111221F11223AD12AA
:1027F0002336E4F0A3F00F022F7C7B017A0079BF2F
:102800007D227C00123E637B017A0079547D147C2A
:1028100000123E63E4900130F09001737411F0A354
:10282000F01223979002C1E0700FC39002AAE094C7
:10283000F49002A9E09401500A9002A97401F0A357
:1028400074F4F0227B017D047C00123E63227B0144
:102850007D047C00123E63227B017C00123E6322D9
:10286000FD75F00212114CEEF0A3EFF0900008128B
:10287000115875F002EDA4F58285F083120EB4FFB5
:10288000AEF0ED9000C775F00202114C90000812F6
:102890001158900264E0FF75F002A4F58285F08380
:1028A000120EB4FDACF09000C7EF75F00212114C9F
:1028B000E0FEA3E0229000FBEF75F00202114C90C5
:1028C000000B121158900264E075F002A4F58285A5
:1028D000F083229000F775F00202114C900264E040
:1028E000FF24BFF582E43400F583229000DDEF750C
:1028F000F00212114CE422900266E09414900265FA
:10290000E0940022900264E024C1F582E43400F5F2
:102910008322EF9409EE9400900264E075F00222A5
:10292000900261E0FFC394027480948022900008BA
:102930000211589000D502114C9000F302114C7511
:10294000F009120E7375F002EF22FFC39430EE947B
:10295000752275F0029000FB02114C900261EFF0BD
:10296000E4900263F0900261E0FF900263E0C39F95
:10297000507912082EE4900262F01222AE506312D7
:102980003BFA900262E090009112224E75F002ED47
:1029900090009112114CE0F8A3E0FFED75F00AA44D
:1029A000242DC8F608EFF6ED75F00AA4FF2425F9EA
:1029B000E4FAFBC0E0C0E0E9C0E074272FF9E4903E
:1029C000026712116190026AE4F0A37408F0D0E08B
:1029D000F9D0E0FAD0E0FB123B5E900262E004F036
:1029E0008098900263E004F0023145E4900262F0C6
:1029F0001222AE5059122E36900262E0900001125F
:102A0000224E75F002ED900041122209FF75F0028E
:102A1000ED90008D122217FD123E4D7C007D0512B7
:102A20000DE8900262E0FF90003D1222BB75F002BB
:102A3000EF90008D122209FF900262E075F0029083
:102A40000041122252900262E004F00231D022755D
:102A50008D20438D20538D7FE4F5B275B6FF75B799
:102A6000FF75B2A243B20153A8FB538B7F758B1045
:102A7000438B08E58B20E7030080F8538B7F758B31
:102A800011438B08E58B20E7030080F89002CDE529
:102A9000B5F0A3E5B4F0758B01E4F5B27F02FE1248
:102AA0001FCB123DFEE4F58D900020E0FEA3E0FF79
:102AB0004E700E123ECCFD900020E5F0F0A3EDF03C
:102AC00022123ECCFDC3EF9DFFEE95F0FE123EAB11
:102AD000D3EF940AEE648094804022123ECCFFC370
:102AE000900021E09F900020E095F05006E475F002
:102AF00001800790002074FFF5F0020E7390002013
:102B0000E0FEA3E0FF7C007D0312116AECC0E0ED63
:102B1000C0E0EEC0E0EFC0E0123ECCFFAEF0E4FC5F
:102B2000FDD0E0FBD0E0FAD0E0F9D0E0F8120F855C
:102B3000E47B04FAF9F812102B900020EEF0A3EFDA
:102B4000F022E4900068F0A3F0A37403F0A37420D3
:102B5000F0123D0B7B017A0079777D067C00123EF6
:102B6000637F02123DBE902E14E0FEA3E0FF7C00C6
:102B70007D0A120DD690004F121158EE8FF0120FF1
:102B800039E4900260F09002601239594003023338
:102B9000F7123DBE900260E090080693FF1238F5F0
:102BA000E0FCA3E0C39405EC94004012902E1012B8
:102BB000392FE0FEA3E0D394F0EE94074012900288
:102BC00060E0FF900068123929E4F0A3F0123DBEE6
:102BD000902E23E4F09002601238EF12390F123970
:102BE0006390004C121158900260E0FD75F00212E3
:102BF0003908EE8FF0120F58ED70131238FE1239AB
:102C00004E400B1238FE74FD75F0A8120EEC9002C7
:102C100060E004F00233669001467410F022C0E0D8
:102C2000C083C082C0D075D018D2AFE5DB30E422BB
:102C3000D203C202E5DB30E114123E79E0F5DFEFAA
:102C400064077069D28A900130F00234B0C2010288
:102C500034B3E5DB30E52C900219E064AA701775F7
:102C60008A10F5DAC2AFF5B2F5A8F5A9F58B758E25
:102C700001758DC080FED200300204C2028054C2B1
:102C8000038050C202E5DB30E125E5DB30E0441291
:102C90003E79E0F5DFEF24F9600C24FA60042402A9
:102CA000700BD2048007D28A900130E4F08021209A
:102CB000010A7815A6DFD201D2028017123E79E50B
:102CC000DFF0EF642470099002AB04F0A374F4F019
:102CD00078150675DBFFD0D0D082D083D0E032E407
:102CE000FFFD9002ADE07004A3E06401701190015B
:102CF00030E06004D28AE4F0E49002ADF0A3F090FA
:102D00000052E0600E90014DE064106006EF442038
:102D1000FF8004EF4410FF900053E0600E90014DDF
:102D2000E064106006EF4402FF8004EF4401FF906E
:102D30000173EFF0900000E0FC6F605B900173E0C6
:102D4000FFEC6FFE900000EFF0208A1BD28A900209
:102D5000ADE4F0A37403F09002AEE024FFFB900218
:102D6000ADE034FF4B70F0900130E07007900173DC
:102D7000E05E8013EEF4FF900000E05FFDEEFF9058
:102D80000173E05FFFED4F900130F09002AD7403EE
:102D9000F0A374E8F0C28A22900264E0C454F024E4
:102DA0008EF582E43402F58322EBC454F0248CF5D2
:102DB00082E43402F583E4F0A3F0900264E0FFC4FF
:102DC00054F02490F582E43402F583E4F0A3F0EFAC
:102DD000C454F02495F582E43402F5832290026411
:102DE000E0FBC454F02488F582E43402F58322E049
:102DF000FDA3E0900265CDF0A3EDF0EFC454F02404
:102E000094F582E43402F58322900264E0C454F025
:102E10002492F582E43402F58322C454F02496F51A
:102E200082E43402F58322900265E0FEA3E0FF22F3
:102E3000C454F0248CF582E43402F58322900267B6
:102E40000210F790026702110375F00E12114CE0A8
:102E5000FEA3E0FFE4FCFD900277121103120FA025
:102E6000900274E075F01CA42275F00E02114C75EE
:102E7000F01CA42430F582E43402F58322242CF5DE
:102E800082E43402F583222428F582E43402F583B7
:102E9000222434F582E43402F5832212110F9002C9
:102EA000800210F79002770210F7ED75F005A42468
:102EB000C2F582E4343EF583E49322EC75F00E0211
:102EC000114C75F01CA42431F582E43402F5832200
:102ED0002433F582E43402F5832290028002110F3C
:102EE000787FE4F6D8FD75813C02370A02000002C3
:102EF0003B0CE493A3F8E493A34003F68001F208AB
:102F0000DFF48029E493A3F85407240CC8C333C426
:102F1000540F4420C8834004F456800146F6DFE491
:102F2000800B0102040810204080903D41E47E01A6
:102F30009360BCA3FF543F30E509541FFEE493A304
:102F400060010ECF54C025E060A840B8E493A3FA16
:102F5000E493A3F8E493A3C8C582C8CAC583CAF0A2
:102F6000A3C8C582C8CAC583CADFE9DEE780BE90B0
:102F70000149E0642070037421F090004912115857
:102F8000120E89641045F07003123C8690012AE00D
:102F900064AA7003123A5B123BAF2006089001430B
:102FA000E06410700D9001437411F0C206E49002C9
:102FB000A8F0900224E06006E4F09002A8F09000EF
:102FC000A2E07004A3E06401600C9000A4E070042F
:102FD000A3E064017015E49000A2F0A3F0A3F0A3B5
:102FE000F09000F1F0A3F09002A8F030000CC200C5
:102FF0009002AB7401F0A374F4F02274FFF5F002B8
:103000000E73E475F001020E73EF2401FDE43EFC43
:10301000D3E09D22EE8FF0020E73C390005DE0942A
:10302000BC90005CE0940222C3900067E094BC90E6
:103030000066E0940222C39000D4E094649000D330
:10304000E0940022C3900297E094B8900296E09436
:103050000B22C3900291E094F4900290E09401223C
:10306000C39002A7E094B89002A6E0940B22C3900C
:1030700002A1E094F49002A0E0940122EF2401FD6B
:10308000E43EFCD3E09D22208A030238EE9002A9A0
:10309000E07002A3E070779000A2E07002A3E070FD
:1030A0006D9000A4E07002A3E07063F5B2758D200E
:1030B000438D20758D8043A808D2AFF58B900039E1
:1030C000E0FEA3E0FF4E6005758E508003758EFE16
:1030D00020002F20032CE5DB54047026758A842001
:1030E0000320E5DB5404701AF586758703000000A1
:1030F000758601EF4E60047F5080027FFE7E0012D5
:103100001FCB758B01758A1053A8F7123DFE22E084
:10311000FB90080693902E1075F00202114C90005F
:103120004C12115875F002EDA4F58285F08322E06F
:10313000FEA3E0FF7C007D0A120DD6EB90006875BF
:10314000F00202114C9000A2EF75F00202114C75D2
:10315000F002EF02114C25E02466F582E43402F51A
:10316000832225E02462F582E43402F58322120EE4
:10317000B4D39458E5F0940222E0FFC39402748023
:10318000948022E0FCA3E02FFFEC3EFE227B017A3C
:103190000279287D387C00123E63E4FDEDC3940281
:1031A000748094805062E4900260F0900260E0FFCE
:1031B000C3940274809480504B12368AFEED75F0F1
:1031C0001CA41236B0EF12369CEEF012368A04F8C8
:1031D0007E007401088005C333CE33CED8F9FFEDED
:1031E00075F01CA4123671C083C082900260E0D0DA
:1031F00082D083123649EEF0A3EFF0900260E00433
:10320000F002398B0D02397C22E4FEEEC394077480
:10321000809480502FEE25E025E0241BF582E434D5
:103220002EF583E5822FF582E43583F583E493FD63
:10323000EE25E025E0241AF582E4342E122CEBED85
:10324000F00E80C7EFFD7C00701775F002EF900064
:103250006812114CE0FAA3E04A7006902E21741215
:10326000F0ED64014C701375F002EF900068122CC1
:10327000614E7006902E217412F022900260740844
:10328000F0A3E4F0A3743FF0A374DFF0E4FDFCF9D5
:10329000123E8700900260E0FEA3E02DF582EE3C36
:1032A000F583E493FF69F90DBD00010CBC37E5BD62
:1032B000DFE2900262E0FEA3E0F5828E83E493FFFA
:1032C000E96F700890012A7406F08005E490012AE5
:1032D000F0123E8700227F0112313B121B00E49066
:1032E0000260F09002601222B1503B123CC9900281
:1032F00060E0FF122B1AEEFCEFFD90000512115852
:10330000900260E0FF1221F51222F712119790024D
:1033100060E0FF1229F7900260E0FF1223B39002F1
:1033200060E004F080BD1234BF022D4753A87F1225
:103330003E1A122736123DE212080E43A880E4F529
:103340008D12374F9002A8E014601214601A240204
:1033500070EC1233229002A87401F080E1122F4128
:103360009002A87402F080D6123AB6900149E0FFAC
:10337000642060CAEF642160C512386780C0900283
:103380006C12116190026712115890026F12116154
:1033900090026AE07002A3E0603490026F1211584C
:1033A000120DABFF90026C121158EF120DC4900277
:1033B0006DE475F001120E73900270E475F0011265
:1033C0000E7390026A74FFF5F0120E7380C22290A1
:1033D000013CE0FF9002C2E06F600CEFF09002BF92
:1033E0007402F0A37458F09002BFE07004A3E0648C
:1033F0000170269002C2E0FF7E0064107002D205C8
:10340000EF64204E7002C20590014EE0641060022D
:10341000D206E49002BFF0A3F022EFFB90008D12E1
:103420002206FF75F002EB90008912225275F0021D
:10343000EB900091122217FDECC0E0EDC0E075F0BA
:1034400002EB900089122209FFE4FCFD9002771242
:10345000110FEB90027BF0D0E0FDD0E0FC7F010289
:1034600014DAC2D5E830E70FB2D5E4C39BFBE49A87
:10347000FAE499F9E498F8EC30E717B2D5123C7801
:1034800012102BE4C39BFBE49AFAE499F9E498F850
:10349000800312102B30D50DE4C39FFFE49EFEE4A1
:1034A0009DFDE49CFC22E4900260F0A3F0123E87B4
:1034B00000122DE475EA81E4F5F6F5F475F308F5EC
:1034C000F275EB0700E5EC30E7FBAFF3EFFEADF292
:1034D000EDFF900049121158EE8FF0120F39E4F50C
:1034E000EC75EB30123E87002290007712392FE006
:1034F000FCA3E0243CFDEC34F6FC75F002EF9000F8
:103500008D12114CE0FAA3E0C39DEA9C50151239CC
:1035100025E0FCA3E04C70121239257401F0A3746D
:10352000F4F022123925E4F0A3F022E4FFEFC39473
:103530000D748094805021EF25E02401F582E4345D
:103540002EF583E493FEEF25E02400F582E4342E8B
:10355000122CEBEEF00F80D5902F56E0902E2BF032
:1035600022C1034202CF0405C1044102C300C105C8
:103570004102C200C101011500C100C10242012780
:10358000000041000011C1064302CA0102CD0090B3
:103590000264EFF0E075F010A42488F9740235F0AD
:1035A000FA7B017D107C00123E63900264E01235CC
:1035B000FA740BF0A374B8F0227A00797D123DB44E
:1035C0007A007983123DB47B017A0079FF7D247CF7
:1035D00000023E637B017D067C00123E6322900266
:1035E0006AEFF0123E3490026AE0FF1239E990026D
:1035F0006AE090080693FF1228C790026AE0FF0273
:103600003EB7E4F5DA75DA4043DA2075D74075D66F
:103610004075DA5843A80275B80275F80222E5B27F
:1036200054016006E5A85410700F75B29275B6F992
:10363000E4F5B743B20143A81022758A10538AEF0C
:10364000758601758F02E4F5AB75AC0F75913FF58A
:1036500092D28A22EFF87401088002C333D8FC4268
:10366000AB122D23F4529152935391DF22D3EF9D4D
:10367000EE9C4007EF9DFFEE9CFE22C3ED9FFFEC0A
:103680009EFE22ED4C6011E4120DC40429F9E43AC7
:10369000FAED1D70EE1C80EB227815E6FF2429F56B
:1036A00082E43401F58322758A10538AEF221211C5
:1036B00058900002E422A3F0A37407F022009600C1
:1036C000960701F4009600960701F4EE30E707C371
:1036D000E49FFFE49EFE22122D23429142884391F3
:1036E000202204001E001901001900199002CA12BC
:1036F0001158020E890000000000000000000000C8
:1037000000000000000000000000000000000000B9
:1037100000000000000000000000000000000000A9
:103720000000000000000000000000000000000099
:103730000000000000000000000000000000000089
:103740000000000000000000000000000000000079
:103750000000000000000000000000000000000069
:103760000000000000000000000000000000000059
:103770000000000000000000000000000000000049
:103780000000000000000000000000000000000039
:103790000000000000000000000000000000000029
:1037A0000000000000000000000000000000000019
:1037B0000000000000000000000000000000000009
:1037C00000000000000000000000000000000000F9
:1037D00000000000000000000000000000000000E9
:1037E00000000000000000000000000000000000D9
:1037F000000000000000000000000000000000D8F1
:1038000000000000000000000000000000000000B8
:1038100000000000000000000000000000000000A8
:00000001FF
