:10000000002A0000000600003DBC000000000000C7
:1000100000000000000000000000000000000000E0
:10002000023751121034900002E422023400023EE2
:10003000850000020826D2AF320000020816D2AFB7
:10004000320000022500D2AF32000002081E7F02FB
:10005000123A7A1231D1902E20E030E2F9903F63CB
:10006000E493902E0012318BE0FFA3E0900258CF72
:10007000F0EF1231F67F02123F49900081E0FEA3BB
:10008000E0FF4E700E900258E0FCA3E0FDECFEEDA8
:10009000FF8014EF25E0FFEE33FE900259E02FFFC2
:1000A000900258E0123223900081EEF0A3EFF0901E
:1000B000007BE07002A3E0700F900081E0FFA3E0FE
:1000C00090007BCFF0A3EFF0E4900252F01231B336
:1000D0005010EF123150120FF70000271012322C7F
:1000E00080EBE4900253F0900253E0C394057480D7
:1000F00094804003020AAFE4900252F01231B34000
:1001000003020AA6A3E02401FDE433FC74BD2F1210
:100110003233D3ED9F7480F86C984003020AA090AC
:100120000252E0FF123A7A900252E0FF1231D1906F
:100130002E20E030E2F9900252E0FF903F61939070
:100140002E00123193E0FCA3E0FDEF123177ECF0CA
:10015000ED1231F6900252E0FF123F49123172E087
:10016000FCA3E09000951231AB12316DE0FCA3E0EE
:10017000FD90007BE0FAA3E0FBED2BFDEC3AFC9058
:100180000081E0FAA3E0FBC3ED9BFDEC9AFCEF12CB
:10019000317712316DE0FCA3E09000991231AB127F
:1001A000323DFB64017042E0FF9000E912319CE0B7
:1001B000FCA3E0FDEF123177E0FEA3E02DFFEE3C63
:1001C000FEEB9000ED12320DC3EF9DFFEE9CFEEBB7
:1001D000123177EEF0EF123170E0FCA3E0FD9000F9
:1001E0009D1231EFECF0A3EDF0123172E0FCA3E0D0
:1001F000FDEF12319912323DFF123188E0FCA3E08D
:100200004C700D75F002EF90010F123165FF8022E6
:10021000123183A3E025E0FF0582D5820215831504
:1002200082E033FEED123199E0FCA3E02FFFEC12E7
:100230003223123183EEF0A3EFF012315E4E7015CF
:1002400075F002ED90007D123165900083123191BE
:10025000EEF0A3EFF0900252E0FF1231A2E0FCA317
:10026000E0FDECC0E0EDC0E075F002EF90007D1223
:100270003165FFE4FCFD900265120FEB900252E045
:10028000900269F0D0E0FDD0E0FCE4FF1213C490CE
:100290000252E0FD1231A2EEF0A3EFF0ED12315068
:1002A000C083C082120FDF12315E2400FFEE34E003
:1002B000FE3395E0FDFC120E61D082D083120FEB6D
:1002C00012322C0208DC900253E004F00208C790BE
:1002D0002E23E4F0900252F01231B34003020C8658
:1002E000EF123150C083C082120FDFE8C0E0E9C0D6
:1002F000E0EAC0E0EBC0E0900252E024BD123233ED
:10030000FBE4FAF9F812314C120FD3123CD1D0E0D1
:10031000FBD0E0FAD0E0F9D0E0F8120E61D082D044
:1003200083120FEB12314C120FD3E47B507AC3F9D6
:10033000F8C3120F99500A12314C120FF70000C384
:1003400050900252E0FF123150120FDFE833500B91
:10035000EF123150120FF700000000900252E0FF40
:1003600090008D1231A5E0FCA3E04C7009EF123132
:1003700050120FD3802C900252E090008D12316207
:10038000FF7C007D02121046ECF8EDF9EEFAEFFB6F
:1003900012314C120FD3120E61E47B03FAF9F812FA
:1003A0000F07900252E0FD90008D1231ADEEF0EF9C
:1003B0001231CA9000771231654E701575F002ED5A
:1003C00090008D123165900077123191EEF0A3EF1D
:1003D000F0900252E0FF123204C083C082120FDF9D
:1003E000EF12315FFFE4FCFD120E61D082D0831268
:1003F0000FEB900252E0FF9000351231F0E475F0FF
:1004000001120D4F75F002EF900035123165D39453
:100410000AEE94004043900252E075F002900035DD
:10042000123165FFFBEEFAE4F9F8900252E0123265
:1004300004120FD3120F07900252E09000291231DC
:10044000C0900035121028E4F0A3F075F004ED120E
:100450003207120FF700000000900039E07002A38D
:10046000E0703D900252E0FD12315FFFED900029F7
:1004700012320D123EEE900252E09000251231C071
:10048000900025123165D39406EE9400401290003E
:10049000397407F0A374D0F0A3E475F001120D4F86
:1004A00012322C020AB822BB010689828A83E0221A
:1004B0005002E722BBFE02E32289828A83E4932270
:1004C000BB010689828A83F0225002F722BBFE011B
:1004D000F322EF8DF0A4A8F0CF8CF0A428CE8DF0FD
:1004E000A42EFE22BC000BBE0029EF8DF084FFADD0
:1004F000F022E4CCF875F008EF2FFFEE33FEEC337A
:10050000FCEE9DEC984005FCEE9DFE0FD5F0E9E475
:10051000CEFD22EDF8F5F0EE8420D21CFEADF07594
:10052000F008EF2FFFED33FD4007985006D5F0F2AD
:1005300022C398FD0FD5F0EA22C2D5EC30E709B20C
:10054000D5E4C39DFDE49CFCEE30E715B2D5E4C3D1
:100550009FFFE49EFE120CC4C3E49DFDE49CFC805E
:1005600003120CC430D507C3E49FFFE49EFE22C5EE
:10057000F0F8A3E028F0C5F0F8E5821582700215C6
:1005800083E038F022BB010A89828A83E0F5F0A378
:10059000E022500687F009E71922BBFE07E3F5F0D9
:1005A00009E3192289828A83E493F5F07401932286
:1005B000BB0110E58229F582E5833AF583E0F5F089
:1005C000A3E0225009E92582F886F008E622BBFE66
:1005D0000AE92582F8E2F5F008E222E5832AF583AC
:1005E000E993F5F0A3E99322BB010DC58229C582E9
:1005F000C5833AC583020D4F5011C58229F808E51D
:10060000F026F618F5F0E58236F622BBFE11C5821B
:1006100029F808E225F0F5F0F218E23582F222F826
:10062000E58229F582E5832AF58374019325F0F5A7
:10063000F0E4933822BB010A89828A83F0E5F0A3B3
:10064000F0225006F709A7F01922BBFE06F3E5F0E9
:1006500009F31922F8BB0111E58229F582E5833AF5
:10066000F583E8F0E5F0A3F0225009E92582C8F609
:1006700008A6F022BBFE09E92582C8F2E5F008F2DF
:1006800022EF2BFFEE3AFEED39FDEC38FC22C3EFF2
:100690009BFFEE9AFEED99FDEC98FC22E88FF0A40A
:1006A000CC8BF0A42CFCE98EF0A42CFC8AF0EDA4F9
:1006B0002CFCEA8EF0A4CDA8F08BF0A42DCC38252C
:1006C000F0FDE98FF0A42CCD35F0FCEB8EF0A4FE0C
:1006D000A9F0EB8FF0A4CFC5F02ECD39FEE43CFCA1
:1006E000EAA42DCE35F0FDE43CFC2275F0087582BD
:1006F00000EF2FFFEE33FECD33CDCC33CCC58233AC
:10070000C5829BED9AEC99E58298400CF582EE9BB0
:10071000FEED9AFDEC99FC0FD5F0D6E4CEFBE4CDCE
:10072000FAE4CCF9A88222B800C1B90059BA002D68
:10073000EC8BF084CFCECDFCE5F0CBF97818EF2F21
:10074000FFEE33FEED33FDEC33FCEB33FB10D70350
:10075000994004EB99FB0FD8E5E4F9FA227818EFF9
:100760002FFFEE33FEED33FDEC33FCC933C910D758
:10077000059BE99A4007EC9BFCE99AF90FD8E0E465
:10078000C9FAE4CCFB2275F010EF2FFFEE33FEED3B
:1007900033FDCC33CCC833C810D7079BEC9AE8990B
:1007A000400AED9BFDEC9AFCE899F80FD5F0DAE4ED
:1007B000CDFBE4CCFAE4C8F922EB9FF5F0EA9E42C7
:1007C000F0E99D42F0EC6480C864809845F022EB2B
:1007D0009FF5F0EA9E42F0E99D42F0E89C45F02248
:1007E000E8600FECC313FCED13FDEE13FEEF13FFF7
:1007F000D8F122E0FCA3E0FDA3E0FEA3E0FF22E0AD
:10080000F8A3E0F9A3E0FAA3E0FB22ECF0A3EDF0FB
:10081000A3EEF0A3EFF022A8828583F0D083D082EC
:1008200012100E12100E12100E12100EE473E4933A
:10083000A3C583C5F0C583C8C582C8F0A3C583C559
:10084000F0C583C8C582C822A42582F582E5F035AB
:1008500083F58322E0FBA3E0FAA3E0F922EBF0A307
:10086000EAF0A3E9F022EC8EF0A4CCC5F0CCCDF8F0
:10087000EFA4CEC5F02DFDE43CFCE8A42EC8C5F0E5
:100880003DFDE43CFCEFA4FFE5F028FEE43DFDE483
:100890003CFC2290024F12246440030213C3122333
:1008A00017120D90D39DE5F09C403890000B122359
:1008B000CD122322122438D3EF9430EE9475400CDD
:1008C0009002507475F0A37430F080061223171252
:1008D000244390024FE075F0029000F9121028E4D2
:1008E00002114B9000051223CDFF12233812245D14
:1008F00090000B122334122438D3EF9410EE942777
:10090000400C9002507427F0A37410F080169000F1
:10091000051223CDFF12233812245D90000B122301
:10092000341224431223F690024FE0FD75F002903A
:1009300000F912239530052575F002ED9000F912AB
:10094000234CD3942CEE9401401D75F002ED9000E1
:10095000FD1210287427F0A37410F0800A75F002BD
:10096000ED9000FD122389E4900250F0A3F01223D1
:1009700062E06067122454D39400EC648094804059
:100980001EEF25E024211223E1D3ED9FEC9E400FC2
:1009900090024FE0122422E4F0A37464F0801C90D3
:1009A000024FE0FF1224221224EF400F90000812A1
:1009B0002334120D90FFE5F01224B190024FE0FFB6
:1009C0001224747401F0EF25E0249DF582E43402D2
:1009D000F583740FF0A374A0F0800D1223B9740393
:1009E000F0A374E8F0123DFED3900251E094009021
:1009F0000250E0648094805003021379E0FEA3E08B
:100A0000FF1223CA12233812247EEE3395E0FDFC38
:100A1000E47BB87A88F9F8C3120F99500A90025013
:100A20007488F0A374B8F030053C122362E07016AD
:100A3000EF25E02439F8E6FC08E6FD1223F6C39D15
:100A4000EE9C505D801A90024FE025E02421F8E6EC
:100A5000FC08E6FDA3E0FEA3E0FFC39DEE9C504131
:100A60007C007DC8803590024F1223E81224EF509D
:100A700008900208E064207028EF25E0242112236A
:100A8000E1122454C39FEC9E5017ED9400EC648057
:100A90009480400D1223F67C007D0A120D19122459
:100AA000B0122362E0606FEF1223BEE0FEA3E04EBF
:100AB000701190024FA3E0FCA3E0FD121700122476
:100AC000B0802E122342FF122454123EEED3EF9434
:100AD00032EE9400401B1223B9E0FCA3E0D394C88B
:100AE000EC9400400CEF1223BE74FF75F09C120DC5
:100AF0004F122342FF7C007D0712104690025012D5
:100B0000239EEE3395E0FDFC120E61E47B08FAF9BA
:100B1000F8120F0780031223F690024FE075F002DF
:100B2000900045122395122342FFD39405EE9400C2
:100B3000400EEF9410EE94005006900250EE80208C
:100B400090024FE0FF75F00290003D12235AFD75B0
:100B5000F002EF90004512234C2DFFEE3C90025026
:100B6000F0A3EFF0D3900251E09430900250E06493
:100B70008094F540077475F0A37430F0E5DB5404FD
:100B800070611223F69000111223CDFD122338124A
:100B9000247EEF24A8FFEE8037E5DB540470441276
:100BA00023CAFF1223381224FA75F002EF90003D99
:100BB00012234CFF9000111223CDFD122338122472
:100BC0007E75F002ED12233B120D9024A8FFE5F094
:100BD0003461FE90000E12103475F002ED12233BCA
:100BE00012247E22900263ECF0A3EDF0900262EFFB
:100BF000F0123651C083C082900269E0D082D08367
:100C000012364BE0704612364212365FC083C08205
:100C1000900269E0D082D08312364B120FD3E4FBEE
:100C2000FAF9F8C3120FAF6023123642123669C0C8
:100C300083C082900269E0D082D08312364B120FBB
:100C4000D3E4F8C3120FAF6003021528123686C32F
:100C5000900264E09FFF900263E09E1216E9C08359
:100C6000C082900269E0FCD082D08312364BEEF055
:100C7000A3EFF0ED12365112369DE0605090026203
:100C8000E0FF1236A4C083C082900269E0D082D017
:100C90008312364BE0FCA3E0FDEF75F005A424576A
:100CA000F582E4343FF583E493FE740193FFD3EDC2
:100CB0009FEC9E4018123642123655C083C0829077
:100CC0000269E0D082D08312364B7405F01236866A
:100CD00012364212365FC083C082900269E0D08231
:100CE000D08312364B120FEB123642123673C0838A
:100CF000C082900269E0D082D08312362B1236690E
:100D0000C083C082900269E0D082D08312364B1239
:100D10000FEB900262E0FF123651C083C082900256
:100D200069E0FED082D08312364BE0D39400748009
:100D30009480400EEF12365175F00EEE121028E03E
:100D400014F09002650216E512364212365FC08337
:100D5000C082900269E0D082D08312364B120FD34A
:100D600090026A120FEB123642123669C083C082BB
:100D7000900269E0D082D08312364B120FD39002DA
:100D80006E12367D1236421236B2C083C082900295
:100D900069E0D082D08312364BE0F9F8120FC0EF31
:100DA000FBEEFAEDF9ECF8123680120E6E9002723C
:100DB000120FEB90026A120FD3900265120FDF122E
:100DC0000E61900272120FDF120E611236BC1236E3
:100DD0008612364212365FC083C082900269E0D02C
:100DE00082D08312364B12367D123642123669C0DB
:100DF00083C082900269E0D082D08312364B1236D3
:100E00007DECC0E0EDC0E0EEC0E0EFC0E0123642A5
:100E1000123673C083C082900269E0D082D0831200
:100E2000364BE0FEA3E0FBEEFAE4F9F8D0E0FFD0A9
:100E3000E0FED0E0FDD0E0FC120F071236BC9002BD
:100E400062E0640160030216E2123686EFFBEEFAFE
:100E5000123680C3EF9BFFEE9A1216E9C083C08260
:100E6000900269E0FCD082D08312364BEEF0A3EF03
:100E7000F0ED1236A412369DE0FEA3E0FF90026270
:100E8000E0FB75F005A42455F582E4343FF583E4D6
:100E900093FC740193FDD3EF9DEE9C406512368662
:100EA000EB75F01CA412365FC083C082900269E02B
:100EB000D082D08312364B120FEB123642123673A9
:100EC000C083C082900269E0D082D08312362B1298
:100ED0003669C083C082900269E0D082D083123626
:100EE0004B120FEB123642123655C083C08290026D
:100EF00069E0D082D08312364B7405F01236861228
:100F000036BC90026E120FD322FE123F3D90026259
:100F1000E0FD75F01CA4241FF582E43402F5832261
:100F2000900252EFF0A3ECF0A3EDF0EF1235EFE0FA
:100F3000FEA3E0FF123EEED3EF9432EE9400401C8D
:100F40001235BF120FF70000000012358BE4F012CB
:100F500036091235EBEEF0A3EFF0804312357AE05C
:100F6000FEA3E0FFD39400EE94004033900253E0E0
:100F7000FCA3E0FDD3EF9DEE9C400B900252E012EB
:100F800035B2E04401F0900252E0FF12357EE0FA03
:100F9000A3E0C39DEA9C50071235B1E04402F090F3
:100FA0000252E01235C4C083C082120FDF1236092C
:100FB000E4FCFD120E61D082D083120FEB9002523E
:100FC000E0FF123612E475F001120D4FEF75F007D5
:100FD000A42434F582E4343FF583E493FE74019352
:100FE000FF900252E0FDC454F0247EF582E4340206
:100FF000F583E0FAA3E0C39FEA9E5003021980ED57
:10100000123612E0FEA3E0FFFBEEFAE4F9F89002DC
:1010100052E01235C4120FD3120F07900255120F6F
:10102000EB12357AE0FEA3E0FFEEC0E0EFC0E01285
:10103000361FEFFDEEFCD0E0FFD0E0FE123EEE905A
:101040000259EEF0A3EFF0900252E0FD75F007A414
:10105000242FF582E4343FF583C37401939FE49316
:101060009E401FED12357EE0FEA3E04E601490021C
:1010700052E0FB1235FCE0FEA3E0C394B8EE940B03
:101080005021900252E0FF12357EE0FCA3E04C704C
:1010900008EF1235FCE4F0A3F012361F12357AEE99
:1010A00002192AEB600764016003021930E4900220
:1010B0005BF0900259E0FEA3E0FFD39450EE940061
:1010C0004006A37408F08032900252E01235B2E07C
:1010D00064036026D3EF943CEE9400400890025BDA
:1010E0007402F08015D390025AE09432900259E0D5
:1010F0009400400690025B7401F012357AE0FEA382
:10110000E0FFE4FCFD123625D3120FAF4011900230
:101110005BE0FF12357AE48FF0120D4F021966D3AF
:1011200090025AE09450900259E0940040581235D1
:101130007AC083C082E0FEA3E0FF90025BE0FDC3C3
:10114000EF9DFFEE9400D082D083F0A3EFF08036C5
:1011500012357AE0FEA3E0FF4E700D123625EBFF4C
:10116000EAFEE9FDE8FC80167C007D0712104612BD
:101170003625120E61E47B08FAF9F8120F071235D2
:101180007AEEF0A3EFF01235BF120FF70000000067
:1011900012358BE4F012361F1235EBEEF0A3EFF0B0
:1011A00012357AE0FCA3E0FDD39400EC94004056A5
:1011B000123609123EEE900252E075F007A4243177
:1011C000F582E4343FF583D37401939FE4939E400A
:1011D0000F900252E0FF12357E1235D1E4F08026E6
:1011E000900252E0FF75F007A42433F582E4343F07
:1011F000F583E493FE1235DDE0C39E500912357A83
:101200001235D1E004F012360922900252EFF0E0DC
:10121000FF2452F582E43400F583E07003021ABE25
:101220009000CB122F8AE0FEA3E04E701A9000D3FC
:10123000E0FEA3E0FF900252E09000CB122F41EEBF
:10124000F0A3EFF0021AEE900252E09000CB122FC2
:1012500067E0FEA3E0FF9000D3E0FCA3E0FD123EB8
:10126000EE9000F1121034900252E0FD122FAEEE1B
:101270008FF0120E3474C72D122FCFE0703790000C
:10128000F112103475F002ED122FB1120D90C394CB
:1012900006E5F09400500A122F4DEEF0A3EFF08017
:1012A00014E4FFEF12300F500C74C72F122FCF74BD
:1012B00001F00F80EE900252E0FF9000CB122F8BD6
:1012C000E0FCA3E09000D3123037400A74C92F121B
:1012D0002FF8E4F08038122FF27401F08030900281
:1012E00052E0FF9000CB122F94E4F0A3F0EF122F06
:1012F00064E4F0A3F074C72F122FCFE4F09000E164
:10130000122FBBE4F0A3F0122FB8E4F0A3F0122FD9
:10131000C8E07003021C58122F87E0FEA3E0D394AC
:1013200000EE94005003021C58123017900252E055
:10133000FD75F002122F57E0FCA3E0FD123EEE9087
:101340000253EEF0A3EFF0900252E09000F5122F5E
:1013500041E0FCA3E0D39FEC9E400CD3900254E00C
:10136000948C122FEB5018122F6DE0FEA3E0C39D5A
:10137000EE9C5063900254E094C8122FEB40581238
:101380002FC8E4F0EF9000CB122FC2E4F0A3F012CC
:10139000301775F002EF122FB1120D90FFAEF090E2
:1013A0000252E0FD122F64E0FAA3E0C39FEA9E50D0
:1013B0000F75F002ED9000DD12304374C8F080111B
:1013C000900252E09000DD122F9E7401F0A3742C65
:1013D000F0122FF2E4F022122F6DE0FEA3E0D39D75
:1013E000EE9C404FD3122FE54049900252E090000E
:1013F000E5122FBCE0FEA3E01230225036122FA4DB
:1014000074FF75F0F7120DC8122FB8E475F00912C9
:101410000D4F12300012301D50191230299000E18A
:10142000400D12102874FF75F0F7120D4F80041252
:101430003043F0122F6DE0FEA3E0C39DEE9C5038C8
:10144000122FE54033122FA4E475F009120DC812D3
:101450003000E475F009120D4F122FB812301D50F4
:10146000171230299000E5400B12102874FF75F018
:10147000F7020D4F123043F02290024FEFF0A374A9
:1014800002F0A374BCF0E4A3F0A3F0D3900102E057
:101490009400900101E0940040179000051224028E
:1014A000E0FF12233812245D90000B122334122423
:1014B00099900297E07002A3E0600B900250E4F074
:1014C000A37464F0800B900131E064117003742008
:1014D000F090024FE0FB122367E0602090024FE0A3
:1014E000FA1223B0120FF70000000075F00AEA901C
:1014F000005812238975F00AEB021EAD1223ACC00E
:1015000083C082120FDFE8C0E0E9C0E0EAC0E0EB90
:10151000C0E0900005122402E01223381224A9E44E
:10152000FCFDD0E0FBD0E0FAD0E0F9D0E0F8120EFC
:1015300061D082D083120FEB90024FE0FF900058F1
:101540001223B312248775F00AEF90005C12234C2B
:10155000FF900250E0FCA3E0FDC3EF9DEE9C500322
:10156000021EB31223ACC083C082120FD3ECC0E0C2
:10157000EDC0E0EEC0E0EFC0E090024FE075F00A91
:1015800090005812234CFBEEFAE4F9F8D0E0FFD0BB
:10159000E0FED0E0FDD0E0FC120F07D082D0831235
:1015A0000FEB1223FFE0122338120D902450FFE4BA
:1015B00035F0FEE4FCFD1223AC120FDFD3120FAFA7
:1015C0004036900297E07002A3E0702C90024FE04A
:1015D000FB122474E070211224B912248475F00ADD
:1015E000EF90005A12234CD39403EE9400401D75E3
:1015F000F00AEB122371801490024FE0FB75F00AA1
:1016000012237190024FE0122474E4F01224B912F4
:10161000235A4C6003021E9190000B122334120DCA
:1016200090FFC3900253E09F900252E095F0506FFC
:101630001223FF122320122438123F3DC3EF94E8F7
:10164000EE64809483505890024FE0640190000B48
:10165000701F122402E01223381224A97C007D049A
:1016600012104690025212239E1224E9E47B058058
:1016700026122402E01223381224A97C007D0212D3
:101680001046ECF8EDF9EEFAEFFB900252E0FEA303
:10169000E01224E8E47B03FAF9F8120F07800890BF
:1016A0000252E0FEA3E0FF1223FFE01223381224CF
:1016B0007E90024FE0FB1223B0120FF700000000F3
:1016C00090005812238590024FE075F00A90005C5C
:1016D00012238922E4900250F0A3F01229DED39065
:1016E0000298E09400900297E09400400302210DDC
:1016F0009000D5120FDF900020E0FEA3E0FFE4FC95
:10170000FD120E619000D5120FEB9000D9E475F038
:1017100001120D4FC39000DCE094649000DBE09474
:10172000005003021F869000D5120FD3ECC0E0EDED
:10173000C0E0EEC0E0EFC0E09000D9E0FEA3E0FB27
:10174000EEFAE4F9F8D0E0FFD0E0FED0E0FDD0E022
:10175000FC120F079000D5120FEB9000D5120FD39B
:101760009000D3EEF0A3EFF0A3120FF700000000FB
:10177000E49000D9F0A3F0A3F0A3F0900297E070FA
:1017800002A3E0702190024FF012300A501890002E
:10179000DD123003E0FEA3E04E70031219EA90025E
:1017A0004FE004F080E3E490024FF012300A40036F
:1017B00002210D74522FF582E43400F583E0FF60BE
:1017C0002590024FE0FE122FDCE0FCA3E04C7016E7
:1017D000900020E0FCA3E0FDEE900103122FC2EC8C
:1017E000F0A3EDF08026EF702312301790024F1215
:1017F0002FAD120D90C39496E5F09400500E122F69
:10180000D7E4F0A3F0122F9AE4F0A3F090024FE097
:10181000122FDCE0FEA3E0FF4E70030221049000D3
:1018200020E0FCA3E0FDC3EF9DFFEE9CFE123F3DD8
:10183000900250EEF0A3EFF0122FD7E0FCA3E0905F
:1018400000201230374013900250E0FCA3E0FDEF7F
:10185000122F91ECF0A3EDF08022900250E0FEA355
:10186000E0FFD394C8EE94004012EE13FEEF13FF96
:1018700090024FE0122F91EEF0A3EFF090024FE0B4
:10188000FF122F91E0FCA3E0D3940AEC94005003E4
:1018900002210412301775F002EF122FB1120D90D1
:1018A000D39498E5F0943A404190024FE0FB122F18
:1018B0009BE0FEA3E0C39428EE9423506790024F70
:1018C000E0FA24BDF582E43402F583E075F018A453
:1018D000FFAEF0EA122F91E0FCA3E0FD120CB2EB98
:1018E000122F9BEEF0A3EFF0803A12301790024FC8
:1018F000E0FF122FAE120D90D394E8E5F094034070
:1019000023122F9AE0FEA3E0C39458EE94025014E1
:1019100090024FE0122F91E0FCA3E0FD122F9AEC11
:10192000F0A3EDF090024FE004F0021F8B22D39061
:101930000298E09F900297E09E400AA3E09FF090FB
:101940000297E09EF090029C12387A90029BE09CF5
:10195000400CA3E09FF090029BE09EF08002D28AB0
:10196000D390029AE09F900299E09E400AA3E09FE4
:10197000F0900299E09EF012388B5003123885D314
:101980009002A2E09F9002A1E09E400AA3E09FF097
:101990009002A1E09EF0D39002A6E09F9002A5E005
:1019A0009E400AA3E09FF09002A5E09EF0D3900233
:1019B000AAE09F9002A9E09E400AA3E09FF0900257
:1019C000A9E09EF0D39000FEE09F9000FDE09E40D5
:1019D0000AA3E09FF09000FDE09EF0D390029EE00D
:1019E0009F90029DE09E400AA3E09FF090029DE040
:1019F0009EF09002AE12387A9002ADE09C400AA3AD
:101A0000E09FF09002ADE09EF0123899500312383A
:101A100085D39002A4E09F9002A3E09E400AA3E039
:101A20009FF09002A3E09EF0D39002A8E09F900266
:101A3000A7E09E400AA3E09FF09002A7E09EF0D3AB
:101A40009002ACE09F9002ABE09E400AA3E09FF0C2
:101A50009002ABE09EF0D39002A0E09F90029FE046
:101A60009E400AA3E09FF090029FE09EF0D3900179
:101A700000E09F9000FFE09E400AA3E09FF09000EE
:101A8000FFE09EF01238A75003123885D39000DE95
:101A9000E09F9000DDE09E400AA3E09FF09000DD13
:101AA000E09EF0D39000E0E09F9000DFE09E400ACF
:101AB000A3E09FF09000DFE09EF09000AB1238EDC5
:101AC0009000AAE09C400AA3E09FF09000AAE09E4C
:101AD000F0D3900102E09F900101E09E400AA3E054
:101AE0009FF0900101E09EF09000AD1238ED900063
:101AF000ACE09C400AA3E09FF09000ACE09EF012A6
:101B000038B550031238851238C350031238851285
:101B100038D150031238851238DF5003123885D37C
:101B200090003AE09F900039E09E400AA3E09FF0C9
:101B3000900039E09EF02290000B12103490024F7A
:101B4000E0FF75F002A4F58285F083120D90FDACE4
:101B5000F0900005121034EF75F002A4F58285F0C4
:101B6000832290024FE090004575F002121028E0A9
:101B7000FEA3E02275F002900001121028E0FCA301
:101B8000E02290024FE0FF2452F582E43400F58316
:101B900022900054121028120FD3900252EEF0A39C
:101BA000EFF090005A75F00AEB121028E4F0A3F061
:101BB00022FD75F002121028EEF0A3EFF022ECF8EF
:101BC000EDF9EEFAEFFBE0FEA3E0FF2290024FE01A
:101BD00090005475F00A02102890024FE0FF25E0B3
:101BE00024A9F582E43402F583229000081210340F
:101BF00090024FE02275F00AA42425F8E50825E0BC
:101C000028F8E6FE08E6FF22E0FF25E024A5F5829D
:101C1000E43402F58322900250E0FEA3E0FF22901C
:101C2000000B12103490024F22900250E0FFC39438
:101C300002748094802275F002121028ECF0A3ED5B
:101C4000F02225E024A1F582E43402F583229000FD
:101C5000AEEF75F004021028120D90C39DFFE5F061
:101C60009CFE22120D90C39DFEE5F09C900250F068
:101C7000A3CEF022900250E0FCA3E0FD22120D90D2
:101C8000FDACF022EFF0D3900298E0940090029720
:101C9000E09400222415F582E43401F58322EE8FCE
:101CA000F0020E34121028E475F001020D4F90027C
:101CB0004FE075F0029000BE22EC8DF0020E34C3AE
:101CC000E50894047480948022120D90FFAEF022F7
:101CD000EE900250F0A3EFF02290024FE0FF75F07B
:101CE0000A90005A2290024FE0FF75F00290010B1B
:101CF0002290000812103490024FE0FF22900299C7
:101D00007403F0A37420F022FFE4FCFD020E61E0F6
:101D1000FCA3E0D39400EC940022E4F5F0020E342E
:101D2000C0E0C0F0C083C082C0D0E8C0E0D2AFD372
:101D3000900298E09400900297E0940040031238DB
:101D40006CD390029CE0940190029BE094004005CB
:101D500012386C8002D28AD390029AE094009002EA
:101D600099E09400400312386C12388B50031238FB
:101D700073D39002A2E094009002A1E0940040038B
:101D800012386CD39002A6E094009002A5E0940073
:101D9000400312386CD39002AAE094009002A9E0AC
:101DA0009400400312386CD39000FEE09400900041
:101DB000FDE09400400312386CD390029EE0940042
:101DC00090029DE09400400312386CD39002AEE084
:101DD00094019002ADE09400400312386C123899DF
:101DE0005003123873D39002A4E094009002A3E051
:101DF0009400400312386CD39002A8E09400900243
:101E0000A7E09400400312386CD39002ACE0940039
:101E10009002ABE09400400312386CD39002A0E033
:101E2000940090029FE09400400312386CD390011C
:101E300000E094009000FFE09400400312386C1220
:101E400038A75003123873D39000DEE0940090005E
:101E5000DDE09400400312386CD39000E0E0940081
:101E60009000DFE09400400312386CD39000ABE0A8
:101E700094019000AAE09400400312386CD39001C2
:101E800002E09400900101E09400400312386CD30A
:101E90009000ADE094019000ACE094004003123853
:101EA0006C1238B550031238731238C3500312380D
:101EB000731238D150031238731238DF50031238BE
:101EC00073D390003AE09400900039E0940040030E
:101ED00012386CD0E0F8D0D0D082D083D0F0D0E0EF
:101EE000327B017A0179177DFF7C00123F047B0170
:101EF0007A0079017D147C01123F047B017A02791A
:101F0000967D1A7C00123F04902DE0E49390011816
:101F1000F090011B7411F0A37422F0A37433F090BD
:101F20002DE2E493900129F0902DE3E49390012BAE
:101F3000F09002127401F09001617411F0900208A7
:101F400014F090013BF0A37420F07B017A017955E5
:101F500090000512103D7A01795990000B12103D46
:101F60007A01795D90000812103D7A01794990005C
:101F70000E12103D7A01795190001112103D7A0134
:101F8000794D90001412103D7A0179779000221259
:101F9000103D7A0179979000F112103D7A01792174
:101FA00090004C12103D7A01793290004912103D98
:101FB0007A01794190001712103D7A01793D900025
:101FC0001A12103D7A01794590001D12103D9000C3
:101FD00017121034E475F0C8120E1590001A121082
:101FE00034E475F064120E1590001D121034E4757F
:101FF000F096120E15753900753AC87521007522D4
:102000009690001712080375F0C8120E3490001A4B
:1020100012080375F064120E3490001D1208037547
:10202000F096120E34753B00753CC875230075247C
:10203000967B017A01796790004F12103D900169FB
:102040007410F0A3740CF0A37407F0A37410F0A341
:10205000740AF0A37407F0A304F0A37406F0A304B9
:10206000F09001377410F09002977407F0A374D0C9
:10207000F0E4900296F02290024FEFF012249212B8
:10208000234CFFC39404EE9400502890024FE012BA
:102090002354FD12242EC083C08290024FE0FFD053
:1020A00082D08312241675F002EF9000BE122484B1
:1020B0000229529002547401F0900254E0FFC312BE
:1020C00024A2502912242EC083C08290024FE0FE29
:1020D000D082D08375F00212235AFD9000AA1224F8
:1020E00031EE122416900254E004F080CC90024F9E
:1020F000E0122367E0600302293F900005121034CC
:1021000090024FE0FD1223381224A975F002ED125F
:102110002357FD123EEEC3EF9428EE9400504090FA
:10212000024FE0FD75F00290000112234CFF900079
:102130000B121034ED12233812245D123EEEC3EF61
:102140009414EE9400500590000B8003900005124B
:10215000103490024FE0FF12233812245D80099062
:10216000024FE0FF122354FD75F002EF9000BA1207
:102170002419900250120FF700000000E49002545E
:10218000F012248E12234CFF900254E0FDD3EF9DF9
:10219000EE94004030900250120FDF900254E09015
:1021A00000AE122432C083C08290024FE0D082D0B1
:1021B000831223491224E8900250120FEB9002542C
:1021C000E004F080BC900250120FD3ECC0E0EDC0F0
:1021D000E0EEC0E0EFC0E012248E12234CFBEEFADA
:1021E000E4F9F8D0E0FFD0E0FED0E0FDD0E0FC1252
:1021F0000F07900250120FEB900250020FD3758D13
:1022000020438D20538D7FE4F5B275B6FF75B7FF7F
:1022100075B2A243B20153A8FB538B7F758B104359
:102220008B08E58B20E7030080F8538B7F758B11BB
:10223000438B08E58B20E7030080F89002BBE5B5EF
:10224000F0A3E5B4F0758B01E4F5B27F02FE122134
:102250000E123E85E4F58D900020E0FEA3E0FF4ED7
:102260007010123E59FD900020E5F0F0A3EDF00251
:102270002AC6123E59FDC3EF9DFFEE95F0FE123FB8
:102280003DD3EF940AEE648094804024123E59FFBF
:10229000C3900021E09F900020E095F05006E47587
:1022A000F001800790002074FFF5F0120D4F80368A
:1022B0007D03123E4CECC0E0EDC0E0EEC0E0EFC0AC
:1022C000E0123E59FFAEF0E4FCFDD0E0FBD0E0FAB6
:1022D000D0E0F9D0E0F8120E617B04123E6290006B
:1022E00020EEF0A3EFF0900020E0FFA3E0900113B8
:1022F000CFF0A3EFF07D02123E4C7B0A123E6290BB
:1023000000E9EEF0A3EFF09000EDE07002A3E070C2
:102310000F9000E9E0FFA3E09000EDCFF0A3EFF015
:10232000900020E0FEA3E0FF7C007D05121046E453
:102330007B64123E639000EBEEF0A3EFF09000EFB1
:10234000E07002A3E0700F9000EBE0FFA3E09000CC
:10235000EFCFF0A3EFF022900259EFF0902E22E0A1
:10236000FF90025DE4F0A3EFF0758A50902E227486
:1023700001F0900259E0123AEE7404F0A3E4F090F8
:10238000025AF090025AE0FFC3940D74809480408A
:1023900003022C5AEFF87E02E4088006CEA2E7136F
:1023A000CE13D8F8FF90025BEEF0A3EFF04E70076B
:1023B00090025BF0A304F0902E207401F0902E2088
:1023C000E030E2F9900259E0FF902E00123AF1E07D
:1023D000FCA3E0D394FEEC94074044EF902E10123F
:1023E0003B07E0FEA3E0FF90025BE0FCA3E0FDEF13
:1023F0002DFFEE3CFEC3EF94FFEE9407900259E0F0
:1024000075F002902E10500B121028EC8DF0120D6A
:102410004F80571210287407F0A374FFF0804B9080
:102420000259E0FF123AEEE0FCA3E0FD90025BE00F
:10243000FAA3E0FBD3ED9BEC9A4024902E10123BC4
:1024400010C083C082C3A3E09BFF0582D582021522
:10245000831582E09AD082D083F0A3EFF0800B90B6
:102460000259E0123AEEE4F0A3F0902E20E4F0F5E9
:102470008D90025AE004F0022B6390025DA3E0907D
:102480002E22F0758A102290024F1224644003021B
:102490002D8930054590024FE075F0029000FD1245
:1024A000234C4E90024F6019E0FF25E02439F87666
:1024B0004E087620EF25E02421F8761F087640802C
:1024C00045E0FF25E02439F8760B0876B8EF25E0E3
:1024D0002421F876090876C4802C1224C512235AC8
:1024E00024C8FDE43CF8EF25E02439C8F608EDF6F1
:1024F0001224C512235A2496FDE43CF8EF25E0246B
:1025000021C8F608EDF61224D1122338120D90FDE1
:10251000EF25E024391223E1C3ED9FE5F09E50241E
:1025200090024FE0122367E060321224D112233868
:10253000120D90FDEF25E024211223E1C3ED9FE56C
:10254000F09E401890024F1223E8E0FCA3E04C708C
:102550003A74522F1223697401F0802F900208E020
:10256000642090024F700AE01223EAE4F0A3F080A6
:102570000AE01223EAE4F0A374C8F090024F122399
:1025800065E4F0EF122422E4F0A3F090024FE01291
:102590002367E060031224DD900053E0C454F0FF91
:1025A000900052E04F900162F0227F0112324712F8
:1025B0001EB4E490024EF090024E12240C503B12D6
:1025C0003D5890024EE0FF122857EEFCEFFD9000C0
:1025D0000512103490024EE0FF1223381224991293
:1025E000107390024EE0FF122C6790024EE0FF1233
:1025F0001C5990024EE004F080BD1234C10236C274
:102600000600AB2A74AA7583F5758255A5745575B5
:1026100083FA7582AAA574A57583F5758255A522DE
:1026200002040AB00BB60CFF090208FF0D770E0476
:1026300013071410108015001600011292120710D3
:10264000210A0F0404040401010111101008120CE6
:102650000A0603010204900252EFF0E4F50CF50BB8
:10266000F50AF509F50CF50BF50AF509F50812243C
:102670009F5025900252E01223D5E4FCFDE50C2F7B
:10268000FFE50B3EFEED350AFDEC35098F0C8E0B98
:102690008D0AF509050880D6E47B04FAF9F8AF0C39
:1026A000AE0BAD0AAC09120F07900252E075F002B2
:1026B0009000C2122395E4750CA8750B61F50AF51C
:1026C00009F50812249F5074900252E0FD1223D5A0
:1026D00075F002ED9000C212235AFD123EEED3EFC8
:1026E000940AEE9400900252E0FF400B75F00290C5
:1026F00000C212235A801175F00AA42425F8E508B7
:1027000025E028F8E6FC08E6FD75F002EF9000777A
:1027100012234CFFC3ED9FFFEC9EFE3395E0FDFCC2
:10272000E50C2FFFE50B3EFEE50A3DFDE5093C8F7C
:102730000C8E0B8D0AF5090508022EA3E47F607E3E
:10274000EAFDFCAB0CAA0BA90AA809D3120FAF40F3
:102750000BE4750C60750BEAF50AF509AE0BAF0CCE
:1027600022FD75F002121028EEF0A3EFF0900008A1
:1027700012103475F002EDA4F58285F083120D90ED
:10278000FFAEF0ED9000CF75F00202102890000827
:10279000121034900252E0FF75F002A4F58285F029
:1027A00083120D90FDACF09000CFEF75F002021097
:1027B0002890010775F002021028EF90010B75F0C8
:1027C0000202102890000B121034900252E075F0B3
:1027D00002A4F58285F083229000E5EF75F00202F5
:1027E000102875F002021028900252E0FF24C7F56D
:1027F00082E43400F5832290024FE0FF75F00290EE
:102800000103021028900254E09414900253E094C3
:102810000022900252E024C9F582E43400F58322BC
:102820009000E175F002EF02102890024FE0FFC324
:1028300094027480948022900008021034E0FEA379
:10284000E0FFC39430EE947522EF9409EE9400906B
:102850000252E075F00222FDE0FAA3E0FBD3ED9B0B
:10286000EC9A22121028E4F0A3221239FE123EBB89
:102870007A0079BE1231307A0079AE7D101231447F
:102880007A00798D1231307A00798912313A7A00E2
:10289000799112313A7A0079527D021231447F04E3
:1028A000123247E4FFEF12240E505175F002EF127E
:1028B0002357FD12233112249975F002EF1223578A
:1028C000FD90000B12233412249990000812233437
:1028D0001224FA90000E122334746175F0A8120EBF
:1028E00034900014122334746175F0A8120E3490E1
:1028F00000111223341224FA0F0230857B017A0072
:1029000079C77D2A7C00123F04E490029DF0A3F079
:10291000A3F0A3F07B017A0079547D14FC123F04EC
:10292000E490011EF09001617411F0A3F01224DD17
:102930009002AFE0700FC3900298E094F490029779
:10294000E09401500A9002977401F0A374F4F0220D
:102950007B017D047C00123F04227B017D047C000E
:10296000123F04227B017C00123F0422900252E0BD
:1029700025E025E0245AF582E43402F58322ED9027
:10298000008375F002121028E0FEA3E022ECF0EDC7
:10299000A3F0900252E0FF25E02454F582E43402D3
:1029A000F58322900252E0FD90007D75F002021046
:1029B00028FFED75F00202102890010F75F0020259
:1029C000102890008375F002021028FDEF75F002C8
:1029D000021028900252E0FFC39402748094802277
:1029E000FD75F002121028EEF0EFA3F075F002ED85
:1029F00022123ED5758A5075B28F902E207401F048
:102A000022F583E4932420F582E4342EF58322EF2B
:102A100075F002021028A3F0902E20E4F0758A10C1
:102A200075B2932275F00490002D02102875F00203
:102A3000121028E0FCA3E0FD22EF903F6193903F4D
:102A40005E93223EFE7C007D03020CC4900252E0A5
:102A500004F022F582E43402F583E0FF22ECF0A3D7
:102A6000EDF0900252E02290024FEFF0E49002511C
:102A7000F090024FE0FF900251E0C39F507912089E
:102A80002EE4900250F01224095063123C4190024F
:102A900050E090009112239175F002ED9000911298
:102AA0001028E0F8A3E0FFED75F00AA4242DC8F685
:102AB00008EFF6ED75F00AA4FF2425F9E4FAFBC04F
:102AC000E0C0E0E9C0E074272FF9E490025512104D
:102AD0003D900258E4F0A37408F0D0E0F9D0E0FA99
:102AE000D0E0FB123BA5900250E004F080989002E9
:102AF00051E004F0023251E4900250F012240950E7
:102B000059122E36900250E090000112239175F078
:102B100002ED90004112234CFF75F002ED90008D04
:102B200012235AFD123EEE7C007D05120CC4900269
:102B300050E0FF90003D12241675F002EF90008DDA
:102B400012234CFF900250E075F0029000411223D6
:102B500095900250E004F00232DC22900068E4F02C
:102B6000A304F0A37407F0A304F0123D9A7B017A4A
:102B70000079777D067C00123F047F02123E289088
:102B80002E14E0FEA3E0FF7C007D0A120CB2900040
:102B90004F121034EE8FF0120E15E490024EF090AA
:102BA000024E123B365072123E2890024EE0903F89
:102BB0006193FF123AEEE0FCA3E0C39405EC9400AD
:102BC0004012902E10123B17E0FEA3E0D394F0EEDB
:102BD0009407401290024EE0FF900068123B11E40F
:102BE000F0A3F0123E28902E23E4F090024E123A09
:102BF000E8123AF7123B4090004C12103490024E0B
:102C0000E075F002A4F58285F083EE8FF0120E34A9
:102C100090024EE004F002337F9001347410F022F1
:102C2000C0E0C083C082C0D075D018D2AFE5DB3021
:102C3000E422D203C202E5DB30E114123F1AE0F5D0
:102C4000DFEF64077069D28A90011EF00234B2C2CD
:102C5000010234B5E5DB30E52C900207E064AA7090
:102C600017758A10F5DAC2AFF5B2F5A8F5A9F58B9C
:102C7000758E01758DC080FED200300204C20280C4
:102C800054C2038050C202E5DB30E125E5DB30E0D1
:102C900044123F1AE0F5DFEF24F9600C24FA6004D7
:102CA0002402700BD2048007D28A90011EE4F080C7
:102CB0002120010A780DA6DFD201D2028017123F2F
:102CC0001AE5DFF0EF6424700990029904F0A37410
:102CD000F4F0780D0675DBFFD0D0D082D083D0E041
:102CE00032E4FFFD90029BE07004A3E064017011E8
:102CF00090011EE06004D28AE4F0E490029BF0A30D
:102D0000F0900052E0600E90013BE064106006EF2E
:102D10004420FF8004EF4410FF900053E0600E90C9
:102D2000013BE064106006EF4402FF8004EF4401C1
:102D3000FF900161EFF0900000E0FC6F605B90019C
:102D400061E0FFEC6FFE900000EFF0208A1BD28A5A
:102D500090029BE4F0A37403F090029CE024FFFB3C
:102D600090029BE034FF4B70F090011EE0700790E2
:102D70000161E05E8013EEF4FF900000E05FFDEE85
:102D8000FF900161E05FFFED4F90011EF090029B0C
:102D90007403F0A374E8F0C28A22900252E0C45493
:102DA000F0247CF582E43402F58322EBC454F02451
:102DB0007AF582E43402F583E4F0A3F0900252E065
:102DC000FFC454F0247EF582E43402F583E4F0A3DA
:102DD000F0EFC454F02483F582E43402F5832290AA
:102DE0000252E0FBC454F02476F582E43402F58309
:102DF00022E0FDA3E0900253CDF0A3EDF0EFC45428
:102E0000F02482F582E43402F58322900252E0C479
:102E100054F02480F582E43402F58322C454F02473
:102E200084F582E43402F58322900253E0FEA3E0AD
:102E3000FF22C454F0247AF582E43402F583229010
:102E40000255020FD3900255020FDF75F00E1210DB
:102E500028E0FEA3E0FFE4FCFD900265120FDF1204
:102E60000E7C900262E075F01CA42275F00E021038
:102E70002875F01CA4241EF582E43402F583222474
:102E80001AF582E43402F583222416F582E4340232
:102E9000F583222422F582E43402F58322120FEB1B
:102EA00090026E020FD3900265020FD3ED75F0050C
:102EB000A42454F582E4343FF583E49322EC75F0C6
:102EC0000E02102875F01CA4241FF582E43402F5CC
:102ED00083222421F582E43402F5832290026E02DB
:102EE0000FEB200403023750300503023750C204B1
:102EF000E490024FF090024F123B365069E0FE1210
:102F00003AEAE0FCA3E0FDEE123B1EECF0A3EDF08C
:102F1000123E2890024F123AE8123AF7123B4090C4
:102F2000024FE0FD123B2AEEF0A3EFF0ED123B2A38
:102F3000E0FEA3E0FF90004C12103475F002EDA407
:102F4000F58285F083EE8FF0120E34ED123B1EE019
:102F5000FEA3E0FFED123AEAEEF0A3EFF090024F8D
:102F6000E004F00236D59002997403F0A37420F0C7
:102F700022787FE4F6D8FD75813C02379B02000081
:102F8000023981E493A3F8E493A34003F68001F2AD
:102F900008DFF48029E493A3F85407240CC8C33352
:102FA000C4540F4420C8834004F456800146F6DF21
:102FB000E4800B0102040810204080903DD0E47EA4
:102FC000019360BCA3FF543F30E509541FFEE49316
:102FD000A360010ECF54C025E060A840B8E493A3DD
:102FE000FAE493A3F8E493A3C8C582C8CAC583CA08
:102FF000F0A3C8C582C8CAC583CADFE9DEE780BEC0
:10300000900137E0642070037421F09000491210A1
:1030100034120D65641045F07003123D15900118CF
:10302000E064AA7003123B4A123BF62006089001A6
:1030300031E06410700D9001317411F0C206E4901B
:103040000296F0900212E06006E4F0900296F09092
:1030500000AAE07004A3E06401600C9000ACE07092
:1030600004A3E064017015E49000AAF0A3F0A3F0BB
:10307000A3F0900101F0A3F0900296F030000CC292
:10308000009002997401F0A374F4F02274FFF5F03B
:10309000020D4FE475F001020D4FEF2401FDE43EF7
:1030A000FCD3E09D22EE8FF0020D4FC390005DE057
:1030B00094BC90005CE0940222C3900067E094BC52
:1030C000900066E0940222C39000DCE094649000DB
:1030D000DBE0940022C3900285E094B8900284E083
:1030E000940B22C390027FE094F490027EE094015E
:1030F00022C3900295E094B8900294E0940B22C30E
:1031000090028FE094F490028EE0940122EF24016B
:10311000FDE43EFCD3E09D22208A03023980900228
:1031200097E07002A3E070789000AAE07002A3E03C
:10313000706E9000ACE07002A3E07064F5B2758D23
:1031400020438D20758D9043A808D2AF758B409099
:103150000039E0FEA3E0FF4E6005758E1480037514
:103160008E3F20002F20032CE5DB54047026758A47
:1031700084200320E5DB5404701AF586758703006C
:103180000000758601EF4E60047F2880027F7F7EFD
:103190000012210E758B01758A1053A8F7123E8517
:1031A0002253A87F123EA11226C1123E6912080EB8
:1031B00043A880E4F58D9002087420F01237E09067
:1031C0000296E014601614601E24FE603E24047013
:1031D000E212333B9002967401F080D712304A908D
:1031E00002967402F080CC122D8A900137E0FF64C1
:1031F000206008EF642160031238F890013CE0641D
:103200001070B09002967404F080A8123C8990016E
:103210003CE06410609D9002967401F080957B0103
:103220007A0279167D387C00123F04E4FDEDC394E8
:1032300002748094805062E490024EF090024EE05E
:10324000FFC3940274809480504B12368CFEED754F
:10325000F01CA41236B2EF12369EEEF012368C0439
:10326000F87E007401088005C333CE33CED8F9FF51
:10327000ED75F01CA4123673C083C08290024EE03C
:10328000D082D08312364BEEF0A3EFF090024EE0E6
:1032900004F0023A1C0D023A0D22E4FEEEC394073C
:1032A00074809480502FEE25E025E0241BF582E405
:1032B000342EF583E5822FF582E43583F583E4939C
:1032C000FDEE25E025E0241AF582E4342E1231E1EA
:1032D000EDF00E80C7EFFD7C007013900068123196
:1032E000EFE0FAA3E04A7006902E217412F0ED642C
:1032F000014C701375F002EF9000681231654E704A
:1033000006902E217412F022E0FB903F6193902EE4
:103310001075F002021028E0FEA3E0FF7C007D0A99
:10332000120CB2EB90006875F0020210289000AA0F
:10333000EF75F00202102875F002EF02102825E068
:103340002454F582E43402F5832225E02450F582EA
:10335000E43402F58322E0FFC39402748094802257
:10336000E0FCA3E02FFFEC3EFE2290024E7408F03A
:10337000A3E4F0A3743FF0A374DFF0E4FDFCF912C2
:103380003F280090024EE0FEA3E02DF582EE3CF5D2
:1033900083E493FF69F90DBD00010CBC37E5BDDF87
:1033A000E2900250E0FEA3E0F5828E83E493FFE911
:1033B0006F70089001187406F08005E4900118F011
:1033C000123F28002290025A12103D90025512100E
:1033D0003490025D12103D900258E07002A3E0604C
:1033E0003490025D121034120C87FF90025A1210B2
:1033F00034EF120CA090025BE475F001120D4F90B7
:10340000025EE475F001120D4F90025874FFF5F062
:10341000120D4F80C22290012AE0FF9002B0E06FAF
:10342000600CEFF09002AD7402F0A37458F09002BB
:10343000ADE07004A3E0640170269002B0E0FF7E6E
:103440000064107002D205EF64204E7002C2059035
:10345000013CE064106002D206E49002ADF0A3F0FB
:1034600022EFFB90008D122349FF75F002EB9000D4
:103470008912239575F002EB90009112235AFDEC0E
:10348000C0E0EDC0E075F002EB90008912234CFF24
:10349000E4FCFD900265120FEBEB900269F0D0E0C6
:1034A000FDD0E0FC7F010213C490013CE064107089
:1034B0003FF5B2758D20438D20538D7F53A8F7F5CE
:1034C0008BE5DB54047013200310F58AF5867587AD
:1034D00003000000758601758A10758B019002AF9C
:1034E0007401F09002997403F0A37420F0123E85E9
:1034F00022C2D5E830E70FB2D5E4C39BFBE49AFAC9
:10350000E499F9E498F8EC30E717B2D5123D0712C8
:103510000F07E4C39BFBE49AFAE499F9E498F88076
:1035200003120F0730D50DE4C39FFFE49EFEE49D18
:10353000FDE49CFC22E490024EF0A3F0123F280030
:10354000122DE475EA81E4F5F6F5F475F308F5F269
:1035500075EB0700E5EC30E7FBAFF3EFFEADF2ED06
:10356000FF900049121034EE8FF0120E15E4F5ECC6
:1035700075EB30123F280022900077123B17E0FCD9
:10358000A3E0243CFDEC34F6FC75F002EF90008DD6
:10359000121028E0FAA3E0C39DEA9C5015123B0DDF
:1035A000E0FCA3E04C7012123B0D7401F0A374F424
:1035B000F022123B0DE4F0A3F022E4FFEFC3940DE0
:1035C000748094805021EF25E02401F582E4342EAC
:1035D000F583E493FEEF25E02400F582E4342E1217
:1035E00031E1EEF00F80D5902F56E0902E2BF02297
:1035F000C1034202BD0405C1044102B100C105413D
:1036000002B000C101010D00C100C102420115005C
:103610000041000011C1064302B80102BB00900244
:1036200052EFF0E075F010A42476F9740235F0FA48
:103630007B017D107C00123F04900252E01235FCA9
:10364000740BF0A374B8F022900258EFF0123ED53C
:10365000900258E0FF123A7A900258E0903F61934E
:10366000FF122B37900258E0FF023F49900020E004
:10367000FEA3E0FF7C000210469002B81210340254
:103680000D65E4FAF9F8020F07E4F5DA75DA40435C
:10369000DA2075D74075D64075DA5843A80275B858
:1036A0000275F80222E5B254016006E5A8541070D4
:1036B0000F75B29275B6F9E4F5B743B20143A8109D
:1036C00022758A10538AEF758601758F05E4F5AB74
:1036D00075AC0F75913FF592D28A227B017A007901
:1036E0007D7D067C00123F047B017A0079837D0694
:1036F0007C00023F04EFF87401088002C333D8FC59
:1037000042AB123219F4529152935391DF22D3EF0C
:103710009DEE9C4007EF9DFFEE9CFE22C3ED9FFFB8
:10372000EC9EFE22ED4C6011E4120CA00429F9E499
:103730003AFAED1D70EE1C80EB22780DE6FF24179F
:10374000F582E43401F58322758A10538AEF220052
:103750009600960701F4009600960701F4EE30E714
:1037600007C3E49FFFE49EFE221232194291428871
:103770004391202204001E001901001900190102C2
:103780002000010200000000000000000000000016
:103790000000000000000000000000000000000029
:1037A0000000000000000000000000000000000019
:1037B0000000000000000000000000000000000009
:1037C00000000000000000000000000000000000F9
:1037D00000000000000000000000000000000000E9
:1037E00000000000000000000000000000000000D9
:1037F000000000000000000000000000000000BC0D
:1038000000000000000000000000000000000000B8
:1038100000000000000000000000000000000000A8
:00000001FF
