:10000000007E00AB02060000A51800000000000002
:1000100000000000000000000000000000000000E0
:10002000022657009600960701F4000224430400BC
:1000300014000A02061ED2AF320000020616D2AF2A
:10004000320000021AF00000000000022ED6121F3B
:10005000D09000A8120D4990001FE0FEA3E0FFE43D
:10006000FCFD120BB29000A8120D619000ACE4757B
:10007000F001120B1AC39000AFE094649000AEE060
:1000800094005003020A429000A8120D30ECC0E028
:10009000EDC0E0EEC0E0EFC0E09000ACE0FEA3E019
:1000A000FBEEFAE4F9F8D0E0FFD0E0FED0E0FDD0BE
:1000B000E0FC120C589000A8120D619000A8120DDF
:1000C000309000A6EEF0A3EFF0A3120D8600000022
:1000D00000E49000ACF0A3F0A3F0A3F09000E8E0FF
:1000E0007002A3E06003020A42900041E070030244
:1000F00008109000B0E07002A3E0605712292112AE
:100100000A43C394C8EE9400500A9000B2E475F01C
:1001100001120B1AD39000B3E094059000B2E09462
:10012000005023C39000BFE094329000BEE09400E2
:1001300040149000A1E0700302083112292912290D
:100140005640030208319000A07401F0E49000B022
:1001500002082E9000A2E0FEA3E0FF4E702D90005A
:10016000A6E0FDA3E09000A2CDF0A3EDF0122929B6
:10017000FD9000A4E5F0F0A3EDF09000B47401F060
:10018000A374F4F0E49000B202082E9000A6E0FC04
:10019000A3E0FD122DCA9000C0EEF0A3EFF0900096
:1001A000A0E06003020831C39000C1E09406900013
:1001B000C0E09400501B9000B4E07004A3E0640120
:1001C000600F122929FF9000A4E5F0F0A3EFF08062
:1001D000069000A07401F0122921120A43D3943230
:1001E000EE94004005E49000A0F09000A4E0FEA38F
:1001F000E0FF7C007D03120DD5ECC0E0EDC0E0EE29
:10020000C0E0EFC0E0122929FFAEF0E4FCFDD0E031
:10021000FBD0E0FAD0E0F9D0E0F8120BB2E47B04B6
:10022000FAF9F8120C589000A4EEF0A3EFF0802138
:10023000E49000A2F0A3F09000B4F0A3F09000A42A
:10024000F0A3F09000A0F09000B6F0A3F0A3F0A30C
:10025000F09000A0E07003020A42122935D3940006
:10026000EC94005003020A42122929FFAEF0122D2D
:10027000CA9000C9EEF0A3EFF0122929122932D357
:100280009FEC9E400CD39000CAE0946412297450F5
:1002900015C3ED9FEC9E50409000CAE0942C900056
:1002A000C9E094014032E49000A0F01229291229FB
:1002B000569000B0500E7401F0A374F4F0E4900076
:1002C000A1F0800D7407F0A374D0F09000A1740128
:1002D000F0E49000B2020A3F122929122932D39F7A
:1002E000EC9E500302099AD39000CAE0940A1229A6
:1002F00074500302099A9000B9E094B89000B8E0F5
:10030000940B400302099AC3ED9FFFEC9E9000CB33
:10031000F0A3EFF0D39000C1E094649000C0E094AB
:1003200000405212293ED39428EE94004030D3EF7F
:10033000943CEE9400400612296D743CF090000944
:1003400012292CFF122964C3EF9DFFE5F09C8FF06A
:10035000120B9312293E9000B8EE8FF0802B1229D9
:100360006D7405F090000912292CC39405122947D9
:1003700075F005801412296D04F090000912292CE3
:10038000C3940112294775F001120B1A9000B6E0D0
:10039000FEA3E0FFC394E8EE9403501E122964EF1D
:1003A0009DEE9C400E9000B7E09DF09000B6E09C62
:1003B000F08007E49000B6F0A3F012292912293248
:1003C000C39FEC9E4003020A429000CAE09432129E
:1003D00029745003020A42EF9DFFEE9CFE9000CB71
:1003E000F0A3EFF0D39428EE9400402CD3E0943C9B
:1003F0009000CBE094004006E4F0A3743CF0122996
:100400003E900009120DC3EE8FF0120B5B12293ED5
:100410009000B6EE8FF0801A12296D7405F09000EE
:1004200009120DC3E475F005120B5B9000B6E4757C
:10043000F005120B1A9000B8E0FEA3E0FFC394B8D9
:10044000EE940B501D122964EF9DEE9C400D900020
:10045000B9E09DF09000B8E09CF022E49000B8F084
:10046000A3F022FDACF0122DCA9000BEEEF0A3EF77
:10047000F022BB010689828A83E0225002E722BB78
:10048000FE02E32289828A83E49322BB01068982E9
:100490008A83F0225002F722BBFE01F322EF8DF097
:1004A000A4A8F0CF8CF0A428CE8DF0A42EFE22BC00
:1004B000000BBE0029EF8DF084FFADF022E4CCF8F4
:1004C00075F008EF2FFFEE33FEEC33FCEE9DEC9859
:1004D0004005FCEE9DFE0FD5F0E9E4CEFD22EDF8DF
:1004E000F5F0EE8420D21CFEADF075F008EF2FFF82
:1004F000ED33FD4007985006D5F0F222C398FD0F6A
:10050000D5F0EA22C2D5EC30E709B2D5E4C39DFDAF
:10051000E49CFCEE30E715B2D5E4C39FFFE49EFEF9
:10052000120A8FC3E49DFDE49CFC8003120A8F3005
:10053000D507C3E49FFFE49EFE22C5F0F8A3E028A0
:10054000F0C5F0F8E582158270021583E038F022DC
:10055000BB010A89828A83E0F5F0A3E02250068776
:10056000F009E71922BBFE07E3F5F009E319228938
:10057000828A83E493F5F074019322BB0107898298
:100580008A83020B1A500B09C5F027F7C5F01937FB
:10059000F722BBFE0D09F8E325F0F3C5F019E338A7
:1005A000F322F889828A8374019325F0C5F0F8E478
:1005B000933822BB010A89828A83F0E5F0A3F022F6
:1005C0005006F709A7F01922BBFE06F3E5F009F380
:1005D0001922EF2BFFEE3AFEED39FDEC38FC22C379
:1005E000EF9BFFEE9AFEED99FDEC98FC22E88FF070
:1005F000A4CC8BF0A42CFCE98EF0A42CFC8AF0EDAA
:10060000A42CFCEA8EF0A4CDA8F08BF0A42DCC385D
:1006100025F0FDE98FF0A42CCD35F0FCEB8EF0A495
:10062000FEA9F0EB8FF0A4CFC5F02ECD39FEE43C4F
:10063000FCEAA42DCE35F0FDE43CFC2275F00875F3
:100640008200EF2FFFEE33FECD33CDCC33CCC5820D
:1006500033C5829BED9AEC99E58298400CF582EEC9
:100660009BFEED9AFDEC99FC0FD5F0D6E4CEFBE4B1
:10067000CDFAE4CCF9A88222B800C1B90059BA0079
:100680002DEC8BF084CFCECDFCE5F0CBF97818EFD4
:100690002FFFEE33FEED33FDEC33FCEB33FB10D7D5
:1006A00003994004EB99FB0FD8E5E4F9FA22781896
:1006B000EF2FFFEE33FEED33FDEC33FCC933C910F1
:1006C000D7059BE99A4007EC9BFCE99AF90FD8E023
:1006D000E4C9FAE4CCFB2275F010EF2FFFEE33FEF5
:1006E000ED33FDCC33CCC833C810D7079BEC9AE868
:1006F00099400AED9BFDEC9AFCE899F80FD5F0DAE9
:10070000E4CDFBE4CCFAE4C8F922EB9FF5F0EA9ED5
:1007100042F0E99D42F0EC6480C864809845F02284
:10072000EB9FF5F0EA9E42F0E99D42F0E89C45F02F
:1007300022E8600FECC313FCED13FDEE13FEEF1384
:10074000FFD8F122E6FC08E6FD08E6FE08E6FF22F7
:10075000E0FCA3E0FDA3E0FEA3E0FF22E6FB08E649
:10076000F908E6FA08E6CBF822E0F8A3E0F9A3E0FE
:10077000FAA3E0FB22ECF608EDF608EEF608EFF639
:1007800022ECF0A3EDF0A3EEF0A3EFF022D083D0A3
:1007900082E493F608740193F608740293F60874E1
:1007A0000393F6740473A8828583F0D083D08212F9
:1007B0000D9D120D9D120D9D120D9DE473E493A3EA
:1007C000C583C5F0C583C8C582C8F0A3C583C5F07D
:1007D000C583C8C582C822A42582F582E5F0358389
:1007E000F58322E0FBA3E0FAA3E0F922EBF0A3EA11
:1007F000F0A3E9F022EC8EF0A4CCC5F0CCCDF8EF5C
:10080000A4CEC5F02DFDE43CFCE8A42EC8C5F03D07
:10081000FDE43CFCEFA4FFE5F028FEE43DFDE43CF4
:10082000FC229000CBEFF0A3ECF0A3EDF0EFC4546A
:10083000F024BB122886122DCAD3EF9428EE940020
:1008400040241228B1120D6D000000001228701211
:1008500028A2E4F6A3E0F8A3E0FF12286824BBC8AE
:10086000F608EFF68038122868122884D39400EE38
:100870009400402AA3E0FCA3E0FD9FEC9E500A12E6
:10088000286824BEF8740146F612287B24B8F9D3F0
:10089000ED97EC199740071228A9740246F6122822
:1008A0006824B1F8C0E0120D3C9000CCE0FEA3E05B
:1008B000FFE4FCFD120BB2D0E0F8120D5512287BBC
:1008C00024B5F80806E618700106EF75F007A424B1
:1008D00008F582E43406F583E493FE740193FF90F7
:1008E00000CBE0FDC454F024BAF9D3EF97EE19978A
:1008F0004003021084EDC454F024B5122886E4FCB1
:10090000FDC0E0C0E0EEC0E0EFC0E0E01228B612AB
:100910000D24D0E0FBD0E0FAD0E0F9D0E0F8120CE2
:10092000589000CE120D61122868122884EEC0E0A3
:10093000EFC0E09000CE120D30EFFDEEFCD0E0FFF6
:10094000D0E0FE122DCA9000D2EEF0A3EFF090009E
:10095000CBE0FD75F007A42403F582E43406F583AB
:10096000C37401939FE4939E4021EDC454F024B8D6
:10097000F9E7194760159000CBE0FBC454F024C0A0
:10098000F9C3E794B819E7940B501E12287B24B8DA
:10099000F9E71947700BEFC454F024BFF8E4F608E8
:1009A000F612286224B7021028EB60030210309080
:1009B00000D4F09000D2E0FEA3E0FFD394C8EE9400
:1009C000004006A37408F0803112286824BEF8E6BF
:1009D00064036026D3EF943CEE940040089000D46A
:1009E0007404F08015D39000D3E094289000D2E0F6
:1009F000940040069000D47402F0122868122884F3
:100A0000E4FCFD1228BDD3120D0040149000D4E088
:100A1000FF12286824B8F8EF26F618E436F6806747
:100A2000D39000D3E094C89000D2E09400405812D4
:100A3000286824B7F8C0E09000D4E0FFC308E69F20
:100A4000FF18E69400FED0E0F8EEF608EFF68037E7
:100A50001228681228844E700D1228BDEBFFEAFEA2
:100A6000E9FDE8FC80167C007D07120DD51228BD3B
:100A7000120BB2E47B08FAF9F8120C581228682419
:100A8000B7F8EEF608EFF61228B1120D6D0000006F
:100A9000001228701228A2E4F612286224BBF8EE95
:100AA000F608EFF612286824B7F8E6FC08E6FDD34E
:100AB0009400EC94004052A3E0FEA3E0FF122DCA84
:100AC0009000CBE075F007A42405F582E43406F528
:100AD00083D37401939FE4939E400A12287B1228CB
:100AE0008DE4F680249000CBE0FF75F007A4240786
:100AF000F582E43406F583E493FE12289AE6C39E59
:100B0000500712286812288D069000CCE0FEA3E062
:100B1000FF2212254E40030213CD900009120DC38F
:100B2000122506FDACF0D39FEC9E403790000912D1
:100B3000250FFFC3ED9FFFEC95F0FED3EF9430EE51
:100B40009475400C9000C97475F0A37430F0800C5B
:100B5000122506C39FFFE5F09E122573E49000C3A3
:100B60000211B412250CFFAEF090000912250FFD02
:100B7000ACF0C39FFFEC9EFED3EF9410EE942740A1
:100B80000C9000C97427F0A37410F0801212250C89
:100B9000FFC3ED9FFEEC95F09000C9F0A3CEF0905E
:100BA00000C9E0FFA3E09000C3CFF0A3EFF030074F
:100BB00018D3E0942C9000C3E0940140139000C53A
:100BC0007427F0A37410F08007E49000C5F0A3F040
:100BD000E49000C9F0A3F0900041E06040122527A6
:100BE000D39400EE648094804014D3EF9509EE9581
:100BF00008400B9000EEE4F0A37464F0801BD390E7
:100C000000EFE094009000EEE09400400C900006AD
:100C100012250FFFE5F0122573D204800F9000F229
:100C20007403F0A374E8F0E4FF122DA4D39000CA7B
:100C3000E094009000C9E06480948050030213A205
:100C4000E0FEA3E0FF90000612251E122527EE33DA
:100C500095E0FDFCE47BB87A88F9F8C3120CEA5001
:100C60000A9000C97488F0A374B8F0D39000F1E042
:100C700094009000F0E09400500778ABE664207098
:100C80001D122527C394C8EE648094805010EF9401
:100C900000EE6480948040357C007D0A8029300716
:100CA0002C900041E07011122527C39513EE951288
:100CB000501B7C027DBC800F122527C39509EE9541
:100CC00008500A7C027DBC120AE412257290004191
:100CD000E060799000F2E07002A3E070149000C927
:100CE000E0FEA3E0FDEEFCE4FF120E02122572808E
:100CF0002E12255C9000C9E0FCA3E0FD122DCAD3A2
:100D0000EF9428EE94004017D39000F3E094C8903D
:100D100000F2E09400400874FF75F09C120B1A1268
:100D2000255C7C007D07120DD5ECF8EDF9EEFAEFAD
:100D3000FB122527EE3395E0FDFC120BB2E47B0895
:100D4000FAF9F8120C58900036EE800B9000C9E0CA
:100D5000FFA3E0900036CFF0A3EFF012255CD39410
:100D600005EE9400400EEF9410EE940050069000B3
:100D7000C9EE8016900032E0FEA3E0FF900037E05D
:100D80002FFF900036E03E9000C9F0A3EFF0D39023
:100D900000CAE094309000C9E0648094F540077484
:100DA00075F0A37430F0E5DB5404704112252790F0
:100DB000000F12251E9000CAE024A8FF9000C9E091
:100DC0008022E5DB54047025122542900032E0FEBB
:100DD000A3E0FF90000F12251E90000F12250F2494
:100DE000A8FFE5F03461FE90000C12251E22900051
:100DF000D0120D8600002710E49000CBF09000CBBD
:100E0000E0C3940474809480400302150A902E1C61
:100E100074D5F0E044D6F05391FE758A30902E18C8
:100E20007403F0902E18E030E2F9902E00E0FFA35A
:100E3000E09000CCCFF0A3EFF0902E18E030E2F974
:100E4000902E02E0FFA3E09000CECFF0A3EFF09051
:100E50002E18E4F0758A10439101C2889000CEE00C
:100E6000FCA3E0FD7F011222B39000CEEEF0A3EFD1
:100E7000F090006FEEF0A3EFF090005DEEF0A3EFC6
:100E8000F0900059E07002A3E0700F90005DE0FF69
:100E9000A3E0900059CFF0A3EFF09000CCE0FCA3CA
:100EA000E0FDE4FF1222B39000CCEE122CBE9000C5
:100EB00071EEF0A3EFF090005DE0FCA3E0FDEF2DFC
:100EC000FFEE3CFE900059E0FCA3E0FDC3EF9DFF68
:100ED000EE9C9000CC122CBE900063EEF0A3EFF0DD
:100EE00090005BEEF0A3EFF0E4FCFD9000D7120D54
:100EF00061900067E0FCA3E0FDE4FF121970900030
:100F000067EEF0A3EFF09000D0122CB32400FFEEB8
:100F100034F0FE3395E0FDFC120BB29000D0120DC0
:100F2000619000CBE004F00213DDE47F507EC3FD4E
:100F3000FC9000D0120D49D3120CEA400A9000D068
:100F4000120D860000C350122CCBEC33500A9000D7
:100F5000D0120D860000000090006BE0FAA3E0FBC9
:100F60004A7005122CCB80227E007F02EBFDEAFC4A
:100F7000120DD5ECF8EDF9EEFAEFFB122CCB120BBB
:100F8000B2E47B03FAF9F8120C5890006BEEF0A370
:100F9000EFF0900057E07002A3E0700F90006BE05C
:100FA000FFA3E0900057CFF0A3EFF0900028122CA1
:100FB000B3FFE4FCFD120BB2900028120D6190000B
:100FC0002CE475F001120B1A90002CE0FEA3E0FF58
:100FD000D3940AEE94004029EFFBEEFAE4F9F8907E
:100FE0000028120D30120C58900026EEF0A3EFF0FE
:100FF000E490002CF0A3F0900028120D8600000071
:101000000090002EE07002A3E07031122CB6FF9029
:101010000026E0FCA3E0FD122DCA900024EEF0A310
:10102000EFF0D39406EE9400401290002E7403F07B
:10103000A374E8F0A3E475F001120B1A90006BE0C2
:10104000FEA3E0FF229000CCEFF0A3EDF09000D1E2
:10105000741FF0A374FFF0A37410F0A3E4F0902EBB
:1010600020E0FF9000D5E4F0A3EFF0902E20740173
:10107000F09000CDE0FF70139000D37408F0A3E46B
:10108000F09000D1740FF0A374FFF09000D3E0FC57
:10109000A3E0FD122A8475F002EF120DB7ECF0A365
:1010A000EDF0902E18E4F0A374B8F0E49000CEF0C8
:1010B0009000CEE0FFC3940D74809480400302172B
:1010C000C9EF04F89000D3E0FEA3E0088005CEC38A
:1010D00013CE13D8F9FF9000CFEEF0A3EFF04E70CF
:1010E000079000CFF0A304F0758A30902E18740397
:1010F000F0902E18E030E2F9758A109000CCE0FFF5
:1011000075F002902E00120DB7E0FCA3E0D394FE20
:10111000EC9407406475F004EF122A8BC083C08200
:101120009000CDE0D082D083122AAFEF2DFFEE3CAD
:10113000FED39000D2E09F9000D1E09E401E900030
:10114000CF122A7FC083C0829000CDE0D082D083AE
:10115000122AC3EE8FF0120B1A0217B89000D112A8
:101160002A7FC083C0829000CDE0D082D083122A33
:10117000C3EEF0A3EFF00217B8122A84C083C08236
:101180009000CDE0D082D083122AAFD3EF9DEE9CA9
:101190004030122A84C083C0829000CDE0D082D03B
:1011A00083122AC3C083C082C3A3E09DFF0582D5FA
:1011B000820215831582E09CD082D083F0A3EFF0E9
:1011C0008016122A84C083C0829000CDE0D082D0E5
:1011D00083122AC3E4F0A3F0902E18E4F0F0F58D0A
:1011E0009000CEE004F00216909000D5A3E0902E7F
:1011F00020F022D39000E9E09F9000E8E09E400AB2
:10120000A3E09FF09000E8E09EF0D39000EDE09F17
:101210009000ECE09E400CA3E09FF09000ECE09E7C
:10122000F08002D289D39000EBE09F9000EAE09E2C
:10123000400AA3E09FF09000EAE09EF0122AE550F9
:1012400006EE8FF0120B1AD39000EFE09F9000EEA5
:10125000E09E400AA3E09FF09000EEE09EF0D39065
:1012600000F1E09F9000F0E09E400AA3E09FF09024
:1012700000F0E09EF0D39000F5E09F9000F4E09E37
:10128000400AA3E09FF09000F4E09EF0D39000F3BA
:10129000E09F9000F2E09E400AA3E09FF09000F2F1
:1012A000E09EF0D39000C6E09F9000C5E09E400A0B
:1012B000A3E09FF09000C5E09EF0D39000F7E09F80
:1012C0009000F6E09E400AA3E09FF09000F6E09EBA
:1012D000F09000F9122ADA9000F8E09C400AA3E0AE
:1012E0009FF09000F8E09EF0122AF35006EE8FF087
:1012F000120B1AD39000B1E09F9000B0E09E400A1C
:10130000A3E09FF09000B0E09EF09000B5122ADAC2
:101310009000B4E09C400AA3E09FF09000B4E09EEF
:10132000F0EF2401FDE43EFCD3900074E09D9000BA
:1013300073E09C400AA3E09FF0900073E09EF0D31E
:101340009000C8E09F9000C7E09E400AA3E09FF095
:101350009000C7E09EF0122B0F500808EF26F618F9
:10136000EE36F6122B1A500808EF26F618EE36F66F
:10137000D390002FE09F90002EE09E400AA3E09FB4
:10138000F090002EE09EF0122B014003122AD3228F
:101390009000D5ECF0A3EDF09000D4EFF01223CC48
:1013A000E070279000D4E01223F7120D30E4FBFA2E
:1013B000F9F8C3120D0060129000D4E0122421123B
:1013C0000D30E4F8C3120D00706212243DEFFDEE03
:1013D000FC9000D5E0FEA3E0FF122DCA9000D4E0FF
:1013E000FD1223E4EEF0A3EFF0ED1223CCE0602336
:1013F000ED75F005A42411F582E434061223DAE039
:10140000FCA3E0D39FEC9E400A9000D4E01223CCD2
:101410007405F012237CE0D394007480948040061D
:101420001223CBE014F09000D7021AEC1223F21230
:101430000D309000DB120D61122420120D301224A9
:10144000059000D4E0122412E0F9F8120D11EFFB20
:10145000EEFAEDF9ECF812240B120BBF9000E31238
:101460000D619000DB120D309000D7120D49120B68
:10147000B29000E3120D49120BB29000DF120D6121
:1014800012243D1223F2122408122420122408EC04
:10149000C0E0EDC0E0EEC0E0EFC0E09000D4E012AC
:1014A000242FE0FEA3E0FBEEFAE4F9F8D0E0FFD051
:1014B000E0FED0E0FDD0E0FC120C58122405EEC096
:1014C000E0EFC0E012243DEFFDEEFCD0E0FFD0E005
:1014D000FE122DCA9000D4E0FD1223E4EEF0A3EF3B
:1014E000F0ED75F005A4240FF582E434061223DA3A
:1014F000E0FCA3E0D39FEC9E400F12237C7405F028
:1015000012243D9000DF120D619000DF120D302299
:10151000C0E0C0F0C083C082C0D0E8C0E0D2AFD38A
:101520009000E9E094009000E8E094004003122A63
:10153000D3D39000EDE094009000ECE094004005DF
:10154000122AD38002D289D39000EBE0940090005D
:10155000EAE094004003122AD3122AE55007E4750A
:10156000F001120B1AD39000EFE094009000EEE02F
:1015700094004003122AD3D39000F1E0940090002D
:10158000F0E094004003122AD3D39000F5E09400D9
:101590009000F4E094004003122AD3D39000C6E0F8
:1015A00094009000C5E094004003122AD3D3900029
:1015B000F7E094019000F6E094004003122AD3D3A0
:1015C0009000F9E094019000F8E094004003122AA2
:1015D000D3122AF35007E475F001120B1AD39000CE
:1015E000B1E094009000B0E094004003122AD3D3FD
:1015F0009000B5E094019000B4E094004003122AFA
:10160000D3D3900074E09401900073E09400400301
:10161000122AD3D39000C8E094009000C7E0940051
:101620004003122AD3122B0F50070806E618700148
:1016300006122B1A50070806E618700106D3900010
:101640002FE0940090002EE094004003122AD31261
:101650002B014003122AD3D0E0F8D0D0D082D0831F
:10166000D0F0D0E0329000C97402F0A374BCF0D383
:101670009000C8E094009000C7E09400401112254B
:101680000CFF900009120DC3E5F08FF0120B939040
:1016900000E8E07002A3E0600B9000C9E4F0A374DE
:1016A00064F080097840E664117002762090004171
:1016B000E06006122586022EC0900042120D49E815
:1016C000C0E0E9C0E0EAC0E0EBC0E012250CFFAEEC
:1016D000F0E4FCFDD0E0FBD0E0FAD0E0F9D0E0F897
:1016E000120BB2900042120D6190004612259C90A0
:1016F00000C91225B890004BE09F90004AE09E5030
:1017000003021D7E900042120D30ECC0E0EDC0E0FF
:10171000EEC0E0EFC0E09000461225A3D0E0FFD07D
:10172000E0FED0E0FDD0E0FC120C58900042120D1B
:101730006190000912250F246EFFE435F0FEE4FCF1
:10174000FD900042120D49D3120D00402E9000E88A
:10175000E07002A3E0702420042190004812259D2F
:10176000D3900049E09405900048E094004018129E
:101770002515E4900048F0A3F0800C122515E490A4
:101780000048F0A3F0C204900042120D8600000051
:1017900000E4900046F0A3F090004AF0A3F022127B
:1017A000254E4003021EA93007209000C5E07002BC
:1017B000A3E06008751227751310800675121B755B
:1017C000135875081775097080629000F6E0700272
:1017D000A3E0704C9000181225B894D0EE940750F6
:1017E0004B7C007D0A120A7D7D64120A8FA3EEF005
:1017F000A3EFF0D39490EE9401400990001AE4F026
:10180000A374C8F090001AE0FEA3E0FF242CF513A7
:10181000EE3401F512EF24FAF509E43EF508800CE8
:1018200075120175132C7508007509FA90000612DF
:10183000250FFFAEF0C39513EE9512500F900041A7
:10184000E06033C3EF9509EE9508402A9000F0E080
:101850007002A3E0705690004104F090000612253B
:101860000FFFAEF0C394D0EE94075040900018EEF6
:10187000F0A3EFF0803678ABE664209000F07005BE
:10188000F0A3F08006E4F0A374C8F0E4900041F007
:10189000900018F0A3F09000F6F0A3F090001AF07A
:1018A000A3F09000EEF0A3F0785C7610900041E099
:1018B000FF6012784AE66410785C7004761080024B
:1018C00076201225917871EFF6227B007A00792636
:1018D0007D8B7C00122EC07B017A0079017DC87C53
:1018E00000122EC07B017A0079E77D187C00122E51
:1018F000C0902DE0E4937827F6782A7611087622B6
:10190000087633902DE2E4937838F6A3E493783A9E
:10191000F678AD7601785C761078AB7610784A76FA
:10192000100876207B007A007966900003120DCCB7
:101930007A00796A900009120DCC7A0079689000DB
:1019400006120DCC7A00795490000C120DCC7A005E
:10195000794E900012120DCC7A00795090000F123F
:101960000DCC7A007986900021120DCC7A00793E58
:1019700090003B120DCC7A007941900038120DCCCA
:101980007A007958900015120DCC7A00795A90009F
:101990001C120DCC900015120DC3740175F02C12A1
:1019A0000B937B007A00797690003E120DCC78780C
:1019B000760F08760E087607787E760F08760D0883
:1019C000760790001C120DC3E475F0FA120B93C257
:1019D0000775120175132C7508007509FA122D0F81
:1019E0009000E87407F0A374D0F0E49000E7F022D0
:1019F000758D20438D20538D7FE4F5B275B6FF754C
:101A0000B7FF75B2A243B20153A8FB538B7F758B0E
:101A100010438B08E58B20E7030080F8538B7F751C
:101A20008B11438B08E58B20E7030080F8900112AF
:101A3000E5B5F0A3E5B4F0758B01E4F5B2122E889C
:101A4000E4F58D122F2A4E7010122F21FD90001FE9
:101A5000E5F0F0A3EDF00220AE122F21FDACF01264
:101A60002DCAD3EF940AEE94004024122F21FFC315
:101A7000900020E09F90001FE095F05006E475F084
:101A800001800790001F74FFF5F0120B1A803F12BF
:101A90002F2A7C007D03120DD5ECC0E0EDC0E0EEF6
:101AA000C0E0EFC0E0122F21FFAEF0E4FCFDD0E07B
:101AB000FBD0E0FAD0E0F9D0E0F8120BB2E47B04FE
:101AC000FAF9F8120C5890001FEEF0A3EFF0122F65
:101AD0002A7C007D19120DD5E47B64FAF9F8120C0A
:101AE000589000BAEEF0A3EFF0A3E07002A3E0700C
:101AF0000D9000BAE0FFA3E0A3CFF0A3EFF0229097
:101B0000007F1225B89404EE94005026900001E066
:101B1000FCA3E0FDEF25E0FFEE33FE74772FF582A6
:101B200074003EF583ECF0A3EDF090007F12259C4D
:101B300080449000CD7401F09000CDE0FFC3940488
:101B4000748094805021EF122565FCA3E0FDEF2501
:101B5000E02475F582E43400F583ECF0A3EDF09019
:101B600000CDE004F080D1900001E0FFA3E0900000
:101B70007DCFF0A3EFF09000C9120D8600000000A9
:101B8000E49000CDF09000CDE0FFD3900080E09F86
:101B900090007FE0940040259000C9120D4990000C
:101BA000CDE0122565FEA3E0FFE4FCFD120BB29030
:101BB00000C9120D619000CDE004F080C89000C90A
:101BC000120D30ECC0E0EDC0E0EEC0E0EFC0E09000
:101BD000007F1225A3D0E0FFD0E0FED0E0FDD0E0F2
:101BE000FC120C589000C9120D619000C9020D3012
:101BF000E4F525F524F523F522F525F524F523F55F
:101C000022F5211225AE502AE52125E0240AF8E626
:101C1000FE08E6FFE4FCFDE5252FFFE5243EFEED92
:101C20003523FDEC35228F258E248D23F5220521C9
:101C300080D1E47B03FAF9F8AF25AE24AD23AC22C2
:101C4000120C5890009DEEF0A3EFF0E47525A875F6
:101C50002461F523F522F5211225AE505190009D07
:101C6000122530122DCAD3EF940AEE940040129040
:101C7000009DE0FEA3E0FF900057E0FCA3E0FD80A4
:101C800007900057122530C3EF9DFFEE9CFE339561
:101C9000E0FDFCE5252FFFE5243EFEE5233DFDE5C7
:101CA000223C8F258E248D23F522052180AAE47FF6
:101CB000607EEAFDFCAB25AA24A923A822D3120D3D
:101CC00000400BE47525607524EAF523F522AE2467
:101CD000AF25229000D4EFF0A3ECF0A3EDF090003C
:101CE000D8120D86000000009000D5E0FEA3E0FFB2
:101CF0009000D4E0FD122C96C083C082ED122CA47B
:101D0000FD04F0D082D08375F002ED120DB7EEF035
:101D1000A3EFF09000D4E0122CA475F00684E5F057
:101D2000F0E49000D7F09000D7E0FFC394067480F1
:101D30009480504D122C9275F002EF120DB7E0FE18
:101D4000A3E04E9000D87008120D499000D580187D
:101D5000120D49122C92C083C0829000D7E0D0822D
:101D6000D08375F002120DB7E0FEA3E0FFE4FCFDA6
:101D7000120BB29000D8120D619000D7E004F080F1
:101D8000A59000D8120D30E47B06FAF9F8120C5831
:101D90009000D8120D619000D8020D309000D7123B
:101DA0000D309000D4E0FB75F00EA42405F582E41C
:101DB0003401F583120D61EB75F00EA4240DF5824C
:101DC000E43401F583E0FEA3E0FFE4FCFD9000D7DE
:101DD000120D49120BCD9000D4E0FB75F00EA42437
:101DE00001F582E43401F583120D61EB75F00EA468
:101DF0002409F582E43401F58322F583E493FE742B
:101E00000193FFED75F00EA4240AF582E43401F588
:101E100083229000D4E0FB75F00EA42405F582E443
:101E20003401F583229000DF120D619000DF020D76
:101E300030ED75F00EA4240CF582E43401F5832214
:101E4000EB75F00EA42401F582E43401F5832275CC
:101E5000F00EA4240DF582E43401F583229000D71E
:101E6000020D30C0E0C083C082C0D075D018D2AFA0
:101E7000E5DB30E41DD205C202E5DB30E10F122EB6
:101E8000F16407705ED289782DF60224F7C2010250
:101E900024FAE5DB30E52B78AAE664AA7017758A88
:101EA00010F5DAC2AFF5B2F5A8F5A9F58B758E017C
:101EB000758DC080FED200300204C202805CC20573
:101EC0008058C202E5DB30E11CE5DB30E04C122E2D
:101ED000F124F9600824EE700AD2068006D28978CF
:101EE0002D7600803220010A7814A6DFD201D202BA
:101EF00080287814E6FFFD7C00C3948B7480948066
:101F0000500674262FF8A6DFED64244C700990006B
:101F1000EA04F0A374F4F078140675DBFFD0D0D097
:101F200082D083D0E032120B30FFAEF0900003126B
:101F30000DC3020B30900042120D30900009120DBB
:101F4000C3EE8FF0020B939000C9E0FEA3E0FF22E6
:101F5000E52125E0240AF8E6FE08E6FFE0FCA3E020
:101F6000FD22900006120DC3E4F5F0020B93D3900E
:101F700000E9E094009000E8E0940022900036E050
:101F8000FEA3E0FF2225E02477F582E43400F58308
:101F9000E022EE9000C9F0A3EFF022120DC37461AD
:101FA00075F0A8020B937B017A0079427D0A7C00D0
:101FB000229000EA7403F0A37420F022E475F0018B
:101FC000020B1AE0FEA3E0FBEEFAE4F9F822C3E507
:101FD0002194037480948022E0FEA3E0FFC32212C8
:101FE0002B25122E49E490007FF0A3F090006BF0B7
:101FF000A3F0900069F0A3F090006DF0A3F07F03D0
:102000001226E6900001E0FEA3E0FFA312251E9039
:102010000001E0FEA3E0FF12251B12254290000CF8
:1020200012257B90001212257B90000F122545E4AB
:10203000900041F07B017A0079A07D20FC122EC037
:10204000122586122EC0E49000F4F0A3F0785C769E
:10205000107871F61225919000FEE0700FC3900089
:10206000E9E094F49000E8E09401500A9000E874EC
:1020700001F0A374F4F022787FE4F6D8FD7581C0F6
:102080000226A1020000022A2AE493A3F8E493A303
:102090004003F68001F208DFF48029E493A3F854AA
:1020A00007240CC8C333C4540F4420C8834004F42D
:1020B00056800146F6DFE4800B0102040810204040
:1020C00080902D7EE47E019360BCA3FF543F30E5F9
:1020D00009541FFEE493A360010ECF54C025E060B5
:1020E000A840B8E493A3FAE493A3F8E493A3C8C583
:1020F00082C8CAC583CAF0A3C8C582C8CAC583CA74
:10210000DFE9DEE780BE9000C9EFF0E4A3F09000C5
:10211000C9E0FFA3E0C39F50361213CE122F3390B5
:10212000006DEEF0A3EFF08E10F5117B007A0079D0
:102130000C9000CE120DCC9000D1E4F0A37406F008
:102140007A00790A122B769000CAE004F080BF1260
:1021500021D0900001EEF0A3EFF0900034E0FEA358
:10216000E0FF90006BE0FCA3E0FD122DCA7C007D37
:1021700005120A8F900032ECF0A3EDF090006BE0B6
:10218000FFA3E0900034CFF0A3EFF02230897890E5
:1021900000E8E07002A3E0706E900073E07002A3AC
:1021A000E07064F5B2758D20438D20758D9043A845
:1021B00008D2AF758B4090002EE0FEA3E0FF4E608A
:1021C00005758E148003758E3F20002F20052CE5A9
:1021D000DB54047026758A80200520E5DB540470EA
:1021E0001AF586758703000000758601EF4E6004BE
:1021F0007F2880027F7F7E001217D3758B01758A3E
:102200001053A8F7122E88227846E66420700276D2
:1022100021900038120DC3120B30641045F070038A
:10222000122C517827E664AA70031229D3122BC707
:102230002003077840E66410700C78407611C203E2
:102240009000E77401F078ADE66006E4F69000E7F0
:10225000F0900073E07004A3E064017015900073C7
:10226000F0A3F09000C77407F0A374D0F0E49000DE
:10227000E7F030000CC2009000EA7401F0A374F49F
:10228000F0229000CE120D309000CBE0C454F0222A
:10229000EBC454F024B5F8E4F608F69000CBE0FF68
:1022A000C454F02224B7F8E6FE08E6FF2224B7F86B
:1022B000E6FD08E6A3CDF0A3EDF0EFC454F024BD95
:1022C000F82224B9F8E4F608F6EFC454F024BEF876
:1022D000229000CBE0FBC454F024B1F8229000CE51
:1022E000020D499000ECE07004A3E06401701078E6
:1022F0002DE66004D289E4F6E49000ECF0A3F090BF
:102300000000E0785C666038E6FDF0782DE690012C
:1023100000F0540FF0EDFF7E0064207007E04420D1
:10232000F0F68010EF64104E700A900100E0441047
:10233000F0782DF6C2899000EC7403F0A374E8F0F5
:10234000229000A4E0FEA3E0FF900006120DC3025D
:102350000B30FFAEF09000A4E0FCA3E0FD22900063
:10236000CBE0FEA3E0FF22FFE5F094008FF0120B1C
:10237000939000B8E422FFC39000A5E09F9000A4D2
:10238000E095F0229000CBE0FCA3E0FD229000CB92
:10239000E4F0A3229000C9E0940022E490004CF005
:1023A000A3F07B017A0079577D04FC122EC0902E99
:1023B00016E4F0A3F0902E14F0A3F07F01122E6B20
:1023C0007F01122CD190003E122ACC120B93902E3A
:1023D00012E4F0A3F0902E107403F0A37420F0E444
:1023E000FF122E6B78437610E4FF122CD1122AC90B
:1023F000020B93E49000C9F0A3F0A3742FF0A37430
:10240000DFF0E4FDF9122EEA007C069000C9E0FE40
:10241000A3E02DF582EE3CF583E493FF69F90DBD51
:1024200000010CBC2FE5BDDFE29000CBE0FEA3E095
:10243000F5828E83E493FFE96F7006782776068035
:1024400004E47827F6122EEA002253A87F122EFD0C
:10245000121EAA122DE4122E8843A880E4F58D786E
:10246000AB76201227E89000E7E014601214601A9F
:10247000240270E812297B9000E77401F080DD12DD
:1024800025BF9000E77402F080D2122E267846E62F
:10249000FF642060C7EF642160C212276C80BDE03A
:1024A000FEA3E0FF9000CCE075F004902E10020D2A
:1024B000B7E0FEA3E0FF7C007D19120DD5E47B0A96
:1024C000FAF9F8120C589000CCEE8FF0020B1A7546
:1024D000F002120DB7E0FEA3E0FF9000CFE0FCA3F6
:1024E000E0FD2275F002020DB790003B120DC3EE25
:1024F0008FF02274FFF5F0020B1AEF2401FDE43E89
:10250000FCD3E09D22C390004BE094BC90004AE0D5
:10251000940222C39000AFE094649000AEE0940077
:1025200022D39000F3E094009000F2E0940022C3E4
:1025300078C0E694B818E6940B22C378BAE694F40F
:1025400018E69401227B017A0179017D0E7C00124C
:102550002EC0E4FDEDC39401748094805037ED7576
:10256000F005A4240EF582E43406F583E493FF120B
:102570002411EFF0122411E004F87E0074010880A9
:1025800005C333CE33CED8F9FFED12242FEEF0A3DE
:10259000EFF00D80BF229000D3120DCC9000CE1230
:1025A0000DC39000D6120DCC9000D1E07002A3E0D4
:1025B00060349000D6120DC3120A52FF9000D3125D
:1025C0000DC3EF120A6B9000D4E475F001120B1AE0
:1025D0009000D7E475F001120B1A9000D174FFF54A
:1025E000F0120B1A80C2227839E6FF9000FFE06FEC
:1025F000600CEFF09000F87402F0A37458F09000B3
:10260000F8E07004A3E0640170259000FFE0FF7E15
:102610000064107002D207EF64204E7002C2077887
:102620004BE664106002D203E49000F8F0A3F022BD
:1026300030063D20073AC206902E12E0FFA3E0903C
:1026400000C9CFF0A3EFF0E4FF122E6BE4FF122CD1
:10265000D1122AC9120B939000C9E0FFA3E0902E7B
:1026600012CFF0A3EFF09000EA7403F0A37420F00F
:1026700022E49000C9F0A3F0122EEA00122EA475F5
:10268000EA81E4F5F475F306F5F275EB0700E5EC85
:1026900030E7FBAFF3EFFEADF2EDFF900038120D27
:1026A000C3EE8FF0120B93E4F5EC75EB30122EEACB
:1026B00000229000D4E075F00DA42481F582E4346A
:1026C00000F5832275F00DA4248DF582E43400F525
:1026D00083E022120D49900067E0FEA3E022F0A300
:1026E000EFF09000CCE0FEA3E0FF229000D0020DBE
:1026F000309000CBEFF0E4A3F0A3F0EF700F900068
:102700004CE0FFA3E09000CCCFF0A3EFF09000CB23
:10271000E075F004902E12120DB7122A919000CBA2
:10272000122A87122A919000CCE0FEA3E0FF22E457
:10273000FFEFC3941374809480502BEF25E02401A5
:10274000F582E4342EF583E493FEEF25E02400F5D2
:1027500082E4342EF583E4932418F582E4342EF5D4
:1027600083EEF00F80CB22900058E02430FF9000E1
:1027700057E034F8FEC390006CE09F90006BE09E41
:102780005014900073E07002A3E070119000730485
:10279000F0A374F4F022E4900073F0A3F022C105DA
:1027A000C10641010000C1074100FF00C101011441
:1027B00000C100C102C104C1034100001043010F68
:1027C000010112009000CBEFF0E075F010A424B1ED
:1027D000F9E4FAFB7D10FC122EC09000CBE0C4544B
:1027E000F024BFF8760B0876B822D3EF9DEE9C401C
:1027F00007EF9DFFEE9CFE22C3ED9FFFEC9EFE22A5
:102800000602AB7EE4F5DA75DA4043DA2075D7408C
:1028100075D64075DA5843A80275B80275F80222D9
:10282000080204D401B80230030005F806F307FFDC
:1028300009800B1410100A010F010C0F110F0D0E5F
:10284000120D0E0713077F011226E61220DF9000FB
:102850000312251E12062E1210F2121D7F121C45A5
:102860001228C3122D47022C107B017A0079817D3A
:102870001A7C00122EC07B017A00795B7D047C00FB
:10288000122EC0E4900067F0A3F0229000CBEFF08E
:102890005391FEE0FF122F0F9000CBE0FF7D01125D
:1028A0001625439101C28822E5B254016006E5A8CD
:1028B0005410700F75B29275B6F9E4F5B743B201D2
:1028C00043A8102274AA7583F5758255A5745575B1
:1028D00083FA7582AAA574A57583F5758255A5221C
:1028E000ED4C6011E4120A6B0429F9E43AFAED1D8B
:1028F00070EE1C80EB22C0E0C083C082D2AF902E6D
:1029000018E4F0D082D083D0E032758A10538AEF79
:10291000227814E6FF2426F8E6F5DFEF22758A1008
:10292000538AEF75860175910FE4F5A8D28922EFDD
:10293000F87401088002C333D8FC44D4902E1CF0F4
:102940002290010F120DC3020B3090001FE0FEA376
:10295000E0FF2290006BE0FEA3E0FF900069EEF044
:10296000A3EFF022000000000000000000000000C3
:102970000000000000000000000000000000000057
:102980000000000000000000000000000000000047
:102990000000000000000000000000000000000037
:1029A0000000000000000000000000000000000027
:1029B0000000000000000000000000000000000017
:1029C0000000000000000000000000000000000007
:1029D00000000000000000000000000000000000F7
:1029E00000000000000000000000000000000000E7
:1029F0000000000000000000000000000000005087
:102A000000000000000000000000000000000000C6
:102A100000000000000000000000000000000000B6
:00000001FF
