:10000000004B0000000100001A1E0000000000006C
:1000100000000000000000000000000000000000E0
:10002000022D4C0102200001020000023408023DB2
:10003000EB0000020826D2AF320000020816D2AF51
:1000400032000002257AD2AF32000002081E7F0281
:100050001239D6122CCC902E20E030E2F99008080C
:10006000E493902E00122C47E0FFA3E090026ACFA9
:10007000F0EF122CFE7F02123EA4900081E0FEA35E
:10008000E0FF4E700E90026AE0FCA3E0FDECFEED96
:10009000FF8014EF25E0FFEE33FE90026BE02FFFB0
:1000A00090026AE0122D32900081EEF0A3EFF09002
:1000B000007BE07002A3E0700F900081E0FFA3E0FE
:1000C00090007BCFF0A3EFF09002647401F0122C4B
:1000D000B65010EF122C5112111E00002710122DD5
:1000E0003B80EBE4900265F0900265E0C3940674F7
:1000F0008094804003020BDC9002647401F0122CA7
:10010000B64003020BD3A3E02401FDE433FC74CF1B
:100110002F122D42D3ED9F7480F86C984003020B90
:10012000CD900264E0FF1239D6900264E0FF122CF9
:10013000CC902E20E030E2F9900264E0FF900806B7
:1001400093902E00122CB0E0FCA3E0FDEF122C9354
:10015000ECF0ED122CFE900264E0FF123EA4122C93
:100160008EE0FCA3E075F002900095122D15900230
:1001700064E06401704E90007BE0FEA3E0FFE4C009
:10018000E0C0E0EEC0E0EFC0E0900081E0FEA3E060
:10019000FBEEFAE4F9F8D0E0FFD0E0FED0E0FDD0CD
:1001A000E0FC120F95E47B04FA120FA3E47B0AFA39
:1001B000F9F8123C2F900264E0122C93EE8FF012AB
:1001C0000E76802E122C8EE0FCA3E0FD90007BE0EA
:1001D000FAA3E0FBED2BFDEC3AFC900081E0FAA3E2
:1001E000E0FBC3ED9BFDEC9AFCEF122C93ECF0A32B
:1001F000EDF074FFF509F50AF50BF50CE4F50DF5D6
:100200000EF50FF510F514F513F512F511122C8EED
:10021000E0FCA3E075F01290010F122D15E4F50833
:10022000C3E5089408748094804003020AF09002A9
:1002300064E0FF900101122C3FE0FCA3E04C600C55
:1002400075F012EF900101122C428007900264E0D9
:10025000122C93E0FEA3E0FF900264E0FD122C3C20
:10026000EEF0A3EFF0ED122CE9122C42E0FEA3E039
:10027000D3950EEE950D4016850D0F850E1090024C
:1002800064E0122C3CE0F50DA3E0F50E801C122C6E
:1002900037E0FCA3E0D39510EC950F400D122CE84D
:1002A000122C42E0F50FA3E0F510122C37E0FCA36E
:1002B000E0C3950AEC9509501585090B850A0C12C7
:1002C0002CE8122C42E0F509A3E0F50A801C122C60
:1002D00037E0FCA3E0C3950CEC950B500D122CE815
:1002E000122C42E0F50BA3E0F50C900264E0122C16
:1002F0003CE0FEA3E0FFE4FCFDE5142FFFE5133E28
:10030000FEED3512FDEC3511122C850508020A00B0
:10031000AE0DAF0EEFFB122C71AE0FAF10122C6EA4
:10032000AE09AF0A122C6EAE0BAF0C122C6EFC781D
:10033000021210E7900264E0900123122C9F122D0C
:1003400020122C66FF4E700E122CACE0FAA3E0FBDC
:10035000EAFEEBFF8014EF25E0FFEE33FE122CAC3B
:10036000E0FCA3E02FFFEC122D32122CC390007D95
:10037000122CA3122C5F4E7011122D20122C66FF2E
:1003800075F002ED900083122CA3900264E09000BF
:1003900083122CDCFDECC0E0EDC0E0EF122D211249
:1003A0002C66FFE4FCFD900277121112900264E0CB
:1003B00090027BF0D0E0FDD0E0FCE4FF1214DD9071
:1003C0000264E0900083122C9FED122C51C083C078
:1003D00082121106122C5F2400FFEE34E8FE3395E2
:1003E000E0FDFC120F88D082D083121112122D3B37
:1003F0000208DE900265E004F00208C8902E23E4B3
:10040000F090026404F0122CB64003020DADEF121E
:100410002C51C083C082121106E8C0E0E9C0E0EAB6
:10042000C0E0EBC0E0900264E024CF122D42FBE478
:10043000FAF9F8122C4D1210FA123C2FD0E0FBD032
:10044000E0FAD0E0F9D0E0F8120F88D082D0831221
:100450001112122C4D1210FAE47B507AC3F9F8C332
:100460001210C0500A122C4D12111E0000C35090E1
:100470000264E0FF122C51121106E833500BEF1208
:100480002C5112111E00000000900264E090008DBB
:10049000122CDC4C7009EF122C511210FA802C90A7
:1004A0000264E090008D122C63FF7C007D0212112B
:1004B0006DECF8EDF9EEFAEFFB122C4D1210FA127A
:1004C0000F88E47B03FAF9F812102E122CC3900067
:1004D0008D12114FEEF0A3EFF075F002ED90007762
:1004E000122C664E701575F002ED90008D122C6680
:1004F000FF75F002ED900077122CA3900264E0FFEC
:10050000122D0CC083C082121106EF122C60FFE482
:10051000FCFD120F88D082D083121112900264E089
:10052000FF75F00290003512114FE475F001120EC4
:100530007675F002EF900035122C66FFD3940AEE28
:1005400094004035EFFBEEFAE4F9F8900264E01213
:100550002D0C1210FA12102E122CC3900029122CFE
:10056000A3900035122CAFE4F0A3F075F004ED1267
:100570002D0F12111E00000000900039E07002A340
:10058000E07044900264E0FD122C60FF75F002ED13
:10059000900029122CE0FD123E3A122CC390002547
:1005A000122CA375F002ED900025122C66D3940650
:1005B000EE940040129000397407F0A374D0F0A3B9
:1005C000E475F001120E76122D3B020BE622BB0100
:1005D0000689828A83E0225002E722BBFE02E322E0
:1005E00089828A83E49322BB010689828A83F0226E
:1005F0005002F722BBFE01F322EF8DF0A4A8F0CF4A
:100600008CF0A428CE8DF0A42EFE22BC000BBE00E0
:1006100029EF8DF084FFADF022E4CCF875F008EFFF
:100620002FFFEE33FEEC33FCEE9DEC984005FCEE24
:100630009DFE0FD5F0E9E4CEFD22EDF8F5F0EE8455
:1006400020D21CFEADF075F008EF2FFFED33FD401A
:1006500007985006D5F0F222C398FD0FD5F0EA2294
:10066000C2D5EC30E709B2D5E4C39DFDE49CFCEEB5
:1006700030E715B2D5E4C39FFFE49EFE120DEBC335
:10068000E49DFDE49CFC8003120DEB30D507C3E430
:100690009FFFE49EFE22C5F0F8A3E028F0C5F0F825
:1006A000E582158270021583E038F022BB010A89C9
:1006B000828A83E0F5F0A3E022500687F009E7196B
:1006C00022BBFE07E3F5F009E3192289828A83E45D
:1006D00093F5F074019322BB0110E58229F582E5C0
:1006E000833AF583E0F5F0A3E0225009E92582F88A
:1006F00086F008E622BBFE0AE92582F8E2F5F0085A
:10070000E222E5832AF583E993F5F0A3E99322BB7E
:10071000010DC58229C582C5833AC583020E765074
:1007200011C58229F808E5F026F618F5F0E58236BD
:10073000F622BBFE11C58229F808E225F0F5F0F299
:1007400018E23582F222F8E58229F582E5832AF55E
:100750008374019325F0F5F0E4933822BB010A89F4
:10076000828A83F0E5F0A3F0225006F709A7F0197A
:1007700022BBFE06F3E5F009F31922F8BB0111E5EF
:100780008229F582E5833AF583E8F0E5F0A3F022CB
:100790005009E92582C8F608A6F022BBFE09E92522
:1007A00082C8F2E5F008F222EF2BFFEE3AFEED39B7
:1007B000FDEC38FC22C3EF9BFFEE9AFEED99FDECB9
:1007C00098FC22E88FF0A4CC8BF0A42CFCE98EF0EE
:1007D000A42CFC8AF0EDA42CFCEA8EF0A4CDA8F0A9
:1007E0008BF0A42DCC3825F0FDE98FF0A42CCD356D
:1007F000F0FCEB8EF0A4FEA9F0EB8FF0A4CFC5F0D7
:100800002ECD39FEE43CFCEAA42DCE35F0FDE43CCF
:10081000FC2275F008758200EF2FFFEE33FECD331A
:10082000CDCC33CCC58233C5829BED9AEC99E58261
:1008300098400CF582EE9BFEED9AFDEC99FC0FD5ED
:10084000F0D6E4CEFBE4CDFAE4CCF9A88222B800DD
:10085000C1B90059BA002DEC8BF084CFCECDFCE5A8
:10086000F0CBF97818EF2FFFEE33FEED33FDEC33CC
:10087000FCEB33FB10D703994004EB99FB0FD8E551
:10088000E4F9FA227818EF2FFFEE33FEED33FDEC9A
:1008900033FCC933C910D7059BE99A4007EC9BFC90
:1008A000E99AF90FD8E0E4C9FAE4CCFB2275F0101C
:1008B000EF2FFFEE33FEED33FDCC33CCC833C81041
:1008C000D7079BEC9AE899400AED9BFDEC9AFCE86F
:1008D00099F80FD5F0DAE4CDFBE4CCFAE4C8F922BC
:1008E000EB9FF5F0EA9E42F0E99D42F0EC6480C88F
:1008F00064809845F022EB9FF5F0EA9E42F0E99D76
:1009000042F0E89C45F022E8600FECC313FCED13C5
:10091000FDEE13FEEF13FFD8F122E0FCA3E0FDA3F0
:10092000E0FEA3E0FF22E0F8A3E0F9A3E0FAA3E0F1
:10093000FB22ECF0A3EDF0A3EEF0A3EFF022A882EF
:100940008583F0D083D08212113512113512113502
:10095000121135E473E493A3C583C5F0C583C8C5FC
:1009600082C8F0A3C583C5F0C583C8C582C822A4C8
:100970002582F582E5F03583F58322E0FBA3E0FADA
:10098000A3E0F922EBF0A3EAF0A3E9F022EC8EF069
:10099000A4CCC5F0CCCDF8EFA4CEC5F02DFDE43C41
:1009A000FCE8A42EC8C5F03DFDE43CFCEFA4FFE547
:1009B000F028FEE43DFDE43CFC229002611223029B
:1009C00040030214DC12226DFF1221FA12231212CC
:1009D00021F6120EB7D39DE5F09C404312226D1212
:1009E00021FA1223121221F61223529430EE94753A
:1009F000400C9002627475F0A37430F080101222E3
:100A00006DFF1221FA1223121221F61222E2900235
:100A100061E075F0029000E912114FE402126512D4
:100A200021D91223529410EE9427400C9002627444
:100A300027F0A37410F080061221D91222E21222AC
:100A400089900261E0FD75F0029000E912225730B2
:100A5000052575F002ED9000E912220ED3942CEEDC
:100A60009401401D75F002ED9000ED12114F7427B6
:100A7000F0A37410F0800A75F002ED9000ED1222E0
:100A80004BE4900262F0A3F0122224E0605E122296
:100A9000F3D39400EC64809480401EEF25E0242181
:100AA00012229ED3ED9FEC9E400F900261E0122235
:100AB000CCE4F0A37464F0801C900261E0FF122289
:100AC000CC1223A7400F9000081221F6120EB7FF98
:100AD000E5F0122366900261E0FF12231C7401F01E
:100AE00012233B740FF0A374A0F0800D12227874CF
:100AF00003F0A374E8F0123D5CD3900263E094002D
:100B0000900262E0648094805003021492E0FEA39D
:100B1000E0FF9000081222701221FA12235FEE33D8
:100B200095E0FDFCE47BB87A88F9F8C31210C05058
:100B30000A9002627488F0A374B8F030053C122267
:100B400024E07016EF25E02439F8E6FC08E6FD12F3
:100B50002289C39DEE9C505D801A900261E025E0E1
:100B60002421F8E6FC08E6FDA3E0FEA3E0FFC39D18
:100B7000EE9C50417C007DC880359002611222A518
:100B80001223A7500890021AE064207028EF25E095
:100B9000242112229E1222F3C39FEC9E5017ED9443
:100BA00000EC64809480400D1222897C007D0A1242
:100BB0000E40122365122224E06074EF12227DE0C1
:100BC000FEA3E04E7011900261A3E0FCA3E0FD12D1
:100BD0001819122365802E122204FF1222F3123EEE
:100BE0003AD3EF9432EE9400401B122278E0FCA33B
:100BF000E0D394C8EC9400400CEF12227D74FF7592
:100C0000F09C120E76122204FF7C007D0712116DFB
:100C1000ECF8EDF9EEFAEFFB122289EE3395E0FDE8
:100C2000FC120F88E47B08FAF9F812102E800312E8
:100C30002289900261E075F002900045122257125D
:100C40002204FFD39405EE9400400EEF9410EE942E
:100C5000005006900262EE8020900261E0FF75F085
:100C60000290003D12221CFD75F002EF900045122B
:100C7000220E2DFFEE3C900262F0A3EFF0D3900223
:100C800063E09430900262E0648094F540077475EC
:100C9000F0A37430F0E5DB540470611222899000F7
:100CA00011122270FD1221FA12235FEF24A8FFEE29
:100CB0008037E5DB54047044900008122270FF1264
:100CC00021FA1223B275F002EF90003D12220EFFBE
:100CD000900011122270FD1221FA12235FED1221F1
:100CE000FA120EB724A8FFE5F03461FE90000E1250
:100CF000115B75F002ED1221FD12235F2290027547
:100D0000ECF0A3EDF0900274EFF0123659C083C0FE
:100D10008290027BE0D082D083123653E07046127C
:100D2000364A123667C083C08290027BE0D082D000
:100D3000831236531210FAE4FBFAF9F8C31210D6F4
:100D4000602312364A123671C083C08290027BE063
:100D5000D082D0831236531210FAE4F8C31210D6A0
:100D6000600302164112368EC3900276E09FFF9018
:100D70000275E09E121802C083C08290027BE0FCE4
:100D8000D082D083123653EEF0A3EFF0ED12365935
:100D90001236A5E06050900274E0FF1236ACC083BA
:100DA000C08290027BE0D082D083123653E0FCA355
:100DB000E0FDEF75F005A424B2F582E4343EF5833E
:100DC000E493FE740193FFD3ED9FEC9E401812361E
:100DD0004A12365DC083C08290027BE0D082D0830D
:100DE0001236537405F012368E12364A123667C028
:100DF00083C08290027BE0D082D0831236531211DE
:100E00001212364A12367BC083C08290027BE0D039
:100E100082D083123633123671C083C08290027B37
:100E2000E0D082D083123653121112900274E0FF88
:100E3000123659C083C08290027BE0FED082D083FC
:100E4000123653E0D3940074809480400EEF123633
:100E50005975F00EEE12114FE014F0900277021760
:100E6000FE12364A123667C083C08290027BE0D001
:100E700082D0831236531210FA90027C1211121291
:100E8000364A123671C083C08290027BE0D082D095
:100E9000831236531210FA90028012368512364AA7
:100EA0001236BAC083C08290027BE0D082D0831217
:100EB0003653E0F9F81210E7EFFBEEFAEDF9ECF833
:100EC000123688120F9590028412111290027C1231
:100ED00010FA900277121106120F889002841211F4
:100EE00006120F881236C412368E12364A12366730
:100EF000C083C08290027BE0D082D083123653122E
:100F0000368512364A123671C083C08290027BE069
:100F1000D082D083123653123685ECC0E0EDC0E0AB
:100F2000EEC0E0EFC0E012364A12367BC083C082CA
:100F300090027BE0D082D083123653E0FEA3E0FB28
:100F4000EEFAE4F9F8D0E0FFD0E0FED0E0FDD0E02A
:100F5000FC12102E1236C4900274E0640160030289
:100F600017FB12368EEFFBEEFA123688C3EF9BFFAB
:100F7000EE9A121802C083C08290027BE0FCD082FD
:100F8000D083123653EEF0A3EFF0ED1236AC1236EA
:100F9000A5E0FEA3E0FF900274E0FB75F005A42439
:100FA000B0F582E4343EF583E493FC740193FDD301
:100FB000EF9DEE9C406512368EEB75F01CA4123648
:100FC00067C083C08290027BE0D082D08312365308
:100FD00012111212364A12367BC083C08290027BF5
:100FE000E0D082D083123633123671C083C0829033
:100FF000027BE0D082D08312365312111212364A8D
:1010000012365DC083C08290027BE0D082D0831212
:1010100036537405F012368E1236C49002801210C8
:10102000FA22FE123E98900274E0FD75F01CA42492
:1010300031F582E43402F58322900264EFF0A3ECF0
:10104000F0A3EDF0EF1235F7E0FEA3E0FF123E3A19
:10105000D3EF9432EE9400401C1235C712111E00DB
:10106000000000123593E4F01236111235F3EEF061
:10107000A3EFF08043123582E0FEA3E0FFD394009B
:10108000EE94004033900265E0FCA3E0FDD3EF9DB9
:10109000EE9C400B900264E01235BAE04401F090FF
:1010A0000264E0FF123586E0FAA3E0C39DEA9C509B
:1010B000071235B9E04402F0900264E01235CCC06A
:1010C00083C082121106123611E4FCFD120F88D083
:1010D00082D083121112900264E0FF12361AE47576
:1010E000F001120E76EF75F007A4248FF582E43438
:1010F0003EF583E493FE740193FF900264E0FDC427
:1011000054F02490F582E43402F583E0FAA3E0C3BE
:101110009FEA9E5003021A99ED12361AE0FEA3E0F0
:10112000FFFBEEFAE4F9F8900264E01235CC1210FD
:10113000FA12102E900267121112123582E0FEA3ED
:10114000E0FFEEC0E0EFC0E0123627EFFDEEFCD08E
:10115000E0FFD0E0FE123E3A90026BEEF0A3EFF01B
:10116000900264E0FD75F007A4248AF582E4343E21
:10117000F583C37401939FE4939E401FED1235865F
:10118000E0FEA3E04E6014900264E0FB123604E03F
:10119000FEA3E0C394B8EE940B5021900264E0FFEC
:1011A000123586E0FCA3E04C7008EF123604E4F040
:1011B000A3F0123627123582EE021A43EB60076461
:1011C000016003021A49E490026DF090026BE0FEA8
:1011D000A3E0FFD39450EE94004006A37408F0807F
:1011E00032900264E01235BAE064036026D3EF94D3
:1011F0003CEE9400400890026D7402F08015D3908C
:10120000026CE0943290026BE09400400690026D14
:101210007401F0123582E0FEA3E0FFE4FCFD12361B
:101220002DD31210D6401190026DE0FF123582E4EA
:101230008FF0120E76021A7FD390026CE0945090D9
:10124000026BE094004058123582C083C082E0FEF9
:10125000A3E0FF90026DE0FDC3EF9DFFEE9400D090
:1012600082D083F0A3EFF08036123582E0FEA3E057
:10127000FF4E700D12362DEBFFEAFEE9FDE8FC8013
:10128000167C007D0712116D12362D120F88E47B3B
:1012900008FAF9F812102E123582EEF0A3EFF012D0
:1012A00035C712111E00000000123593E4F012360B
:1012B000271235F3EEF0A3EFF0123582E0FCA3E045
:1012C000FDD39400EC94004056123611123E3A9031
:1012D0000264E075F007A4248CF582E4343EF583C3
:1012E000D37401939FE4939E400F900264E0FF1239
:1012F00035861235D9E4F08026900264E0FF75F05F
:1013000007A4248EF582E4343EF583E493FE12357F
:10131000E5E0C39E50091235821235D9E004F0127F
:10132000361122E4900262F0A3F0123231D390021F
:10133000AAE094009002A9E094004003021D6B9083
:1013400000CD121106900020E0FEA3E0FFE4FCFDBA
:10135000120F889000CD1211129000D1E475F001A7
:10136000120E76C39000D4E094649000D3E0940011
:101370005003021BD69000CD1210FAECC0E0EDC075
:10138000E0EEC0E0EFC0E09000D1E0FEA3E0FBEEB5
:10139000FAE4F9F8D0E0FFD0E0FED0E0FDD0E0FCC8
:1013A00012102E9000CD1211129000CD1210FA9052
:1013B00000CBEEF0A3EFF0A312111E00000000E43A
:1013C0009000D1F0A3F0A3F0A3F09002A9E0700286
:1013D000A3E0702290026104F0123100501875F001
:1013E00002EF9000D512308D4E7003121D6C9002EA
:1013F00061E004F080E39002617401F0123100407A
:1014000003021D6B74522FF582E43400F583E0FF74
:101410006028900261E0FE75F002123119E0FCA331
:10142000E04C7016900020E0FCA3E0FD75F002EEA9
:10143000123119ECF0A3EDF0802DEF702A12310D6E
:101440009002611230A8120EB7C39496E5F0940092
:101450005015900261E0FF9000F31230CFF0A3F03E
:10146000123095E4F0A3F0900261E075F002900074
:10147000F312308DFF4E7003021D62900020E0FCDD
:10148000A3E0FDC3EF9DFFEE9CFE123E989002622A
:10149000EEF0A3EFF0900261E0FD1230B3EEF0A3A6
:1014A000EFF075F002ED9000F712308DD3940AEE54
:1014B00094005003021D6212310D75F002ED1230DE
:1014C000AC120EB7D39498E5F0943A404675F0020A
:1014D000ED9000FB12308DC39428EE94234003025C
:1014E0001D62900261E0FB24CFF582E43402F583B3
:1014F000E075F018A4FFAEF0EB1230B3E0FCA3E00F
:10150000FD120DD9900261E0123132EEF0A3EFF03E
:10151000021D6212310D900261E0FF1230A9120E1D
:10152000B7FDACF0D39488EC9413402875F002EF2B
:101530009000FB12308DC394D0EE9407504490027B
:1015400061E01230B3E0FAA3E0FB123095EAF0A3B9
:10155000EBF0802ED3ED94E8EC94034025900261EB
:10156000E0FF123132E0FCA3E0C39458EC94025047
:1015700011EF1230B3E0FCA3E0FD123095ECF0A3C4
:10158000EDF0900261E004F0021BDC22900264EFB7
:10159000F0E0FF2452F582E43400F583E0700302AA
:1015A0001E449000C31230894E701A9000CBE0FEAA
:1015B000A3E0FF900264E09000C3123040EEF0A37D
:1015C000EFF0021E73900264E09000C3123066E0F8
:1015D000FEA3E0FF9000CBE0FCA3E0FD123E3A90BA
:1015E00000E112115B900264E0FD1230A9EE8FF071
:1015F000120F5B74BF2D1230C3E070379000E11200
:10160000115B75F002ED1230AC120EB7C39406E513
:10161000F09400500A12304CEEF0A3EFF08014E486
:10162000FFEF123105500C74BF2F1230C37401F05C
:101630000F80EE900264E0FF9000C3123099E0FC4E
:10164000A3E0FD9000CBE0FAA3E0FBD3ED9BEC9A86
:10165000400A74C12F1230EAE4F080371230E4748B
:1016600001F0802F900264E0FF9000C31230B6E4D6
:10167000F0A3F0EF123063E4F0A3F074BF2F123048
:10168000C3E4F09000D9123098E4F0A3F01230CB0C
:10169000F0A3F01230BCE07003021FCF123086D3EB
:1016A0009400EE94005003021FCF12310D9002649B
:1016B000E0FD75F002123056E0FCA3E0FD123E3A68
:1016C000900265EEF0A3EFF0900264E09000E51266
:1016D0003040E0FCA3E0D39FEC9E400CD390026628
:1016E000E0948C1230DD501412306CC39DEE9C508F
:1016F0005D900266E094C81230DD40521230BCE4C6
:10170000F09000C31230CEF0A3F012310D75F0024C
:10171000EF1230AC120EB7FFAEF0900264E0FD1293
:101720003063E0FAA3E0C39FEA9E500F75F002ED2C
:10173000123113E4F0A374C8F0800D1230F81231A6
:10174000137401F0A3742CF01230E4E4F022123090
:101750006CD39DEE9C404DD31230D740479002642D
:10176000E09000DD12308A12312B503812309F7415
:10177000FF75F0F7120EEF1230CB12311F9000D927
:1017800012308D12312A501C1230F29000D9400DC7
:1017900012114F74FF75F0F7120E76800712114F79
:1017A000E4F0A3F012306CC39DEE9C50421230D78F
:1017B000403D12309FE475F009120EEF75F002EF14
:1017C0009000D912114FE412311F9000DD12308DBC
:1017D00012312A501A1230F29000DD400B12114FD4
:1017E00074FF75F0F7020E7612114FE4F0A3F022A9
:1017F000D39002AAE09F9002A9E09E400AA3E09F36
:10180000F09002A9E09EF09002AE1237649002AD13
:10181000E09C400CA3E09FF09002ADE09EF08002BF
:10182000D28AD39002ACE09F9002ABE09E400AA324
:10183000E09FF09002ABE09EF01237755003123734
:101840006FD39002B4E09F9002B3E09E400AA3E001
:101850009FF09002B3E09EF0D39002B8E09F900218
:10186000B7E09E400AA3E09FF09002B7E09EF0D35D
:101870009002BCE09F9002BBE09E400AA3E09FF074
:101880009002BBE09EF0D39000EEE09F9000EDE070
:101890009E400AA3E09FF09000EDE09EF0D39002FE
:1018A000B0E09F9002AFE09E400AA3E09FF090025C
:1018B000AFE09EF09002C01237649002BFE09C40FF
:1018C0000AA3E09FF09002BFE09EF012378350031E
:1018D00012376FD39002B6E09F9002B5E09E400AA7
:1018E000A3E09FF09002B5E09EF0D39002BAE09F93
:1018F0009002B9E09E400AA3E09FF09002B9E09EFA
:10190000F0D39002BEE09F9002BDE09E400AA3E0AB
:101910009FF09002BDE09EF0D39002B2E09F900253
:10192000B1E09E400AA3E09FF09002B1E09EF0D3A8
:101930009000F0E09F9000EFE09E400AA3E09FF04F
:101940009000EFE09EF0123791500312376FD39062
:1019500000D6E09F9000D5E09E400AA3E09FF09063
:1019600000D5E09EF0D39000D8E09F9000D7E09E95
:10197000400AA3E09FF09000D7E09EF09000A312F1
:1019800037D79000A2E09C400AA3E09FF09000A20D
:10199000E09EF0D39000F2E09F9000F1E09E400ABC
:1019A000A3E09FF09000F1E09EF09000A51237D7E1
:1019B0009000A4E09C400AA3E09FF09000A4E09E69
:1019C000F012379F500312376F1237AD50031237A2
:1019D0006F1237BB500312376F1237C950031237DB
:1019E0006FD390003AE09F900039E09E400AA3E058
:1019F0009FF0900039E09EF02290000512115B905C
:101A00000261E0FF75F002A4F58285F083120EB743
:101A1000FDACF090000B12115BEF75F002A4F582A3
:101A200085F08322900261E090004575F00212116A
:101A30004FE0FEA3E02275F00290000112114FE08A
:101A4000FCA3E022900261E0FF2452F582E434001E
:101A5000F5832290005412114F1210FA900264EE96
:101A6000F0A3EFF090005A75F00AEB12114FE4F07A
:101A7000A3F022FD75F00212114FEEF0A3EFF02259
:101A8000900261E090005475F00A02114F90000B33
:101A900012115B900261E022900261E0FF25E024D8
:101AA000BBF582E43402F58322900262E0FEA3E0FB
:101AB000FF2275F00AA42425F8E50825E028F8E6B9
:101AC000FE08E6FF22E0FF25E024B7F582E43402B9
:101AD000F58322900262E0FFC39402748094802216
:101AE00075F00212114FECF0A3EDF02225E024B3C3
:101AF000F582E43402F583229000A6EF75F004022B
:101B0000114F120EB7C39DFEE5F09C900262F0A348
:101B1000CEF022900262E0FCA3E0FD22EC8DF00208
:101B20000F5BEFF0D39002AAE094009002A9E0943A
:101B30000022120EB7FDACF0900005222427F5829A
:101B4000E43401F5832212114FE475F001020E76A0
:101B5000900261E075F0029000B622EF25E024AF1C
:101B6000F582E43402F58322C3E50894047480947A
:101B70008022120EB7C39DFFE5F09CFED3EF22EE4C
:101B80008FF0020F5BEE900262F0A3EFF022900064
:101B90000512115B90026122900261E0FF75F00A6C
:101BA00090005A22900261E0FF75F0029000FB2243
:101BB00090000812115B900261E0FF229002AB746A
:101BC00003F0A37420F022E0FCA3E0D39400EC9493
:101BD0000022E4F5F0020F5B900261EFF0A37402C3
:101BE000F0A374BCF0E4A3F0A3F0D39000F2E0946F
:101BF000009000F1E09400400912236E1221E212DD
:101C000022FC9002A9E07002A3E0600B900262E463
:101C1000F0A37464F0800B900143E06411700374CE
:101C200020F0900261E0FB122229E0602090026126
:101C3000E0FA12226412111E0000000075F00AEA98
:101C400090005812224B75F00AEB022573122260A5
:101C5000C083C082121106E8C0E0E9C0E0EAC0E03B
:101C6000EBC0E012236EE01221FA120EB7FFAEF0C5
:101C7000E4FCFDD0E0FBD0E0FAD0E0F9D0E0F812CF
:101C80000F88D082D083121112900261E0FF900081
:101C90005812226712232975F00AEF90005C122275
:101CA0000EFF900262E0FCA3E0FDC3EF9DEE9C50AE
:101CB00003022579122260C083C0821210FAECC0A0
:101CC000E0EDC0E0EEC0E0EFC0E0900261E075F052
:101CD0000A90005812220EFBEEFAE4F9F8D0E0FF69
:101CE000D0E0FED0E0FDD0E0FC12102ED082D083F8
:101CF00012111290000B122371E01221FA120EB78A
:101D00002450FFE435F0FEE4FCFD122260121106BF
:101D1000D31210D640369002A9E07002A3E0702CD6
:101D2000900261E0FB12231CE07021122378122341
:101D30002675F00AEF90005A12220ED39403EE9407
:101D400000401D75F00AEB1222338014900261E00E
:101D5000FB75F00A122233900261E012231CE4F0BA
:101D600012237812221C4C700E900264E0FCA3E057
:101D7000FD1221F31222FC900261E0FB1222641298
:101D8000111E00000000900058122247900261E0EE
:101D900075F00A90005C12224B22C0E0C0F0C083B4
:101DA000C082C0D0E8C0E0D2AFD39002AAE09400D5
:101DB0009002A9E094004003123756D39002AEE09F
:101DC00094019002ADE0940040051237568002D293
:101DD0008AD39002ACE094009002ABE09400400300
:101DE000123756123775500312375DD39002B4E0A4
:101DF00094009002B3E094004003123756D390024F
:101E0000B8E094009002B7E094004003123756D334
:101E10009002BCE094009002BBE0940040031237B3
:101E200056D39000EEE094009000EDE09400400363
:101E3000123756D39002B0E094009002AFE09400C5
:101E40004003123756D39002C0E094019002BFE0E5
:101E500094004003123756123783500312375DD374
:101E60009002B6E094009002B5E09400400312376F
:101E700056D39002BAE094009002B9E09400400377
:101E8000123756D39002BEE094009002BDE0940059
:101E90004003123756D39002B2E094009002B1E0B2
:101EA00094004003123756D39000F0E09400900065
:101EB000EFE0940040031237561237915003123767
:101EC0005DD39000D6E094009000D5E094004003EC
:101ED000123756D39000D8E094009000D7E09400D9
:101EE0004003123756D39000A3E094019000A2E083
:101EF00094004003123756D39000F2E09400900013
:101F0000F1E094004003123756D39000A5E094010D
:101F10009000A4E09400400312375612379F5003FC
:101F200012375D1237AD500312375D1237BB5003C5
:101F300012375D1237C9500312375DD390003AE073
:101F40009400900039E094004003123756D0E0F836
:101F5000D0D0D082D083D0F0D0E0327B017A01792A
:101F6000297DFF7C00123E507B017A0079017D269D
:101F70007C01123E507B017A0279A87D1A7C001206
:101F80003E50902DE0E49390012AF090012D7411C1
:101F9000F0A37422F0A37433F0902DE2E493900147
:101FA0003BF0902DE3E49390013DF0900224740106
:101FB000F09001737411F090021A14F090014DF03A
:101FC000A37420F07B017A017967900005121164F7
:101FD0007A01796B90000B1211647A01796F90008D
:101FE000081211647A01795B90000E1211647A0173
:101FF00079639000111211647A01795F90001412D4
:1020000011647A0179899000221211647A0179A908
:102010009000E11211647A01793390004C1211643E
:102020007A0179449000491211647A017953900041
:10203000171211647A01794F90001A1211647A0113
:10204000795790001D12116490001712115BE4750E
:10205000F0C8120F3C90001A12115BE475F0641284
:102060000F3C90001D12115BE475F096120F3C7549
:102070003900753AC8752100752296900017123EF6
:102080007B75F0C8120F5B90001A123E7B75F064EE
:10209000120F5B90001D123E7B75F096120F5B7560
:1020A0003B00753CC87523007524967B017A017945
:1020B0007990004F12116490017B7410F0740A1231
:1020C0003E83A37416F0740C123E83A304F0A37431
:1020D00004F0A37407F09001497410F09002A97401
:1020E00007F0A374D0F0E49002A8F02290026BEF06
:1020F000F0902E22E0FF90026FE4F0A3EFF0758ADB
:1021000050902E227401F090026BE0123969740431
:10211000F0A3E4F090026CF090026CE0FFC3940D29
:102120007480948040030229EFEFF87E02E4088077
:1021300006CEA2E713CE13D8F8FF90026DEEF0A3FF
:10214000EFF04E700790026DF0A304F0902E207413
:1021500001F0902E20E030E2F990026BE0FF902E2B
:102160000012396CE0FCA3E0D394FEEC94074044E9
:10217000EF902E10123982E0FEA3E0FF90026DE096
:10218000FCA3E0FDEF2DFFEE3CFEC3EF94FFEE94C9
:102190000790026BE075F002902E10500B12114F59
:1021A000EC8DF0120E76805712114F7407F0A37465
:1021B000FFF0804B90026BE0FF123969E0FCA3E076
:1021C000FD90026DE0FAA3E0FBD3ED9BEC9A402476
:1021D000902E1012398BC083C082C3A3E09BFF05F1
:1021E00082D5820215831582E09AD082D083F0A333
:1021F000EFF0800B90026BE0123969E4F0A3F090ED
:102200002E20E4F0F58D90026CE004F00228F890A6
:10221000026FA3E0902E22F0758A102290026112C4
:1022200023024003022B1E300545900261E075F049
:10223000029000ED12220E4E9002616019E0FF251F
:10224000E02439F8764E087620EF25E02421F87650
:102250001F0876408045E0FF25E02439F8760B081A
:1022600076B8EF25E02421F876090876C4802C1290
:10227000238412221C24C8FDE43CF8EF25E0243915
:10228000C8F608EDF612238412221C2496FDE43CC5
:10229000F8EF25E02421C8F608EDF612239012216C
:1022A000FA120EB7FDEF25E0243912229EC3ED9FEE
:1022B000E5F09E5024900261E0122229E060321283
:1022C00023901221FA120EB7FDEF25E024211222ED
:1022D0009EC3ED9FE5F09E40189002611222A5E09A
:1022E000FCA3E04C703A74522F12222B7401F08040
:1022F0002F90021AE06420900261700AE01222A777
:10230000E4F0A3F0800AE01222A7E4F0A374C8F07E
:10231000900261122227E4F0EF1222CCE4F0A3F045
:10232000900261E0122229E0600312239C90005386
:10233000E0C454F0FF900052E04F900174F02290FE
:102340000261EFF012233412220EFFC39404EE94C4
:10235000005027900261E0122216FD1222D8C0839D
:10236000C082900261E0FFD082D0831222C075F05B
:1023700002EF9000B6122326804D9002667401F0A1
:10238000900266E0FFC312234B50291222D8C0836B
:10239000C082900261E0FED082D08375F0021222EA
:1023A0001CFD9000A21222DBEE1222C0900266E019
:1023B00004F080CC900261E0FF122216FD75F0025D
:1023C000EF9000B21222C390026212111E000000B0
:1023D00000E4900266F012233012220EFF90026693
:1023E000E0FDD3EF9DEE940040349002621211069E
:1023F000900266E09000A61222DCC083C0829002A8
:1024000061E0D082D08312220BFFE4FCFD120F8822
:10241000900262121112900266E004F080B89002FD
:10242000621210FAECC0E0EDC0E0EEC0E0EFC0E0F8
:1024300012233012220EFBEEFAE4F9F8D0E0FFD0BE
:10244000E0FED0E0FDD0E0FC12102E9002621211EE
:10245000129002620210FA900264E0FF9000FF7591
:10246000F01212114FE50875F00202114F9002644C
:10247000E025E025E0246CF582E43402F58322EDCA
:1024800090008375F00212114FE0FEA3E022CBEF23
:10249000CBEEFAC3E5149BFFE5139AFEE512940018
:1024A000FDE51194008F148E138D12F51122900208
:1024B00064E0FF25E02466F582E43402F58322FD22
:1024C00075F00212114FEEF0A3EFF022900123ED10
:1024D00075F00202114F900264E0FFC39402748011
:1024E000948022900264E0FD75F00222123E217574
:1024F0008A5075B28F902E207401F022FF75F00281
:1025000012114FE0FCA3E022EF75F0129000FF22C1
:10251000F583E4932420F582E4342EF58322A3F09E
:10252000902E20E4F0758A1075B2932275F0049015
:10253000002D02114FFDEF12114FECF0A3EDF02230
:10254000ED75F00290007D22EF900806939008034D
:1025500093223EFE7C007D03020DEB900264E004BA
:10256000F022F582E43402F583E0FF22787FE4F67E
:10257000D8FD75813C022D96020000023AF9E493E1
:10258000A3F8E493A34003F68001F208DFF4802966
:10259000E493A3F85407240CC8C333C4540F442055
:1025A000C8834004F456800146F6DFE4800B010244
:1025B000040810204080903D2EE47E019360BCA36F
:1025C000FF543F30E509541FFEE493A360010ECF92
:1025D00054C025E060A840B8E493A3FAE493A3F8BC
:1025E000E493A3C8C582C8CAC583CAF0A3C8C5827C
:1025F000C8CAC583CADFE9DEE780BE00000000006C
:102600000100AB4B74AA7583F5758255A574557599
:1026100083FA7582AAA574A57583F5758255A522DE
:1026200002030AB00BB60CFF090208FF0D770E0477
:1026300013071410108015001600011292120713D0
:1026400012120F0404040401010111101608120AE9
:102650000C0403010204900264EFF0E4F50CF50BA6
:10266000F50AF509F50CF50BF50AF509F50812233D
:10267000485025900264E0122292E4FCFDE50C2F04
:10268000FFE50B3EFEED350AFDEC35098F0C8E0B98
:102690008D0AF509050880D6E47B04FAF9F8AF0C39
:1026A000AE0BAD0AAC0912102E900264E075F00278
:1026B0009000BA122257E4750CA8750B61F50AF563
:1026C00009F5081223485074900264E0FD1222922A
:1026D00075F002ED9000BA12221CFD123E3AD3EFC3
:1026E000940AEE9400900264E0FF400B75F00290B3
:1026F00000BA12221C801175F00AA42425F8E508FE
:1027000025E028F8E6FC08E6FD75F002EF9000777A
:1027100012220EFFC3ED9FFFEC9EFE3395E0FDFC01
:10272000E50C2FFFE50B3EFEE50A3DFDE5093C8F7C
:102730000C8E0B8D0AF5090508022EA3E47F607E3E
:10274000EAFDFCAB0CAA0BA90AA809D31210D640CB
:102750000BE4750C60750BEAF50AF509AE0BAF0CCE
:10276000221238E7123D867A0079B61230247A00B8
:1027700079A67D101230387A00798D1230247A00D3
:10278000798912302E7A00799112302E7A0079529E
:102790007D021230387F0412313BE4FFEF1222B881
:1027A000505875F002EF122219FD9000051221F623
:1027B0001222FC75F002EF122219FD1221F31222EF
:1027C000FC9000081221F61223B290000E1221F69E
:1027D000746175F0A8120F5B9000141221F67461F9
:1027E00075F0A8120F5B9000111221F61223B2129D
:1027F000233BE4F0A3F00F022F7C7B017A0079BF2A
:102800007D227C00123E507B017A0079547D147C3D
:1028100000123E50E4900130F09001737411F0A367
:10282000F012239C9002C1E0700FC39002AAE094C2
:10283000F49002A9E09401500A9002A97401F0A357
:1028400074F4F0227B017D047C00123E50227B0157
:102850007D047C00123E50227B017C00123E5022FF
:10286000FD75F00212114FEEF0A3EFF09000081288
:10287000115B75F002EDA4F58285F083120EB7FFAF
:10288000AEF0ED9000C775F00202114F90000812F3
:10289000115B900264E0FF75F002A4F58285F0837D
:1028A000120EB7FDACF09000C7EF75F00212114F99
:1028B000E0FEA3E0229000FBEF75F00202114F90C2
:1028C000000B12115B900264E075F002A4F58285A2
:1028D000F083229000F775F00202114F900264E03D
:1028E000FF24BFF582E43400F583229000DDEF750C
:1028F000F00212114FE422900266E09414900265F7
:10290000E0940022900264E024C1F582E43400F5F2
:102910008322EF9409EE9400900264E075F00222A5
:10292000900261E0FFC394027480948022900008BA
:1029300002115B9000D502114F9000F302114F7508
:10294000F009120E7675F002EF22FFC39430EE9478
:10295000752275F0029000FB02114F900261EFF0BA
:10296000E4900263F0900261E0FF900263E0C39F95
:10297000507A12082E9002627401F01222B3506352
:10298000123BE7900262E090009112225375F00230
:10299000ED90009112114FE0F8A3E0FFED75F00A01
:1029A000A4242DC8F608EFF6ED75F00AA4FF24253F
:1029B000F9E4FAFBC0E0C0E0E9C0E074272FF9E4D5
:1029C00090026712116490026AE4F0A37408F0D0D8
:1029D000E0F9D0E0FAD0E0FB123B4B900262E00459
:1029E000F08098900263E004F00231459002627436
:1029F00001F01222B35059122E36900262E090007C
:102A00000112225375F002ED90004112220EFF7563
:102A1000F002ED90008D12221CFD123E3A7C007DEA
:102A200005120DEB900262E0FF90003D1222C0758E
:102A3000F002EF90008D12220EFF900262E075F01E
:102A400002900041122257900262E004F00231D25B
:102A500022758D20438D20538D7FE4F5B275B6FF2E
:102A600075B7FF75B2A243B20153A8FB538B7F75B4
:102A70008B10438B08E58B20E7030080F8538B7F96
:102A8000758B11438B08E58B20E7030080F89002DB
:102A9000CDE5B5F0A3E5B4F0758B01E4F5B27F02A6
:102AA000FE121FD0123DEBE4F58D900020E0FEA356
:102AB000E0FF4E700E123EB9FD900020E5F0F0A34D
:102AC000EDF022123EB9FDC3EF9DFFEE95F0FE1230
:102AD0003E98D3EF940AEE648094804022123EB96F
:102AE000FFC3900021E09F900020E095F05006E4A5
:102AF00075F001800790002074FFF5F0020E7690CB
:102B00000020E0FEA3E0FF7C007D0312116DECC00D
:102B1000E0EDC0E0EEC0E0EFC0E0123EB9FFAEF085
:102B2000E4FCFDD0E0FBD0E0FAD0E0F9D0E0F81210
:102B30000F88E47B04FAF9F812102E900020EEF0D2
:102B4000A3EFF022E4900068F0A3F0A37403F0A3D5
:102B50007420F0123CF87B017A0079777D067C00C6
:102B6000123E507F02123DAB902E14E0FEA3E0FF18
:102B70007C007D0A120DD990004F12115BEE8FF090
:102B8000120F3C9002607401F09002601239C24052
:102B900003023401123DAB900260E090080693FFFF
:102BA000123969E0FCA3E0C39405EC940040129054
:102BB0002E101239A3E0FEA3E0D394F0EE94074068
:102BC00012900260E0FF90006812398CE4F0A3F0EC
:102BD000123DAB902E23E4F090026012396312395B
:102BE000721239CC90004C12115B900260E0FD75BE
:102BF000F00212399CEE8FF0120F5BED701A123951
:102C000092120EB7D39458E5F09402400B12399209
:102C100074FD75F0A8120EEF900260E004F002332C
:102C2000699001467410F022C0E0C083C082C0D019
:102C300075D018D2AFE5DB30E422D203C202E5DB67
:102C400030E114123E66E0F5DFEF64077069D28A66
:102C5000900130F00234BAC2010234BDE5DB30E548
:102C60002C900219E064AA7017758A10F5DAC2AFC9
:102C7000F5B2F5A8F5A9F58B758E01758DC080FEAE
:102C8000D200300204C2028054C2038050C202E566
:102C9000DB30E125E5DB30E044123E66E0F5DFEFB6
:102CA00024F9600C24FA60042402700BD20480071B
:102CB000D28A900130E4F0802120010A7815A6DF45
:102CC000D201D2028017123E66E5DFF0EF64247075
:102CD000099002AB04F0A374F4F078150675DBFFDD
:102CE000D0D0D082D083D0E032E4FFFD9002ADE0BE
:102CF0007004A3E064017011900130E06004D28A96
:102D0000E4F0E49002ADF0A3F0900052E0600E9089
:102D1000014DE064106006EF4420FF8004EF441092
:102D2000FF900053E0600E90014DE064106006EFEC
:102D30004402FF8004EF4401FF900173EFF0900024
:102D400000E0FC6F605B900173E0FFEC6FFE9000B1
:102D500000EFF0208A1BD28A9002ADE4F0A3740346
:102D6000F09002AEE024FFFB9002ADE034FF4B7028
:102D7000F0900130E07007900173E05E8013EEF494
:102D8000FF900000E05FFDEEFF900173E05FFFED5C
:102D90004F900130F09002AD7403F0A374E8F0C2DC
:102DA0008A22900264E0C454F0248EF582E4340256
:102DB000F58322EBC454F0248CF582E43402F583CD
:102DC000E4F0A3F0900264E0FFC454F02490F58294
:102DD000E43402F583E4F0A3F0EFC454F02495F555
:102DE00082E43402F58322900264E0FBC454F024B0
:102DF00088F582E43402F58322E0FDA3E0900265C9
:102E0000CDF0A3EDF0EFC454F02494F582E4340245
:102E1000F58322900264E0C454F02492F582E434F5
:102E200002F58322C454F02496F582E43402F5833B
:102E300022900265E0FEA3E0FF22C454F0248CF54A
:102E400082E43402F583229002670210FA9002674E
:102E500002110675F00E12114FE0FEA3E0FFE4FC34
:102E6000FD900277121106120FA3900274E075F024
:102E70001CA42275F00E02114F75F01CA42430F52D
:102E800082E43402F58322242CF582E43402F583B3
:102E9000222428F582E43402F583222434F582E4E6
:102EA0003402F583221211129002800210FA90026D
:102EB000770210FAED75F005A424AFF582E4343EF4
:102EC000F583E49322EC75F00E02114F75F01CA40B
:102ED0002431F582E43402F583222433F582E4348C
:102EE00002F58322900280021112900149E06420D1
:102EF00070037421F090004912115B120E8C641063
:102F000045F07003123C7390012AE064AA7003122A
:102F10003A48123B9C200608900143E06410700D73
:102F20009001437411F0C206E49002A8F0900224CC
:102F3000E06006E4F09002A8F09000A2E07004A324
:102F4000E06401600C9000A4E07004A3E0640170F0
:102F500015E49000A2F0A3F0A3F0A3F09000F1F02C
:102F6000A3F09002A8F030000CC2009002AB7401F4
:102F7000F0A374F4F02274FFF5F0020E76E475F01D
:102F800001020E76EF2401FDE43EFCD3E09D22EE2B
:102F90008FF0020E76C390005DE094BC90005CE080
:102FA000940222C3900067E094BC900066E0940213
:102FB00022C39000D4E094649000D3E0940022C334
:102FC000900297E094B8900296E0940B22C390028E
:102FD00091E094F4900290E0940122C39002A7E063
:102FE00094B89002A6E0940B22C39002A1E094F45E
:102FF0009002A0E0940122EF2401FDE43EFCD3E026
:103000009D22208A030238699002A9E07002A3E0A1
:1030100070779000A2E07002A3E0706D9000A4E0D1
:103020007002A3E07063F5B2758D20438D20758D1D
:103030008043A808D2AFF58B900039E0FEA3E0FFF3
:103040004E6005758E508003758EFE20002F200384
:103050002CE5DB54047026758A84200320E5DB54BC
:1030600004701AF586758703000000758601EF4E1F
:1030700060047F5080027FFE7E00121FD0758B019E
:10308000758A1053A8F7123DEB223004792005769B
:10309000C2049002617401F09002611239C2505C66
:1030A000E0FE123965E0FCA3E0FDEE1239AAECF077
:1030B000A3EDF0123DAB9002611239631239721226
:1030C00039CC900261E0FD1239B6EEF0A3EFF0EDDD
:1030D0001239B6E0FEA3E0FF123992EE8FF0120F24
:1030E0005BED1239AAE0FEA3E0FFED123965EEF0C8
:1030F000A3EFF0900261E004F00238789002AB7424
:1031000003F0A37420F0227B017A0279287D387CB9
:1031100000123E50E4FDEDC394027480948050622E
:10312000E4900260F0900260E0FFC3940274809427
:1031300080504B123694FEED75F01CA41236BAEF97
:103140001236A6EEF012369404F87E007401088060
:1031500005C333CE33CED8F9FFED75F01CA412367B
:103160007BC083C082900260E0D082D0831236534D
:10317000EEF0A3EFF0900260E004F00239050D02DA
:1031800038F622E0FB90080693902E1075F00202AC
:10319000114FE0FEA3E0FF7C007D0A120DD9EB90F9
:1031A000006875F00202114F9000A2EF75F0020264
:1031B000114F90004C12115B75F002EDA4F5828561
:1031C000F0832275F002EF02114F25E02466F582AC
:1031D000E43402F5832225E02462F582E43402F52A
:1031E0008322E0FFC394027480948022E0FCA3E079
:1031F0002FFFEC3EFE22E4FEEEC394077480948021
:10320000502FEE25E025E0241BF582E4342EF583D3
:10321000E5822FF582E43583F583E493FDEE25E026
:1032200025E0241AF582E4342E122CF0EDF00E8005
:10323000C7EFFD7C00701775F002EF900068121167
:103240004FE0FAA3E04A7006902E217412F0ED646C
:10325000014C701375F002EF900068122C664E70EE
:1032600006902E217412F0229002607408F0A3E4FC
:10327000F0A3743FF0A374DFF0E4FDFCF9123E7498
:1032800000900260E0FEA3E02DF582EE3CF583E4C1
:1032900093FF69F90DBD00010CBC37E5BDDFE2907D
:1032A0000262E0FEA3E0F5828E83E493FFE96F7093
:1032B0000790012A04F08005E490012AF0123E7480
:1032C00000227F0112313B121B039002607401F057
:1032D0009002601222B6503B123CB6900260E0FFB2
:1032E000122B1FEEFCEFFD90000512115B900260A7
:1032F000E0FF1221FA1222FC12119A900260E0FF04
:103300001229FC900260E0FF1223B8900260E004F2
:10331000F080BD1234C902386A53A87F123E0712EA
:10332000273B123DCF12080E43A880E4F58D1236DC
:10333000CA9002A8E014601214601A240270EC1201
:1033400033249002A87401F080E1122F419002A86A
:103350007402F080D6123AA2900149E0FF64206026
:10336000CAEF642160C51237E280C090026C12116E
:103370006490026712115B90026F12116490026AEE
:10338000E07002A3E0603490026F12115B120DAE88
:10339000FF90026C12115BEF120DC790026DE47585
:1033A000F001120E76900270E475F001120E769024
:1033B000026A74FFF5F0120E7680C22290013CE0A2
:1033C000FF9002C2E06F600CEFF09002BF7402F059
:1033D000A37458F09002BFE07004A3E0640170266B
:1033E0009002C2E0FF7E0064107002D205EF6420FC
:1033F0004E7002C20590014EE064106002D206E4F5
:103400009002BFF0A3F022EFFB90008D12220BFF81
:1034100075F002EB90008912225775F002EB9000D4
:103420009112221CFDECC0E0EDC0E075F002EB90C3
:10343000008912220EFFE4FCFD900277121112EBBC
:1034400090027BF0D0E0FDD0E0FC7F010214DDC2F1
:10345000D5E830E70FB2D5E4C39BFBE49AFAE499D0
:10346000F9E498F8EC30E717B2D5123C6512102E4B
:10347000E4C39BFBE49AFAE499F9E498F880031218
:10348000102E30D50DE4C39FFFE49EFEE49DFDE4C5
:103490009CFC22E4900260F0A3F0123E7400122D16
:1034A000E475EA81E4F5F6F5F475F308F5F275EBE9
:1034B0000700E5EC30E7FBAFF3EFFEADF2EDFF9078
:1034C000004912115BEE8FF0120F3CE4F5EC75EB46
:1034D00030123E7400229000771239A3E0FCA3E082
:1034E0002448FDEC34F4FC75F002EF90008D1211CD
:1034F0004FE0FAA3E0C39DEA9C5015123988E0FC26
:10350000A3E04C70121239887401F0A374F4F02215
:10351000123988E4F0A3F022E4FFEFC3940D748025
:1035200094805021EF25E02401F582E4342EF583C8
:10353000E493FEEF25E02400F582E4342E122CF013
:10354000EEF00F80D5902F56E0902E2BF022C10385
:103550004202CF0406C1044102C300C1054102C2B8
:1035600000C101011500C100C10242012700004154
:10357000000011C1064302CA0102CD00900264EFAF
:10358000F0E075F010A42488F9740235F0FA7B019C
:103590007D107C00123E50900264E0123604740BE1
:1035A000F0A374B8F0227A00797D123DA17A0079F7
:1035B00083123DA17B017A0079FF7D247C00023ECD
:1035C000507B017D067C00123E502290026AEFF093
:1035D000123E2190026AE0FF1239D690026AE09012
:1035E000080693FF1228CC90026AE0FF023EA4E492
:1035F000F5DA75DA4043DA2075D74075D64075DACA
:103600005843A80275B80275F80222E5B254016069
:1036100006E5A85410700F75B29275B6F9E4F5B7C7
:1036200043B20143A81022758A10538AEF758601B0
:10363000758F02E4F5AB75AC0F75913FF592D28AA8
:1036400022EFF87401088002C333D8FC42AB122D7C
:1036500028F4529152935391DF22D3EF9DEE9C4078
:1036600007EF9DFFEE9CFE22C3ED9FFFEC9EFE2226
:10367000ED4C6011E4120DC70429F9E43AFAED1D8E
:1036800070EE1C80EB227815E6FF2429F582E434E5
:1036900001F58322758A10538AEF2212115B900084
:1036A00002E422A3F0A37407F0220096009607011B
:1036B000F4009600960701F4EE30E707C3E49FFF9D
:1036C000E49EFE22122D284291428843912022043A
:1036D000001E001901001900199002CA12115B02A4
:1036E0000E8C000000000000000000000000000040
:1036F00000000000000000000000000000000000CA
:1037000000000000000000000000000000000000B9
:1037100000000000000000000000000000000000A9
:103720000000000000000000000000000000000099
:103730000000000000000000000000000000000089
:103740000000000000000000000000000000000079
:103750000000000000000000000000000000000069
:103760000000000000000000000000000000000059
:103770000000000000000000000000000000000049
:103780000000000000000000000000000000000039
:103790000000000000000000000000000000000029
:1037A0000000000000000000000000000000000019
:1037B0000000000000000000000000000000000009
:1037C00000000000000000000000000000000000F9
:1037D00000000000000000000000000000000000E9
:1037E00000000000000000000000000000000000D9
:1037F0000000000000000000000000000000006E5B
:1038000000000000000000000000000000000000B8
:1038100000000000000000000000000000000000A8
:00000001FF
