:10000000004A000000020000533C00000000000015
:1000100000000000000000000000000000000000E0
:10002000022D5001022000010200000233FE023EB8
:10003000070000020826D2AF320000020816D2AF35
:10004000320000022564D2AF32000002081E7F0297
:100050001239F2122A65902E20E030E2F9122AC1FC
:10006000900808E493902E001229F6E0FFA3E09098
:10007000026ACFF0A3EFF0902E20E4F07F02123E50
:10008000C0900081E0FEA3E0FF4E700E90026AE097
:10009000FCA3E0FDECFEEDFF8014EF25E0FFEE3366
:1000A000FE90026BE02FFF90026AE0122AF49000AB
:1000B00081EEF0A3EFF090007BE07002A3E0700F00
:1000C000900081E0FFA3E090007BCFF0A3EFF0E48D
:1000D000900264F0122A7B5010EF122A0012110ACB
:1000E00000002710122AFD80EBE4900265F09002D8
:1000F00065E0C39405748094804003020BCCE490C7
:100100000264F0122A7B4003020BC3A3E02401FD2A
:10011000E433FC74CF2F122B04D3ED9F7480F86C62
:10012000984003020BBD900264E0FF1239F2900286
:1001300064E0FF122A65902E20E030E2F9122AC115
:10014000900264E0FF90080693902E00122A5FE070
:10015000FCA3E0FDEF122A4FECF0A3EDF0902E206F
:10016000E4F0900264E0FF123EC0122A4AE0FCA3D1
:10017000E075F002900095122AD7900264E06401C5
:1001800090007B7024122B0EC0E0C0E0EEC0E0EFC8
:10019000C0E0122A91D0E0FFD0E0FED0E0FDD0E038
:1001A000FC120F81E47B078022122B0EC0E0C0E01E
:1001B000EEC0E0EFC0E0122A91D0E0FFD0E0FED028
:1001C000E0FDD0E0FC120F81E47B08FA120F8FE40F
:1001D0007B0AFAF9F8123C4B900264E0122A4FEEC7
:1001E0008FF0120E6274FFF509F50AF50BF50CE4B9
:1001F000F50DF50EF50FF510F514F513F512F511D3
:10020000122A4AE0FCA3E075F01290010F122AD7DF
:10021000E4F508C3E5089408748094804003020A5A
:10022000E0900264E0FF9001011229EEE0FCA3E0FF
:100230004C600C75F012EF9001011229F1800790CB
:100240000264E0122A4FE0FEA3E0FF900264E0FDAA
:100250001229EBEEF0A3EFF0ED122AAC1229F1E037
:10026000FEA3E0D3950EEE950D4016850D0F850E7D
:1002700010900264E01229EBE0F50DA3E0F50E808A
:100280001C1229E6E0FCA3E0D39510EC950F400D7D
:10029000122AAB1229F1E0F50FA3E0F5101229E6BE
:1002A000E0FCA3E0C3950AEC9509501585090B8580
:1002B0000A0C122AAB1229F1E0F509A3E0F50A8035
:1002C0001C1229E6E0FCA3E0C3950CEC950B500D45
:1002D000122AAB1229F1E0F50BA3E0F50C900264B1
:1002E000E01229EB122B0EFCFDE5142FFFE5133E67
:1002F000FEED3512FDEC3511122A3405080209F322
:10030000AE0DAF0EEFFB122A20AE0FAF10122A1D5A
:10031000AE09AF0A122A1DAE0BAF0C122A1DFC78D3
:10032000021210D3900264E0900123122A3D122A97
:10033000E2122A15FF4E700E122A5BE0FAA3E0FBD0
:10034000EAFEEBFF8014EF25E0FFEE33FE122A5B9E
:10035000E0FCA3E02FFFEC122AF4122A8890007D23
:10036000122A41122A0E4E7011122AE2122A15FF89
:1003700075F002ED900083122A41900264E0900033
:1003800083122A9FFDECC0E0EDC0E0EF122AE312D9
:100390002A15FFE4FCFD9002771210FE900264E043
:1003A00090027BF0D0E0FDD0E0FCE4FF1214C99095
:1003B0000264E0900083122A3DED122A00C083C03F
:1003C000821210F2122A0E2400FFEE34E8FE33955A
:1003D000E0FDFC120F74D082D0831210FE122AFDB1
:1003E0000208E3900265E004F00208CE902E23E4B8
:1003F000F0900264F0122A7B4003020D99EF122A5A
:1004000000C083C0821210F2E8C0E0E9C0E0EAC098
:10041000E0EBC0E0900264E024CF122B04FBE4FA8E
:10042000F9F81229FC1210E6123C4BD0E0FBD0E0A8
:10043000FAD0E0F9D0E0F8120F74D082D083121015
:10044000FE1229FC1210E6E47B507AC3F9F8C312BD
:1004500010AC500A1229FC12110A0000C35090027D
:1004600064E0FF122A001210F2E833500BEF122A58
:100470000012110A00000000900264E090008D124A
:100480002A9F4C7009EF122A001210E6802C90026D
:1004900064E090008D122A12FF7C007D0212115937
:1004A000ECF8EDF9EEFAEFFB1229FC1210E6120F50
:1004B00074E47B03FAF9F812101A122A8890008D5E
:1004C00012113BEEF0A3EFF075F002ED9000771201
:1004D0002A154E701575F002ED90008D122A15FF49
:1004E00075F002ED900077122A41900264E0FF124D
:1004F0002ACEC083C0821210F2EF122A0FFFE4FC52
:10050000FD120F74D082D0831210FE900264E0FFBF
:1005100075F00290003512113BE475F001120E6285
:1005200075F002EF900035122A15FFD3940AEE946D
:10053000004032EF122A98900264E0122ACE121084
:10054000E612101A122A88900029122A41900035CA
:10055000122A5EE4F0A3F075F004ED122AD1121114
:100560000A00000000900039E07002A3E07044909F
:100570000264E0FD122A0FFF75F002ED90002912CF
:100580002AA3FD123E56122A88900025122A417590
:10059000F002ED900025122A15D39406EE94004047
:1005A000129000397407F0A374D0F0A3E475F00141
:1005B000120E62122AFD020BD522BB010689828A25
:1005C00083E0225002E722BBFE02E32289828A8373
:1005D000E49322BB010689828A83F0225002F7222B
:1005E000BBFE01F322EF8DF0A4A8F0CF8CF0A4287D
:1005F000CE8DF0A42EFE22BC000BBE0029EF8DF0A4
:1006000084FFADF022E4CCF875F008EF2FFFEE3355
:10061000FEEC33FCEE9DEC984005FCEE9DFE0FD504
:10062000F0E9E4CEFD22EDF8F5F0EE8420D21CFED8
:10063000ADF075F008EF2FFFED33FD400798500641
:10064000D5F0F222C398FD0FD5F0EA22C2D5EC30E6
:10065000E709B2D5E4C39DFDE49CFCEE30E715B29A
:10066000D5E4C39FFFE49EFE120DD7C3E49DFDE4D5
:100670009CFC8003120DD730D507C3E49FFFE49E96
:10068000FE22C5F0F8A3E028F0C5F0F8E582158257
:1006900070021583E038F022BB010A89828A83E068
:1006A000F5F0A3E022500687F009E71922BBFE0708
:1006B000E3F5F009E3192289828A83E493F5F07463
:1006C000019322BB0110E58229F582E5833AF58387
:1006D000E0F5F0A3E0225009E92582F886F008E66B
:1006E00022BBFE0AE92582F8E2F5F008E222E58362
:1006F0002AF583E993F5F0A3E99322BB010DC582A6
:1007000029C582C5833AC583020E625011C582296C
:10071000F808E5F026F618F5F0E58236F622BBFE7D
:1007200011C58229F808E225F0F5F0F218E23582C9
:10073000F222F8E58229F582E5832AF58374019394
:1007400025F0F5F0E4933822BB010A89828A83F010
:10075000E5F0A3F0225006F709A7F01922BBFE0628
:10076000F3E5F009F31922F8BB0111E58229F582BE
:10077000E5833AF583E8F0E5F0A3F0225009E92596
:1007800082C8F608A6F022BBFE09E92582C8F2E578
:10079000F008F222EF2BFFEE3AFEED39FDEC38FCCB
:1007A00022C3EF9BFFEE9AFEED99FDEC98FC22E848
:1007B0008FF0A4CC8BF0A42CFCE98EF0A42CFC8A46
:1007C000F0EDA42CFCEA8EF0A4CDA8F08BF0A42DC3
:1007D000CC3825F0FDE98FF0A42CCD35F0FCEB8E64
:1007E000F0A4FEA9F0EB8FF0A4CFC5F02ECD39FE1A
:1007F000E43CFCEAA42DCE35F0FDE43CFC2275F08F
:1008000008758200EF2FFFEE33FECD33CDCC33CC15
:10081000C58233C5829BED9AEC99E58298400CF530
:1008200082EE9BFEED9AFDEC99FC0FD5F0D6E4CE5E
:10083000FBE4CDFAE4CCF9A88222B800C1B9005992
:10084000BA002DEC8BF084CFCECDFCE5F0CBF9785F
:1008500018EF2FFFEE33FEED33FDEC33FCEB33FBF3
:1008600010D703994004EB99FB0FD8E5E4F9FA227D
:100870007818EF2FFFEE33FEED33FDEC33FCC93378
:10088000C910D7059BE99A4007EC9BFCE99AF90F40
:10089000D8E0E4C9FAE4CCFB2275F010EF2FFFEEAC
:1008A00033FEED33FDCC33CCC833C810D7079BECF7
:1008B0009AE899400AED9BFDEC9AFCE899F80FD56F
:1008C000F0DAE4CDFBE4CCFAE4C8F922EB9FF5F0D2
:1008D000EA9E42F0E99D42F0EC6480C8648098454D
:1008E000F022EB9FF5F0EA9E42F0E99D42F0E89C91
:1008F00045F022E8600FECC313FCED13FDEE13FE90
:10090000EF13FFD8F122E0FCA3E0FDA3E0FEA3E09B
:10091000FF22E0F8A3E0F9A3E0FAA3E0FB22ECF069
:10092000A3EDF0A3EEF0A3EFF022A8828583F0D030
:1009300083D082121121121121121121121121E4EE
:1009400073E493A3C583C5F0C583C8C582C8F0A36B
:10095000C583C5F0C583C8C582C822A42582F58297
:10096000E5F03583F58322E0FBA3E0FAA3E0F9226A
:10097000EBF0A3EAF0A3E9F022EC8EF0A4CCC5F0F2
:10098000CCCDF8EFA4CEC5F02DFDE43CFCE8A42EC0
:10099000C8C5F03DFDE43CFCEFA4FFE5F028FEE413
:1009A0003DFDE43CFC229002611222EC4003021463
:1009B000C8122257FF1221E41222FC1221E0120E6B
:1009C000A3D39DE5F09C40431222571221E412224A
:1009D000FC1221E012233C9430EE9475400C9002FE
:1009E000627475F0A37430F08010122257FF122148
:1009F000E41222FC1221E01222CC900261E075F098
:100A0000029000E912113BE40212511221C3122399
:100A10003C9410EE9427400C9002627427F0A3746B
:100A200010F080061221C31222CC122273900261B0
:100A3000E0FD75F0029000E912224130052575F0C5
:100A400002ED9000E91221F8D3942CEE9401401DA0
:100A500075F002ED9000ED12113B7427F0A37410B5
:100A6000F0800A75F002ED9000ED122235E490025C
:100A700062F0A3F012220EE0605E1222DDD3940039
:100A8000EC64809480401EEF25E02421122288D35C
:100A9000ED9FEC9E400F900261E01222B6E4F0A3BD
:100AA0007464F0801C900261E0FF1222B612239160
:100AB000400F9000081221E0120EA3FFE5F0122370
:100AC00050900261E0FF1223067401F01223257496
:100AD0000FF0A374A0F0800D1222627403F0A374CF
:100AE000E8F0123D78D3900263E09400900262E057
:100AF00064809480500302147EE0FEA3E0FF900027
:100B00000812225A1221E4122349EE3395E0FDFC2B
:100B1000E47BB87A88F9F8C31210AC500A900262EC
:100B20007488F0A374B8F030053C12220EE0701601
:100B3000EF25E02439F8E6FC08E6FD122273C39D98
:100B4000EE9C505D801A900261E025E02421F8E6D9
:100B5000FC08E6FDA3E0FEA3E0FFC39DEE9C504130
:100B60007C007DC8803590026112228F1223915043
:100B70000890021AE064207028EF25E02421122258
:100B8000881222DDC39FEC9E5017ED9400EC648028
:100B90009480400D1222737C007D0A120E2C1223C9
:100BA0004F12220EE06074EF122267E0FEA3E04EC7
:100BB0007011900261A3E0FCA3E0FD12180512235E
:100BC0004F802E1221EEFF1222DD123E56D3EF94FB
:100BD00032EE9400401B122262E0FCA3E0D394C8E2
:100BE000EC9400400CEF12226774FF75F09C120E1B
:100BF000621221EEFF7C007D07121159ECF8EDF92D
:100C0000EEFAEFFB122273EE3395E0FDFC120F7447
:100C1000E47B08FAF9F812101A800312227390028A
:100C200061E075F0029000451222411221EEFFD3DF
:100C30009405EE9400400EEF9410EE940050069050
:100C40000262EE8020900261E0FF75F00290003DAC
:100C5000122206FD75F002EF9000451221F82DFFDB
:100C6000EE3C900262F0A3EFF0D3900263E0943088
:100C7000900262E0648094F540077475F0A37430CC
:100C8000F0E5DB5404706112227390001112225AB5
:100C9000FD1221E4122349EF24A8FFEE8037E5DBA3
:100CA0005404704490000812225AFF1221E41223C7
:100CB0009C75F002EF90003D1221F8FF9000111298
:100CC000225AFD1221E4122349ED1221E4120EA34F
:100CD00024A8FFE5F03461FE90000E12114775F074
:100CE00002ED1221E712234922900275ECF0A3EDE8
:100CF000F0900274EFF01236E7C083C08290027B5E
:100D0000E0D082D0831236E1E070461236D8123637
:100D1000F5C083C08290027BE0D082D0831236E19E
:100D20001210E6E4FBFAF9F8C31210C2602312367F
:100D3000D81236FFC083C08290027BE0D082D0837D
:100D40001236E11210E6E4F8C31210C26003021674
:100D50002D12371CC3900276E09FFF900275E09E33
:100D60001217EEC083C08290027BE0FCD082D08359
:100D70001236E1EEF0A3EFF0ED1236E7123733E072
:100D80006050900274E0FF12373AC083C082900234
:100D90007BE0D082D0831236E1E0FCA3E0FDEF756A
:100DA000F005A424CEF582E4343EF583E493FE748A
:100DB0000193FFD3ED9FEC9E40181236D81236EB0C
:100DC000C083C08290027BE0D082D0831236E1746F
:100DD00005F012371C1236D81236F5C083C0829047
:100DE000027BE0D082D0831236E11210FE1236D898
:100DF000123709C083C08290027BE0D082D0831278
:100E000036C11236FFC083C08290027BE0D082D010
:100E1000831236E11210FE900274E0FF1236E7C032
:100E200083C08290027BE0FED082D0831236E1E064
:100E3000D3940074809480400EEF1236E775F00E64
:100E4000EE12113BE014F09002770217EA1236D846
:100E50001236F5C083C08290027BE0D082D083122C
:100E600036E11210E690027C1210FE1236D81236CD
:100E7000FFC083C08290027BE0D082D0831236E133
:100E80001210E69002801237131236D8123748C07B
:100E900083C08290027BE0D082D0831236E1E0F9F9
:100EA000F81210D3EFFBEEFAEDF9ECF81237161248
:100EB0000F819002841210FE90027C1210E69002C4
:100EC000771210F2120F749002841210F2120F7443
:100ED00012375212371C1236D81236F5C083C08230
:100EE00090027BE0D082D0831236E11237131236A3
:100EF000D81236FFC083C08290027BE0D082D083BC
:100F00001236E1123713ECC0E0EDC0E0EEC0E0EFC6
:100F1000C0E01236D8123709C083C08290027BE04D
:100F2000D082D0831236E1E0FEA3E0FBEEFAE4F9D2
:100F3000F8D0E0FFD0E0FED0E0FDD0E0FC12101AC7
:100F4000123752900274E0640160030217E712370F
:100F50001CEFFBEEFA123716C3EF9BFFEE9A121747
:100F6000EEC083C08290027BE0FCD082D083123638
:100F7000E1EEF0A3EFF0ED12373A123733E0FEA3C3
:100F8000E0FF900274E0FB75F005A424CCF582E448
:100F9000343EF583E493FC740193FDD3EF9DEE9C06
:100FA000406512371CEB75F01CA41236F5C083C0E7
:100FB0008290027BE0D082D0831236E11210FE12C2
:100FC00036D8123709C083C08290027BE0D082D02D
:100FD000831236C11236FFC083C08290027BE0D0FC
:100FE00082D0831236E11210FE1236D81236EBC0D0
:100FF00083C08290027BE0D082D0831236E17405F8
:10100000F012371C1237529002801210E622FE12A4
:101010003EB4900274E0FD75F01CA42431F582E426
:101020003402F58322900264EFF0A3ECF0A3EDF01C
:10103000EF1235EDE0FEA3E0FF123E56D3EF9432FF
:10104000EE9400401C1235BD12110A00000000127F
:101050003589E4F01236071235E9EEF0A3EFF0809F
:1010600043123578E0FEA3E0FFD39400EE940040F5
:1010700033900265E0FCA3E0FDD3EF9DEE9C400BB6
:10108000900264E01235B0E04401F0900264E0FFA9
:1010900012357CE0FAA3E0C39DEA9C50071235AFFD
:1010A000E04402F0900264E01235C2C083C08212B4
:1010B00010F2123607E4FCFD120F74D082D08312B6
:1010C00010FE900264E0FF123610E475F001120E7B
:1010D00062EF75F007A424ABF582E4343EF583E4B7
:1010E00093FE740193FF900264E0FDC454F02490D9
:1010F000F582E43402F583E0FAA3E0C39FEA9E5050
:1011000003021A85ED123610E0FEA3E0FFFBEEFAB3
:10111000E4F9F8900264E01235C21210E612101AD7
:101120009002671210FE123578E0FEA3E0FFEEC0D9
:10113000E0EFC0E012361DEFFDEEFCD0E0FFD0E0A6
:10114000FE123E5690026BEEF0A3EFF0900264E0C8
:10115000FD75F007A424A6F582E4343EF583C3743C
:1011600001939FE4939E401FED12357CE0FEA3E0C7
:101170004E6014900264E0FB1235FAE0FEA3E0C377
:1011800094B8EE940B5021900264E0FF12357CE09D
:10119000FCA3E04C7008EF1235FAE4F0A3F012362D
:1011A0001D123578EE021A2FEB600764016003020E
:1011B0001A35E490026DF090026BE0FEA3E0FFD3DD
:1011C0009450EE94004006A37408F08032900264BC
:1011D000E01235B0E064036026D3EF943CEE940057
:1011E000400890026D7402F08015D390026CE09478
:1011F0003290026BE09400400690026D7401F01290
:101200003578E0FEA3E0FFE4FCFD123623D3121094
:10121000C2401190026DE0FF123578E48FF0120E9B
:1012200062021A6BD390026CE0945090026BE094CF
:10123000004058123578C083C082E0FEA3E0FF90E2
:10124000026DE0FDC3EF9DFFEE9400D082D083F0ED
:10125000A3EFF08036123578E0FEA3E0FF4E700D6C
:10126000123623EBFFEAFEE9FDE8FC80167C007DE8
:1012700007121159123623120F74E47B08FAF9F899
:1012800012101A123578EEF0A3EFF01235BD1211DC
:101290000A00000000123589E4F012361D1235E90B
:1012A000EEF0A3EFF0123578E0FCA3E0FDD394005C
:1012B000EC94004056123607123E56900264E075D8
:1012C000F007A424A8F582E4343EF583D374019397
:1012D0009FE4939E400F900264E0FF12357C12352C
:1012E000CFE4F08026900264E0FF75F007A424AA02
:1012F000F582E4343EF583E493FE1235DBE0C39ED1
:1013000050091235781235CFE004F012360722E486
:10131000900262F0A3F012322FD39002AAE0940060
:101320009002A9E094004003021D559000CD1210D8
:10133000F2900020E0FEA3E0FFE4FCFD120F7490A9
:1013400000CD1210FE9000D1E475F001120E62C3C0
:101350009000D4E094649000D3E094005003021B0A
:10136000C19000CD1210E6ECC0E0EDC0E0EEC0E0B0
:10137000EFC0E09000D1E0FEA3E0FBEEFAE4F9F864
:10138000D0E0FFD0E0FED0E0FDD0E0FC12101A90DB
:1013900000CD1210FE9000CD1210E69000CBEEF0C2
:1013A000A3EFF0A312110A00000000E49000D1F0B6
:1013B000A3F0A3F0A3F09002A9E07002A3E07021D3
:1013C000900261F0123100501875F002EF9000D5D4
:1013D00012308D4E7003121D56900261E004F080B1
:1013E000E3E4900261F01231004003021D55745293
:1013F0002FF582E43400F583E0FF6028900261E07D
:10140000FE75F002123119E0FCA3E04C701690005A
:1014100020E0FCA3E0FD75F002EE123119ECF0A320
:10142000EDF0802DEF702A12310D9002611230A87C
:10143000120EA3C39496E5F094005015900261E05B
:10144000FF9000F31230CFF0A3F0123095E4F0A338
:10145000F0900261E075F0029000F312308DFF4EC3
:101460007003021D4C900020E0FCA3E0FDC3EF9D43
:10147000FFEE9CFE123EB4900262EEF0A3EFF090FD
:101480000261E0FD1230B3EEF0A3EFF075F002ED73
:101490009000F712308DD3940AEE94005003021D91
:1014A0004C12310D75F002ED1230AC120EA3D39434
:1014B00098E5F0943A404675F002ED9000FB12304A
:1014C0008DC39428EE94234003021D4C900261E0EA
:1014D000FB24CFF582E43402F583E075F018A4FF15
:1014E000AEF0EB1230B3E0FCA3E0FD120DC59002AC
:1014F00061E0123132EEF0A3EFF0021D4C12310D1B
:10150000900261E0FF1230A9120EA3FDACF0D3945B
:1015100088EC9413402875F002EF9000FB12308D98
:10152000C394D0EE94075044900261E01230B3E0CF
:10153000FAA3E0FB123095EAF0A3EBF0802ED3ED96
:1015400094E8EC94034025900261E0FF123132E010
:10155000FCA3E0C39458EC94025011EF1230B3E0B6
:10156000FCA3E0FD123095ECF0A3EDF0900261E0F9
:1015700004F0021BC622900264EFF0E0FF2452F553
:1015800082E43400F583E07003021E2E9000C31243
:1015900030894E701A9000CBE0FEA3E0FF90026409
:1015A000E09000C3123040EEF0A3EFF0021E5D9019
:1015B0000264E09000C3123066E0FEA3E0FF9000FA
:1015C000CBE0FCA3E0FD123E569000E112114790E3
:1015D0000264E0FD1230A9EE8FF0120F4774BF2DA8
:1015E0001230C3E070379000E112114775F002ED40
:1015F0001230AC120EA3C39406E5F09400500A1208
:10160000304CEEF0A3EFF08014E4FFEF1231055000
:101610000C74BF2F1230C37401F00F80EE9002647F
:10162000E0FF9000C3123099E0FCA3E0FD9000CBF6
:10163000E0FAA3E0FBD3ED9BEC9A400A74C12F12B1
:1016400030EAE4F080371230E47401F0802F900229
:1016500064E0FF9000C31230B6E4F0A3F0EF123064
:1016600063E4F0A3F074BF2F1230C3E4F09000D90C
:10167000123098E4F0A3F01230CBF0A3F01230BC9B
:10168000E07003021FB9123086D39400EE9400502C
:1016900003021FB912310D900264E0FD75F00212D1
:1016A0003056E0FCA3E0FD123E56900265EEF0A33A
:1016B000EFF0900264E09000E5123040E0FCA3E01F
:1016C000D39FEC9E400CD3900266E0948C1230DDE8
:1016D000501412306CC39DEE9C505D900266E094F5
:1016E000C81230DD40521230BCE4F09000C312301A
:1016F000CEF0A3F012310D75F002EF1230AC120EE5
:10170000A3FFAEF0900264E0FD123063E0FAA3E0C4
:10171000C39FEA9E500F75F002ED123113E4F0A35F
:1017200074C8F0800D1230F81231137401F0A374F4
:101730002CF01230E4E4F02212306CD39DEE9C4089
:101740004DD31230D74047900264E09000DD123054
:101750008A12312B503812309F74FF75F0F7120E39
:10176000DB1230CB12311F9000D912308D12312A8A
:10177000501C1230F29000D9400D12113B74FF75CD
:10178000F0F7120E62800712113BE4F0A3F0123062
:101790006CC39DEE9C50421230D7403D12309FE406
:1017A00075F009120EDB75F002EF9000D912113BB3
:1017B000E412311F9000DD12308D12312A501A12BE
:1017C00030F29000DD400B12113B74FF75F0F70210
:1017D0000E6212113BE4F0A3F022D39002AAE09F24
:1017E0009002A9E09E400AA3E09FF09002A9E09E2B
:1017F000F09002AE1237F29002ADE09C400CA3E0F4
:101800009FF09002ADE09EF08002D28AD39002ACAD
:10181000E09F9002ABE09E400AA3E09FF09002ABF5
:10182000E09EF012380350031237FDD39002B4E06B
:101830009F9002B3E09E400AA3E09FF09002B3E0C5
:101840009EF0D39002B8E09F9002B7E09E400AA3BA
:10185000E09FF09002B7E09EF0D39002BCE09F9032
:1018600002BBE09E400AA3E09FF09002BBE09EF026
:10187000D39000EEE09F9000EDE09E400AA3E09F31
:10188000F09000EDE09EF0D39002B0E09F9002AFA8
:10189000E09E400AA3E09FF09002AFE09EF090022D
:1018A000C01237F29002BFE09C400AA3E09FF09084
:1018B00002BFE09EF012381150031237FDD39002A0
:1018C000B6E09F9002B5E09E400AA3E09FF0900230
:1018D000B5E09EF0D39002BAE09F9002B9E09E403E
:1018E0000AA3E09FF09002B9E09EF0D39002BEE020
:1018F0009F9002BDE09E400AA3E09FF09002BDE0F1
:101900009EF0D39002B2E09F9002B1E09E400AA305
:10191000E09FF09002B1E09EF0D39000F0E09F9045
:1019200000EFE09E400AA3E09FF09000EFE09EF001
:1019300012381F50031237FDD39000D6E09F90005D
:10194000D5E09E400AA3E09FF09000D5E09EF0D342
:101950009000D8E09F9000D7E09E400AA3E09FF05F
:101960009000D7E09EF09000A31238659000A2E0AE
:101970009C400AA3E09FF09000A2E09EF0D390006C
:10198000F2E09F9000F1E09E400AA3E09FF09000FB
:10199000F1E09EF09000A51238659000A4E09C4014
:1019A0000AA3E09FF09000A4E09EF012382D5003AF
:1019B0001237FD12383B50031237FD1238495003DD
:1019C0001237FD12385750031237FDD390003AE01A
:1019D0009F900039E09E400AA3E09FF0900039E01C
:1019E0009EF022900005121147900261E0FF75F011
:1019F00002A4F58285F083120EA3FDACF090000BDB
:101A0000121147EF75F002A4F58285F0832290024F
:101A100061E090004575F00212113BE0FEA3E02268
:101A200075F00290000112113BE0FCA3E02290024D
:101A300061E0FF2452F582E43400F58322900054E3
:101A400012113B1210E6900264EEF0A3EFF090004A
:101A50005A75F00AEB12113BE4F0A3F022FD75F089
:101A60000212113BEEF0A3EFF022900261E0900031
:101A70005475F00A02113B90000B1211479002615D
:101A8000E022900261E0FF25E024BBF582E434020D
:101A9000F58322900262E0FEA3E0FF2275F00AA423
:101AA0002425F8E50825E028F8E6FE08E6FF22E010
:101AB000FF25E024B7F582E43402F5832290026228
:101AC000E0FFC39402748094802275F00212113BEF
:101AD000ECF0A3EDF02225E024B3F582E43402F526
:101AE00083229000A6EF75F00402113B120EA3C3EF
:101AF0009DFEE5F09C900262F0A3CEF0229002627F
:101B0000E0FCA3E0FD22EC8DF0020F47EFF0D39054
:101B100002AAE094009002A9E0940022120EA3FD14
:101B2000ACF0900005222427F582E43401F58322ED
:101B300012113BE475F001020E62900261E075F053
:101B4000029000B622EF25E024AFF582E43402F5DE
:101B50008322C3E50894047480948022120EA3C3E8
:101B60009DFFE5F09CFED3EF22EE8FF0020F47EED3
:101B7000900262F0A3EFF02290000512114790024C
:101B80006122900261E0FF75F00A90005A229002F3
:101B900061E0FF75F0029000FB22900008121147EF
:101BA000900261E0FF229002AB7403F0A37420F076
:101BB00022E0FCA3E0D39400EC940022E4F5F002D0
:101BC0000F47900261EFF0A37402F0A374BCF0E43D
:101BD000A3F0A3F0D39000F2E094009000F1E09421
:101BE0000040091223581221CC1222E69002A9E0EB
:101BF0007002A3E0600B900262E4F0A37464F080D2
:101C00000B900143E0641170037420F0900261E0D6
:101C1000FB122213E06020900261E0FA12224E12C1
:101C2000110A0000000075F00AEA900058122235EF
:101C300075F00AEB02255D12224AC083C0821210A1
:101C4000F2E8C0E0E9C0E0EAC0E0EBC0E0122358EF
:101C5000E01221E4120EA3FFAEF0E4FCFDD0E0FBA5
:101C6000D0E0FAD0E0F9D0E0F8120F74D082D0833F
:101C70001210FE900261E0FF9000581222511223D0
:101C80001375F00AEF90005C1221F8FF900262E0F9
:101C9000FCA3E0FDC3EF9DEE9C50030225631222DE
:101CA0004AC083C0821210E6ECC0E0EDC0E0EEC096
:101CB000E0EFC0E0900261E075F00A900058122158
:101CC000F8FBEEFAE4F9F8D0E0FFD0E0FED0E0FD5A
:101CD000D0E0FC12101AD082D0831210FE90000BBC
:101CE00012235BE01221E4120EA32450FFE435F02E
:101CF000FEE4FCFD12224A1210F2D31210C240364A
:101D00009002A9E07002A3E0702C900261E0FB1247
:101D10002306E0702112236212231075F00AEF905F
:101D2000005A1221F8D39403EE9400401D75F00A76
:101D3000EB12221D8014900261E0FB75F00A122262
:101D40001D900261E0122306E4F0122362122206C3
:101D50004C700E900264E0FCA3E0FD1221DD122223
:101D6000E6900261E0FB12224E12110A0000000010
:101D7000900058122231900261E075F00A90005CE8
:101D800012223522C0E0C0F0C083C082C0D0E8C0BB
:101D9000E0D2AFD39002AAE094009002A9E09400B0
:101DA00040031237E4D39002AEE094019002ADE01C
:101DB000940040051237E48002D28AD39002ACE04E
:101DC00094009002ABE0940040031237E412380311
:101DD00050031237EBD39002B4E094009002B3E0CA
:101DE000940040031237E4D39002B8E094009002CC
:101DF000B7E0940040031237E4D39002BCE09400B3
:101E00009002BBE0940040031237E4D39000EEE070
:101E100094009000EDE0940040031237E4D3900268
:101E2000B0E094009002AFE0940040031237E4D396
:101E30009002C0E094019002BFE09400400312378A
:101E4000E412381150031237EBD39002B6E094003D
:101E50009002B5E0940040031237E4D39002BAE058
:101E600094009002B9E0940040031237E4D390024A
:101E7000BEE094009002BDE0940040031237E4D32A
:101E80009002B2E094009002B1E094004003123757
:101E9000E4D39000F0E094009000EFE09400400361
:101EA0001237E412381F50031237EBD39000D6E0FC
:101EB00094009000D5E0940040031237E4D39000E2
:101EC000D8E094009000D7E0940040031237E4D3A8
:101ED0009000A3E094019000A2E094004003123728
:101EE000E4D39000F2E094009000F1E0940040030D
:101EF0001237E4D39000A5E094019000A4E0940090
:101F000040031237E412382D50031237EB12383BDE
:101F100050031237EB12384950031237EB1238577F
:101F200050031237EBD390003AE09400900039E070
:101F3000940040031237E4D0E0F8D0D0D082D083B0
:101F4000D0F0D0E0327B017A0179297DFF7C00124C
:101F50003E6C7B017A0079017D267C01123E6C7B10
:101F6000017A0279A87D1A7C00123E6C902DE0E483
:101F70009390012AF090012D7411F0A37422F0A324
:101F80007433F0902DE2E49390013BF0902DE3E464
:101F90009390013DF09002247401F090017374114C
:101FA000F090021A14F090014DF0A37420F07B0120
:101FB0007A0179679000051211507A01796B9000CF
:101FC0000B1211507A01796F9000081211507A01AA
:101FD000795B90000E1211507A0179639000111212
:101FE00011507A01795F9000141211507A017989A9
:101FF0009000221211507A0179A99000E11211503B
:102000007A01793390004C1211507A017944900092
:10201000491211507A0179539000171211507A0128
:10202000794F90001A1211507A01795790001D12C1
:102030001150900017121147E475F0C8120F289044
:10204000001A121147E475F064120F2890001D1257
:102050001147E475F096120F28753900753AC87566
:102060002100752296900017123E9775F0C8120F46
:102070004790001A123E9775F064120F4790001DAA
:10208000123E9775F096120F47753B00753CC87568
:1020900023007524967B017A01797990004F121103
:1020A0005090017B7414F0740C123E9FA37416F0D0
:1020B000740A123E9FA304F0A37404F0A37407F003
:1020C0009001497410F09002A97407F0A374D0F045
:1020D000E49002A8F02290026BEFF0902E22E0FF35
:1020E00090026FE4F0A3EFF0758A50902E227401F5
:1020F000F090026BE01238FE7404F0A3E4F090025A
:102100006CF090026CE0FFC3940D748094804003E7
:102110000229D9EFF87E02E4088006CEA2E713CEAA
:1021200013D8F8FF90026DEEF0A3EFF04E70079019
:10213000026DF0A304F0902E207401F0902E20E0A8
:1021400030E2F990026BE0FF902E00123901E0FCC2
:10215000A3E0D394FEEC94074044EF902E10123984
:1021600028E0FEA3E0FF90026DE0FCA3E0FDEF2D70
:10217000FFEE3CFEC3EF94FFEE940790026BE07518
:10218000F002902E10500B12113BEC8DF0120E62EB
:10219000805712113B7407F0A374FFF0804B90023C
:1021A0006BE0FF1238FEE0FCA3E0FD90026DE0FA68
:1021B000A3E0FBD3ED9BEC9A4024902E1012393112
:1021C000C083C082C3A3E09BFF0582D58202158332
:1021D0001582E09AD082D083F0A3EFF0800B9002BA
:1021E0006BE01238FEE4F0A3F0902E20E4F0F58DC1
:1021F00090026CE004F00228E290026FA3E0902EBF
:1022000022F0758A1022900264E0FF9000FF75F0C2
:102210001212113BE50875F00202113B900264E0D6
:1022200025E025E0246CF582E43402F58322ED906C
:10223000008375F00212113BE0FEA3E022CBEFCB4E
:10224000EEFAC3E5149BFFE5139AFEE5129400FD38
:10225000E51194008F148E138D12F51122FD75F087
:102260000212113BEEF0A3EFF022900264E0FF2592
:10227000E02466F582E43402F58322900123ED75B3
:10228000F00202113B123E3D53B2E143B20C758A9B
:102290005043B202902E207401F022900264E0FFBD
:1022A000C394027480948022900264E0FD75F00271
:1022B00022900081E0FEA3E0FBEEFAE4F9F822FFB1
:1022C00075F00212113BE0FCA3E022EF75F01290D2
:1022D00000FF22F583E4932420F582E4342EF58375
:1022E0002253B2E1758A1043B21043B2022275F054
:1022F0000490002D02113BFDEF12113BECF0A3ED19
:10230000F022ED75F00290007D22EF900806939088
:10231000080393223EFE7C007D03020DD7900264E9
:10232000E004F022F582E43402F583E0FF22E0FECF
:10233000A3E0FFE4229002611222EC4003022C375A
:10234000300545900261E075F0029000ED1221F831
:102350004E9002616019E0FF25E02439F8764E08BE
:102360007620EF25E02421F8761F0876408045E0AE
:10237000FF25E02439F8760B0876B8EF25E0242114
:10238000F876090876C4802C12236E12220624C81F
:10239000FDE43CF8EF25E02439C8F608EDF61223F9
:1023A0006E1222062496FDE43CF8EF25E02421C8B5
:1023B000F608EDF612237A1221E4120EA3FDEF25A2
:1023C000E02439122288C3ED9FE5F09E502490024C
:1023D00061E0122213E0603212237A1221E4120E1D
:1023E000A3FDEF25E02421122288C3ED9FE5F09E96
:1023F000401890026112228FE0FCA3E04C703A7406
:10240000522F1222157401F0802F90021AE06420DE
:10241000900261700AE0122291E4F0A3F0800AE0D9
:10242000122291E4F0A374C8F0900261122211E428
:10243000F0EF1222B6E4F0A3F0900261E012221352
:10244000E06003122386900053E0C454F0FF900034
:1024500052E04F900174F022900261EFF012231EBF
:102460001221F8FFC39404EE94005027900261E01B
:10247000122200FD1222C2C083C082900261E0FFDE
:10248000D082D0831222AA75F002EF9000B61223F8
:1024900010804D9002667401F0900266E0FFC31256
:1024A000233550291222C2C083C082900261E0FE0F
:1024B000D082D08375F002122206FD9000A2122273
:1024C000C5EE1222AA900266E004F080CC90026170
:1024D000E0FF122200FD75F002EF9000B21222AD73
:1024E00090026212110A00000000E4900266F012ED
:1024F000231A1221F8FF900266E0FDD3EF9DEE94BF
:102500000040349002621210F2900266E09000A641
:102510001222C6C083C082900261E0D082D08312B2
:1025200021F5FFE4FCFD120F749002621210FE9080
:102530000266E004F080B89002621210E6ECC0E09F
:10254000EDC0E0EEC0E0EFC0E012231A1221F8FB6C
:10255000EEFAE4F9F8D0E0FFD0E0FED0E0FDD0E004
:10256000FC12101A9002621210FE9002620210E633
:10257000787FE4F6D8FD75813C022D9A02000002B6
:102580003B15E493A3F8E493A34003F68001F2081B
:10259000DFF48029E493A3F85407240CC8C333C4A0
:1025A000540F4420C8834004F456800146F6DFE40B
:1025B000800B0102040810204080903D4AE47E0117
:1025C0009360BCA3FF543F30E509541FFEE493A37E
:1025D00060010ECF54C025E060A840B8E493A3FA90
:1025E000E493A3F8E493A3C8C582C8CAC583CAF01C
:1025F000A3C8C582C8CAC583CADFE9DEE780BE00BA
:102600000200AB4A74AA7583F5758255A574557599
:1026100083FA7582AAA574A57583F5758255A522DE
:1026200002030AB00BB60CFF090208FF0D770E0477
:1026300013071410108015001600011292120712D1
:1026400010130F0404040401010111141608120CE4
:102650000A0403010204900264EFF0E4F50CF50BA8
:10266000F50AF509F50CF50BF50AF509F50812233D
:10267000325025900264E012227CE4FCFDE50C2F30
:10268000FFE50B3EFEED350AFDEC35098F0C8E0B98
:102690008D0AF509050880D6E47B04FAF9F8AF0C39
:1026A000AE0BAD0AAC0912101A900264E075F0028C
:1026B0009000BA122241E4750CA8750B61F50AF579
:1026C00009F5081223325074900264E0FD12227C56
:1026D00075F002ED9000BA122206FD123E56D3EFBD
:1026E000940AEE9400900264E0FF400B75F00290B3
:1026F00000BA122206801175F00AA42425F8E50814
:1027000025E028F8E6FC08E6FD75F002EF9000777A
:102710001221F8FFC3ED9FFFEC9EFE3395E0FDFC18
:10272000E50C2FFFE50B3EFEE50A3DFDE5093C8F7C
:102730000C8E0B8D0AF5090508022EA3E47F607E3E
:10274000EAFDFCAB0CAA0BA90AA809D31210C240DF
:102750000BE4750C60750BEAF50AF509AE0BAF0CCE
:1027600022123976123DA27A0079B61230247A000C
:1027700079A67D101230387A00798D1230247A00D3
:10278000798912302E7A00799112302E7A0079529E
:102790007D021230387F0412313BE4FFEF1222A297
:1027A000505875F002EF122203FD9000051221E04F
:1027B0001222E675F002EF122203FD1221DD122231
:1027C000E69000081221E012239C90000E1221E0F6
:1027D000746175F0A8120F479000141221E0746123
:1027E00075F0A8120F479000111221E012239C12DD
:1027F0002325E4F0A3F00F022F7C7B017A0079BF40
:102800007D227C00123E6C7B017A0079547D147C21
:1028100000123E6CE4900130F09001737411F0A34B
:10282000F01223869002C1E0700FC39002AAE094D8
:10283000F49002A9E09401500A9002A97401F0A357
:1028400074F4F0227B017D047C00123E6C227B013B
:102850007D047C00123E6C227B017C00123E6C22C7
:10286000FD75F00212113BEEF0A3EFF0900008129C
:10287000114775F002EDA4F58285F083120EA3FFD7
:10288000AEF0ED9000C775F00202113B9000081207
:102890001147900264E0FF75F002A4F58285F08391
:1028A000120EA3FDACF09000C7EF75F00212113BC1
:1028B000E0FEA3E0229000FBEF75F00202113B90D6
:1028C000000B121147900264E075F002A4F58285B6
:1028D000F083229000F775F00202113B900264E051
:1028E000FF24BFF582E43400F583229000DDEF750C
:1028F000F00212113BE422900266E094149002650B
:10290000E0940022900264E024C1F582E43400F5F2
:102910008322EF9409EE9400900264E075F00222A5
:10292000900261E0FFC394027480948022900008BA
:102930000211479000D502113B9000F302113B7544
:10294000F009120E6275F002EF22FFC39430EE948C
:10295000752275F0029000FB02113B900261EFF0CE
:10296000E4900263F0900261E0FF900263E0C39F95
:10297000507912082EE4900262F012229D506312E8
:102980003C03900262E090009112223D75F002ED4E
:1029900090009112113BE0F8A3E0FFED75F00AA45E
:1029A000242DC8F608EFF6ED75F00AA4FF2425F9EA
:1029B000E4FAFBC0E0C0E0E9C0E074272FF9E4903E
:1029C000026712115090026AE4F0A37408F0D0E09C
:1029D000F9D0E0FAD0E0FB123B67900262E004F02D
:1029E0008098900263E004F0023145E4900262F0C6
:1029F00012229D5059122E36900262E09000011270
:102A0000223D75F002ED9000411221F8FF75F002B1
:102A1000ED90008D122206FD123E567C007D0512BF
:102A20000DD7900262E0FF90003D1222AA75F002DD
:102A3000EF90008D1221F8FF900262E075F0029095
:102A40000041122241900262E004F00231D022756E
:102A50008D20438D20538D7FE4F5B275B6FF75B799
:102A6000FF75B2A243B20153A8FB538B7F758B1045
:102A7000438B08E58B20E7030080F8538B7F758B31
:102A800011438B08E58B20E7030080F89002CDE529
:102A9000B5F0A3E5B4F0758B01E4F5B27F02FE1248
:102AA0001FBA123E07E4F58D900020E0FEA3E0FF80
:102AB0004E700E123ED5FD900020E5F0F0A3EDF033
:102AC00022123ED5FDC3EF9DFFEE95F0FE123EB4FF
:102AD000D3EF940AEE648094804022123ED5FFC367
:102AE000900021E09F900020E095F05006E475F002
:102AF00001800790002074FFF5F0020E6290002024
:102B0000E0FEA3E0FF7C007D03121159ECC0E0ED74
:102B1000C0E0EEC0E0EFC0E0123ED5FFAEF0E4FC56
:102B2000FDD0E0FBD0E0FAD0E0F9D0E0F8120F746D
:102B3000E47B04FAF9F812101A900020EEF0A3EFEB
:102B4000F022E4900068F0A3F0A37403F0A37420D3
:102B5000F0123D147B017A0079777D067C00123EED
:102B60006C7F02123DC7902E14E0FEA3E0FF7C00B4
:102B70007D0A120DC590004F121147EE8FF0120F13
:102B800028E4900260F09002601239624003023340
:102B9000F7123DC7900260E090080693FF1238FEDE
:102BA000E0FCA3E0C39405EC94004012902E1012B8
:102BB0003938E0FEA3E0D394F0EE9407401290027F
:102BC00060E0FF900068123932E4F0A3F0123DC7D4
:102BD000902E23E4F09002601238F812391812395E
:102BE0006C90004C121147900260E0FD75F00212EB
:102BF0003911EE8FF0120F47ED70131239071239A9
:102C000057400B12390774FD75F0A8120EDB9002C5
:102C100060E004F00233669001467410F022C0E0D8
:102C2000C083C082C0D075D018D2AFE5DB30E422BB
:102C3000D203C202E5DB30E114123E82E0F5DFEFA1
:102C400064077069D28A900130F00234B0C2010288
:102C500034B3E5DB30E52C900219E064AA701775F7
:102C60008A10F5DAC2AFF5B2F5A8F5A9F58B758E25
:102C700001758DC080FED200300204C2028054C2B1
:102C8000038050C202E5DB30E125E5DB30E0441291
:102C90003E82E0F5DFEF24F9600C24FA60042402A0
:102CA000700BD2048007D28A900130E4F08021209A
:102CB000010A7815A6DFD201D2028017123E82E502
:102CC000DFF0EF642470099002AB04F0A374F4F019
:102CD00078150675DBFFD0D0D082D083D0E032E407
:102CE000FFFD9002ADE07004A3E06401701190015B
:102CF00030E06004D28AE4F0E49002ADF0A3F090FA
:102D00000052E0600E90014DE064106006EF442038
:102D1000FF8004EF4410FF900053E0600E90014DDF
:102D2000E064106006EF4402FF8004EF4401FF906E
:102D30000173EFF0900000E0FC6F605B900173E0C6
:102D4000FFEC6FFE900000EFF0208A1BD28A900209
:102D5000ADE4F0A37403F09002AEE024FFFB900218
:102D6000ADE034FF4B70F0900130E07007900173DC
:102D7000E05E8013EEF4FF900000E05FFDEEFF9058
:102D80000173E05FFFED4F900130F09002AD7403EE
:102D9000F0A374E8F0C28A22900264E0C454F024E4
:102DA0008EF582E43402F58322EBC454F0248CF5D2
:102DB00082E43402F583E4F0A3F0900264E0FFC4FF
:102DC00054F02490F582E43402F583E4F0A3F0EFAC
:102DD000C454F02495F582E43402F5832290026411
:102DE000E0FBC454F02488F582E43402F58322E049
:102DF000FDA3E0900265CDF0A3EDF0EFC454F02404
:102E000094F582E43402F58322900264E0C454F025
:102E10002492F582E43402F58322C454F02496F51A
:102E200082E43402F58322900265E0FEA3E0FF22F3
:102E3000C454F0248CF582E43402F58322900267B6
:102E40000210E69002670210F22004030236C0303E
:102E500005030236C0C204E4900261F090026112E0
:102E600039625072E0FE1238FAE0FCA3E0FDEE1287
:102E7000393FECF0A3EDF0123DC79002611238F833
:102E800012391812396C900261E0FD12394BEEF0E4
:102E9000A3EFF0ED12394BE0FEA3E0FF123907EE8D
:102EA0008FF0120F47ED7013123907123957400B8C
:102EB00012390774FD75F0A8120EDBED12393FE0F0
:102EC000FEA3E0FFED1238FAEEF0A3EFF0900261FE
:102ED000E004F002363C9002AB7403F0A37420F0DF
:102EE0002275F00E12113BE0FEA3E0FFE4FCFD9022
:102EF00002771210F2120F8F900274E075F01CA48A
:102F00002275F00E02113B75F01CA42430F582E40A
:102F10003402F58322242CF582E43402F583222442
:102F200028F582E43402F583222434F582E4340265
:102F3000F583221210FE9002800210E690027702C2
:102F400010E6ED75F005A424CBF582E4343EF5835C
:102F5000E49322EC75F00E02113B75F01CA42431B1
:102F6000F582E43402F583222433F582E43402F559
:102F700083229002800210FE900149E064207003D9
:102F80007421F0900049121147120E78641045F038
:102F90007003123C8F90012AE064AA7003123A6415
:102FA000123BB8200608900143E06410700D9001B8
:102FB000437411F0C206E49002A8F0900224E0608D
:102FC00006E4F09002A8F09000A2E07004A3E06490
:102FD00001600C9000A4E07004A3E064017015E4AB
:102FE0009000A2F0A3F0A3F0A3F09000F1F0A3F002
:102FF0009002A8F030000CC2009002AB7401F0A364
:1030000074F4F02274FFF5F0020E62E475F0010230
:103010000E62EF2401FDE43EFCD3E09D22EE8FF032
:10302000020E62C390005DE094BC90005CE09402EC
:1030300022C3900067E094BC900066E0940222C333
:103040009000D4E094649000D3E0940022C39002F6
:1030500097E094B8900296E0940B22C3900291E01E
:1030600094F4900290E0940122C39002A7E094B8F7
:103070009002A6E0940B22C39002A1E094F4900287
:10308000A0E0940122EF2401FDE43EFCD3E09D2268
:10309000208A030238F79002A9E07002A3E070775B
:1030A0009000A2E07002A3E0706D9000A4E07002B6
:1030B000A3E07063F5B2758D20438D20758D80433C
:1030C000A808D2AFF58B900039E0FEA3E0FF4E6078
:1030D00005758E508003758EFE20002F20032CE591
:1030E000DB54047026758A84200320E5DB540470C9
:1030F0001AF586758703000000758601EF4E60049F
:103100007F5080027FFE7E00121FBA758B01758A88
:103110001053A8F7123E0722E0FB90080693902E6A
:103120001075F00202113B90004C12114775F0022D
:10313000EDA4F58285F08322E0FEA3E0FF7C007D14
:103140000A120DC5EB90006875F00202113B900069
:10315000A2EF75F00202113B75F002EF02113B2560
:10316000E02466F582E43402F5832225E02462F54A
:1031700082E43402F58322120EA3D39458E5F0942E
:103180000222E0FFC394027480948022E0FCA3E05A
:103190002FFFEC3EFE227B017A0279287D387C00ED
:1031A000123E6CE4FDEDC39402748094805062E49E
:1031B000900260F0900260E0FFC3940274809480FB
:1031C000504B123722FEED75F01CA4123748EF1257
:1031D0003734EEF012372204F87E007401088005BF
:1031E000C333CE33CED8F9FFED75F01CA4123709E6
:1031F000C083C082900260E0D082D0831236E1EEBC
:10320000F0A3EFF0900260E004F00239940D02396F
:103210008522E4FEEEC3940774809480502FEE253F
:10322000E025E0241BF582E4342EF583E5822FF5BA
:1032300082E43583F583E493FDEE25E025E0241A4E
:10324000F582E4342E122AB3EDF00E80C7EFFD7C38
:1032500000701775F002EF90006812113BE0FAA3BE
:10326000E04A7006902E217412F0ED64014C701348
:1032700075F002EF900068122A154E7006902E210C
:103280007412F0229002607408F0A3E4F0A3743F7B
:10329000F0A374DFF0E4FDFCF9123E9000900260B0
:1032A000E0FEA3E02DF582EE3CF583E493FF69F99F
:1032B0000DBD00010CBC37E5BDDFE2900262E0FE0F
:1032C000A3E0F5828E83E493FFE96F700890012AF2
:1032D0007402F08005E490012AF0123E9000227FF3
:1032E0000112313B121AEFE4900260F0900260127A
:1032F00022A0503B123CD2900260E0FF122C38EE2C
:10330000FCEFFD900005121147900260E0FF1221D2
:10331000E41222E6121186900260E0FF122B159053
:103320000260E0FF1223A2900260E004F080BD1270
:1033300034BF02362953A87F123E23122725123D9F
:10334000EB12080E43A880E4F58D1237589002A8BE
:10335000E014601214601A240270EC1233229002FE
:10336000A87401F080E1122F419002A87402F0804D
:10337000D6123ABF900149E0FF642060CAEF642191
:1033800060C512387080C090026C121150900267B4
:1033900012114790026F12115090026AE07002A35E
:1033A000E0603490026F121147120D9AFF90026C88
:1033B000121147EF120DB390026DE475F001120E79
:1033C00062900270E475F001120E6290026A74FF5E
:1033D000F5F0120E6280C22290013CE0FF9002C222
:1033E000E06F600CEFF09002BF7402F0A37458F02D
:1033F0009002BFE07004A3E0640170269002C2E076
:10340000FF7E0064107002D205EF64204E7002C28D
:103410000590014EE064106002D206E49002BFF015
:10342000A3F022EFFB90008D1221F5FF75F002EB67
:1034300090008912224175F002EB90009112220651
:10344000FDECC0E0EDC0E075F002EB9000891221C8
:10345000F8FFE4FCFD9002771210FEEB90027BF087
:10346000D0E0FDD0E0FC7F010214C9C2D5E830E70E
:103470000FB2D5E4C39BFBE49AFAE499F9E498F817
:10348000EC30E717B2D5123C8112101AE4C39BFB53
:10349000E49AFAE499F9E498F8800312101A30D506
:1034A0000DE4C39FFFE49EFEE49DFDE49CFC22E44A
:1034B000900260F0A3F0123E9000122DE475EA81B4
:1034C000E4F5F6F5F475F308F5F275EB0700E5ECB5
:1034D00030E7FBAFF3EFFEADF2EDFF9000491211C4
:1034E00047EE8FF0120F28E4F5EC75EB30123E90AA
:1034F0000022900077123938E0FCA3E0243CFDEC78
:1035000034F6FC75F002EF90008D12113BE0FAA347
:10351000E0C39DEA9C501512392EE0FCA3E04C70EC
:103520001212392E7401F0A374F4F02212392EE431
:10353000F0A3F022E4FFEFC3940D74809480502137
:10354000EF25E02401F582E4342EF583E493FEEFC9
:1035500025E02400F582E4342E122AB3EEF00F8029
:10356000D5902F56E0902E2BF022C1034202CF05BA
:1035700004C1044102C300C1054102C200C10101EE
:103580001500C100C102420127000041000011C125
:10359000064302CA0102CD00900264EFF0E075F02C
:1035A00010A42488F9740235F0FA7B017D107C00A8
:1035B000123E6C900264E01235FA740BF0A374B8FA
:1035C000F0227A00797D123DBD7A007983123DBDEB
:1035D0007B017A0079FF7D247C00023E6C7B017DBB
:1035E000067C00123E6C2290026AEFF0123E3D9083
:1035F000026AE0FF1239F290026AE090080693FF37
:103600001228B690026AE0FF023EC0E4F5DA75DAED
:103610004043DA2075D74075D64075DA5843A80282
:1036200075B80275F80222E5B254016006E5A854A7
:1036300010700F75B29275B6F9E4F5B743B2014355
:10364000A81022758A10538AEF758601758F02E4DF
:10365000F5AB75AC0F75913FF592D28A22EFF874F5
:1036600001088002C333D8FC42AB122AEAF452911B
:1036700052935391DF22D3EF9DEE9C4007EF9DFFC5
:10368000EE9CFE22C3ED9FFFEC9EFE22ED4C6011EE
:10369000E4120DB30429F9E43AFAED1D70EE1C8032
:1036A000EB227815E6FF2429F582E43401F5832224
:1036B000758A10538AEF22121147900002E422A368
:1036C000F0A37407F022009600960701F40096001C
:1036D000960701F4EE30E707C3E49FFFE49EFE2265
:1036E000122AEA429142884391202204001E0019C6
:1036F00001001900199002CA121147020E78000049
:1037000000000000000000000000000000000000B9
:1037100000000000000000000000000000000000A9
:103720000000000000000000000000000000000099
:103730000000000000000000000000000000000089
:103740000000000000000000000000000000000079
:103750000000000000000000000000000000000069
:103760000000000000000000000000000000000059
:103770000000000000000000000000000000000049
:103780000000000000000000000000000000000039
:103790000000000000000000000000000000000029
:1037A0000000000000000000000000000000000019
:1037B0000000000000000000000000000000000009
:1037C00000000000000000000000000000000000F9
:1037D00000000000000000000000000000000000E9
:1037E00000000000000000000000000000000000D9
:1037F000000000000000000000000000000000FDCC
:1038000000000000000000000000000000000000B8
:1038100000000000000000000000000000000000A8
:00000001FF
