:100000001058002035CF0008E9BC000809BD0008E1
:1000100000000000000000000000000000000000E0
:1000200000000000000000000000000031BD0008DA
:10003000000000000000000051BD000871BD000874
:1000400083590008DF5E0008B7BF0008E35E0008C0
:100050001B6800080B8900088F9E000897A0000805
:100060002BAF0008C1BF0008CBBF0008D5BF0008F8
:100070001FB0000877B0000887B10008DFBF000894
:100080004FB5000877B5000807B6000803C7000899
:10009000B3CB0008C3CE0008D3CE0008E9BF0008E8
:1000A0000DC0000823CF000861CF000863CF00080F
:1000B0002DC0000857C0000865CF00087047704782
:1000C000F446002804D4494200F013F84042604747
:1000D0004042002905D45FD000F00BF8404249426D
:1000E0006047494200F005F84942604703460B4328
:1000F000E6D40022030A8B420BD203098B4219D2A9
:1001000043088B422ED2411A00D20146524110467A
:100110007047FF2209023FD012068B4205D312120C
:1001200009028B4201D31212090203098B4219D32F
:1001300000E0090AC3098B4201D3CB01C01A524126
:1001400083098B4201D38B01C01A524143098B4270
:1001500001D34B01C01A524103098B4201D30B0159
:10016000C01A5241C3088B4201D3CB00C01A52417E
:1001700083088B4201D38B00C01A524143088B4243
:1001800001D34B00C01A5241884200D3401A524159
:10019000CFD201461046704708B505F09FFE08BD56
:1001A000000000000000000000000000000000004F
:1001B000000000000000000000000000000000003F
:1001C000000000000000000000000000000000002F
:1001D000000000000000000000000000000000001F
:1001E000000000000000000000000000000000000F
:1001F00000000000000000000000000000000000FF
:100200000027002720210422000000000000000039
:1002100038B5040015D025007C356868002804D165
:1002200000202870200001F0F8F824206860206881
:100230000168012291430160200000F02FFA01289B
:1002400001D1012032BDA06A002802D0200000F0B8
:1002500017FF20684168254A0A404260206881688B
:100260002A22914381602068016801220A430260CA
:10027000200000F06AFF32BD38B5040015D025001B
:100280007C356868002804D100202870200001F027
:10029000C4F824206860206801680122914301604D
:1002A000200000F0FBF9012801D1012032BDA06A35
:1002B000002802D0200000F0E3FE206841680B4ACD
:1002C0000A40426020688168222291438160206850
:1002D000816808220A4382602068016801220A437B
:1002E0000260200000F031FF32BD0000FFB7FFFFC9
:1002F00038B5002801D1012032BD04007C3424210E
:10030000616001680A6801239A430A600025016858
:100310000D6001684D6001688D6001F046F9E5608F
:100320006560A5602570284632BD70B505002E00B9
:100330007C367068202848D100290CD010000AD0E3
:10034000A86880235B01984207D12869002804D15E
:100350000800C00701D5012070BD7C20285C012861
:1003600033D001203070296528005430028042804B
:100370000024F46021217160016A00291AD03F4BEA
:10038000CB623F49036A19635E49036A5963016A94
:100390008C63130029680A002832296D006A01F075
:1003A000E1F9002806D01020F06034702020706041
:1003B000012070BD40202968086234702868816877
:1003C00080220A438260204670BD022070BDF8B5CD
:1003D00005002E007C36B06820284CD100290CD0B6
:1003E00013000AD0A86880225201904207D12869E0
:1003F000002804D10800C00701D50120F2BD7C20EF
:10040000285C012837D0012738003070A965280002
:100410005C3003800024F4602221B160C1690029AE
:1004200018D0394ACA623949C26911633549C2696B
:100430005163C1698C63AA6D29682431C06901F0D8
:1004400091F9002806D01020F060347020207060F0
:100450003846F2BD3470286801683A020A430260E7
:10046000286881680F4387602868816840220A43B2
:1004700082602046F2BD0220F2BD00004B1200084F
:100480007B12000870B504008020215825008435B7
:100490002E6820688268120614D5212912D181683D
:1004A000802291438160606F002808D001F0A9F993
:1004B000002804D0606F01F099FA202818D020009D
:1004C00000F0A5FE20688168490618D5222E16D1B5
:1004D0008168402291438160A06F00280CD001F018
:1004E00090F9002808D0A06F01F080FA202803D1ED
:1004F00010206860032070BD200000F096FE0020F0
:1005000070BD0000F712000885120008ED12000807
:10051000F8B504002568E8692968AA6803071B0F75
:100520000DD1202630420AD00E4001D1D60006D58A
:10053000E16E002900D1ACE020008847F1BD002B1E
:1005400077D0544B1A4203D1902676000E4070D0DB
:100550000600F60708D5CE0506D501262E628825A9
:1005600065592E4388256651022528420AD0160077
:10057000F60707D5266835628826A75904263E4324
:100580008827E6510426304209D01700FF0706D518
:1005900027683E628826A65935438826A551082536
:1005A00028420AD08E0601D4134006D023681D626B
:1005B000230088331E682E431E60270088373B685F
:1005C000002B66D02023184008D00B4001D1D0006A
:1005D00004D5E16E002901D0200088473868402604
:1005E00021688968314001D105401CD0200000F00D
:1005F0001CFE206881680E4011D081684022914322
:100600008160A06F00280AD023498163A06F01F0A8
:1006100036F900283DD0A06F816B8847F1BD2000DE
:1006200001F0FAFFF1BD200001F0F6FF0020386074
:10063000F1BD80235B03184206D0560204D52B621D
:10064000200002F0D2F8F1BD8023184209D00B40FF
:1006500001D1120205D5216F00291AD02000884748
:10066000F1BD4022104205D00A4003D0200000F026
:100670007BFEF1BD020205D54A0003D52000FFF73D
:100680001DFDF1BDC00104D5002902D52000FFF7F2
:1006900016FDF1BD0100001045130008FEB507006E
:1006A00000242646204639680A683E4B1340BA6843
:1006B0001A433B6913437A691A43FB6913437A6E01
:1006C0001A430A6039684A68374B1340FA681A437C
:1006D0004A60B96900913A6834498A4203D0009D62
:1006E0003B6A2B4300939568314B2B40009D1D4383
:1006F00095603A68D36A0F25AB437D6A1D43D56286
:100700003A682C4B9A4223D12B4B1B689B079B0FBB
:100710005AD0022B2BD059D3032B59D0102301933D
:1007200001258A4200D06FE21946002909D002292A
:1007300000D17FE0042900D1B2E0082900D1E6E031
:100740001BE102F0F4FB796A002943D129006EE035
:100750001A4B9A420DD1184B1B680C251D4033D003
:10076000042D33D0082D02D00C2D31D0D6E7022332
:10077000D5E7134B9A4227D0124B9A4224D08A4293
:10078000CCD10D4B1D68C0231B012B401CD00D0D7F
:10079000AB421BD0CD0CAB42E9D0C0252D01AB4202
:1007A00016D0BBE7F369FFCFFFCFFFFF008000400B
:1007B000FFF4FF1100380140541002400044004093
:1007C00000480040004C00400346A8E70423A6E789
:1007D0000823A4E7012901D1022128E0022901D13F
:1007E000042124E0032901D1062120E0042901D1BC
:1007F00008211CE0052901D10A2118E0062901D1B0
:100800000C2114E0072901D1102110E0082901D1A1
:1008100020210CE0092901D1402108E00A2901D159
:10082000802104E00B2901D1290200E02900FFF713
:1008300060FCA3E0786A002801D129002CE001289F
:1008400001D1022128E0022801D1042124E003285B
:1008500001D1062120E0042801D108211CE005284F
:1008600001D10A2118E0062801D10C2114E0072843
:1008700001D1102110E0082801D120210CE0092825
:1008800001D1402108E00A2801D1802104E00B2891
:1008900001D1290200E029008C48FFF72AFC6DE015
:1008A00002F0F8FA796A002901D129002CE0012927
:1008B00001D1022128E0022901D1042124E00329E9
:1008C00001D1062120E0042901D108211CE00529DD
:1008D00001D10A2118E0062901D10C2114E00729D1
:1008E00001D1102110E0082901D120210CE00929B3
:1008F00001D1402108E00A2901D1802104E00B291F
:1009000001D1290200E02900FFF7F3FB36E0786A05
:10091000002801D129002CE0012801D1022128E082
:10092000022801D1042124E0032801D1062120E07E
:10093000042801D108211CE0052801D10A2118E072
:10094000062801D10C2114E0072801D1102110E064
:10095000082801D120210CE0092801D1402108E01C
:100960000A2801D1802104E00B2801D1290200E0EE
:100970002900E803FFF7BDFB00E02E00002800D1AE
:1009800072E3796800914A005118884203D30099B4
:100990000903814201D22E0066E30198002808D0A5
:1009A00002284DD0042800D192E0082800D1D6E0DA
:1009B0001AE102F0BCFA796A002901D129002CE081
:1009C000012901D1022128E0022901D1042124E0DA
:1009D000032901D1062120E0042901D108211CE0CE
:1009E000052901D10A2118E0062901D10C2114E0C2
:1009F000072901D1102110E0082901D120210CE0A4
:100A0000092901D1402108E00A2901D1802104E00F
:100A10000B2901D1290200E029007C68FFF769FB5E
:100A20000021020E1143000202000B0060080021A9
:100A3000801859412200002302F09EFA0400D4E0FD
:100A4000786A002801D129002CE0012801D1022177
:100A500028E0022801D1042124E0032801D1062145
:100A600020E0042801D108211CE0052801D10A2139
:100A700018E0062801D10C2114E0072801D110212B
:100A800010E0082801D120210CE0092801D14021E3
:100A900008E00A2801D1802104E00B2801D12902B5
:100AA00000E029000948FFF724FB02000023100E94
:100AB0000343120200984008002180185941009A0F
:100AC000002302F059FA04008FE000BF0024F40074
:100AD00002F0E0F9796A002901D129002CE001290E
:100AE00001D1022128E0022901D1042124E00329B7
:100AF00001D1062120E0042901D108211CE00529AB
:100B000001D10A2118E0062901D10C2114E007299E
:100B100001D1102110E0082901D120210CE0092980
:100B200001D1402108E00A2901D1802104E00B29EC
:100B300001D1290200E029007C68FFF7DAFA0021E0
:100B4000020E1143000202000B0060080021801811
:100B500059412200002302F00FFA040045E0786AB0
:100B6000002801D129002CE0012801D1022128E030
:100B7000022801D1042124E0032801D1062120E02C
:100B8000042801D108211CE0052801D10A2118E020
:100B9000062801D10C2114E0072801D1102110E012
:100BA000082801D120210CE0092801D1402108E0CA
:100BB0000A2801D1802104E00B2801D1290200E09C
:100BC0002900E803FFF795FA02000023100E034303
:100BD000120200984008002180185941009A002311
:100BE00002F0CAF9040000E02E000448201804496D
:100BF000884207D23868C46036E200BF00FDFFFFBC
:100C000000FD0F002E002FE2E803F969814219462A
:100C100000D018E1002908D0022946D0042900D1CB
:100C200082E0082900D1BFE0FCE002F080F9796A97
:100C3000002901D129002CE0012901D1022128E05D
:100C4000022901D1042124E0032901D1062120E059
:100C5000042901D108211CE0052901D10A2118E04D
:100C6000062901D10C2114E0072901D1102110E03F
:100C7000082901D120210CE0092901D1402108E0F7
:100C80000A2901D1802104E00B2901D1290200E0C9
:100C900029007C68FFF72DFA400061084018210008
:100CA000FFF727FA0400A4B2BDE0786A002801D15A
:100CB00029002CE0012801D1022128E0022801D1DD
:100CC000042124E0032801D1062120E0042801D1D9
:100CD00008211CE0052801D10A2118E0062801D1CD
:100CE0000C2114E0072801D1102110E0082801D1BF
:100CF00020210CE0092801D1402108E00A2801D177
:100D0000802104E00B2801D1290200E029007C6841
:100D10009148FFF7EEF94000610840182100FFF705
:100D2000E8F90400A4B27EE002F0B4F8796A002980
:100D300001D129002CE0012901D1022128E002295A
:100D400001D1042124E0032901D1062120E0042956
:100D500001D108211CE0052901D10A2118E006294A
:100D600001D10C2114E0072901D1102110E008293C
:100D700001D120210CE0092901D1402108E00A29F4
:100D800001D1802104E00B2901D1290200E02900D2
:100D90007C68FFF7AEF94000610840182100FFF7BA
:100DA000A8F90400A4B23EE0796A002901D1290023
:100DB0002CE0012901D1022128E0022901D10421DE
:100DC00024E0032901D1062120E0042901D10821D2
:100DD0001CE0052901D10A2118E0062901D10C21C6
:100DE00014E0072901D1102110E0082901D12021A8
:100DF0000CE0092901D1402108E00A2901D1802114
:100E000004E00B2901D1C10900E029007C68FFF74B
:100E100070F94000610840182100FFF76AF90400EA
:100E2000A4B200E02E00954821001039814208D27A
:100E30002100084061084907490F01433868C16033
:100E400012E12E0010E1002908D0022945D0042922
:100E500000D183E0082900D1BFE0FBE002F067F891
:100E6000796A002901D129002CE0012901D1022150
:100E700028E0022901D1042124E0032901D106211F
:100E800020E0042901D108211CE0052901D10A2113
:100E900018E0062901D10C2114E0072901D1102105
:100EA00010E0082901D120210CE0092901D14021BD
:100EB00008E00A2901D1802104E00B2901D129028F
:100EC00000E029007C68FFF714F961084018210050
:100ED000FFF70FF90400A4B2BDE0786A002801D141
:100EE00029002CE0012801D1022128E0022801D1AB
:100EF000042124E0032801D1062120E0042801D1A7
:100F000008211CE0052801D10A2118E0062801D19A
:100F10000C2114E0072801D1102110E0082801D18C
:100F200020210CE0092801D1402108E00A2801D144
:100F3000802104E00B2801D1290200E029007C680F
:100F40000548FFF7D6F8610840182100FFF7D1F8EF
:100F50000400A4B27FE000BF0024F40001F09AFF77
:100F6000796A002901D129002CE0012901D102214F
:100F700028E0022901D1042124E0032901D106211E
:100F800020E0042901D108211CE0052901D10A2112
:100F900018E0062901D10C2114E0072901D1102104
:100FA00010E0082901D120210CE0092901D14021BC
:100FB00008E00A2901D1802104E00B2901D129028E
:100FC00000E029007C68FFF794F8610840182100D0
:100FD000FFF78FF80400A4B23DE0796A002901D13F
:100FE00029002CE0012901D1022128E0022901D1A8
:100FF000042124E0032901D1062120E0042901D1A4
:1010000008211CE0052901D10A2118E0062901D197
:101010000C2114E0072901D1102110E0082901D189
:1010200020210CE0092901D1402108E00A2901D141
:10103000802104E00B2901D1C10900E029007C686E
:10104000FFF757F8610840182100FFF752F8040035
:10105000A4B200E02E00200010380849884202D2D5
:101060003868C46000E02E003800683029004180F4
:1010700005800021416081603000FEBDF0FF00006E
:101080002821415CC90706D501684A688D4B134089
:10109000C26A1A434A602821415C890706D5016863
:1010A0004A68894B1340026B1A434A602821415C0D
:1010B000490706D501684A68844B1340426B1A43BE
:1010C0004A602821415C090706D501684A68804BBF
:1010D0001340826B1A434A602821415CC90606D539
:1010E00001688A687B4B1340C26B1A438A602821CF
:1010F000415C890606D501688A68774B1340026C0B
:101100001A438A602821415C490612D501684A6861
:10111000724B1340426C1A434A60416C8022520366
:10112000914206D101684A686D4B1340826C1A43A4
:101130004A602821415C090606D501684A68694B66
:101140001340C06C184348607047F8B505002F0085
:101150007C370024FC6001F083FF060028680068EB
:1011600000070AD560480090330022468021890399
:10117000280000F019F800280ED128680068400700
:101180000CD559480090330022468021C90328001D
:1011900000F00AF8002801D00320F2BD202078607A
:1011A000B8603C702046F2BDF8B5069E04000D0004
:1011B000684602701F002068C0692840A84201D11B
:1011C000012000E000206946097888421DD10020F6
:1011D000C0438642EFD001F043FFC01B864201D3DB
:1011E000002EE8D1206801685B4A0A40026020684E
:1011F000816801229143816020007C302021416080
:101200008160002101700320F2BD0020F2BD016861
:101210000A68C0239A430A6001688A684F4B1340EA
:101220008B60202180228150704701680A684C4BF6
:1012300013400B6001688A684A4B13408B60202181
:10124000842281500021C166704780B50100886A00
:101250000968096889060DD4002156228152016867
:101260008A6880239A438A600068016840220A43A2
:10127000026001BD01F059FF01BD80B5806A01F037
:1012800065FF01BD10B50100886A20220968096860
:10129000114013D100215E23C15201680B68394C03
:1012A0001C400C6001688B680124A3438B600168BB
:1012B0008B684024A3438B608421425001F070FF6F
:1012C00010BD0000FFFFFDFFFFFFFEFFFFFFFBFF64
:1012D000FF7FFFFFFFEFFFFFFFDFFFFFFFFFEFFFDE
:1012E000FFFF9FFFFFFFF7FFFFFFFF0180B5806A51
:1012F00001F057FF01BD70B5846A2500803528686C
:101300006E6821688968090607D5212805D1002063
:10131000562160522000FFF77AFF2068806840065F
:1013200008D5222E06D10020210056310881200048
:10133000FFF77BFFA86810210143A960200001F09E
:101340006BF970BD80B5806A0100563100220A81B8
:101350000A8001F061F901BD5FFEFFFFFFFF7FFF23
:10136000DFFEFFFFFEFFFFEF80B501680A68402344
:101370009A430A602021802281500021016701F0F8
:10138000D4FE01BDFFFEFFFF10B5A14CA1482060B7
:10139000A14860600020A060E06020610C216161D4
:1013A000A061E06120626062A0622000FEF764FF3D
:1013B000002801D001F09AFA0021200001F07DFF01
:1013C000002801D001F092FA0021200001F099FFDD
:1013D000002801D001F08AFA200001F04FFF002818
:1013E00001D001F083FA10BD80B58C488C490160B2
:1013F000E1214902416000218160C16001610C224C
:1014000042618161C161016241628162FEF700FF58
:10141000002801D001F06AFA01BDF1B586B01422AE
:101420000021684601F0DEFF06980068794988428D
:101430005FD17C49802080028A6802438A608A6882
:1014400010400590059801200A6802430A60096867
:101450000140059105990421009112210191002478
:1014600002940321039104906946A020C00501F075
:10147000C3FF6D4F6D4D3800283028603420686000
:10148000AC60EC6080262E616C61AC612020E8616C
:101490002C62280000F0D4F8002801D001F026FAD0
:1014A000069885670698A86238003C30E8653520C4
:1014B000286610206866AC66EE662C676C67AC67C1
:1014C000EC6728005C3000F0BBF8002801D001F088
:1014D0000DFA28005C300699486706988421685008
:1014E000224601211C2002F018F91C2002F019F9F3
:1014F00059E04B49884256D18021C9024948826847
:101500000A438260826811400591059902240168AE
:101510002143016001682140059105990126016878
:1015200031430160006830400590059800960194B1
:1015300000250295032003900427049769463C4840
:1015400001F05AFF2020009001940296032003909E
:1015500004976946A020C00501F04EFF33480400FF
:101560008434314961633721A1631021E16325642B
:1015700080216164A564E564256565650500B8356D
:10158000280000F05DF8002801D001F0AFF90698BE
:1015900045670698E065002231461D2002F0BDF83F
:1015A0001D2002F0BEF807B0F0BD10B504002068A1
:1015B0001849884213D11F4801681F4A0A40026037
:1015C0000421A020C00501F0CDFFA06F00F087F836
:1015D000606F00F084F81C2002F0A7F810BD1049DD
:1015E000884213D113480168144A0A40026001215D
:1015F0000F4801F0B7FF2021A020C00501F0B2FF85
:10160000606F00F06CF81D2002F08FF810BD000034
:10161000684300200044004040420F00F443002093
:1016200000480040341002400800024024410020DD
:10163000000400503C100240FFFFFDFFFFFFFBFFD6
:1016400038B5040001D1012032BD2068AD494018F1
:101650001421FEF74EFD80002064022025216054F5
:1016600020680168A84A0A40026020680168A268F0
:10167000E368134322691A4363691343A2691A4357
:10168000E3691343226A1A430A430260200000F010
:10169000D4F90025A0688021C901884200D1656085
:1016A0002079616C0860E06CA16C4860606800287B
:1016B0000AD0052808D2200000F0D4F9206D05607A
:1016C000A06D616D486002E025656565A565E5630F
:1016D00001202521605424202554284632BD70B5B0
:1016E000040001D1012070BD2068016801229143EE
:1016F00001602068834940181421FEF7FAFC80003D
:10170000206400252068056080480168012240238C
:10171000E35C1C261E40B2400A430260200000F039
:101720008CF9606C0560E06CA16C48606068002812
:1017300009D0052807D2200000F094F9206D05603B
:10174000A06D616D4860E56225636563A5632565ED
:101750006565A565E563280025216054242025548E
:10176000284670BDF3B581B0040000252F00242069
:10177000205C012801D10220FEBD01263000242179
:10178000605402202521615C012932D1009225217B
:101790006054E56320680168324691430160009A15
:1017A0000299200000F024F92068216B00290168CB
:1017B00003D00E220A43026007E004229143016035
:1017C000206801680A220A430260606C0168C9034C
:1017D00003D5016832020A430260206D002803D05D
:1017E000016832020A430260206801680E43066005
:1017F00003E029002422A1540700242025543800A6
:10180000FEBD70B4002801D1012036E02521415CE5
:10181000022906D00421C163002124228154012021
:101820002BE001680A680E239A430A60426C6E49F5
:1018300013680B401360026813680124A34313600C
:101840002246324B1C684025455D1C262E40150063
:10185000B54025431D60C36C846C6360036D002B31
:1018600005D01C6821401960816D436D59602521A8
:101870004254002124228154084670BC7047F8B5B8
:1018800000210C000A002423C25401263200C25455
:101890002522825C022A03D00421C16334002EE099
:1018A000026813680E25AB4313600268136835465F
:1018B000AB431360436C4C4A1D6815401D60134BCD
:1018C0001D68AC464025475D1C253D403700AF40B4
:1018D00065462F431F60C36C856C6B60036D002BE6
:1018E00005D01D682A401A60826D436D5A6025221A
:1018F000865424228154816B002900D0884720001F
:10190000F2BD0000F8FFFDBF0F80FFFF04000240A2
:10191000FEB55B490A680192026813681C24056CD5
:1019200025406E4635700425019EB4466E463678D5
:101930002F00B7406646374013D02B4211D01368B2
:101940009B0603D413682E46B34313604A68036CA6
:101950001C40A54015434D60016B002943D08847CA
:10196000F7BD02256E4636782F00B74066463740F1
:1019700019D02B4217D013689B0606D413680A2689
:10198000B343136001222523C2544A68036C1C40F0
:10199000A54015434D60002124228154C16A0029CD
:1019A00021D08847F7BD08256E4636782F00B7400E
:1019B0006646374017D01D4015D013680E25AB433F
:1019C000136001224B68056C2C401500A5401D4397
:1019D0004D60C26325214254002124228154416B71
:1019E000002900D08847F7BDFFFEFFFFC06B70479E
:1019F000F0B4C46C856C6C60046D002C02D0846DF6
:101A0000456D6C601F4C26680127BC464025475D2C
:101A10001C253D406746AF4037432760046863603C
:101A200003688468102C03D19A600068C16002E0EA
:101A300099600068C260F0BC704710B5040020785F
:101A400008381421FEF755FB216C032291430E4AFE
:101A5000891861640D49A16401211C220240914052
:101A6000E16410BD01798A00094BD2180265094A68
:101A700042650122491E8907890F8A4082657047A5
:101A800000000240040002400008024080080240BA
:101A9000FC08024040090240002101704170C02151
:101AA00009010D4A8150704710B50C4C2000FFF71A
:101AB000F3FF01F05BFE0A4801680A682023134324
:101AC0000B6001680A68102313430B60C0221201E7
:101AD000A11CFEF77CFC10BD04300000EC020020CD
:101AE00068430020F8B504002078AA282FD1607838
:101AF00055282CD1A078C11EC9B20091E1780A0006
:101B000015020200154322791300009EA619B6792A
:101B1000009FE7197F79662F01D1BB2E08D0662E72
:101B200004D1009EA619F679BB2E01D00220F2BD89
:101B300004280ED100290CD1012A0AD1607900288D
:101B400007D1BE48C068002803D00120F2BD0320A1
:101B5000F2BD012B0ED0022B23D0032B36D0042B49
:101B60004ED0052B5ED0062B00D180E0102B00D18B
:101B700087E05DE1052D02D10120B0490870B04D2C
:101B800000229621280001F005FFA278A11C280060
:101B900001F048FF6379012211460D2001F050FF4A
:101BA00046E1A74D00229621280001F0F3FEA2781D
:101BB000A11C280001F036FF6379022211460D2096
:101BC00001F03EFF002002F0E0FC31E1042D02D0E4
:101BD000052D00D02CE19A4D00229621280001F01D
:101BE000D9FEA278A11C280001F01CFF6379032212
:101BF00011460D2001F024FF002002F0C6FC17E181
:101C00008F4D00229621280001F0C4FEA278A11C6D
:101C1000280001F007FF6379042211460D2001F02E
:101C20000FFF05E1854E707A012802D1B07A401C81
:101C3000B0723069002804D0824802F00DFD012006
:101C4000F2BD01F00DFA30610F2D00D0F0E0A07A66
:101C50000302607A0343207A0202E0790243A0790A
:101C6000010260790143082001F0EAFEE0E0192D4D
:101C700000D0DDE000231A461146092001F0E0FE05
:101C8000D6E0042D00D0D3E06079AA284CD100BF63
:101C90006DA002F0E1FCCC206071A348017800291E
:101CA00051D0A24A0023022937D1012101701370BB
:101CB00001F0D6F96149C86003229D499D4802F0B0
:101CC000EDF96079CC2800D0A8E05C4D4021A0203F
:101CD000C00501F0BDFC002805D100BF5FA002F0E7
:101CE000BBFC0120A8704021934801F0B1FC002802
:101CF00075D192480068002871D1A87900286ED16A
:101D0000012420008E49087000F006F96C7100BFB4
:101D100059A002F0A1FC2046F2BD03701078002803
:101D2000CFD102F0DFFDCCE7A62827D1012528007E
:101D30008449087052A002F08FFCCC2060717A4870
:101D40000378002B03D1012077490870B9E7774960
:101D50000022022B0BD105700A7001F081F937497E
:101D6000C86003227249734802F098F9A9E702702B
:101D700008780028A5D102F0B5FDA2E7BB2823D141
:101D80002E4DE879012817D12D4E002296213000E2
:101D900001F000FE0420307000242000707001204B
:101DA000B0700320F07023461A4606210D2001F082
:101DB00047FEEC710120F2BD00231A4611460B20AC
:101DC00001F03EFE0120F2BDEE2800D079E70023AD
:101DD0001A4602210E2001F033FE0120F2BDE87800
:101DE000401CE870C0B2052805DD0020E87002F054
:101DF00079FD0120F2BD012002F0C7FB02F065FC75
:101E00004A480178012906D1002101700120994931
:101E1000087002F0B0FB02F058FC09E0DD2806D1A2
:101E200000231A461146052001F00AFE00E000BF1B
:101E300000200100217060700120F2BD0800002028
:101E4000D0420020D4CE00084669727374204952F3
:101E500051205369676E616C200D0A004952512070
:101E6000454E202D3E2049525120526571756573B3
:101E7000742121200D0A000021212121210D0A00B9
:101E8000466972737420495251205369676E616CC0
:101E90002053374C697465200D0A0000F8B5002402
:101EA0002000C0210901744A126852688A1A244D20
:101EB000724969180B689A422CD0934202DBC02603
:101EC000360100E026009219D21A07E0AE1C0F6816
:101ED000F75D6B4E9F550B685B1C0B6013005A1E21
:101EE000002B13D00B68C0263601B34200D30C6020
:101EF0002B18401C2E78012EE8D0AE1C0F68F75D21
:101F0000604E9F550B685B1C0B60E7E75D48281827
:101F1000FFF7E8FD2C70F1BD80B508225A495B48F7
:101F2000FEF703FA01BD0000004800200C48002025
:101F3000384200200446002000040050E047002002
:101F4000EC02002002480020F8B507000C00160043
:101F50001D00012101F0FAFC002805D0022831D033
:101F600017D303282ED053E0AA202070552060708C
:101F70000320A0700025E5700146380001F0E6FC62
:101F8000207165716620A071BB20E0710820C0B28D
:101F9000F2BDAA202070552060700420A07000259A
:101FA000E5700321380001F0D1FC207165712946EC
:101FB000380001F0CBFCA0716620E071BB202072DC
:101FC0000920E4E768460570AA202070552060705B
:101FD0000420A0700025E5700321380001F0B6FC54
:101FE000207165712946380001F0B0FCA071684687
:101FF00002783100E01D01F015FD684600782018D8
:102000006621C171BB210172684600780930BEE7C4
:102010000020F2BD70B51E4DA6482E180022811E6C
:10202000300001F0B7FCAA20307055207070A24833
:102030000478B4704178F170817831710021717148
:102040002200D21EC11C9D48281801F0EBFCE41CA4
:10205000E4B22200A8189749401866210170BB21FC
:10206000417001202870921CD2B231009448FEF7D2
:102070005CF970BDD44700202441002004300000EA
:102080000224000002180000000000206843002025
:10209000EC02002070B5060000242500401E1E281A
:1020A0005AD802A14000095A8F4400BFA600E4009C
:1020B000F200000108015C01180110012001320149
:1020C0003A014A017A018A019201A401B201820017
:1020D000BC019400C401CC01D401E801F001F80175
:1020E0003E0042015401AC000002764D71482E18AA
:1020F0002246811E300001F04DFCAA203070552090
:1021000070706D480278B2704178F17080783071EB
:1021100074716620B071BB20F07101202870521DCF
:10212000D2B231006648FEF700F9204670BD66481D
:1021300002F092FAFFF76EFF02F01DFA204670BD22
:1021400077A002F089FAFFF765FF02F014FA204643
:1021500070BD5E4802F080FA5A480121017055496D
:10216000441800235A4A21003000FFF7EDFE020018
:1021700021005348FEF7D9F8002802D070A002F0E1
:102180006BFA012D02D1002002F0FFF9002070BD92
:1021900073A002F061FA01204E49C871DCE72046C5
:1021A00002F0F3F94C4802F057FAD5E74B4802F039
:1021B00053FAD1E74A4802F04FFACDE7494802F016
:1021C0004BFAC9E7484802F047FAC5E701204749FA
:1021D000087040484470464802F03EFABCE7454863
:1021E00002F03AFAB8E7444802F036FAB4E7434856
:1021F00002F032FAB0E700BF61A002F02DFAABE7BF
:102200003F4802F029FAA7E73E4802F025FA00BF4E
:1022100063A002F021FA2F48C4602100C1718471CB
:102220000121017298E700BF61A002F015FAFFF7E3
:10223000F1FE204670BD344802F00EFA8CE700BF74
:1022400063A002F009FA012502203049087083E7F3
:1022500065A002F001FA02202C4908707CE700BF5B
:1022600068A002F0F9F977E76DA002F0F5F973E7DD
:1022700073A002F0F1F96FE779A002F0EDF96BE7D6
:10228000012014490871224802F0E6F9FFF7C2FE66
:10229000204670BD1F4802F0DFF95DE71E4802F0DE
:1022A000DBF959E71D4802F0D7F955E7FFF7B2FE11
:1022B000204670BD020C000038420020080C0000CF
:1022C00068430020EC020020DCC0000800C10008C8
:1022D0001C000020080000202CC1000858C1000884
:1022E00084C10008B0C10008DCC100080C4800200F
:1022F00004C200082CC2000850C2000874C20008C2
:10230000A0C20008C8C20008F0C2000800480020AF
:1023100018C300083CC3000860C3000888C3000855
:10232000444154415F434F4D4D414E445F575249E4
:1023300054455F464C41475F4652414D450A0000B7
:1023400048414C5F554152545F5472616E736D69E0
:10235000745F444D41206572726F72200D0A000057
:10236000444154415F434F4D4D414E445F474554B6
:102370005F4D4F44455F4652414D45200A000000E5
:10238000444154415F434F4D4D414E445F5354418E
:1023900052545F46575F55504752414445200A000A
:1023A0004B424420524541445921200D0A0000006F
:1023B000444154415F434F4D4D414E445F57524954
:1023C00054455F504147455F4652414D45200A0004
:1023D000444154415F434F4D4D414E445F474F5F31
:1023E0004652414D45200A00444154415F434F4D00
:1023F0004D414E445F41424F52545F4652414D451C
:102400000A000000444154415F434F4D4D414E444A
:102410005F45524153455F4652414D450A00000019
:10242000444154415F434F4D4D414E445F524541FD
:10243000445F53455249414C5F4652414D450A0065
:10244000444154415F434F4D4D414E445F524541DD
:10245000445F464C41475F4652414D450A000000EB
:10246000444154415F434F4D4D414E445F524541BD
:10247000445F4D435549445F4652414D450A000073
:10248000017800290CD0032913D0042950D0062943
:102490001ED0072931D0122937D0882940D0B9E081
:1024A000417800292FD1807800282CD10020C0430A
:1024B00070474178002904D18278012A01D1002097
:1024C000704700291FD1807808281CD11B20704735
:1024D0004178002907D18278012A04D1C278432AA1
:1024E00001D11420704700290DD1817801290AD12A
:1024F000C078462807D1172070474178002902D1BB
:10250000807801283BD01F20704741780029FAD1FC
:1025100081780129F7D1C0784128F4D11220704781
:1025200041780029EFD1C0781428ECD10D207047F4
:102530008178012947D1C078002820D0012820D0F7
:10254000022820D0042820D0052820D0062820D01A
:10255000112820D0122820D0132820D0152820D0D0
:10256000162820D0172820D0402820D0422820D05C
:10257000442820D0452820D0472820D021E0012021
:1025800070470220704703207047042070470820DE
:102590007047092070470A2070470B2070470C20B5
:1025A00070470E2070470F20704710207047112091
:1025B0007047132070471520704716207047182069
:1025C00070471F207047022916D1C078182801D102
:1025D00005207047122801D11C207047132801D113
:1025E0001D207047192801D1072070471A2801D1F2
:1025F000062070471F207047052909D1C078202880
:1026000001D119207047212800D07CE71A2070479B
:102610001F2070471F20704780B50A4988420BD1A0
:102620000BA002F019F808480078012801D101F048
:10263000CAFF02F0A7F901BD0449884200D100BFDA
:1026400001BD0000684300200E480020F443002034
:1026500048414C5F554152545F4572726F724361FD
:102660006C6C6261636B200D0A0000007CB502F0A7
:102670006BFA00F066F80124884D286C204328642A
:10268000286C204000900098082002F06FFA10207B
:1026900002F06CFA286861020143296002F070FAC6
:1026A00002F0F2FA02F016FBFEF79EFE02F05EFB6D
:1026B00002F0B0FB02F004FC02F0F4FCFEF764FE52
:1026C00002F04CFD8CA001F0C7FF754D280001F011
:1026D000C3FF2800243001F0BFFF280001F0BCFF39
:1026E0000025704E2800307002F03CFF6E48290033
:1026F000017041708170C17003F03BF96B48056057
:1027000028006B4908706B4908706B4908706B4969
:1027100008706B4908706B4805602800B070F57050
:1027200002F053F8284602F089F9674803F035FAB9
:10273000002804D000F0DAF801F0BCF9FCE774706E
:10274000FAE778B59FB00022382104A801F032F9E9
:1027500000221021684601F02DF90022342112A830
:1027600001F028F98024A400200003F05BFA0A207D
:102770000490F6300790002508954020099001202C
:102780000A9002260B960C960D950E200E902002B4
:102790000F9000021090C020C005119004A800F016
:1027A000C7F8002801D000F0A1F80720009001969A
:1027B000029503953146684600F0BCFA002801D026
:1027C00000F094F84148129008201490800216906E
:1027D000802000061A901E9412A803F049FA0028DF
:1027E00001D000F083F820B070BD3948006800685F
:1027F000F0210901014000D0704780B5012002F0AE
:1028000018FC01BDF8B500242600250080277F00B4
:1028100038000100A020C00500F01AFF00281ED1DA
:102820000421A020C00500F013FF012817D129487A
:1028300001F012FF012001F0C8FF2000390301E080
:1028400000BF401C8842FBDB204601F0BEFF02F0C7
:1028500049F801E000BF641CBC42FBDBF1BD11483C
:102860004078002818D0184803F0D6F92D18761CA7
:10287000200001E000BF401CB842FBDB1F2EF2DB52
:10288000002D23461A46114603DD0A2001F0D8F830
:10289000F1BD012001F0D4F8F1BD000000100240AC
:1028A000A0CC000800480020AC470020D8470020FA
:1028B0000C0000200D48002009000020100000201E
:1028C0000F480020FC470020204700204240020023
:1028D0000446002064CD000801688022D2059142A0
:1028E00000D0704780B501F0F6FE01BD80B500BF95
:1028F00006A001F0B1FE01BD0D0A0A0A0A0A0A0A81
:102900000A0A0A0A0A0A0A0A0A0000004572726FD5
:10291000725F48616E646C6572200D0A00000000F1
:1029200002480168E020C0010840704708100240DA
:10293000F8B5050000D1F0E1B04C2878C00712D5F9
:10294000A16838200840E1688907890F102801D163
:10295000032901D0082862D12068800303D5686864
:10296000002800D1D9E12878800734D5A168382023
:102970000840E1688907890F102801D1022902D097
:10298000002800D088E02168490503D5E9680029BE
:1029900000D1C2E16168BE4A0A4069690902114377
:1029A0006160002810D12068BA49014028690843B5
:1029B0002060B94801212268D20A5207520F914083
:1029C000FDF797FBB5490860B548006803F05CFA6D
:1029D000002800D0A1E1287800070CD5A068382194
:1029E0000140182900D089E0206E800703D5A8692E
:1029F000002800D191E12878400700D406E10027A3
:102A0000A06838210140202900D09CE0E06D8007BB
:102A100000D4FBE0A868002800D0F7E07DE16968F9
:102A200080204002814203D121680843206013E0E6
:102A3000A022D202914207D1216882000A4322607B
:102A400021680843206007E02068B6490140216002
:102A50002068B549014021608027BF0268680028CE
:102A60000DD000F0FDFA06002068384000D07AE76B
:102A700000F0F6FA801B6528F6D30320F2BD00F0C3
:102A8000EFFA06002068384000D16CE700F0E8FA61
:102A9000801B6528F6D3F0E7270DE868002820683A
:102AA0001CD07C4901402869084320602068A10DA2
:102AB0000143216000F0D4FA06002068384005D1B7
:102AC00000F0CEFA801B0328F7D3D6E76068704980
:102AD000014068690002084360607CE79349014057
:102AE000216000F0BDFA06002068384000D172E78E
:102AF00000F0B6FA801B0328F6D3BEE70227A869C8
:102B00000028206E0FD001210143216600F0A8FAB1
:102B10000600206E384000D06DE700F0A1FA801B5F
:102B20000328F6D3A9E701218843206600F098FA2C
:102B30000600206E384000D15DE700F091FA801B5E
:102B40000328F6D399E780204005E16B014007D1C7
:102B5000E16B0143E163E16B0840009000980127BD
:102B600073480068C00512D471480068A10D014384
:102B70006F48016000F074FA06006D480068C005F7
:102B800005D400F06DFA801B0328F6D375E7A8681A
:102B9000012804D1E06D01210143E16511E0052820
:102BA000E06D07D104210143E165E06D012101439E
:102BB000E16506E001218843E065E06D042188437A
:102BC000E065A86800280CD000F04AFA0600E06D25
:102BD000800715D400F044FA801BAA498842F6D336
:102BE0004BE700F03DFA0600E06D800708D500F0E5
:102BF00037FA801BA3498842F6D33EE70010024013
:102C0000012F03D1E06BA0490140E163E86900288E
:102C100000D184E0A16838220A40102A58D08027C9
:102C2000BF049A49022820683CD10140216000F08D
:102C300017FA06002068384005D000F011FA801B12
:102C40000328F7D319E7E06891490140286A08434F
:102C5000696A0143A86A00020843E96A0143286BD4
:102C60000843696B0143E1602068790801432160F2
:102C7000E068F9000143E16000F0F2F90500206826
:102C800038404CD100F0ECF9401B0328F7D3F4E6B0
:102C9000FF80FFFFFFC7FFFF0024F4002401002096
:102CA0001C01002001402160E06803218843E060AE
:102CB000E068A6490140E16000F0D2F90500206813
:102CC00038402CD000F0CCF9401B0328F7D3D4E6D1
:102CD000012822D0E0688107890F2A6A91421CD11D
:102CE000702101406A6A914217D1FE21C901014059
:102CF000AA6A1202914210D1F82189030140EA6ABE
:102D000091420AD1E021090501402A6B914204D188
:102D1000400F4007696B884201D00120F2BD0020BE
:102D2000F2BD0000FFFFFEFFFFFFFBFFFFFEFFFF06
:102D300000700040F8B5070065D000918448006835
:102D40004007400F884218D2814C206807218843F1
:102D500000990143216000F083F9009D060020687E
:102D60004007400FA84207D000F07AF9801B454980
:102D70008842F4D30320F2BD00953968764C0220D6
:102D800001420CD0490704D5A168E022D2010A43D0
:102D9000A260A1686F4A0A40B9681143A1603978FE
:102DA000C90732D57968012918D1206880032AD54E
:102DB000A068072290430143A16000F051F905008B
:102DC000A068382101407868C00081421DD000F021
:102DD00047F9401B2B498842F2D3CBE7022903D1A4
:102DE00020688001E4D40EE0002903D1206840056A
:102DF000DED408E0032903D1226E1040D8D102E0CE
:102E0000E26D1040D4D10120F2BD0098504909680C
:102E10004907490F884218D24D4800680721884366
:102E2000009901434A48016000F01AF9009D06002C
:102E3000474800684007400FA84206D000F010F94C
:102E4000801B10498842F3D394E73878400705D5B2
:102E5000A06842490140F8680843A06000F01AF8F1
:102E60003F49A268120A1207120F9200895CC90634
:102E7000C90EC8403B4908603B48006803F004F8AD
:102E8000F2BD000089130000FFFFFFEFFFFFFFFE10
:102E90008C80C11130B5304C3820A168014009D177
:102EA00001212068C00A4007400F81402F48FDF7EC
:102EB00020F930BDA1680140082901D12C4830BD5E
:102EC000A168014010291FD1E0688007800FE168E8
:102ED00009094907490F491C7F25032807D12448C0
:102EE000FDF707F9E168090A0D40684306E01F484D
:102EF000FDF7FFF8E168090A0D406843E168490FF2
:102F0000491CFDF7F6F830BDA1680140202902D127
:102F10008020000230BDA1680840182802D1FA20A4
:102F2000C00130BD002030BD0E480068704710B5AC
:102F3000FFF7FAFF0400FFF7F3FC0E49000B8000D7
:102F4000085CC006C00EC440200010BDFFFFFEEEAE
:102F500000200240FFF0FFFF00100240FF8FFFFF44
:102F6000E8CC0008240100201C0100200024F4000B
:102F700000127A0078CE0008124224D0994228D953
:102F800070B500251B4202D00C00002109E000248E
:102F9000012649186441944200D3A41A7641F8D31B
:102FA0003100012601E0764109D2001864416D41EB
:102FB000A41A9D41F7D2A4185D41B619F5D330008B
:102FC00022002B0070BD1B42D8D108B502F088FF4B
:102FD00008BD01D19042D3D202000B000021002095
:102FE0007047F1B401684218416848081318009806
:102FF0008068C9071ED5494640181BE01778521C47
:103000000770401C761EF9D1002C13D01678521C84
:1030100089080D40032D01D11578521C2902711821
:103020004D424119A41C05D00D78491C0570401C67
:10303000641EF9D19A420FD01178521C0325032641
:103040000E4002D11678F61C521C0C090F2CD9D157
:1030500014780F34521CD5E700980C30F2BC70473E
:1030600001480068704700BF1801002070B40BE0F1
:10307000641C04800C78C3181C71491C0388454CDF
:10308000A34201D90023038013005A1E002B08D04D
:10309000048823001D006D1CED05ED0D4688B5422A
:1030A000E6D170BC704710B40DE01C00641C448075
:1030B000C3181B790B70491C43888024A400A342C9
:1030C00001D30023438013005A1E002B03D04388F2
:1030D0000488A342E9D110BC704741880088884227
:1030E00002D28022920000E000228018401A70472D
:1030F00070B50500FFF7F1FF802801D9802403E0B7
:103100002800FFF7EAFF040000F025F800280BD0A4
:10311000812080002E18220031002800FFF7C3FF15
:103120002100300000F021F870BD1B49884200D01A
:10313000704710B5FDF7A6F9184C2000FFF7CDFF3A
:10314000002802D02000FFF7D3FF10BD12498842AB
:1031500000D100BF70471048406F2521405C012816
:1031600001D1012070470020704780B50A0092B25B
:1031700001000948FDF7D9F802BD38B5150001284E
:1031800006D1064C2000FFF771FF2000FFF7B0FFCB
:10319000280032BDFF010000F44300203439002034
:1031A00070477047FEB50700080011000026350083
:1031B0007C22BA5C012A01D10220FEBD6A4603C20C
:1031C000012420007C217854242039007C3148607F
:1031D00038680168224691430160386881685B4A1B
:1031E0000A400099114381600098002806D1684682
:1031F00003C80A000100380000F0B0F83868016820
:103200000C430460FFF72CFF03003C007C34504863
:1032100000902A468021C9033800FDF7C5FF002829
:1032200001D0032501E02020606026702800FEBD4B
:103230007C21415C012901D10220704701217C22BF
:10324000815401680A68022313430B6000217C2229
:103250008154084670477C21415C012901D102203C
:10326000704701217C22815401680A6802239A4335
:103270000A6000217C2281540846704730B47C21CA
:10328000415C012901D1022015E001007C310122BD
:103290000A7024224A600268136814680125AC434E
:1032A0001460002242662B4C1C4000680460202001
:1032B00048600A70104630BC704770B504007C202E
:1032C000205C012801D1022070BD26007C3601203F
:1032D00030702420706020680568026801239A43DA
:1032E000026020688268D200D20811438160200009
:1032F00000F048F8206805602020706000203070E1
:1033000070BD70B504007C20205C012801D1022032
:1033100070BD26007C36012030702420706020684B
:103320000568026801239A430260206882680A4B9C
:10333000134019438160200000F024F820680560E4
:10334000202070600020307070BD0000FFFFCFFFB4
:10335000FFFFFF01FFFFFFDFFFFFFFF106B4016882
:103360004A6810239A436B469B881A434A60006858
:1033700041680902090A6A46927912060A434260C4
:1033800002B07047FFB502A912A218CA18C1694657
:1033900012A218CA18C104006834416E002903D172
:1033A000012060802080FFBD00688168490E4D07C4
:1033B0006D0F8068410F6E4602AF785CC000715C93
:1033C000FCF794FE6080785DC000715DFCF78EFEB6
:1033D0002080FFBD01010103070100000804020471
:1033E0000801010110B504000800110002002000CE
:1033F00000F0D0FA200010BDFFB40A000023010045
:1034000032E0052403E0994CA142FAD10400AC401B
:10341000344300980460964C2568019EF0430540B3
:103420005668F60302D52E00019D35432560656878
:1034300005405668B60302D52E00019D35436560F0
:10344000803C256805405668F60202D52E00019D95
:1034500035432560656828405568AD0202D50500F2
:103460000198284360605B1C10680400DC4077D042
:10347000012425009D4003950540019501980028F1
:10348000F1D05068022801D0122811D1D80880004C
:103490000D18286A1E00B7001C263E400F27B740B3
:1034A000B8431769BC4637006646BE4006432E62E5
:1034B0000D68180040006E46307003203778060013
:1034C000BE40F74302973E462E40556805406F4682
:1034D0003F78BD4035430D605568012D05D0022D64
:1034E00003D0112D01D0122D11D18E68029D3540CF
:1034F000D6686F463F78BE402E438E604D68039E6F
:10350000B5435668360926409E402E434E60CE682D
:10351000029D354096686F463F78BE402E43CE6090
:103520005568ED009FD5534D9E08B600AD19009526
:103530002E681D00EF0018253D400F27AF40BE4309
:10354000A027FF05B94201D1002460E74A4FB942E4
:1035500000D15CE7494CA14200D054E7022456E771
:10356000FFBC7047F0B485B0002241E0052403E0C1
:103570003E4CA042FAD103246E463678B440A542B0
:1035800015D1039DEC433A4D2E6826402E606E689F
:1035900026406E60803D2E6826402E606E68344066
:1035A0006C60019C2468029DAC43019D2C60032447
:1035B00015006D00AC40056825430560D508AD00D9
:1035C00045192E6A0096BC461600B7001C263E40E0
:1035D0006746B740009EBE432E62E54384682C4098
:1035E000846044689C434460C3681D40C560521CAD
:1035F0000B00D34029D00124230093401D000D402F
:103600000395039D002DF2D01A4D9608B600AD1912
:1036100001952D6804951500ED0018262E406D4685
:103620002E700F273D00B5400295049E3540A02620
:10363000F605B04201D100249EE70F4EB0429BD068
:103640000E4CA04294D1022496E705B0F0BC70471E
:1036500000690840401E8041C043C00F7047002AE7
:1036600001D081617047816270470000000C0050FA
:10367000801802406018024000040050000800500A
:10368000010005D40121C006C00E81402B48016015
:103690007047010009D40121C006C00E81402848AE
:1036A0000160BFF34F8FBFF36F8F704710B4C2003C
:1036B00018231340FF249C40E2438901C9B299407A
:1036C000030008D41F489B089B00C01803681A40D9
:1036D000114301600AE01C4B0007000F0838800806
:1036E0008000181803681A401143016010BC70472D
:1036F00010B5401E80214904884201D3012010BD2D
:10370000124C606003210020C043FFF7CFFF002070
:10371000A06007202060002010BD80B5FFF7C6FF25
:1037200001BD80B5FFF7ACFF01BD80B5FFF7B1FF6C
:1037300001BD80B5FFF7DCFF02BD000000E100E045
:1037400080E100E000E400E01CED00E010E000E0BB
:10375000F0B4049C8E4D0600B700BE19AD19287058
:103760006970AA70EB702C71F0BC704780B50320B3
:1037700000900123002211460846FFF7E9FF0420CC
:10378000009001231A4600211046FFF7E1FF0420B4
:10379000009001231A4611460220FFF7D9FF0420AA
:1037A000009001231A4602210320FFF7D1FF0420D5
:1037B000009001231A460146FFF7CAFF042000903B
:1037C0000223012212211C20FFF7C2FF04200090D7
:1037D0000223012218210520FFF7BAFF04200090E0
:1037E000022301221A210620FFF7B2FF04200090D5
:1037F0000223012219210720FFF7AAFF04200090CD
:103800000223012213211D20FFF7A2FF04200090B4
:1038100001231A4605210820FFF79AFF0420009093
:1038200001231A4606210920FFF792FF0420009089
:1038300001231A4611210A20FFF78AFF0420009075
:1038400001231A4612210B20FFF782FF042000906B
:1038500001231A4613210C20FFF77AFF88200090DD
:103860000123032214210D20FFF772FF882000900E
:103870000123032215210E20FFF76AFF0420009088
:1038800001231A4616210F20FFF762FF0420009043
:1038900001231A4617211020FFF75AFF0420009039
:1038A00001231A4640211120FFF752FF12200090F9
:1038B000012302224121FFF74BFF04200090012346
:1038C0001A4642211320FFF743FF062000900123F0
:1038D000032243211420FFF73BFF05200090012322
:1038E000022244211520FFF733FF0420009001231A
:1038F0001A4645211620FFF72BFF062000900123D2
:10390000032246211720FFF723FF04200090012304
:103910001A4647211820FFF71BFF042000900523BB
:10392000012220211920FFF713FF04200090052316
:10393000012221211A20FFF70BFF0420009005230C
:10394000012222211E20FFF703FF01BD002905D01F
:1039500002290FD008D3032912D017E00C498200A6
:103960001018081840787047094982001018081884
:10397000807870470649820010180818007970474F
:103980000349820010180818C0787047FF2070475C
:10399000F03F00201206130A1A43130C1A4300BF0B
:1039A000094205D083070BD00270401C491EF9D193
:1039B000704700001206130A1A43130C1A4300BF83
:1039C0001300103906D330B41400150010393CC070
:1039D000FCD230BC490700D30CC000D504C089001C
:1039E00002D30280801C002900D5027070472E008F
:1039F00070B4103A03D378C9103A78C0FBD2530799
:103A000001D318C918C001D508C908C0D20704D30A
:103A10000B880380891C801C002A01D50B78037059
:103A200070BC70478B0701D18307E1D0124205D0EB
:103A30000B78491C0370401C521EF9D1704743009B
:103A4000F0B41A4C25681A4E2F01F61930707160C7
:103A5000B260F3606D1C2560642D01D300202060EE
:103A6000F0BC7047F0B4114C65682668AE4201D1D5
:103A7000002011E00E4E2F01F6193778077070689C
:103A80000860B0681060F06818606D1C6560642D97
:103A900001D3002060600120F0BC70470448034956
:103AA00049680901405C704700000000EC470020B5
:103AB000F4320020FEB5B24C230008332200143249
:103AC000211D20001030FFF7CDFF012800D00CE2AF
:103AD000207C401E0E2800D907E202A14000095AAE
:103AE0008F4400BF1E0032005C00CA0064027002F6
:103AF000F203A002EA038400D600060444010C018C
:103B00000004BE4800F0A8FDBD4802F03EFABD48E2
:103B100002F021FBF7BDFFF7C1FF022800D1E4E16D
:103B20000120B9490870FFF79BFAB8490860B84806
:103B300000F092FD0020B749087000F063FEF7BD69
:103B400000200100B04A1170B0490860FFF7A6FFDD
:103B5000032800D1C9E1B04800F07EFD002000F04C
:103B600034FE00F0BFFEF7BDAC480068C1694906ED
:103B7000FAD5C1690906FCD502F0BEFC72B6A848A8
:103B8000A8490968C969014081420AD0A648A749E5
:103B9000096889690140814203D00121880302F04C
:103BA000B3FC62B602F0D2FC02F0D8FCF7BD0120F3
:103BB00000F0EBFC00F089FDF7BD9D4800F04CFDE6
:103BC00001209C490870002001009B4A117060820E
:103BD00092480068C1694906FAD5C1690906FCD551
:103BE00002F0C0FC01F0E3FCC04800F035FDF7BD79
:103BF000FFF754FF0E2800D177E1C84C0125402182
:103C0000A020C005FFF724FD002802D12800207065
:103C100004E0284600F0B9FC002020702800BD49CF
:103C20000870BD480570F7BD606804280DD1B14D1E
:103C3000E978AF4800F010FD74480168002904D00D
:103C4000E978012901D1002101606068022827D1AB
:103C5000207B794C2578012801D0002D0FD0A54E6E
:103C60003778002296213000FFF794FE3770022D3E
:103C700039DB002001006F4A1170207033E0022808
:103C800031D19C4C002296212000FFF783FE0420B6
:103C90000100217000216170A0700320E07022E01B
:103CA000032820D120892080207B012808D1217879
:103CB000C90705D5207AFE2101408E48C17012E067
:103CC000022810D12078C0070DD58A4C00229621F9
:103CD0002000FFF75FFE04200100217000216170C9
:103CE000A0700320E07084480178012901D10021EF
:103CF000017082480178012910D1002101704248E9
:103D0000007800280AD17B480178032906D1417840
:103D1000002903D18078012800D1E6E000F032FBD1
:103D20007E480178012900D0DFE0002421000170E5
:103D3000084600F02AFC01E000BF641CFF2CFBDDFC
:103D4000012000F022FCF7BD002000F01EFC00F076
:103D5000BCFCF7BDA088208020780100C907C90FEE
:103D600000912088800943075B0F20884008C20625
:103D7000D20E6168C9B2624800F06EFCF7BD00BFA8
:103D8000A04700206D466068288060696880A06850
:103D9000A8800020285E02F04BFC5AA20CCA02F058
:103DA00051FC02F011FD28800220285E02F040FC48
:103DB00054A20CCA02F046FC02F006FD6880042002
:103DC000285E02F035FC4FA20CCA02F03BFC02F068
:103DD000FBFCA880684601F04DFC0500608A401C91
:103DE00060824A498D426DD0280049490880207B75
:103DF000002823D0022841D02DD34EE0E8C9000886
:103E000050470020E04600200E0000201400002053
:103E1000F8CB00080248002010CA0008F443002034
:103E20006D050000684300200C8B00000446002054
:103E300018CC0008110000201200002028003238A1
:103E4000A1282BD3280080B201F012FD0100032924
:103E500024DA207322E028001F38D12805D3280057
:103E60000A38FF215631884218D3280080B201F069
:103E7000FFFC0100032911DA20730FE028000B3842
:103E8000FF215431884209D2280080B201F0F0FCB1
:103E90000100032902DA207300E000BF207BE17BF0
:103EA00088420CD000231A4602210E20FFF7C8FDDD
:103EB0002A001220215E00BF1AA000F0CDFB207B5B
:103EC000E073F7BD1EA000F0C7FB00BFF7BD1448AC
:103ED00000F0C2FBF7BD6368A26861691EA000F034
:103EE000BBFBF7BD23A000F0B7FBF7BD2CCC00084F
:103EF0003CCC0008D04200200E4800200D000020DD
:103F000034CA000808AC1C5A643BCF3FF1D8FFFF0D
:103F1000BC0000200D480020090000200A000020FD
:103F200058CA000853656E736F725F53746174658D
:103F3000203A205B25645D5B25645D0D0A0000006E
:103F4000534C50495F434F4D4D5F4641494C203AD9
:103F5000205B25645D0D0A005B544F5543485D208E
:103F6000583D2534642C593D2534642C463D25317B
:103F7000640D0A004D53475F544D500D0A00000078
:103F800038B5FFF76DF80500FFF76AF84F4C2000D1
:103F900002F091FE202808D0FFF762F800BF401B16
:103FA0001428F4DBC74800F057FB10202168C861D3
:103FB00000BF31BDF7B51F00444EC34C2078002828
:103FC0001DD1FFF74DF86060FFF7DAFF3B00684650
:103FD00002890199300002F097FC0025656001001C
:103FE0000CD0FFF73DF86060FFF7CAFF3B00684662
:103FF00002890199300002F087FC6560FEBDFFF781
:10400000BFFF3B00684602890199300002F07CFC4A
:104010000100F3D0FFF7B4FF3B0068460289019925
:10402000300002F071FCFEBDF7B51F00274EA64C14
:10403000207800281DD1FFF713F86060FFF7A0FF7C
:104040003B00684602890199300002F01BFD002503
:10405000656001000CD0FFF703F86060FFF790FF88
:104060003B00684602890199300002F00BFD656053
:10407000FEBDFFF785FF3B006846028901993000CD
:1040800002F000FD0100F3D0FFF77AFF3B00684625
:1040900002890199300002F0F5FCFEBD70B50E00FA
:1040A0001500FFF76DFFB14C2A003100200002F02F
:1040B0009BFD002807D0FFF763FF2A003100200096
:1040C00002F092FD70BD002070BD0000044600208B
:1040D000F8B50700A54CA74200D0F1E0A44D280098
:1040E000FEF7CEF90021C943884200D1DFE02978EC
:1040F000032947D1002838D1002420009D490870A9
:104100009D4E3078012825D19C4D224696212800CD
:10411000FFF750FC04200100297021006970A8708D
:104120000220E87096480178022901D10320E87046
:10413000EA7800BF65A000F08FFA23461A460621F0
:104140000D20FFF77DFC2000C2490870347000F09C
:104150001CFAF1BDC34E34702046FDF79BFF20468C
:1041600000F013FA012030709CE01B2800D099E089
:104170000020804908701B20FDF78CFF002000F014
:1041800004FA8FE03223CA1E92B2E91C2000FFF726
:104190004BFF002801D000F05FF92800FEF770F90E
:1041A000B1490978012900D07AE005282FD1734D53
:1041B000002296212800FFF7FDFB0920287000242B
:1041C000210069700221A970E87020002871FF2089
:1041D00068712000E880287259A000F03DFAA348D9
:1041E00004602000A2490870A24804700120A2497E
:1041F000087000BF3CA000F02FFA23461A460621A3
:104200000D20FFF71DFC204600F0BFF9F1BD072887
:1042100019D15A4C002296212000FFF7CBFB052034
:104220002070A5206070A070E070207135A000F0B3
:1042300013FA00231A4606210D20FFF701FC002087
:1042400000F0A3F9F1BD06282AD14C4C002296219A
:104250002000FFF7AFFB07202070A5206070A07042
:10426000E07020716071A0712DA000F0F5F900BF21
:1042700033A000F0F1F900207C49086001007C4A7D
:1042800011707C49087001207B49087000231A4690
:1042900006210D20FFF7D4FB002000F076F9F1BDD8
:1042A000FDF7F8FE002296212800FFF783FB38680F
:1042B0000068F0210901014002D1012000F0B9FE9F
:1042C000F1BD0000D4CD0008D44700204C49445F24
:1042D000416E676C653A5B25645D204C49443A5BEE
:1042E00025645D0D0A0000005337204C6974652079
:1042F000544F5543485F46575F56455253494F4EBA
:10430000200D0A005337204C69746520424F4F54EA
:104310005F46575F4352433332200D0A00000000CE
:104320005337204C697465204745545F54435F52AE
:1043300045534F4C5554494F4E200D0A0000000084
:104340004B424420524541445921200D0A000000AF
:104350000649884200D0704780B500229621474820
:10436000FFF728FB00F007F901BD0000044600201C
:10437000384200200B00002009000020D04200201D
:10438000AC47002070B53D4C2078002801D10020BA
:1043900070BD3B49097800290AD13223032221004C
:1043A0003848FFF707FE060024D000F055F821E05A
:1043B00004280BD16078002808D1A078022805D104
:1043C000E078F02802D1642003F0FEF92D4D64233B
:1043D000032221002800FFF7EDFD060006D064232C
:1043E000032221002800FFF7E5FD0600300001D080
:1043F00000F032F820780100C91E17D1224909784F
:10440000002913D1002000F0C0F800F0B4F800201B
:104410008021890001E000BF401C8842FBDB0120B5
:1044200000F0B3F800F051F9300070BD3223C21E25
:1044300092B2E11C1348FFF7BDFD050001D000F06A
:104440000BF8002296212000FFF7B4FA00F093F851
:10445000280070BD0D48002080B50A4800F016F80D
:1044600001BD00000E48002002480020140000207A
:104470000F0000200E00002010000020D04200207D
:10448000D4470020044600200C000020F0B405248E
:104490002100026813680125AB4313602A02002340
:1044A0001D0001E000BF6D1C9542FBDB0668012585
:1044B00037682F4001D0641EF2D134682C43346039
:1044C0001C0001E000BF641C9442FBDB046824680C
:1044D0002C40002C02D1491E0029F1D100BF00BFA1
:1044E00000BF43640100413120220A7003634B7016
:1044F000F0BC704738B504003F4DAC4213D100BF4B
:1045000042A000F0A9F82800FFF7C0FF002000F04B
:104510003CF820680068F021090101400ED101201B
:1045200000F087FD31BD354DAC4207D13DA000F014
:1045300093F82800FFF7AAFF01F01BFA31BD000035
:1045400010B52D4CA04209D13CA000F085F8200008
:10455000FFF79CFF002000F018F810BD274CA04288
:1045600008D100BF2FA000F077F82000FFF78EFFE2
:1045700001F0FFF910BD80B5FFF702FD03222049CD
:104580001D4802F031FB01BD000038B5A024E40550
:104590001C4D012808D1FEF763FD28600022402150
:1045A0002000FFF75CF831BDFEF75AFD2968401A7C
:1045B00002288041C043C00F6860012240212000D2
:1045C000FFF74DF831BD10B50F4C002296212000A9
:1045D000FFF7F0F90420207000216170A070022024
:1045E000E0700B460A460D20FFF72AFA0020FFF77D
:1045F000CCFF10BD00000000044600205046002003
:1046000038420020DC470020D042002048414C5F67
:104610004932435F4572726F7243616C6C626163D1
:104620006B0A000048414C5F493243325F45727269
:104630006F7243616C6C6261636B0A0048414C5F4E
:104640004932435F41626F727443706C7443616CB2
:104650006C6261636B0A00000EB4C0B5020003A86F
:1046600001900020009001AB0121044878440C30F7
:1046700003F0BEF8029906B0084700BF9188000019
:10468000BFF34F8F9648B7490860BFF34F8F00BF05
:10469000FDE710B40B004B4301685C00E418A14334
:1046A00053430B43036010BC7047AF490870704719
:1046B000AE4909680128C86803D101220243CA60D3
:1046C000704701229043C8607047A94800210A0042
:1046D000C27101607047A549884200D0704770B52B
:1046E00004F014F9A3480188491C0180A24DFC2064
:1046F00040002C18207A01280AD16068401C6060B4
:104700009E49884204D3E07A002801D10220E07259
:10471000962040002E18607A002829D1002000F051
:104720008DF9974801F078FA31886854308871889B
:104730000200AA5C89187180401C308080B29622E9
:104740005200904240D30025090402D02800607234
:104750000CE0012000F072F9280020800120607236
:104760002B461A4611460220FFF76AF9356070BDE4
:1047700080214900B048FEF76BFF98214900691875
:1047800022888854228870881300C95C4018708081
:10479000521C228092B2C82A16D30025000405D0EC
:1047A000280030800120FFF780FF0AE02846FFF74D
:1047B0007CFF022060722B461A4611460320FFF749
:1047C0003FF928002080758070BD70B50500A026D7
:1047D000F6058024640021003000FEF739FF01282F
:1047E00002D1280001280CD0012D05D10122210081
:1047F0003000FEF734FF70BD002221003000FEF7CC
:104800002EFF70BD38B50020FFF752FFB64C206870
:1048100001682022914301602068016810229143C1
:1048200001602000FBF72EFE2000FBF761FDC02099
:104830000001AE49086000BFB6A0FFF70DFF0120E0
:10484000FFF7C3FFFEF70CFC0400FEF709FCFEF7C0
:1048500007FC0500802149007748FEF7F9FE012892
:1048600008D000BF281BFA2149008842EFDB00F086
:1048700039F802E0322002F0A7FF00F0F9FA012037
:104880009B4908709B4C200004F0A6F800F0FCF94E
:10489000FCF77AFDFDF708F9974D002296212800D4
:1048A000FFF778F8032229002000FFF7F7FB002824
:1048B00003D000BF9EA0FFF7CFFE0120FFF7F8FE58
:1048C00031BD00008D480068C1694906FAD5C1694B
:1048D0000906FCD500BF00BF00BFFFF7D1FE00BF37
:1048E0000400FA0510B540215348FEF7B1FE002838
:1048F0002CD17F480078012828D1814C00229621B4
:104900002000FFF747F80420207000216170A0709C
:104910000220E070FFF736FD0020FFF736FE002092
:10492000FFF753FF734801F0CFFF6F4C2000FBF7F8
:10493000A9FD206801682022914301602068016878
:104940001022914301602000FBF7D2FCFFF7BAFF71
:1049500000208021490201E000BF401C8842FBDBAF
:1049600010BD00000CED00E0E83F0020E046002014
:10497000E43F0020C6470020E83D0020400D030032
:1049800020470020F8B50421A020C005FEF760FEF6
:104990000400584F380002F08EF9220001005948F7
:1049A000FFF75AFE58480078012801D1FFF79AFF17
:1049B0000020FFF77DFE1024E4432025ED434A4EFE
:1049C0005248007802280ED13000FBF75BFD3068BA
:1049D00001680D400560306801680C4004603000DB
:1049E000FBF786FC23E03000FBF74CFD30680168E4
:1049F0000D400560306801680C4004603000FBF732
:104A000077FC0020FFF7C1FDC02000013749086096
:104A100000F03AF9FCF7B8FCFDF746F83868006892
:104A2000F0210901014002D1012000F002FB012028
:104A3000FFF73EFEF1BD00000004005030B585B028
:104A40000400002214216846FEF7B4FF200021D1A3
:104A5000042000900020019002906946A020C0052B
:104A6000FEF7CAFC2A4C80256D0001222900200097
:104A7000FFF70FFE012229002000FEF7F0FD0122C2
:104A800020212000FFF705FE002220212000FEF754
:104A9000E6FD26E0012C24D1042000901220019094
:104AA000002002900321039104906946A020C005D4
:104AB000FEF7A2FC164C80256D0000222900200084
:104AC000FEF7CDFD002229002000FFF7E2FD0122C4
:104AD00020212000FFF7DDFD002220212000FEF72D
:104AE000BEFD05B030BD0000684300203400024028
:104AF000034800200446002038420020F4430020F0
:104B0000D042002004CE00080E000020E93F002023
:104B1000000400500A315769726520506F77657242
:104B20004F6E202D3E205374617274200D0A0000D8
:104B30004669727374204932432053746172742041
:104B40004572726F72200A0010B500240A4801688D
:104B5000820D0A430260204601F096F9002801D038
:104B6000012401E003F064FF200010BD03490A683E
:104B70001043086070470000002002400000014020
:104B8000F8B586B0142200216846FEF72BFC0124FC
:104B9000374801682143016001682140059105996A
:104BA0000227016839430160016839400591059980
:104BB000042601683143016001683140059105997F
:104BC000202102680A4302600068014005910598AF
:104BD00022462849A020C005FEF741FD224620219B
:104BE0002548FEF73CFD2502002229002248FEF759
:104BF00036FD00222900A020C005FEF730FD1F4829
:104C0000009001940025029503956946A020C005F7
:104C1000FEF7F2FB9020400000900194029503956E
:104C200069461548FEF7E8FBC02000020090032407
:104C30000194029569461248FEF7DEFB13200090AE
:104C4000019402956946A020C005FEF7D5FB0097A8
:104C50000194029569460848FEF7CEFB0096019440
:104C6000029569460748FEF7C7FB07B0F0BD00BFD5
:104C700034100240408000000004005040810000D9
:104C8000000800500014005080B5012010490A6847
:104C900002430A6009680840009000980022012140
:104CA0000920FEF73AFD0920FEF73BFD0022012115
:104CB0000A20FEF732FD0A20FEF733FD0022012113
:104CC0000B20FEF72AFD0B20FEF72BFD01BD00BFD8
:104CD0003810024080B5224822490160490D016127
:104CE00000214161C161816081610162C1604160F7
:104CF000416200F075FE002801D0FDF7F7FD01BD0F
:104D000038B586B004001422002101A8FEF76AFB22
:104D100020681449884220D1012013490A680243BF
:104D20000A6009680840009000980820019003205C
:104D3000029000240394A025ED0501A92800FEF7A8
:104D40005BFB8020019002200290039404940720D2
:104D5000059001A92800FEF74FFB07B030BD000009
:104D600020470020040201403410024030B587B0D3
:104D70001022002103A8FEF735FB0C220021684613
:104D8000FEF730FB214C8020C005206006206060CB
:104D90000025A560C720E0602561A561200001F025
:104DA000BFF9002801D0FDF7A1FD8020400103904C
:104DB00003A9200001F0A2FA002801D0FDF796FD1A
:104DC000009502956946200003F04AFE002801D0B4
:104DD000FDF78CFD07B030BD00688021C905884211
:104DE00000D0704780B5012009490A6802430A6073
:104DF0000968084000900098002201210F20FEF76A
:104E00008CFC0F20FEF78DFC01BD0000E046002069
:104E10003C10024080B513481349016000210A008C
:104E20000271012242710022D2430261416181611B
:104E30000321016203F042FE002801D0FDF756FD78
:104E400001BD81B000680849884208D1880C074933
:104E50000A6802430A60096808400090009801B09F
:104E6000704700007C4700200030024038100240AC
:104E700010B5804C80482060804860605420A0605D
:104E80000120E060002020616061A061E06120629B
:104E9000200001F0C3FC002801D0FDF727FD002110
:104EA000200003F045FD002801D0FDF71FFD05217E
:104EB000200003F068FD002801D0FDF717FD10BDAC
:104EC00010B56F4C6F4820606F4860605420A06040
:104ED0000120E060002020616061A061E06120624B
:104EE000200001F09BFC002801D0FDF7FFFC002111
:104EF000200003F01DFD002801D0FDF7F7FC05217F
:104F0000200003F040FD002801D0FDF7EFFC10BDAC
:104F100010B586B00400142200216846FEF762FA3C
:104F200020685549884228D10220584C2168014305
:104F300021602168084005900598C020009012204B
:104F400001900120029003200390062004906946FE
:104F50004F48FEF751FA80208003A1680143A16009
:104F6000A168084005900598002201211720FEF74E
:104F7000D4FB1720FEF7D5FB2BE04249884228D10D
:104F80000120424C216801432160216801400591C4
:104F90000599C0214901009112210191029003203D
:104FA0000390062004906946A020C005FEF724FA6D
:104FB0008020C003A1680143A160A168084005905A
:104FC0000598002201211820FEF7A7FB1820FEF704
:104FD000A8FB06B010BD10B500682749884211D162
:104FE0002C4801682C4A0A400260294C802120008C
:104FF000FEF7B8FA40212000FEF7B4FA1720FEF7BA
:1050000094FB10BD1F49884212D122480168234AEF
:105010000A400260A024E405810C2000FEF7A2FAF9
:10502000802109012000FEF79DFA1820FEF77DFB84
:1050300010BD10B40F490A6813680124A34313601C
:1050400000BF00BF00BF0A681368154C1C40146005
:10505000002805D008680268A023DB001343036022
:105060000868016801220A43026000BF00BF00BF58
:1050700010BC704704460020005400401501100089
:1050800050460020005800401B0B102034100240F6
:10509000000400503C100240FFFFDFFFFFFFBFFF96
:1050A000FFF0FFFF10B5284C284820600020A060CA
:1050B0007F21E160FF2121616061A061E0618021C9
:1050C000C90521626062200000F00CFF002801D0B9
:1050D000FDF70CFC0022C821200003F02FFD002862
:1050E00001D0FDF703FC10BD00681849884200D0CC
:1050F000704780B51648016A802212020A43026294
:10510000010D02680A4302600068014000910098A6
:10511000002211460220FEF700FB0220FEF701FBF1
:1051200001BD00680949884200D0704780B5084831
:10513000016A084A0A4002620168074A0A4002609E
:105140000220FEF7F2FA01BD50470020002800407F
:105150003C100240FF7FFFFFFFFBFFFF30B589B02F
:105160001822002103A8FEF73DF90C220021684611
:10517000FEF738F9354C364820608020C005606065
:105180001020A0600025E5602561042060612900F1
:105190002183A1760121E16129002022A1546562C9
:1051A000A5622C22A15425636063A56328003C21DD
:1051B0006054E564200003F0EBFD002801D0FDF70A
:1051C00095FBC0200004049003A9200004F046F8D9
:1051D000002801D0FDF78AFB1E480090019502953A
:1051E0006946200003F00EFF002801D0FDF77EFB8A
:1051F00009B030BD10B586B004001422002101A80A
:10520000FEF7F0F82068124988421CD1124880212C
:105210004903C2680A43C260C26811400091009904
:10522000012102680A430260006801400091009871
:1052300008200190032002900020039001A9A020E3
:10524000C005FEF7D9F806B010BD000000450020EB
:10525000002401400800000C34100240F8B596B05C
:1052600001210A006B461A72C20F02D00022D243FB
:105270001A72C30D7F3B5BB24202520ACC05144343
:1052800017251E00AD1BEC400394002801D100201F
:1052900066E1002B40D41900491C8A401002000A24
:1052A000C8400EA980221203024016241D00641B70
:1052B000E2400A708022D20202401524641BE240C0
:1052C0004A708022920202401424641BE2408A70D9
:1052D0008022520202401324641BE240CA708022E2
:1052E000120202401224641BE2400A718022D201A1
:1052F00002401124641BE2404A7180229201024064
:105300001024641BE2408A718022520110400F2257
:10531000D21AD040C8713AE039D55842C0B20025FF
:105320002C001E2801DBAE481AE12E000EAB2F0028
:1053300002E034009F55761C8642FADBE4B2900D01
:105340000D00054018194570500D0D000540181945
:105350008570100D0D0005401819C570D00C0D009A
:10536000054018190571900C0D000540181945717C
:10537000500C0D000540181985711000000C0D002F
:1053800005401819C571D00B01401819017200228F
:10539000AD4B10468021C90504F0C6F86A4603C229
:1053A0000022C0231B061046594204F0BDF80CAA87
:1053B00003C20022A54B10468021C90504F0B4F8B1
:1053C0000AAA03C20022A24B10468021C90504F09C
:1053D000ABF808AA03C200229E4B10468021C905E3
:1053E00004F0A2F806000F0000229B4B104680211B
:1053F000C90504F099F806AA03C20022974B10468B
:105400008021C90504F090F804AA03C20EAC2078EC
:1054100001F0FEF802000B00684603C801F012F923
:1054200000900191607801F0F3F802000B000CA8E5
:1054300003C801F007F902000B000098019904F07D
:105440001BFC00900191A07801F0E2F802000B0033
:105450000AA803C801F0F6F802000B0000980199B1
:1054600004F00AFC00900191E07801F0D1F802000C
:105470000B0008A803C801F0E5F802000B00009833
:10548000019904F0F9FB00900191207901F0C0F836
:1054900002000B003000390001F0D4F802000B00CC
:1054A0000098019904F0E8FB06000F00607901F014
:1054B000AFF802000B0006A803C801F0C3F8020011
:1054C0000B003000390004F0D7FB06000F00A07974
:1054D00001F09EF802000B0004A803C801F0B2F826
:1054E00002000B003000390004F0C6FB06000F007C
:1054F000E07901F08DF804000D000022584B1046B1
:105500008021C90504F010F802000B0020002900DA
:1055100001F098F802000B003000390004F0ACFBF9
:1055200004F084FC050069460820085604F0C0FC1D
:1055300001000C00039804F0ABFC290004F0C3FC4C
:10554000210004F050FD04F0A7FD46A20CCA04F0AF
:10555000BCFD0022464B01F075F801F035F900B2B0
:1055600017B0F0BD70B50026404C300060800120BF
:1055700001002170607032460C21201DFEF71AFADE
:105580002000183005F06CFC304604F0FFFD60612F
:1055900004F006FEB34D2900606905F001FC2E7091
:1055A000B148E8602900606905F003FC70BD38B5BA
:1055B00000252E4C280060800120010021706070C1
:1055C0002A460C21201DFEF7F5F9606904F0E8FD7C
:1055D000A4490D70A448C860606905F0EAFB31BDBC
:1055E000F1D8FFFFF7B500263500A04F13460A4655
:1055F0000099380001F046FA002823D03800FEF761
:1056000045FF30008024640001E000BF401CA04240
:10561000FBDB029B684682880099380001F032FA71
:1056200000280FD03800FEF731FF01E000BF761CE4
:10563000A642FBDB029B684682880099380001F095
:1056400021FA05002800FEBD0000F0BF000008C0E0
:10565000000010C0000014C0000018C000001CC0F2
:10566000000020C005A3923A019D2340AC00002019
:1056700000408F40F1B592B0B34E684606800024DA
:1056800022460C2101A8FEF795F92246062104A81E
:10569000FEF790F922460F210EA8FEF78BF922465D
:1056A0000F210AA8FEF786F922460F2106A8FEF769
:1056B00081F900F055F90EAD0A2204210EA8FFF77A
:1056C00091FF002801D0012409E02878012805D1A4
:1056D0006878032802D1A878002800D0022428780E
:1056E000012809D16878112806D1A878002803D1AB
:1056F000FC20204004001DE00A2204210AA8FFF734
:1057000071FF002804D0F72020400424044311E056
:105710000AA80178012909D14178112906D1807898
:10572000002803D1F3202040040003E0FB202040A8
:10573000082404430A220F2106A8FFF753FF00287C
:1057400004D0DF2020401025054310E006A8017892
:10575000022908D14178502905D18078012802D149
:10576000CF25254003E0EF2020402025054300F011
:1057700000F9764C002D5FD106A88179090642799F
:1057800012040A43017909021143C2780A430192C3
:10579000817A0906427A12040A43017A0902114306
:1057A000C2790A430292817B0906427B12040A43B2
:1057B000017B09021143C07A0843039004AE0198AB
:1057C000FFF74CFD3080029F3800FFF747FD7080E7
:1057D000039D2800FFF742FDB080129E207800282C
:1057E00017D16078012814D160680199884209D1E5
:1057F000A068B84206D1E068A84203D16846218A71
:10580000018006E06A46310004A800F045F8002057
:10581000607020786178014304D16A46310004A8A1
:1058200000F03AF86078012817D101986060A7600D
:10583000E5600020207010E068460680608801283E
:1058400000DDFEE780210901A020C005FDF700FF73
:10585000002802D10548FEF719FE009800B213B0E7
:10586000F0BD00009C460020CDCCCC3C5046002032
:10587000010064200A00333A9F2A01D200207047B9
:105880000A001E3AD32A06D301200A39FF225632D3
:10589000914200D302207047F6B58BB005000E0090
:1058A0002B4C2C4F0020305E04F002FB390005F039
:1058B000E7FA20600220305E04F0FAFA0100264880
:1058C00004F091FB390005F0DBFA60600420305EE3
:1058D00004F0EEFA204904F086FB390005F0D0FA16
:1058E000A0600220285E04F0E3FA390005F0C8FA4F
:1058F000A0610020285E04F0DBFA390005F0C0FA50
:10590000E0610420285E04F0D3FA390005F0B8FA0B
:10591000206212482063210082B068463422FEF7DC
:1059200067F80CBC210038310848406904F066FC77
:1059300034216054A06B05F0F9FA0C9908803420EA
:10594000205C0DB0F0BD0000F1D8FFFFAC000020DE
:10595000D800002000007A44000080BFCDCC4C3E2F
:1059600080B5002280210902A020C005FDF777FE46
:1059700001BD80B50122D103A020C005FDF76FFE57
:1059800001BDFEE798490A681043086070479649D0
:105990000A6882430A60704794490A6810430860A5
:1059A000704792490A6882430A60704790490A68C2
:1059B0001043086070478E490A6882430A60704746
:1059C0008C490A681043086070478A490A68824314
:1059D0000A607047884908607047884908607047C6
:1059E000FEB504000020019001006A461170002CF1
:1059F00003D021680968002903D501206946087091
:105A0000C8E02921615C002906D101002822A154A7
:105A1000E0622000FFF774F922683020116801402D
:105A20001368774D1D4063692B4325691D43236A25
:105A30002B43A5691D43E3692B43E5681D431560AE
:105A40006668704B704DDA43964206D12E6833403B
:105A50002B606B681A436A600FE0C701BE4206D133
:105A60002E6832432A606A6813406B6005E02A683A
:105A70001A402A606A6813406B60A268012A1AD033
:105A80008023DB019A4204D0A023DB019A4208D094
:105A90001AE02A6813432B606A685C4B13406B6002
:105AA00019E02A68594B13402B606A688023DB0198
:105AB00013436B600FE08022D2012B6813432B60ED
:105AC0006B681A436A6006E0504A2B6813402B60EB
:105AD0006B681A406A6022681268104011D0002971
